:020000040800F2
:100000007C0A0020D1040008910100089901000831
:10001000A1010008A9010008B10100088901000838
:10002000890100088901000889010008B901000858
:10003000C101000889010008C9010008D1010008B8
:10004000D9010008E1010008E9010008F1010008F8
:10005000F901000801020008090200081102000865
:1000600019020008210200082902000831020008D4
:100070003902000841020008490200085102000844
:1000800059020008610200086902000871020008B4
:100090007902000881020008890200089102000824
:1000A00099020008A1020008A9020008B102000894
:1000B000B9020008C1020008C9020008D102000804
:1000C000D9020008E1020008E9020008F102000874
:1000D000F9020008010300080903000811030008E1
:1000E0001903000821030008290300083103000850
:1000F00039030008410300084903000851030008C0
:10010000590300086103000869030008710300082F
:10011000790300088103000889030008910300089F
:1001200099030008A1030008A9030008B10300080F
:10013000B9030008C1030008C9030008D10300087F
:10014000D9030008E1030008E9030008F1030008EF
:10015000F90300080104000809040008110400085C
:1001600019040008210400082904000831040008CB
:10017000390400084104000849040008510400083B
:1001800059040008610400084FF0000000F06CB949
:100190004FF0020000F068B94FF0030000F064B9BE
:1001A0004FF0040000F060B94FF0050000F05CB9BA
:1001B0004FF0060000F058B94FF00B0000F054B9B2
:1001C0004FF00C0000F050B94FF00E0000F04CB9A9
:1001D0004FF00F0000F048B94FF0100000F044B9A4
:1001E0004FF0110000F040B94FF0120000F03CB9A0
:1001F0004FF0130000F038B94FF0140000F034B99C
:100200004FF0150000F030B94FF0160000F02CB997
:100210004FF0170000F028B94FF0180000F024B993
:100220004FF0190000F020B94FF01A0000F01CB98F
:100230004FF01B0000F018B94FF01C0000F014B98B
:100240004FF01D0000F010B94FF01E0000F00CB987
:100250004FF01F0000F008B94FF0200000F004B983
:100260004FF0210000F000B94FF0220000F0FCB880
:100270004FF0230000F0F8B84FF0240000F0F4B87D
:100280004FF0250000F0F0B84FF0260000F0ECB879
:100290004FF0270000F0E8B84FF0280000F0E4B875
:1002A0004FF0290000F0E0B84FF02A0000F0DCB871
:1002B0004FF02B0000F0D8B84FF02C0000F0D4B86D
:1002C0004FF02D0000F0D0B84FF02E0000F0CCB869
:1002D0004FF02F0000F0C8B84FF0300000F0C4B865
:1002E0004FF0310000F0C0B84FF0320000F0BCB861
:1002F0004FF0330000F0B8B84FF0340000F0B4B85D
:100300004FF0350000F0B0B84FF0360000F0ACB858
:100310004FF0370000F0A8B84FF0380000F0A4B854
:100320004FF0390000F0A0B84FF03A0000F09CB850
:100330004FF03B0000F098B84FF03C0000F094B84C
:100340004FF03D0000F090B84FF03E0000F08CB848
:100350004FF03F0000F088B84FF0400000F084B844
:100360004FF0410000F080B84FF0420000F07CB840
:100370004FF0430000F078B84FF0440000F074B83C
:100380004FF0450000F070B84FF0460000F06CB838
:100390004FF0470000F068B84FF0480000F064B834
:1003A0004FF0490000F060B84FF04A0000F05CB830
:1003B0004FF04B0000F058B84FF04C0000F054B82C
:1003C0004FF04D0000F050B84FF04E0000F04CB828
:1003D0004FF04F0000F048B84FF0500000F044B824
:1003E0004FF0510000F040B84FF0520000F03CB820
:1003F0004FF0530000F038B84FF0540000F034B81C
:100400004FF0550000F030B84FF0560000F02CB817
:100410004FF0570000F028B84FF0580000F024B813
:100420004FF0590000F020B84FF05A0000F01CB80F
:100430004FF05B0000F018B84FF05C0000F014B80B
:100440004FF05D0000F010B84FF05E0000F00CB807
:100450004FF05F0000F008B84FF0600000F004B803
:100460004FF0610000F000B81EF0040F02D0EFF36F
:1004700009818D466A4602F12002EFF310832DE9CF
:10048000FC4F72B6694600F0A3FA6946884209D06B
:1004900000F12C0191E8F00F016821E9F00F90E8DC
:1004A000FC4F01E0B1E8FC4FEFF314821EF0040FA3
:1004B00004D042F0010281F3098803E022F0010236
:1004C00081F3088882F3148883F310887047000052
:1004D00008B500F027F800F0A9F900F0B5F80C4ACB
:1004E0000C4B9A424FF0000302D242F8043BF7E76C
:1004F000094A0A499818884204D20949595899501A
:100500000433F5E700F0CCF900F017FD00F082FDB0
:1005100004000020800600200000002004000020CD
:100520002C82000813B53B4A3B4C136843F001038F
:1005300013603A4B00201860116821F0847121F09B
:100540000111116036490C60146824F48024146091
:10055000344C2060106840F480301060324A0192C0
:100560000846019A002A07DD2A4A1268940303D438
:10057000019A013A0192F4E7019A002A2B4A16DC0B
:100580002B490B686FEA53236FEA43230B60294B17
:1005900019681960136843F0805343F40033136003
:1005A000254B1A6842F480421A6002B010BD1168EF
:1005B00041F08051116021490C6844F480440C6082
:1005C000196821F0F0011960196821F4604141F4C3
:1005D00000411960196821F4E05141F4A0511960FB
:1005E000174901600B49086840F08070086008688E
:1005F0008001FCD5134940F205600860196821F0BC
:10060000030141F002011960196801F00C01082989
:10061000FAD1B5E700380240103000240838024013
:10062000043802400C38024014821900403802405D
:1006300030380240343802404438024000700040F4
:1006400008544007003C02407047C0F30313082BD6
:100650000AD8064A00F00F0052F82320012301B9FE
:10066000103003FA00F09061704700BF747A000800
:100670002DE9F84FC0F30316082E00F2A880564B60
:1006800000F44022B2F5002F53F8263000F00F019D
:1006900009D0B2F5402F08D0B2F5802ADAF1000275
:1006A00052EB0A0202E0022200E00322EFF310887C
:1006B00072B603274C001D68A740FF433D4002FA75
:1006C00004FC4CEA0505032A1D600CD000F44035FB
:1006D000B5F5803F05D0B5F5003F0CBF02250025DC
:1006E00002E0012500E00025D3F80CC0022A0CEA44
:1006F000070C05FA04F545EA0C050CBFC0F30339F5
:100700004FF000090729DD608BBF24252025A1F1CA
:10071000080C8C464FEA8C0C55F803B04FF00F0ACA
:100720000AFA0CFA2BEA0A0A09FA0CF94AEA090C45
:1007300045F803C002F1FF3CBCF1010F12D800F4F0
:100740004065B5F5006F09D0B5F5406F08D0B5F537
:100750008069D9F1000555EB090504E0022502E0A6
:10076000032500E00025D3F8089005FA04F409EA0F
:1007700007073C4301259C60AC455C6805FA01F124
:1007800003D8850501D5214301E024EA0101012AAE
:10079000596004D1C0F30021FFF757FF10E0C305F3
:1007A0000ED500F00C020D4B00F003008000D45871
:1007B0000F21814024EA0101864041EA0600D05021
:1007C00018F0010F00D162B60020BDE8F88F6FF07D
:1007D0001500BDE8F88F00BF747A000808380140A2
:1007E000C0B2FFF745BFC0F30313082B0DD8084A6A
:1007F00052F8233000F00F001B69012202FA00F0CA
:1008000003420CBF0020012070470020704700BF4A
:10081000747A0008034B1B681B06FBD5024B18605B
:10082000704700BF004400400444004008B5002168
:100830004FF40032144800F0BDF81448FFF718FFD9
:100840001348FFF715FF134B13491A6822F47D5222
:100850001A6053F8042C22F4BB5222F01C0243F815
:10086000042C0A6822F4E06222F001020A600B4ABA
:1008700040F26D11116053F8042C42F4005242F022
:100880000C0243F8042C08BD40380240027C0900E9
:10089000037C090010440040144400400844004018
:1008A00010B50C4B9A69D9698A4203D0002002F82E
:1008B000010BF9E71A69D868596913468B4204D0CD
:1008C000841AE45C03F8014BF8E7BDE8104000F03F
:1008D0002BB800BF0000020870B50C46054600F0BA
:1008E00091F80D4B186025F01F0318430B4B18604F
:1008F000204600F08FF8064632462846214600F092
:10090000A1F8074BC0B243EA0020013E054B40EA84
:1009100046061E6070BD00BF98ED00E09CED00E053
:1009200001000603A0ED00E02DE9F0411A4B9A69A1
:10093000186959695C689D68904234BF804690464A
:10094000DA6991422CBF0F46174600F05BF8134A54
:10095000106024F01F0240EA0203114A2D1B1360AD
:10096000284600F057F8064632462946204600F051
:1009700069F80C4BC0B243EA0020013E0A4B40EA42
:1009800046061E604046C8EB0701FFF7A5FF074B70
:1009900005221A60BDE8F0810000020898ED00E031
:1009A0009CED00E001000206A0ED00E094ED00E007
:1009B000FFF792BF10B5EFF3108372B6046824EA14
:1009C00001011143016013F0010F00D162B610BDA7
:1009D000F8B50B4C064604200D4600F00BFB3046E4
:1009E0002768256000F0F8F82946304600F00AFC38
:1009F00025682760042000F005FB2846F8BD00BFED
:100A000064020020024B1878421C1A70704700BF25
:100A1000040000200523012199408842DAB203D95D
:100A20000133202BF7D11A461046704710B5044603
:100A3000FFF7F0FF042804D9C44004BF00F1FF30E1
:100A4000C0B210BD072AF0B51FD901239340013B66
:100A500003EA00061F2A94BFDC106FF060443144A3
:100A60001F2A2144A2F1030521EA040494BFDB10EC
:100A70006FF06043EC4026EA0303054F23FA05F5C7
:100A8000385D2F447B7A1843F0BD0020F0BD00BFD5
:100A9000987A00080F2810B51ADD2F2806DC03F11C
:100AA000604303F561430B6010380CE04F2804DC11
:100AB000154C1C440C60303805E0612821DC134CD7
:100AC0001C440C605038012303FA00F010600BE066
:100AD0000F4B0B60042802D14FF4803303E005284C
:100AE00004D14FF400331360002010BD062802D15A
:100AF0004FF48023F7E70F2803D1064B0B60012347
:100B0000F1E74FF0FF3010BD04E100E008E100E044
:100B100024ED00E010E000E013B58023694601AA4F
:100B20000446FFF7B7FF38B9009B019A0F2CDCBFD2
:100B3000196821EA02021A6002B010BD13B5002341
:100B4000694601AA0446FFF7A5FF30B9009B019A48
:100B50000F2CDCBF19680A431A6002B010BD10B533
:100B6000174A0023136053604FF08033C2F8183CDB
:100B7000C2F81C3CC2F8203C124B1B680133DB005E
:100B800002F5407213F1FF3304D34FF0803142F885
:100B9000041BF7E70C4B0D4900240B201C6000F0F0
:100BA00015FB0B49032000F011FB0A49042000F05B
:100BB0000DFB0420FFF7C2FF84F3118862B610BD5D
:100BC00000E100E004E000E064020020650C0008A1
:100BD000F10B0008DD0B0008704700BF08B5EFF30C
:100BE000108372B60148802100F0BEF8AA7A00088E
:100BF00038B54A6C0E4C931EA34202D30D4CA3424F
:100C000006D30D4C6568AB420BD3A468A34208D24F
:100C100032F8023CB3F55F4F03D1BDE8384000F035
:100C200021B8EFF3108372B60448B72100F09CF8A6
:100C3000000000082482000800000208C07A0008B2
:100C400084B0009401950296CDF80CE0DFF814C151
:100C50005CF820C0E047DDF80CE004B002464FF03D
:100C6000030000DF10B5CB6A0C46072B5BD8DFE82A
:100C700003F004090B1324313C50086B4C2201F0A3
:100C8000B8FD67E00A6B04E04C22086B01F0B1FD8F
:100C9000626B314B1A605DE000F054FB90F88030DD
:100CA000013B00EBC302D2F888106164D2F88420C3
:100CB000A26280F88030636B4BE0284B1B6A4B6468
:100CC0006FF002038B620B6BCB624B6B0B638B6B16
:100CD0004B633FE0214B5B6A4B646FF002038B6216
:100CE0000B6BCB624B6B0B6334E000F02BFB636C44
:100CF000C3671A4B9B6A63646FF00203A362236BA2
:100D0000E362636B2363A36B636323685B68A36322
:100D100020E000F017FBC36F63646FF00603A3626B
:100D20000023C36716E000F00DFB90F88030616C83
:100D300000EBC3020133C2F88810A16AC2F8841024
:100D400080F88030064B63646FF00603A362E36AA9
:100D5000083BE362002010BD64020020000002088E
:100D6000410C0008987D000880B588B004460D4607
:100D70000620564F00F03EF92346554A00950320C1
:100D800054496C4601F002FD3B68B3F90C202AB9C6
:100D9000514B1D684FF48066043D01E01D6B9E6A57
:100DA0004E494F4A2346032001F0F0FC4D494C4A7E
:100DB0002B46032001F0EAFC03204B49484A334606
:100DC00001F0E4FCAC4202D8AE1BB44205D847495E
:100DD000434A032001F0DAFC1BE024F01F04AC427C
:100DE00017D22368009363680193A3680293E368B2
:100DF00003932369049363690593A3690693E369E5
:100E00000793032023463A493A4A01F0BFFC2034B5
:100E1000E5E7394C2268002A3FD0D36AD2F830C0C7
:100E2000D2F834E0966B9568D068116952690692E1
:100E30008DE8005002960395049005912F4A3049A1
:100E4000032001F0A3FC22689369D2F81CC0D2F8F9
:100E500020E0566AD56B1068116C526C06920490B3
:100E600005918DE80050029603952649234A0320F8
:100E700001F08CFC2268936C5168EFF3148203201C
:100E80008DE8060020491D4A01F080FC23681F49B7
:100E90009B6A1A4A032001F079FC23681BB93B685E
:100EA000B3F90C307BB9EFF3108372B6072000F072
:100EB000A1F8FA2000F02CF8072000F0A3F8FA209F
:100EC00000F026F8F2E7012000F0B6FB80020020D7
:100ED000D77A00080B7B0008707A0008357B000881
:100EE000E17A00084B7B0008617B0008777B0008F3
:100EF000B37B0008EE7A000864020020FB7A000849
:100F0000E67B0008177C0008487C0008747C000819
:100F100082B000230093009B83420CD200230193F4
:100F2000019A44F24C139A4202D8019B0133F6E72E
:100F3000009B0133EEE702B0704700F043B800F0C9
:100F400000B800207047000038B50509E9070446DD
:100F500003D518480021FFF778FBAA0703D51648E8
:100F60000021FFF772FB6B0703D514480021FFF740
:100F70006CFB2D0703D512480021FFF766FBE00745
:100F800003D50C480121FFF760FBA10703D50A48F0
:100F90000121FFF75AFB620703D508480121FFF73B
:100FA00054FB230705D506480121BDE83840FFF76B
:100FB0004CBB38BD3C0804003D0804003E0804005A
:100FC0003F08040008B50748FFF752FB0648FFF743
:100FD0004FFB0648FFF74CFB0548BDE80840FFF70C
:100FE00047BB00BF3C0804003D0804003E08040065
:100FF0003F080400024B13F81000FFF7A5BF00BF25
:101000008A7C0008024B33F81000000AFFF79CBFEF
:101010008A7C000807B5484A002313605360474A9A
:1010200013605360464A13605360464A136053602E
:10103000454A13605360454A13605360444A136045
:101040005360444A13605360434A13605360434AF9
:101050001380434A002599189D5008334FF6FF70BE
:10106000802B8880F5D13F4C146095802946E8227A
:10107000204601F0A7FB032363763B4B6361022309
:1010800063833A4B2C49C4F8E830204604F1E80366
:10109000C4F8E430C4F8EC5001F02FFC204602F014
:1010A00051FA684601A902F0A1F9314B9DE803000D
:1010B000DB6A9847684601A902F0B8F99DE8030089
:1010C00001F0ECFF2B4B0BB100F0E0FC2A4B0BB115
:1010D00001F044F8294B0BB106F006F8284B0BB190
:1010E00006F0E8FA274B0BB100F0F2FE264B0BB1ED
:1010F00005F0F8FE254B0BB105F0AEFA02F0E5FB6A
:1011000002F00AFAA17E174800F098F8154800F09E
:10111000C3F8144800F0BAF8A36801221A7000F06E
:1011200037F801F0C3FF18B900F0E2F801F0C4FF8E
:1011300002F0B4F9F5E700BF800200202003002090
:101140007802002098020020880200206802002017
:10115000900200202C0300207002002028030020B1
:10116000A002002008000020151000089C7C000848
:10117000000002088D1A00085D210008E9700008CF
:10118000B5760008D11E0008E56E00085966000813
:1011900013B5FFF7D4FE0024094B009409481B68DF
:1011A00064214FF4006200F027F9A04204DC0648F5
:1011B0004FF48E71FFF7D8FD204602B010BD00BF7E
:1011C00000000208F07C0008F57C0008612838B5B2
:1011D00004460FD8EFF3108572B611B9FFF79CFCE7
:1011E0000649074B43F8241015F0010F00D162B6F1
:1011F000002038BD4FF0FF3038BD00BF2912000875
:1012000034030020612808B507D8054B054A53F878
:101210002030002B08BF134600E0024B984708BD62
:10122000340300202912000808B5EFF3108372B6CA
:1012300001485521FFF798FD077D000870B5054668
:10124000B0200E4601F04AFF0446E0B106F0030666
:10125000022E03D1037843F00403037020464FF4B9
:10126000927100F039F8C4F8A40018B9204601F0D2
:1012700029FF08E0AC6004F108000021012201F020
:10128000C1FA002070BD6FF00B0070BD83680122B1
:101290005A7000207047000038B50446806820303E
:1012A00002F03FFB0B48032102F0EAFD051E0BD1C3
:1012B000012102F04BFD2846022102F047FD2046A5
:1012C000BDE8384000F0F0BB01DD02F0AFFC6FF08C
:1012D000160038BD1F7D000838B50D4600F01AFC19
:1012E000044618B100212A4601F06CFA204638BDA8
:1012F00010B511480368D3B1EFF3108472B601F052
:10130000E1FA14F0010F00D162B60028F1D001F02B
:10131000D9FEEEE7EFF3108472B601F0D3FA14F0C1
:10132000010F00D162B610B1044B9B6C9847044882
:101330000368002BEED110BD7002002000000208EF
:101340002C030020014B1868704700BF800200206A
:101350002DE9F7430746E8200E469046994601F0EE
:10136000BDFE0446002839D03146FFF767FF00284C
:101370001EDB204600F0AEFB002819DB2046494664
:10138000324602F08DF8002812DB009620464146D6
:10139000174A0A9B00F074F8002809DB39460B9ABB
:1013A000204600F0CFF82046FFF770FF002801DA52
:1013B00045420EE02046A58900F014F90028A8BF98
:1013C00028B211DA00F046F90A490568204601F012
:1013D000A0FA2046314600F003FC00E00C2500F0A6
:1013E00039F905604FF0FF3003B0BDE8F08300BF6E
:1013F000FD1500089002002073B5069C00930E4670
:1014000015460194002132462B46FFF7A1FF02B09A
:1014100070BD73B5069C00930E46154601940221DB
:1014200032462B46FFF794FF02B070BD70B50546FB
:1014300000F000FC102210490B8801339BB218B257
:1014400000280B80DCBF01230B8003F00F040B4945
:1014500051F834604EB941F8345001EBC4018B802F
:10146000AB8100F0FFFB304670BD013AE3D100F0E4
:10147000F9FB4FF0FF3070BD28030020A0020020D0
:101480002DE9F04104460E4617469846FFF7CEFF79
:10149000054618BB638B9DF81820276102F00302F4
:1014A00023F003031343F6B2638304F138022946A1
:1014B0002676C4F81480032000F0DEF82046657616
:1014C00002F040F800F0B6FB2046064901F015FA9C
:1014D0000423637600F0C6FB84F8E0602846BDE88C
:1014E000F08100BF900200202DE9F04104460F4634
:1014F00016469846FFF79AFF0546E8B9638B2776AC
:1015000023F0030343F001036383294604F1380207
:101510002661C4F81480032000F0AEF820466576FA
:1015200002F010F800F086FB2046054901F0E5F9CD
:101530000423637600F096FB2846BDE8F08100BFE7
:10154000900200202DE9F74F82462548174601F00A
:1015500048F9451C5FB1002457F8240040B101F060
:1015600040F901340130052C0544F5D100E03C463A
:10157000A61CB6007119504602F0B0F8054648B3F3
:1015800006440660164801F02CF91549804630469D
:1015900001F020F908F10108B044AB464FF0000912
:1015A000A14511DA4BF8048F386801F01AF957F8A1
:1015B000041B03464046019301F00CF9019B0133E3
:1015C000984409F10109EBE7002046F8040CCAF839
:1015D000E45001E06FF00B0003B0BDE8F08F00BFF6
:1015E0002C7D000810B5EFF3108472B602F08AF873
:1015F00014F0010F00D162B6002010BD10B50D4BE4
:101600001868D0F8E420012352F8231011B10133F7
:10161000052BF9D1418B01F00301022903D0406968
:10162000194602F007F9446911461846A04700F030
:1016300003F800BF8002002008B5054B1B68C4B248
:1016400021461846002200F03BFB204601F056FFE1
:101650008002002008B501F08DFF38B9044B1868EE
:1016600020B1437E032B01D1643008BD014808BD81
:1016700080020020F8000020F8B5164B1C681746C1
:1016800006460D4600F0D6FAA36B07B13B60EDB1FC
:10169000EFF3108272B6022E07D0032E0AD0012E6D
:1016A0000CD1A36B29680B4305E02968A36B23EADF
:1016B000010300E02B68A363002501E04FF0FF3534
:1016C00012F0010F00D162B600F006F800F0CAFA7D
:1016D0002846F8BD8002002037B5154B1C6800F085
:1016E000A9FAA36B2046DD4300F05EFC2840019080
:1016F000019BC3B101A800F05BF8431C0546F7D07D
:10170000294601A801F09AF82946204600F012F86F
:1017100005460028ECD02046291D00F059F828463F
:1017200000F026F8E4E700F09DFA03B030BD00BFFA
:101730008002002038B58268EFF3108572B6946994
:1017400000237CB12079884202D023462468F8E740
:1017500002F118011BB1184601F0BEF802E008467C
:1017600001F0B0F815F0010F00D162B6204638BD87
:1017700010B5037B23B9EFF3108472B60A4905E074
:10178000022B0AD1EFF3108472B6084901F07AF8FF
:1017900014F0010F00D162B610BD012B03D1BDE8DA
:1017A000104000F0EDB910BDE0040020D804002086
:1017B00038B5054600242846214601F04DF828B9E1
:1017C0000134202CF7D14FF0FF3038BD204638BD12
:1017D0002DE9F04104460D463830097801F03CF817
:1017E000804600286BD0EFF3108772B6637E062B1D
:1017F00015D104F13C00297801F02EF878B1294682
:10180000082204F15800002600F0F3FFE6632046AA
:1018100001F078FF17F0010F00D162B6A9E017F0D0
:10182000010F00D162B6A6682A78EFF3108372B672
:10183000B06920B10179914201D00068F9E713F055
:10184000010F00D162B628B129460822043000F009
:10185000D0FF8DE001F08EFE58B1474801F032F81C
:101860000446D0B9454801F02DF8044600287AD046
:1018700013E0EFF3108772B63F4801F023F80446F7
:1018800017F0010F00D162B638B9102001F020FC2A
:101890000446002867D001230373201D294608222F
:1018A00000F0A7FFEFF3108572B6204606F118018D
:1018B00000F0E8FF15F0010F00D162B658E000F02B
:1018C000B9F92046297800F095FB064600B3436835
:1018D000D3B100F0A1FB0746C0B173684360B368A1
:1018E0008360294608220C3000F083FFEFF3108656
:1018F00072B6384604F1480100F0C4FF16F0010F3B
:1019000000D162B6464603E01E4601E06FF00B06CA
:1019100000F0A8F920461A4901F060FEEFF31087A5
:1019200072B6637E062B0AD104F1580029460822BC
:1019300000F05FFF0023E363204601F0E3FE17F0B1
:10194000010F00D162B6637E052B03D1204604212E
:1019500000F090FA637E073B012B0AD82046042151
:1019600000F077F805E007484FF4B071FFF7FCF995
:1019700000263046BDE8F081E0040020D8040020B5
:10198000A5190008357D000810B50C4600F016F9C1
:1019900020B12146BDE81040FFF71ABF6FF00200EA
:1019A00010BD00BF2DE9F743054600F043F9D5F817
:1019B0006480AC6C002C45D0D4F80090EFF3108715
:1019C00072B6204605F1480105F1500600F064FFAB
:1019D0002046314600F056FF17F0010F00D162B6E5
:1019E0002146AF6BA36811F80C2F01203B4300FA8E
:1019F00002F21343AB636B8B03F00303022B0AD099
:101A00006846082200F0F5FE6068217B6A460023E4
:101A100001F017FF03E06368207B00229847AF6363
:101A2000FFF75AFEEFF3108772B62046314600F0FA
:101A300033FF17F0010F00D162B6204600F010FB13
:101A40004C46B7E7C5F8648000F00CF903B0BDE878
:101A5000F08338B5EFF3108472B6427ED31F012BAA
:101A60000ED80025072A036E056603D15A8A013A6B
:101A70005A8202E01A8A013A1A82416601F042FE55
:101A800014F0010F00D162B638BD00000023044AF3
:101A9000044999500433B3F5C47FF8D1704700BFAF
:101AA000340300202912000810B50446806800F0B5
:101AB0003EFF22460121002002F092FB2246062131
:101AC000012002F08DFB06212246022002F088FB55
:101AD000002010BDF8B506468068203001F021FFD7
:101AE0000B4B1A68B368956803F12407243500246A
:101AF000AB681BB12846391901F026FF1034802C41
:101B000005F11005F4D13046BDE8F840FFF7CCBF31
:101B10008002002008B510B9074B1B68986803784D
:101B20005B0704D50846BDE8084001F0D1BA034B75
:101B30000846DB6B984708BD8002002000000208C1
:101B400038B5054601F016FD58B1EFF3108472B6B2
:101B50000949284600F096FE14F0010F00D162B644
:101B600038BD064C636B98470028EED1A36C28461D
:101B70009847A36B984738BD2C030020000002084B
:101B800038B5044601F0F6FC58B1EFF3108572B693
:101B90000949204600F076FE15F0010F00D162B62B
:101BA00038BD01F083FA0028EFD1204601F08AFA0F
:101BB000BDE8384001F080BA7002002000280BDB3D
:101BC000064B00F00F0203EBC201B1F90410814291
:101BD00002D153F83200704700207047A002002065
:101BE00038B50D460446F0B1104B1BB1B0F90C00EE
:101BF00005F07AFDA28952B102F00F020C4B0021D0
:101C000043F8321003EBC2034FF6FF729A80E36A87
:101C10001BB12046294601F0D1FC204600F079FA9C
:101C20002046FFF7ADFF002038BD00BFE976000871
:101C3000A002002010B5094B1C6864B101F09AFCA9
:101C400048B9A38B1AB27E2A03DD05486921FFF744
:101C50008BF80133A383002010BD00BF8002002059
:101C60004B7D000870B5144B1C681D4614B301F081
:101C700081FCF8B9EFF3108672B6A38B0BB1013B70
:101C8000A383B4F91C30002B10DC0023A3830B4B7F
:101C90001B680BB101F076FC638BDB0606D5236A6B
:101CA00023B92B689C421CBF1423236216F0010F3A
:101CB00000D162B6002070BD800200202003002009
:101CC000F8B5438B9B0604460F4616462ED400F00B
:101CD0002EF8A5680DB9FEB915E0638B03F0030378
:101CE000012B03D06B680BB13F021F606B78012B97
:101CF000F1D100236B60B5F90230002BEBDAA81CA0
:101D000000F08CF8F7E7A36833B15A78012A03D1C1
:101D1000D3F8A40000F0B8FC204600F0FAF9204601
:101D200000F0BEF9638B43F020036383F8BD38B540
:101D30000446EFF3108572B6406A30B100F00EF839
:101D4000606A00F041F80023636215F0010F00D1D2
:101D500062B62046BDE8384000F0CCB938B504463C
:101D6000EFF3108572B658B1037BDB0708D5144B2F
:101D70001B6800205BB1A3420DD018461B68F9E731
:101D80004FF0FF3015F0010F00D162B638BD0D489D
:101D90008121FEF7E9FF23681BB19968A2680A4414
:101DA0009A6018B1064900F097FD02E0044800F07F
:101DB00089FD237B002023F0010320602373E1E7EA
:101DC000F40400205E7D000838B50446EFF310856A
:101DD00072B6037BD90701D5FFF7C0FF237B9A07B3
:101DE00007D515F0010F00D162B62046FFF7C8FEF7
:101DF0000DE05B070BD42046064900F043FD064B7F
:101E00001A8801321A8015F0010F00D162B6002045
:101E100038BD00BFE8040020F004002010B510B366
:101E2000EFF3108472B6038847F6FF72934203D132
:101E30000E487A21FEF798FF01339BB203801BB254
:101E4000002B0ADC0A4B1B683BB15A6B8242FAD169
:101E500000225A63184601F055FC14F0010F00D11E
:101E600062B6002010BD4FF0FF3010BD6F7D00083E
:101E70007802002038B5EFF3108472B6427E052A4E
:101E800008D1426B158801351580002242634166F6
:101E900001F038FC14F0010F00D162B638BD00002B
:101EA00038B54FF4A07001F013F9074B00F5A07599
:101EB000186000F11404054900F0E4FCAC4201D0C4
:101EC0002046F6E738BD00BFFC000020C00400201B
:101ED0002F4AF8B50023136053602E4A13605360F5
:101EE0002D4A136053602D4A136053602C4A4FF4FF
:101EF000C0701360536001F0EBF8054600F5C07642
:101F0000002200F118040275224900F0BBFCB44223
:101F100001D02046F4E7234CC020656001F0D8F8DA
:101F2000054600F1C007022200F1180602751A49A1
:101F300000F0A8FCBE4201D03046F4E7A560FFF7F0
:101F4000AFFF4FF4807001F0C3F8054600F58077CD
:101F5000002200F110060273104900F093FCBE420B
:101F600001D03046F4E78020E56001F0B1F8054685
:101F700000F18007022200F110060273084900F008
:101F800081FCBE4201D03046F4E72561F8BD00BFB8
:101F9000C0040020C8040020D0040020E004002079
:101FA000D8040020FC00002037B50022836801928D
:101FB000EFF3108572B69C692CB1217901A800F06D
:101FC00030FC2468F8E715F0010F00D162B60198E3
:101FD00003B030BD10B5064B04461B6828B1184647
:101FE000FFF7E2FF2060002010BD4FF0FF3010BD72
:101FF0008002002038B50D46044650B1FFF71AFEA6
:10200000246C24B1237CAB4201D02468F9E7FFF7AC
:1020100029FE204638BD000010B501F0ABFA40B1F2
:102020000D4800F04FFCA8B90C48BDE8104000F086
:1020300049BCEFF3108472B6074800F043FC14F07B
:10204000010F00D162B628B9182001F041F808B19B
:102050000123037510BD00BFC8040020D004002078
:1020600010B5037D23B9EFF3108472B60A4905E079
:10207000022B0AD1EFF3108472B6084900F002FC7B
:1020800014F0010F00D162B610BD012B03D1BDE8E1
:102090001040FFF775BD10BDC8040020D00400201B
:1020A00010B5044604F1400000F00CFC10B100F043
:1020B00073F8F7E704F1480000F004FC10B1FFF7F3
:1020C000CFFFF7E704F1500000F0FCFB10B1FFF781
:1020D000C7FFF7E74FF0FF32A263E06310BD10B512
:1020E000044604F1180000F0EDFB10B1FFF740FBCF
:1020F000F7E710BD437E072B04D1036E5A8A013ADD
:102100005A827047082B03D1036E1A8A013A1A8249
:10211000704738B584680546F4B16378012B02D95D
:10212000013B637016E02046FFF7D9FF204600F020
:1021300091F804F1200001F0F8FB204600F011FCBA
:10214000204600F09FF8D4F8A400FFF7F9FC2046E1
:10215000FFF716FD0023AB6038BD00000A4A0023DC
:1021600010B513605360094A1C4613605360084859
:1021700005492044183400F085FBC02CF7D1054BED
:1021800008221A8010BD00BFE8040020F4040020DB
:1021900010010020F0040020014900F073BB00BFD3
:1021A000C00400202DE9F041274B1F2880460E4631
:1021B00015461F6807D9FFF74DFA162303604FF045
:1021C000FF30BDE8F08138464146FFF713FF044673
:1021D00055B130B143682B6083686B60C368AB60F6
:1021E00002E028606860A8604EB335684DB92046AB
:1021F00044B307F1400100F04FFB2046FFF7CCFF4E
:102200001DE0B4B9114800F05DFB044650B9FFF77A
:1022100047FE0E4800F056FB044618B90C486821EA
:10222000FEF7A2FD84F81080204607F1400100F07F
:1022300029FB336863607368A360B368E3600020C0
:10224000BDE8F081BDE8F08180020020C0040020DC
:10225000847D000838B50546EC686CB1204650F81E
:102260000C3BEB6000F017F804F10A0000F013F8E3
:102270002046FFF785FCEFE705F10800BDE8384090
:1022800000F009B810B50446D4F8A80010B102F067
:102290009CF9F9E710BD08B530B1B0F90030002B5A
:1022A00009DB0123038006E0FFF7D4F9162303605E
:1022B0004FF0FF3008BD002008BDC8B2114604F041
:1022C00097BFC8B2114604F05FBFC8B2114604F010
:1022D00029BF04F0FFBF084601F0A8BC084601F082
:1022E000DFBF0846114601F031BD084601F0B1BC20
:1022F00008B5084601F002F908B50846FFF79CF951
:1023000010B50398029C0290049803900846114669
:102310001A462346BDE8104001F0D4BC08461146D9
:102320001A4601F05DBF03F031BB08B503F092FA25
:1023300008BD0846114604F0BBBF084611461A46C0
:1023400001F036BD08B2114603F0EEBC0846114656
:102350001A4601F072BD0846114602F0E5BA10B502
:102360000398029C029004980390084611461A466E
:102370002346BDE8104002F079B8084602F025B9BE
:102380000846114604F078BE10B50398029C0290EE
:1023900004980390084611461A462346BDE81040AB
:1023A00002F076B8084611461A46009B04F05ABC63
:1023B000084611461A46009B04F0A4BA10B5029CC8
:1023C00003980290084611461A462346BDE810407D
:1023D00004F081BC10B5029C039802900846114697
:1023E0001A462346BDE8104004F0DFBA084602F062
:1023F000FDB80846114603F097BD10B50398029C3E
:10240000029004980390084611461A462346BDE8F8
:10241000104001F035BD084601F05EBF084602F0ED
:102420000BBA084611461A46009B01F087BE0846C3
:1024300004F04CB8084611461A4604F039B808466C
:1024400004F04FB808B204F081B8084604F012B89E
:10245000084603F0CABF0846114603F0B9BF084654
:1024600003F0F6BF084611461A4604F0BCB9084608
:10247000114603F0C5BF084611461A46009B03F0FB
:10248000C1BD08B203F0DEBE08B5084603F062FE27
:1024900008B211461A4603F0F9BE084604F0CCB85B
:1024A00008B2114603F078BE0846114604F0A6B8FB
:1024B000084604F0CFB808B2114604F00BBA08463B
:1024C00003F022BF0846114603F00BBF084603F095
:1024D00031BF084603F047BF084603F060BF084617
:1024E000114604F050B90846114604F05DB808B230
:1024F00011461A4603F0E3BE08B2114604F058B97B
:102500000846114604F08AB8084611461A4604F0F7
:10251000F1B908B503F0B8FE002008BD0846114621
:102520001A46009B01F04BBE084611461A4601F0C0
:1025300005BD084601F026BF08B5084601F05BFF5F
:10254000002008BD08B2114602F0C2BF08B203F075
:102550001DB802F03BBFFFF76DBB03F05BB808B2DC
:10256000114603F033B808B2114602F037BF08B283
:1025700011461A4602F0D0BFFFF774BB03F01EB835
:1025800008B50846114601F04EFF002008BD084678
:10259000FFF781BE0846FFF741BC0846114603F02D
:1025A0001EBB084603F0E2BA084603F09DBA08B520
:1025B000084603F0F0F9002008BD084611461A4607
:1025C000FFF7F0BD0846FFF705BD084611461A465D
:1025D000FFF752B808B5084611461A4603F0CBFB80
:1025E00008BD084603F062BB084611461A4603F0D0
:1025F00001BC0846114603F0E0BB0846114601F055
:10260000B3BC0846114601F015BD10B5029C0398F5
:102610000290084611461A462346BDE81040FEF7D0
:10262000EBBE08B203F04AB808B203F07FB8084620
:1026300000F01BB9C8B211461A4604F065BE084640
:1026400004F0BABE084604F0C5BE0846114604F0C0
:10265000C9BE084611461A46009B04F001BF084651
:1026600008B51146FEF780FB08B500F0A7FE08BDCF
:1026700008B508B211461A4602F0D4FF08BD084654
:1026800011461A4601F014BDF8B50646D0B100F067
:10269000CBF9341D082700252368002B0ADBA38B08
:1026A0009B0707D52046012100F00FF835EA2005E9
:1026B00028BF0546013F04F12404EDD1304600F067
:1026C000C5F900E005462846F8BDF8B50368002BBB
:1026D00004460F463EDB838B9B073BD500F063F936
:1026E0006669E3689E4206D1204600F07BF9606986
:1026F000E368C01AF8BDA5699D4204D0204600F0E9
:1027000071F90020F8BD761B20682946324601F099
:10271000CFFC00280BDAA37F43F00203A377204607
:1027200000F060F9FEF796FF00684042F8BD0544EE
:10273000361A1FB9E36863612E4402E0002EE3DC21
:10274000F8E7B542D0D063695A1C626115F8012BD5
:102750001A70F6E76FF00800F8BD000030B50A4BBC
:102760001B7843FA00F010F0010085B00D461446C6
:1027700007D001A800F067FC01A82946224600F016
:1027800010FB05B030BD00BF000000200EB403B543
:1027900003AA52F8041B0192FFF7E0FF02B05DF8B4
:1027A00004EB03B0704700BFEFF3108172B6044B27
:1027B0001A78187011F0010F00D162B610467047F8
:1027C0000000002002440346934202D003F8011B9C
:1027D000FAE770470023CA5CC2540133002AFAD1D9
:1027E000704703461A46013311780029FAD1101AAE
:1027F000704710B50023934203D0CC5CC45401331E
:10280000F9E710BD08B528B1B2F5004F02D2028039
:10281000002008BDFEF71EFF162303604FF0FF30B7
:1028200008BD1F2907D8012303FA01F103680B43F0
:102830000360002070474FF0FF3070471F2908D811
:10284000012303FA01F1036823EA01030360002076
:1028500070474FF0FF3070471F299DBF0068C84088
:1028600000F001004FF0FF30704708B508B1036871
:1028700033B9FEF7EFFE092303604FF0FF3008BDC8
:10288000406808BD002303600B680BB9086001E0D5
:102890004B681860486070470346086888B183B188
:1028A000834209D11A680A604A68934209D1002319
:1028B0004B6070472AB1104602689A42FAD100F084
:1028C0000BB8704703682BB11A68026002B9426006
:1028D00000221A60184670470A6803685AB153B15B
:1028E0004A689A4214BF196848604FF000020CBF52
:1028F000026001601A6018467047002343600B684D
:1029000003600B6813B9086048607047586008603E
:102910007047426803680AB90B6000E013600BB9A6
:102920004A6000E05A60002303604360704738B596
:10293000D0F8A440002120460122FFF763FF0434B1
:102940000825204600212422FFF73CFF4FF0FF33EB
:102950002360204600F01AF8013D04F12404F0D170
:1029600038BD38B5D0F8A4402046FFF794FC0834B1
:1029700008252046FFF78FFCA06808B1FFF7E0F8B4
:10298000013D04F12404F4D138BD000010B500214C
:10299000044601220430FFF735FF4FF6FF73E38052
:1029A0000023A36010BD38B5044602F053FFB4F90C
:1029B00006308342054602D1A36801330EE0201D94
:1029C00003F092F840B1FEF745FE0368042BF6D001
:1029D00003486A21FEF7C8F9E5800123A36038BDEA
:1029E000447F000810B5044602F034FFB4F9063005
:1029F000834202D00B487E2110E0A368012B02DD48
:102A0000013BA36010BD4FF6FF73E3800023A3607A
:102A1000201DFFF703FA18B102488E21FEF7A4F932
:102A200010BD00BF447F000810B50446204603F0E7
:102A30005BF840B1FEF70EFE0368042BF6D00248A7
:102A40005121FEF791F910BD577F0008FFF7E6B955
:102A50000A2238B5B1FBF2F3044602FB131513B199
:102A60001946FFF7F5FF2368204605F13001984726
:102A700038BD38B501F00705C908044601D0FFF795
:102A8000F8FF2368204605F13001984738BD38B576
:102A900001F001054908044601D0FFF7F8FF23685B
:102AA000204605F13001984738BD2DE9F04119461F
:102AB00014461D468046002310460A2202F006F9FD
:102AC0000023164620460A22294602F0FFF8024655
:102AD0000B4652EA030102D04046FFF7E6FFD8F862
:102AE0000030404606F130019847BDE8F081F8B566
:102AF00014461D4602F00707E20842EA4572EB0859
:102B000052EA0301064601D0FFF7F1FF3368304671
:102B100007F130019847F8BD38B502F001055B08B0
:102B20004FEA320252EA0301044601D0FFF7F4FFF4
:102B30002368204605F13001984738BDF8B50129D2
:102B4000044616461F46069D2DD0022916D012F0C7
:102B5000810F18BF01355D1B002D05DD2368204660
:102B600020219847013DF7E7310602D5236820462A
:102B70001CE0F20721D5236820461CE0130602D58D
:102B800003682D2103E0D10703D503682B21984763
:102B900001357D1B002D05DD236820463021984737
:102BA000013DF7E7F8BD320602D503682D2103E0A9
:102BB000F30702D503682B219847F8BD2DE9F041B2
:102BC000002304460F4690461C2527FA05F616F00A
:102BD0000F0101D113B90BE0092903D8236820465E
:102BE000303103E04144236820460A3998470123E5
:102BF000043D2A1DE9D11BB923682046302198479E
:102C0000BDE8F081692970B504460D461E4612D014
:102C100006D8622934D064290DD0582935D110E066
:102C200070290ED002D86F291FD070BD752903D02E
:102C3000782906D070BD20463146BDE87040FFF7C8
:102C400007BF920707D5236820463021984723689D
:102C5000204678219847582D204631460CBF412206
:102C60006122BDE87040FFF7A9BF930702D5036852
:102C70003021984720463146BDE87040FFF7F9BE45
:102C80001946BDE87040FFF702BF70BD2DE9F8435B
:102C90009DF82090064614461D463C274FF000083C
:102CA000204629463A4602F005F810F00F0103D1FC
:102CB000B8F1000F02D10CE0092903D8336830467F
:102CC000303103E04944336830460A3998474FF0C1
:102CD0000108043F3B1DE3D1B8F1000F03D1336875
:102CE000304630219847BDE8F8832DE9F041692945
:102CF00006460F46DDE906450FD006D8622935D0D5
:102D000064290AD0582937D10EE0752906D07829D0
:102D10000AD06F291ED0BDE8F081304622462B46EE
:102D2000BDE8F041FFF7C1BE920707D533683046D2
:102D3000302198473368304678219847582F0CBF88
:102D4000412361230693304622462B46BDE8F041DD
:102D5000FFF79CBF930702D50368302198473046A0
:102D600022462B46BDE8F041FFF7C1BE22462B4666
:102D7000BDE8F041FFF7D0BEBDE8F08138B50129CC
:102D80000546049C0CD112F0810F18BF01341C1BA6
:102D9000002C05DD2B68284620219847013CF7E7E9
:102DA00038BD2DE9F04F804689B00F4691463978FD
:102DB000002900F0328125290CD0D8F80030404697
:102DC00098473B780A2B40F02681D8F804304046DB
:102DD000984720E100260137B346B246397819B149
:102DE000904800F04DF938B1397825294C4643D147
:102DF000D8F80030404669E03B782D2B33D0302B9B
:102E000034D02A2B0AD1710709F10403D9F8002024
:102E10002FD446F00806994692462BE0A3F13102E2
:102E2000082A11D8303B3A46174612F8011F3039AC
:102E3000C8B2092803D80A2000FB0313F4E716F0F0
:102E4000040F08BF9A4615E02E2B02D146F0040667
:102E500010E02B2B02D146F001060BE0232B09D109
:102E600046F0020606E04FF0010B03E04FF0020BC4
:102E700000E099460137B1E773291FD16A4B2468F6
:102E8000002C08BF1C462046FFF7ABFC59460090BB
:102E90000546002240465346FFF750FE09F104095B
:102EA000013C14F8012F2AB1D8F8003040461146F1
:102EB0009847F6E7009540465946A9E0632907D1AF
:102EC000D8F80030216809F1040940469847A2E08B
:102ED0004C2902D146F0400606E06C2909D17B78E6
:102EE0006C2B03D046F02006013702E046F0600666
:102EF00002374E48397800F0C3F8002800F08B8084
:102F000016F0400F39784AD0702948D009F10709E6
:102F100029F00703692903F10809D3E900450DD019
:102F200005D8622916D0642908D0582904E06F29F1
:102F300012D370290ED978290ED10BE0002C75F12F
:102F4000000309DA06F0FE0646F08006644265EBEF
:102F5000450501E006F07E0605A8039100F082F821
:102F600005A803993246CDE90045FFF7BEFEDDF81E
:102F70001CC0CDF800C04046594632465346CDF8F5
:102F80000CC0FFF7DBFD39784046CDE900453246FD
:102F9000FFF7ABFEDDF80CC0CDF800C035E06929C5
:102FA00009F1040924680DD005D8622912D06429DA
:102FB00008D0582904E06F290ED370290AD978293E
:102FC0000AD107E0002C07DA06F0FE0646F080067C
:102FD000644201E006F07E0605A8039100F042F885
:102FE00005A8039932462346FFF70CFE079D00957E
:102FF0004046594632465346FFF7A0FD40463978D1
:1030000032462346FFF7FEFD0095404659463246BC
:103010005346FFF7B3FE0137C9E6D8F8080009B0F8
:10302000BDE8F08F737F00086C7F0008867F000882
:1030300010B50446084600F025FA013002D0A36816
:103040000133A36010BD034B0360034B43600023B7
:1030500083607047313000087D3000088368013399
:1030600083607047034B0360034B4360002383601E
:10307000704700BF5D3000087D30000800207047B9
:1030800050B1024610F8013B8B4203D0002BF8D11F
:10309000184601E0104670477047000003460A4694
:1030A0000148194600F050B8FC040020014800F027
:1030B00079B800BFFC040020014800F0ABB800BFA5
:1030C000FC0400200146014800F0E2B8FC040020A6
:1030D0000146014800F027B9FC04002001460148E0
:1030E00000F060B9FC0400202DE9F0410A4401F130
:1030F0000F0424F00F048168C56922F00F02C4EBAD
:10310000020C6144816000EB850521460826EC60D5
:1031100041F8086BEF684FF00048C7F80480ACF145
:103120001007A760A2F108074E606F6142F8086CB3
:10313000A4686A6944EA08045460C2690132C26141
:10314000BDE8F04100F07CB870B50E4600210446A1
:103150008160C161154620304FF49872FFF732FB51
:1031600004F130031220A3F11002013843F8083CA7
:10317000DA6003F11003F6D1204600F007F820468C
:1031800031462A46BDE87040FFF7AEBF10B50021BA
:1031900004460122FFF736FB4FF6FF7363800023DE
:1031A000636010BD38B5044602F054FBB4F9023038
:1031B0008342054604D1636801336360002038BD53
:1031C000204602F0D3FC18B901236580636038BD46
:1031D0004FF0FF3038BD38B5044602F03BFBB4F980
:1031E00002308342054602D1636801330EE0204677
:1031F00002F07AFC40B1FEF72DFA0368042BF6D0FA
:103200000348AB21FDF7B0FD65800123636038BD45
:103210008F7F000808B54268012A02DD013A42604A
:1032200008BD4FF6FF72428000224260FEF7F6FDB5
:1032300018B10248DC21FDF797FD08BD8F7F00081B
:1032400038B5054608680C4600F015F8821C05EBF9
:10325000021205EB0015AB6A3BB1196829B1206871
:10326000814202D21A469B68F6E79460E260A3604E
:1032700003B1DC6038BDB0F5800F07D20309002030
:10328000012B02D901305B08FAE770471220704722
:1032900070B505460C46002944D0FFF79CFF54F852
:1032A000043C54F8082C23F00043A4F1080144F82E
:1032B000043C8B185868002814DBD8689E688A582C
:1032C000866098681A4408B1DE68C660186854F8C9
:1032D000083C034444F8083C506800F000400343B5
:1032E0005360134654F8042C8A1A5068002811DBE6
:1032F000D16890688860916809B1D068C86054F856
:10330000080C116801441160586800F00040014346
:10331000596011462846FFF793FF2846BDE87040E4
:10332000FFF778BF70BD70B50646002938D001F1AF
:10333000170525F00F05FFF74EFFB5F5800F03D2F7
:103340002846FFF798FF00E0122006EB0010846A81
:103350000CB32368AB4201D2A468F9E7E368A26822
:103360009A60A3680BB1E268DA602268531B0F2BE6
:103370000CD96119635122444D602560506800F0FA
:103380000040034353603046FFF75AFF636843F041
:103390000043636008343046FFF73CFF204670BDB1
:1033A000084670BD38B50D46FFF7BDFF044618B19D
:1033B00000212A46FFF706FA204638BD68468AB043
:1033C0000094019502960397CDF81080CDF81490E3
:1033D000CDF818A0CDF81CB00890CDF824E06846D0
:1033E00000F0BCF9DDF824E00AB07047F8B50E4BE8
:1033F0000646D869C0F1005000F5F0300F46FDF7E1
:1034000015FB012303FA00F5C5F1005404F500345F
:103410001846FDF7EFFD34603D6020462946BDE8C3
:10342000F840FDF7C5BA00BF0000020870B50B4CAC
:103430000546E069C0F1005000F5F0300E46FDF79A
:10344000F5FAE3692B60012303FA00F0C0F10050A4
:10345000E36900F50030C01A306070BD000002085A
:1034600008B54FF080504FF48031FDF7A1FA044BBE
:103470004FF080501B6B4FF48031984708BD00BF60
:10348000000002080A2810B5044602D10D20FDF7FD
:10349000C1F9E0B2FDF7BEF9204610BD30BF70475C
:1034A00070B5C36A04460D4616462BB1836A8B423B
:1034B00002D0114600F082F8E36A53B9022E03D11C
:1034C0002846FFF705FE03E00B4B2846DB6B9847C9
:1034D000E062E36A6BB11A1F1544C3F1040325F0DF
:1034E000070525631D44A5620320FDF783FD002029
:1034F00070BD4FF0FF3070BD0000020808B5EFF35B
:10350000108372B602F0ECF8024B1868943000F0A9
:10351000A1F900BF8002002008B5094B00221A6003
:10352000FFF79EFFFDF71BFB00F0A5F901F0B6FBCE
:1035300001F0A4FB0220BDE80840FDF75BBD00BF21
:103540006402002010B50446002168307822FFF79D
:1035500039F9236BC4F89430236923F00103C4F8CC
:10356000D8304FF08073C4F8DC306FF00603C4F835
:10357000BC3010BD024B1868003018BF01207047E6
:103580006402002070B50B4C266801F0D7FE80B1B4
:10359000094D296806F1940029B100F08DF92368DE
:1035A00094332B6070BD2168BDE87040943100F009
:1035B00056B970BD800200206402002010B5044698
:1035C000C06A40B1022902D1FEF7DAFA01E0FEF743
:1035D000B7FA0023E3620023A36210BD10B5826E28
:1035E000002A42D1EFF3108472B6204A126890424A
:1035F0001CD11F4A12680AB9884732E08166516CB3
:10360000C16651680167916C4167116C8167194906
:103610005164012151604FF0807191646FF0060197
:1036200011649430114600F047F91AE0D0F8D82020
:10363000C266D0F898200267D0F8DC204267D0F844
:10364000D42082670B4AC0F8D8200122C0F8982005
:103650004FF08072C0F8DC206FF006028166C0F87F
:10366000D42014F0010F00D162B610BD80020020FA
:10367000640200207936000830B5164B1C6895B0FE
:103680000520656EFDF7B6FCA36E1BB912486321D9
:10369000FDF76AFB04F1940101A800F00DF9E36E57
:1036A0001293626F236F1392A26F11920021A26E88
:1036B0000293A16613F0010F00D162B62046904735
:1036C000EFF3108372B605206566FDF79BFC01A839
:1036D00000F0C0F880020020A07F00080346C06A06
:1036E000073121F0070160B19A6A8A4208D9186B44
:1036F000401A511A1863C3F8940099620430704755
:103700000020704770B5437E114C043B042B0546E6
:10371000266803D90F485921FDF726FB01F040FE2A
:1037200014232B62284601F0AFFD80B10A4D2968B1
:1037300006F1940029B100F0BFF8236894332B60A0
:1037400070BD2168BDE87040943100F088B870BD4C
:1037500080020020B87F0008640200202DE9F041BB
:103760000546406A324B20F001001E6802F07AF8EC
:103770000446002857D0B76AB27E0737394602F0B0
:103780000302FFF78DFE014620B12046494202F0B8
:10379000A3F848E0296A326B236B521AC2EB030884
:1037A0004046FFF726F8EB69326B934205D8D71BEA
:1037B000BB4202D3216BD31ACB1A2A68C4F89C20CF
:1037C0006A68C4F8A020AA68C4F8A420EA68C4F80B
:1037D000A8202A69C4F8AC206A69C4F8B020AA6994
:1037E000C4F8B420C4F8B830C4F8948096F8803097
:1037F000A3B132462346002196F88000814202F1AF
:10380000080203F1080307DAD2F88000C3F8800049
:10381000D06FD8670131EFE784F880002046BDE81B
:10382000F04102F06BB84FF0FF30BDE8F08100BF0F
:10383000800200200446134604200A46214600DF89
:10384000704730B505461C46062013460A462946F1
:1038500000DF30BD01464FF0010000DF70470A462F
:1038600001464FF0020000DF7047000008B501F08C
:10387000FFFE002008BD08B50B4B0C491A6822F06A
:103880007F4242F000421A60A3F60C53084A1A60C5
:103890000F20FDF79BFC074B07221A600F20BDE8A5
:1038A0000840FDF74BB900BF20ED00E06D3800087F
:1038B0007FA2190010E000E0814205D00023CA5821
:1038C000C25004334C2BFAD1704700F0D1B800003D
:1038D00070B5856806466DB1EC681CB164680CB1C2
:1038E000A0470446284600F082F900233360736045
:1038F000B36000E02C46204670BD10B5044620465B
:1039000002F0F2F840B1FDF7A5FE0368042BF6D0F3
:1039100002485821FDF728FA10BD00BFD17F0008EA
:10392000704700210122FEF76DBF38B5054600241F
:10393000281D20441034FFF7CBFF802CF8D12846F7
:10394000BDE83840FEF7A7BCF8B50C460546002890
:1039500031D08368002B2ED000292CD001F08CFCB4
:103960000746FFF7CAFF2046FFF7B2FF061E1DDB22
:10397000AE68304600F02EF92B6823606B686360F8
:10398000A660F36823B93846FEF748FA0020F8BD70
:103990001B68002BF7D020469847061EF3DAA06874
:1039A00000F025F9002323606360A3603846744269
:1039B000FEF734FA00E00924FDF74CFE04604FF0F6
:1039C000FF30F8BD2DE9F8430746884691461C466E
:1039D00001F052FC0546FFF790FF072C11DC05EBC8
:1039E0000413DE685EB9C3F8048043F8089F2846D4
:1039F0005F609E60FEF712FA2046BDE8F88301344E
:103A0000EBE72846FEF70AFA4FF0FF30BDE8F883EF
:103A100038B5054601F030FC072D04460ED800EB02
:103A20000515EB6853B1FFF768FF281DFFF750FF3E
:103A300005462046FEF7F2F9284638BD6FF008002B
:103A400038BD38B5044601F017FC072C05460DD8E3
:103A5000FFF753FF05EB041300225A6043F8082FC9
:103A60005A602846BDE83840FEF7D8B938BD00BFD7
:103A700010B5084C002120460122FEF7C3FE4FF688
:103A8000FF7363800023A380034B0BB1FFF748FF54
:103A900010BD00BFD00100202139000838B501F069
:103AA000D9FE0E4BB3F902208242054603D19A8813
:103AB00001329A8038BD094C204602F015F840B119
:103AC000FDF7C8FD0368042BF5D00548EA21FDF792
:103AD0004BF901236580A38038BD00BFD0010020D1
:103AE000E27F0008074883881AB2012A02DD013B01
:103AF000838070474FF6FF73438000238380FEF777
:103B00008DB900BFD001002010B5044650B1006847
:103B1000FFF7FAFF6068FFF7F7FF2046BDE81040A7
:103B2000FFF7D0BA10BD02780346013012B12F2A38
:103B3000F9D10346184670472DE9F74F9246244ABB
:103B4000804600689468002689460130B3467CB3FD
:103B500048B304F11302074612F8011F21B93A785D
:103B60006AB12F2A09D10AE017F8015BEDB12F2DB8
:103B70001DD08D4201D8EFD219E0226810E00193E8
:103B8000FFF7D1FF0278019B12B98BB118600FE0EB
:103B9000628902F00702022AF7D0626826460024F2
:103BA000A3461446D3E7044602E02C4600E0002476
:103BB000B9F1000F01D0C9F800B0BAF1000F01D07F
:103BC000CAF80060C8F80000204603B0BDE8F08FD6
:103BD000D001002010B5044640B1FFF75FFF2389F4
:103BE00001332381BDE81040FFF77CBF10BD10B545
:103BF0000446D0B1FFF752FF23890BB1013B23816B
:103C0000B4F90830002B0CDC63891B0709D5FFF7DA
:103C100069FF6068FFF778FF2046BDE81040FFF7B6
:103C200051BABDE81040FFF75DBF10BD072810B5C1
:103C300006D8FFF7EDFE0028B8BF444207DA00E0DF
:103C40000924FDF707FD04604FF0FF3010BD002090
:103C500010BD072808B504D80021BDE8084000F0D1
:103C600068B8FDF7F7FC092303604FF0FF3008BD8B
:103C700010B58368FBB10D291BD8DFE801F00907F7
:103C80000E1A071C1A1A07101A07071C262413E01D
:103C90001168BDE8104000F02EB8006810BD036840
:103CA000126823F0D00302F0D00213430360002017
:103CB00010BD162400E00924FDF7CCFC04604FF091
:103CC000FF3010BD0EB417B505AB072853F8044BF1
:103CD000019307D800F059F830B12146019AFFF757
:103CE000C7FF03E0092001E04FF0FF3003B0BDE85B
:103CF000104003B0704738B5044680680D4620B9BF
:103D0000FDF7A8FC0923036010E0FFF763FFA0683C
:103D100094E806002B46FFF755FE002808DAFDF769
:103D200099FC18230360A068FFF761FF4FF0FF3094
:103D300038BD10B50C4600F028F820B12146BDE88A
:103D40001040FFF7D8BF4FF0FF3010BD70B50D46E3
:103D5000064600F01AF80446284600F016F8014618
:103D600074B168B1A36823B9FDF774FC092303603B
:103D700006E0AE4207D02046BDE87040FFF7E4BD44
:103D80004FF0FF3070BD304670BD072810B50446B7
:103D900006D801F071FA28B100EB0410043010BD10
:103DA000092400E00B24FDF755FC0460002010BD41
:103DB000072838B50D46144610D8FFF7E6FF88B13E
:103DC000836893B1DB6883B15B6973B1224629468E
:103DD00098470028B8BF444208DA00E00924FDF7FC
:103DE00039FC04604FF0FF3038BD184638BD70B55F
:103DF000866804460B4615464EB1F6683EB13669F4
:103E00002EB1B0470028B8BF44420BDA0FE0012DB5
:103E100003D0022D08D04DB901E062681344002B95
:103E200004DB6360606870BD262400E01624FDF7A3
:103E300011FC04604FF0FF3070BD38B50D461446DC
:103E4000FFF7A3FF28B129462246BDE83840FFF717
:103E5000CEBF4FF0FF3038BDCB0702D5C3689B689B
:103E600053B111F0020109D0C368DB68002B0CBF0D
:103E70006FF00C01002101E06FF00C010846704763
:103E80000EB4F3B502A9002241F8042D079E00F0FC
:103E9000E9FB054648B3428912F007071ED1C36803
:103EA000E3B13146FFF7D8FF0028B8BF444218DB22
:103EB000314628463A463B46FFF784FD061E0FDB97
:103EC000FFF763FFA8B1EB681B68ABB19847002808
:103ED00012DA44423046FFF7B4FD02E0062400E067
:103EE00018242846FFF783FE00E00224FDF7B2FB0A
:103EF00004604FF0FF3000E0304602B0BDE8F04013
:103F000003B0704710B504688368E40710D593B117
:103F1000DB6883B19B6873B19847041E06DAFDF72E
:103F200099FB644204604FF0FF3010BD204610BD85
:103F30006FF00C04F3E76FF00804F0E7072838B5DA
:103F40000D46144604D9FDF785FB0923036008E0FC
:103F5000FFF71BFF28B129462246BDE83840FFF78E
:103F6000D1BF4FF0FF3038BDF7B500260C460196A3
:103F70000746002852D0002950D003780BB90224FC
:103F80004DE02B4903F012FC054640B92046294676
:103F90001C22FEF717FC44F22413236044E0384649
:103FA00001A900F05FFB05460028E8D01C2220464E
:103FB0003146FEF707FC6B895A0706D503F0070365
:103FC000052B26D14FF4504322E0EB68DBB19B6810
:103FD00013B14FF492732360EB68DB681BB1236865
:103FE00043F0920323606A89236802F00702022AE1
:103FF00002D143F480430BE0012A0CBF43F4C043D9
:1040000043F4005304E0236843F4824343F0240361
:1040100023602846FFF7EBFD002505E00E24FDF7A1
:1040200019FB4FF0FF350460284603B0F0BD00BF18
:10403000F37F000873B500250C460195C8B1C1B1E6
:1040400003780BB9022415E001A900F00BFB06462A
:104050000028F7D0294620222046FEF7B3FB49F678
:10406000A0722023304684E80C00FFF7C0FD2846EC
:1040700005E00E24FDF7EEFA04604FF0FF3002B0C9
:1040800070BD10B50468A4070BD583684BB1DB681D
:104090003BB1DB682BB198470028B8BF444206DA31
:1040A00000E00924FDF7D6FA04604FF0FF3010BDA0
:1040B000072838B50D46144604D9FDF7CBFA092375
:1040C000036008E0FFF761FE28B129462246BDE8FB
:1040D0003840FFF7D6BF4FF0FF3038BD2DE9F04133
:1040E0000F4615460021012298460446FFF77FFE41
:1040F000431C064603D14FF0FF30BDE8F081204657
:1041000041460022FFF773FE0130F4D039462A46BB
:104110002046FFF7F7FE0546FDF79CFA3146076893
:1041200000222046FFF763FE013001D1002DE2DAC4
:10413000FDF790FA07602846BDE8F08170B50E469D
:1041400015461C46FFF721FE30B131462A4623466C
:10415000BDE87040FFF7C2BF4FF0FF3070BD2DE9E2
:10416000F0410F4615460021012298460446FFF70C
:104170003EFE431C064603D14FF0FF30BDE8F08100
:10418000204641460022FFF732FE0130F4D0394686
:104190002A462046FFF775FF0546FDF75BFA3146D4
:1041A000076800222046FFF722FE013001D1002DD2
:1041B000E2DAFDF74FFA07602846BDE8F08170B5F6
:1041C0000E4615461C46FFF7E0FD30B131462A4643
:1041D0002346BDE87040FFF7C2BF4FF0FF3070BD0F
:1041E0002DE9F041071E8846164601DA09242AE027
:1041F00012B9FDF7A7F80646072FF7D83846FFF79C
:10420000C4FD30B3806838B34146FFF725FE04464D
:1042100010B16FF00C0421E0B368D3F8A450284625
:1042200001F062FC002836D10346EA182C1D5268C2
:10423000002A1C4414DB2433B3F5907FF5D11724F6
:104240002846FDF7EBFDFDF705FA04600020BDE808
:10425000F0814FF0FF3401E06FF001046442F2E7B7
:10426000002124222046FEF7ADFA00210122201D64
:10427000FEF7C8FAB0684021FDF74CFCE06068B179
:1042800000F140036061A06123612760A4F81C80F5
:104290002846FDF7C3FD2046BDE8F0810C24CFE79A
:1042A00010B5044630B9FDF7D5F9092303604FF086
:1042B000FF3010BD036833B1806808B1FFF797FC89
:1042C0002068FFF794FC034B20469B6C9847002026
:1042D00010BD00BF00000208F0B585B00190FFF7E7
:1042E000DDFB019828B9244B1C68002303930127A8
:1042F00013E00378002BF6D0204903F057FA00288A
:10430000F1D0019B1B782F2B28D1002101A80A4650
:1043100003ABFFF711FC0027044614B3184E3020FE
:10432000736C98470546F0B1002343602FB1238991
:1043300002332381046084600CE063682BB11A8926
:1043400002321A810360836004E0E36813B1B36C46
:10435000984706E0FFF7C6FB28460BE06FF0130412
:1043600002E0142400E00C24FFF7BCFBFDF772F917
:104370000460002005B0F0BDD8010020F37F0008E4
:104380000000020838B5044658B303685BB381687F
:1043900059B321220D30143103F015FA0023237391
:1043A000A368DA680AB1022222735A680AB9DB6884
:1043B0001BB9237B43F008032373FFF76FFBA5684A
:1043C0002B68A36013B11A8901321A81FFF78AFBA7
:1043D0002846FFF70CFC63680133636004F10C00AE
:1043E00038BD092402E01C4600E00C46FDF732F916
:1043F0000460002038BD38B5044698B103688BB11D
:10440000FFF74CFB2368A568A360002262601A894D
:1044100001321A81FFF766FB25B12846BDE8384016
:10442000FFF7E5BB38BDF8B50F460546E8B10468AF
:10443000DCB14668B142ACBF84680026FFF72EFBB2
:1044400024B1BE4202D001362468F9E7AF686E603D
:10445000AC6014B1238901332381FFF743FB27B1FB
:104460003846BDE8F840FFF7C2BBF8BD07B5049871
:1044700040F2013101AAFFF79BFC0028A5BF01987B
:10448000059B4FF0FF30C01803B05DF804FB00003F
:104490000EB42DE9F04195B000241B9E0294034612
:1044A00000285FD04021354A04A803F04CF9FDF7FD
:1044B000C1FB04A802A900F0D5F80546019088B117
:1044C000438903F00703052B41D106F00C030C2BA5
:1044D0003FD0E9682046324602F042FD05460028FA
:1044E00031D125E0730739D51DAB0393DDF870801A
:1044F0001D9FFFF7D3FA01A904A800F025F904468F
:10450000FFF7F0FA002C01DA644228E04046394611
:1045100002F08CFD044658B128462146324602F08E
:104520001FFD054630B9204602F098FD019BDD6075
:104530000C240FE0019B5A89DC6022F0070242F054
:1045400005025A812360FDF78DFB284610E0062402
:1045500000E011240198FFF74AFB00E00224FDF778
:1045600081FB00E01624FDF775F804604FF0FF3082
:1045700015B0BDE8F04103B0704700BFF57F0008FB
:1045800010B50446FFF78AFA23891AB2002AC4BF7D
:1045900003F1FF332381B4F90830002B11DC638968
:1045A0001B070ED5E06802F059FD0023E360FFF71A
:1045B00099FA6068FFF7A8FA2046BDE81040FEF7B8
:1045C00081BDBDE81040FFF78DBA38B5044650B143
:1045D000FDF730FB6568204602F0E6FC2868FFF72F
:1045E000CFFFFDF73FFB002038BD000030B593B092
:1045F000002203464021019202A8194A03F0A3F8C1
:10460000FDF718FB02A801A900F02CF80446E8B158
:10461000438903F00703052B13D1FFF73FFA6568C1
:104620001DB1FFF75FFA27250CE002A800F054F84F
:10463000FFF758FA2046FFF7A3FFFDF713FB2846C4
:104640000CE006252046FFF7D2FA00E00225FDF730
:1046500001F80560FDF706FB4FF0FF3013B030BDE9
:10466000F57F000813B5019003782F2B0C4610D16D
:10467000FFF714FA0021234601A80A46FFF75CFA67
:10468000044610B1038901330381FFF72BFA20465A
:1046900000E0002002B010BD1FB5019008B9002055
:1046A00015E003782F2BFAD101A802A903AA002351
:1046B000FFF742FA0028F2D0029A036822B9039A5F
:1046C0000AB1536001E0034A13600023036005B0A0
:1046D0005DF804FBD801002038B5FFF7DDFF044684
:1046E00088B1B0F9085035B1438943F008034381DC
:1046F0006FF00F0038BD4068FFF706FA2046FEF75E
:10470000E1FC284638BD6FF0010038BD10B5034606
:104710000446184613F8012B2AB9001B1830FEF77F
:10472000DDFC18B910BD2F2AF3D1F6E700F1140310
:10473000013C14F8012F12B900221A7010BD2F2A63
:10474000FAD003F8012BF4E77FB500230B60027861
:1047500001902F2A0D463FD101A802A903AAFFF715
:10476000EBF900283BD10198FFF7DDF90378064605
:104770000198D3B1FFF7CAFF10B96FF00B0030E01A
:10478000029C039A1CB122680260206008E01AB102
:1047900051680160506003E0134A116801601060C5
:1047A0000022019602920390DDE7FFF7AFFF002899
:1047B000E3D0029A039B1AB113680360106008E00B
:1047C0001BB15A680260586003E0074B1A68026028
:1047D00018602860002004E06FF0150001E06FF021
:1047E000100004B070BD00BFD801002010B5044611
:1047F000084801F079F960B9074B0648012202FA2E
:1048000004F41A6822EA04021A60BDE81040FDF7B9
:1048100005BB10BD02000020DC01002038B5836814
:104820001D6900F0D7F8044620B9AB7A13B9287B8C
:10483000FFF7DCFF204638BD2DE9F043804685B008
:10484000354801F051F9002860DB344E336800240C
:104850000127A74017EA03090CD13B4368463049BA
:104860003360224602F058FF73682C4D1F4209D076
:104870004E4623E00134202CEAD12748FDF7CEFA3A
:10488000172540E000F07CF8064620B92248FDF7E5
:10489000C5FA0C2534E00473224968464FF4DB72F4
:1048A000334603F0A3F8814628B11B48FDF7B6FA5A
:1048B000C9F1000521E06B681F436F601648FDF7E2
:1048C000ADFA68460221FFF7DBFA0028C8F80400B9
:1048D000B8BF45420EDB68460121FFF7D1FA002838
:1048E000C8F80000A8BF002012DA4542D8F804003A
:1048F000FFF79CF9684603F092F8304600F05BF849
:104900002046FFF773FFFCF7A5FE05604FF0FF3070
:1049100005B0BDE8F08300BF02000020DC010020EC
:104920001C8000080480000870B506460D4600F0A3
:1049300027F8044658B12A4630460749234603F073
:1049400055F8054630B1204600F035F802E06FF02A
:104950000B0070BD284670BD2880000810B50446C5
:10496000204601F0C1F840B1FCF774FE0368042B47
:10497000F6D002486D21FCF7F7F910BD4080000821
:1049800010B51420FEF7A4FB044690B100211422B8
:10499000FDF718FF002101222046FDF733FF00211B
:1049A0000A46A01CFDF72EFF0021201D0A46FDF738
:1049B00029FF204610BD10B50446FDF76CFCA01C75
:1049C000FDF769FC201DFDF766FC2046BDE81040A0
:1049D000FEF778BB37B583681C6905462046FFF7AC
:1049E000BDFFA37A012B16D9013BA3722B689B074D
:1049F0001AD5E37A013BDBB2E372ABB9A51C2846BA
:104A000001A902F0ECFE78B9019B002B0CDA2846D4
:104A1000FDF704FAF2E72069FEF754FB0023236157
:104A2000E3802381A372E3722046FDF7F7F90020AB
:104A300003B030BDF7B583681C690546204601F018
:104A400053F8064620B1FCF705FE0068404242E0FC
:104A5000A37A5BB94FF48060FEF73AFB206128B976
:104A60002046FDF7DBF96FF00B0034E0A37A013349
:104A7000A3722B689B070AD4FDF7DCF82046FDF7EC
:104A8000CDF92B6803F00303012B21D113E0E37A66
:104A90000133DBB2012BE372EED1A71C384601A92A
:104AA00002F09DFE0028E7D1019B002BE4DA384696
:104AB000FDF7B4F9F1E7E37A53B9A01C01F014F85B
:104AC00030B1FCF7C7FD066828467642FFF782FF43
:104AD000FDF7C8F8304603B0F0BD2DE9F341836817
:104AE0001C6906460F469046204600F0FDFF002850
:104AF00014DBE28823899A4213D01CE0E37A002B6E
:104B00003AD0FDF797F82046FDF788F9A01C00F091
:104B1000EBFF0546FDF7A6F8002DE5DA4FF0FF356F
:104B20002DE0356815F04005E8D02046FDF776F910
:104B30006FF00A0523E00025454516D02389E28859
:104B40009A4212D02269D35C7B55238901339BB2F0
:104B5000B3F5806F28BF002323810135ECE7019B6B
:104B6000002B09DA3046FDF759F9261D304601A918
:104B700002F035FE0028F2D02046FDF74FF9284616
:104B800002B0BDE8F0812DE9F74383681C69074650
:104B900020460E46904600F0A7FF002856DB002175
:104BA0000D46B4F806E022890EF10103B3F5806FDB
:104BB000A8BF002393421CD020690135721C4545D3
:104BC000367800F80E60E38007D21646E9E7019BCD
:104BD000002B09DA2846FDF721F9A51C284601A972
:104BE00002F0FDFD0028F2D02046FDF717F94046FF
:104BF0002EE0A94211DB3B685B0617D5002D08BFEC
:104C00006FF00A052046FDF709F9284620E0019BD0
:104C1000002BF0DA4846FDF701F904F10209484695
:104C200001A902F0DCFD0028F1D0E4E7FDF702F86D
:104C30002046FDF7F3F8201DFFF790FEFDF712F870
:104C40002046FFF78BFE29463246BEE74FF0FF3085
:104C500003B0BDE8F08300BF6FF01800704700207C
:104C6000704770B50C4615468E18B44204D014F83F
:104C7000010BFEF707FCF8E7284670BD034804491E
:104C80004FF4DB72002302F0B1BE00BF1F7D0008AD
:104C900054800008002070471046704703480449BC
:104CA0004FF4DB72002302F0A1BE00BF8480000835
:104CB0006C800008D0400B1CD1409C46203AD34069
:104CC0001843524263469340184370474BB942B968
:104CD000002908BF002802D04FF0FF31084600F03D
:104CE0003BB882B0EC462DE9005000F01DF8DDF82D
:104CF00004E002B00CBC70472DE97043069E1446D8
:104D00001D468046894600F029F804FB01F300FBAC
:104D10000533A4FB00451D44B8EB040469EB05050D
:104D2000C6E90045BDE870832DE97043069E144630
:104D3000804689461D4600F05DF900FB05F504FB41
:104D40000153A0FB04451D44B8EB040469EB0505C1
:104D5000C6E90045BDE87083704700BF00292DE912
:104D6000F00FC0F29F800024002BC0F29680154601
:104D700006460F46002B3ED18A4257D9B2FA82F33B
:104D80004BB1C3F1200201FA03F720FA02F29D4071
:104D9000174300FA03F6290CB7FBF1F2330C01FBC1
:104DA000127CA8B243EA0C4700FB02F3BB4209D9CC
:104DB0007F1902F1FF3C80F00181BB4240F2FE808E
:104DC000023A2F44FF1AB7FBF1F3B6B201FB13719D
:104DD00046EA014100FB03F0884208D9491903F172
:104DE000FF3780F0ED80884240F2EA80023B43EAE0
:104DF0000242002303E08B420AD900231A461046E0
:104E0000194614B1404261EB4101BDE8F00F704713
:104E1000B3FA83F8B8F1000F40F084808B4202D3DC
:104E2000824200F2DE8000230122E8E712B901236A
:104E3000B3FBF2F5B5FA85F2002A39D17F1B280CB5
:104E40001FFA85FC0123B7FBF0F1320C00FB117750
:104E500042EA07470CFB01F2BA4207D97F1901F178
:104E6000FF3802D2BA4200F2C1804146BF1AB7FBF6
:104E7000F0F2B6B200FB127046EA00400CFB02FCF6
:104E8000844507D9401902F1FF3702D2844500F268
:104E9000AB803A4642EA0142B1E7E443524263EB57
:104EA000430364E7404261EB41014FF0FF345BE7AD
:104EB0009540C2F1200327FA03F1280C26FA03F3E8
:104EC0009740B1FBF0F81F433B0C00FB18111FFA91
:104ED00085FC43EA01410CFB08F38B4206FA02F61B
:104EE00008D9491908F1FF3279D28B4277D9A8F154
:104EF00002082944C91AB1FBF0F3BFB200FB131139
:104F000047EA01470CFB03F2BA4207D97F1903F1C4
:104F1000FF3160D2BA425ED9023B2F44BF1A43EA46
:104F2000084390E7C8F1200203FA08FC25FA02F3CF
:104F300043EA0C0C4FEA1C4921FA02F301FA08F784
:104F400020FA02F2B3FBF9F1174309FB11333A0CD3
:104F50001FFA8CFB42EA03430BFB01FA9A4505FA60
:104F600008F008D913EB0C0301F1FF3235D29A4552
:104F700033D902396344CAEB0303B3FBF9F209FBEB
:104F80001233BFB247EA03470BFB02F9B94508D910
:104F900017EB0C0702F1FF331BD2B94519D9023ABE
:104FA000674442EA0145A5FB0001C9EB07078F42B0
:104FB0004FF000030AD305D02A4620E7624601E7F6
:104FC0003B4614E706FA08F68642F5D26A1E00232D
:104FD00015E71A46E5E70B46A0E71146CBE79046F2
:104FE00088E7434642460AE7023A53E702392F442C
:104FF0003CE700BF2DE9F00F144605460E46002B96
:1050000043D18A4253D9B2FA82F757B1C7F1200689
:1050100020FA06F601FA07F302FA07F41E4300FA33
:1050200007F5210CB6FBF1F22B0C01FB1267A0B2C5
:1050300043EA074600FB02F3B34209D9361902F1ED
:10504000FF3780F0F680B34240F2F380023A264404
:10505000F61AB6FBF1F3ADB201FB136145EA01416B
:1050600000FB03F0884208D9091903F1FF3680F0EC
:10507000E280884240F2DF80023B43EA02420023A2
:1050800010461946BDE8F00F70478B424AD8B3FA74
:1050900083F6002E4DD18B4202D3824200F2D6809D
:1050A0000023012210461946BDE8F00F704712B9DF
:1050B0000124B4FBF2F4B4FA84F2002A7CD1091B77
:1050C000260CA7B20123B1FBF6F02A0C06FB101147
:1050D00042EA014107FB00F28A4207D9091900F1AF
:1050E000FF3C02D28A4200F2C3806046891AB1FBBB
:1050F000F6F2ADB206FB121145EA014507FB02F7D5
:10510000AF4208D92C1902F1FF3180F09680A742F6
:1051100040F29380023A42EA004210461946BDE846
:10512000F00F704700231A4610461946BDE8F00FED
:105130007047C6F1200522FA05F4B3401C434FEA3C
:10514000144821FA05F301FA06F720FA05F5B3FB36
:10515000F8FC2F4308FB1C333D0C1FFA84FA45EA88
:1051600003430AFB0CF9994502FA06FB04D91B1903
:105170000CF1FF326DD39446C9EB0303B3FBF8F592
:1051800008FB1533BFB247EA03470AFB05F8B845E9
:1051900004D93F1905F1FF3361D31D4645EA0C4C94
:1051A000ACFB0B23C8EB07079F424FF0000549D328
:1051B00045D062462B4663E79440C2F1200321FAB2
:1051C00003FC260C20FA03F301FA02F5BCFBF6F807
:1051D00043EA05010B0C06FB18CCA7B243EA0C4CC2
:1051E00007FB08F3634500FA02F509D91CEB040C30
:1051F00008F1FF323AD2634538D9A8F10208A44435
:10520000C3EB0C0CBCFBF6F389B206FB13CC41EAF2
:105210000C4107FB03F28A4207D9091903F1FF3059
:1052200022D28A4220D9023B2144891A43EA084308
:1052300049E73A460CE733461FE70A466BE7B040BA
:105240009042B6D20CF1FF32002319E733463246C2
:1052500016E799458FD9ACF1020C23448CE7B84589
:105260009BD9023D274499E70346DEE79046C7E70E
:10527000023821443AE700BF024B1B68986800B12E
:10528000203070478002002038B5144B1D68B5F9F6
:105290001C30044653B12A7E037E9A4206D210493E
:1052A00000F022F801236376002038BD20460B4928
:1052B00000F01AF870B1B5F91C300BB923681BB9AE
:1052C00008488621FBF750FD0322627602225A76B7
:1052D000012038BD0223637638BD00BF8002002064
:1052E000200300208E80000810B5027E1AB91248F3
:1052F0006B21FBF739FD0B6823B11C7E94420DD363
:105300001B68F9E74A6822B9036043600860486097
:105310000AE003604260106048600BE05A682AB9F6
:105320000360426058600860012010BD0360426065
:1053300010605860002010BDAA800008F8B515491B
:10534000154C0A68236800200E463BB11D6842B127
:105350001F7E117E8F4208D81268F8E723606360D1
:10536000F8BD0E488021FBF7FFFC516849B9596030
:1053700002211A6053605176032233605A7601206D
:1053800005E01A6059600B60536002225A761A4693
:105390002B46DAE78002002020030020C7800008A7
:1053A00010B5437E1A1F042A044603D9054861211B
:1053B000FBF7DAFC044A52F83310FDF7AAFA00238F
:1053C000637610BDE2800008A87C0008024B1B68D1
:1053D0009B68D3F8A40070478002002038B50446CB
:1053E0000D4621B9FCF736F91623036012E0FCF7ED
:1053F00021FC0E4B186884B1B0F90C20A2420CD0ED
:105400002046FCF7DBFB40B9FCF724F903230360DB
:10541000FCF728FC4FF0FF3038BD296800F008F891
:105420000446FCF71FFC204638BD00BF8002002068
:10543000F8B5244B1A684B1EFE2B04460D4606D9C0
:10544000FCF708F9162303604FF0FF30F8BDEFF3C7
:10545000108772B6437E022B0CD0032B1CD103683D
:105460001B7E994204DC2046E9B202F07FFA23E079
:10547000257621E0137E9942F5DC02F07DF810B12B
:105480001148B72106E025762046FFF7FDFE98B1CA
:105490000D48BF21FBF768FC0C4A02EBC3010979F8
:1054A0000029E5D052F833603146FDF732FA25760F
:1054B00020463146FFF718FF17F0010F00D162B602
:1054C0000020F8BD80020020FE800008A87C0008B3
:1054D00038B504460D46D1B10E4B1B6818B1B3F96F
:1054E0000C20824203D11B7E2B60002038BDFCF7CC
:1054F000A1FB2046FCF762FB18B1037E2B60002461
:1055000001E04FF0FF34FCF7ADFB204638BD4FF013
:10551000FF3038BD800200204B1E012B70B50D46B8
:10552000164603D9FCF796F8162309E008B900F0EF
:1055300091F9FCF743FB044630B9FCF78BF80323E1
:1055400003604FF0FF3070BDFCF774FBEFF3108287
:1055500072B6022D638B04D143F0100363831423CE
:1055600003E023F0100363830023236212F0010F92
:1055700000D162B631682046FFF75AFF0446FCF7B7
:1055800071FB201C18BF0120404270BD08B510B946
:10559000094B186801E0FCF711FB30B9FCF75AF829
:1055A000032303604FF0FF3008BD438B13F0100F4F
:1055B0000CBF0120022008BD80020020024B1868A9
:1055C000017EFFF735BF00BF80020020002810B524
:1055D0000C4602D10D4B1B680EE003DAFCF73AF8DB
:1055E000162305E0FCF7EAFA30B9FCF733F8032399
:1055F00003604FF0FF3010BD1CB9FCF72BF80E23F1
:10560000F6E7034B002084E8090010BD800200206B
:1056100000C2EB0B024B1B68B3F91C00704700BFC4
:105620008002002070B505460E46FCF703FB2846B5
:10563000FCF7C4FA20B9FCF70DF80A23036010E068
:10564000846816B1636803B96660A01C00F04CFA68
:10565000002802DA0023636003E0FCF703FB28461E
:1056600003E0FCF7FFFA4FF6FF7000B270BD0000D8
:1056700008B5104B0BB101F04DFD00F0FFF90E4BDA
:105680001868438BDB0613D5036A012B0EDCB0F9D7
:105690001C306BB91423036203684BB1017E1B7E7F
:1056A0008B4205D3BDE8084002F060B9013B0362BC
:1056B00008BD00BF157100088002002008B5074B27
:1056C0001A6818B1B2F90C20824202D10020FBF70F
:1056D000B3FF0021BDE8084000F080B88002002040
:1056E00038B5104C2568284601F046FF2468A38B86
:1056F0000133A383022363762846042101F050FF7F
:10570000B5F90C00012100F069F803236376064B1C
:105710001B6805460BB1FFF711FEA38B013BA3836A
:10572000284638BD800200202003002070B50546C1
:10573000FCF780FA264B1B681DB1B3F90C30AB4265
:1057400003D1FBF787FF26230CE02846FCF736FA47
:10575000044620B1438B03F00303012B06D1FBF772
:1057600079FF032303604FF0FF3070BDFCF7DFFAD1
:10577000EFF3108672B6174B627E204653F8321054
:10578000FDF7C7F80023637616F0010F00D162B66B
:105790002046FCF785FC94F8E03023762046FDF7A0
:1057A000D1FE20460C49FDF7A8F804236376204675
:1057B000FBF718FF044638B12846FFF77FFFFBF7D9
:1057C00049FF64420460CEE7FCF74CFA204670BD06
:1057D00080020020A87C00089002002038B5044612
:1057E0000D46FCF727FA2046FCF7E8F9044640B3DB
:1057F000437E032B01D0082B05D9FCF733FA13485D
:105800009821FBF7B1FA00212A46FCF759FAEFF389
:10581000108572B60E4B627E204653F83210FDF7AB
:1058200078F80023637615F0010F00D162B6FCF71B
:1058300019FAA17E204601F00301BDE83840FCF7CB
:10584000CFB9FCF70FFA6FF0020038BD18810008DD
:10585000A87C0008024B186800B1808900B270472C
:10586000800200202DE9F3411A4B1D686B8B03F079
:105870000303022B80464FF0E80014BF00270227E5
:10588000FDF72CFC044620B9FBF7E4FE0C23036073
:105890001CE0A97EFBF7D2FC061E0DDB2046FCF7C0
:1058A00019F9061E08DB297E0097204642466B69DF
:1058B000FBF7E6FD061E09DA39462046FCF790F9AB
:1058C000FBF7C8FE76420660002000E0204602B0EA
:1058D000BDE8F0818002002038B504460D46064937
:1058E000FDF717F8A17E204601F00301FCF778F9D7
:1058F000FBF7B0FE056038BD9002002037B5224BA3
:105900001A680023C0F8E430518B01F0030101292B
:1059100004461BD0D2F89410D0F89400401AD2F864
:10592000E4100144C4F8E410D2F8E41051F8231054
:1059300039B1D4F8E450014445F823100133042B65
:10594000F2D1D4F8E420002142F823102046FBF7DE
:105950009DFC011E05DB2046A589FBF743FE011EC9
:1059600006DA20464942FFF7B7FF4FF6FF7007E01F
:1059700002A9002241F8042D28B2FFF753FE284661
:1059800000B203B030BD00BF8002002008B5FBF7B5
:1059900061FE006808BD10B50446FBF75BFE0460BD
:1059A00010BD000008B42DE9F741099E0D46904650
:1059B000044618B1022E01DC002906DAFBF74AFE84
:1059C000162303604FF0FF3051E0EFF3108772B6FB
:1059D000037BDB0701D5FCF7C1F90AAB002EC4F845
:1059E00004806673019305DD0A9A2261012EC4BF0B
:1059F0000B9B63610DB1013500E001251E490E6866
:105A00002046002E30D03046334600229968521886
:105A10000AD5196841B118460B46F7E7196801B372
:105A20008868024418460B46AA42F7DD99688A1A2C
:105A30001544491BB342996004D120460E4901F038
:105A400015FF03E021460C4A01F017FF237BA560F8
:105A500043F00103237317F0010F00D162B6002059
:105A600005E00549AD1A2046FCF70CFFEEE703B050
:105A7000BDE8F04101B07047F404002038B5194A80
:105A800013681546002B2BD09A68013A002A9A60B9
:105A900026DC2B68134C1BB39B68002B20DC2046B4
:105AA000FCF710FF226803461AB190689968014418
:105AB00091601A7B587B22F0010201281A730BD0E7
:105AC00006D30228E5D15C6819695A69A047E0E766
:105AD0005B6800209847DCE75A6819699047D8E767
