:020000040800F2
:1000000044560020B104000891010008990100083D
:10001000A1010008A9010008B10100088901000838
:10002000890100088901000889010008B901000858
:10003000C101000889010008C9010008D1010008B8
:10004000D9010008E1010008E9010008F1010008F8
:10005000F901000801020008090200081102000865
:1000600019020008210200082902000831020008D4
:100070003902000841020008490200085102000844
:1000800059020008610200086902000871020008B4
:100090007902000881020008890200089102000824
:1000A00099020008A1020008A9020008B102000894
:1000B000B9020008C1020008C9020008D102000804
:1000C000D9020008E1020008E9020008F102000874
:1000D000F9020008010300080903000811030008E1
:1000E0001903000821030008290300083103000850
:1000F00039030008410300084903000851030008C0
:10010000590300086103000869030008710300082F
:10011000790300088103000889030008910300089F
:1001200099030008A1030008A9030008B10300080F
:10013000B9030008C1030008C9030008D10300087F
:10014000D9030008E1030008E9030008F1030008EF
:10015000F90300080104000809040008110400085C
:1001600019040008210400082904000831040008CB
:10017000390400084104000849040008510400083B
:1001800059040008610400084FF0000000F06CB949
:100190004FF0020000F068B94FF0030000F064B9BE
:1001A0004FF0040000F060B94FF0050000F05CB9BA
:1001B0004FF0060000F058B94FF00B0000F054B9B2
:1001C0004FF00C0000F050B94FF00E0000F04CB9A9
:1001D0004FF00F0000F048B94FF0100000F044B9A4
:1001E0004FF0110000F040B94FF0120000F03CB9A0
:1001F0004FF0130000F038B94FF0140000F034B99C
:100200004FF0150000F030B94FF0160000F02CB997
:100210004FF0170000F028B94FF0180000F024B993
:100220004FF0190000F020B94FF01A0000F01CB98F
:100230004FF01B0000F018B94FF01C0000F014B98B
:100240004FF01D0000F010B94FF01E0000F00CB987
:100250004FF01F0000F008B94FF0200000F004B983
:100260004FF0210000F000B94FF0220000F0FCB880
:100270004FF0230000F0F8B84FF0240000F0F4B87D
:100280004FF0250000F0F0B84FF0260000F0ECB879
:100290004FF0270000F0E8B84FF0280000F0E4B875
:1002A0004FF0290000F0E0B84FF02A0000F0DCB871
:1002B0004FF02B0000F0D8B84FF02C0000F0D4B86D
:1002C0004FF02D0000F0D0B84FF02E0000F0CCB869
:1002D0004FF02F0000F0C8B84FF0300000F0C4B865
:1002E0004FF0310000F0C0B84FF0320000F0BCB861
:1002F0004FF0330000F0B8B84FF0340000F0B4B85D
:100300004FF0350000F0B0B84FF0360000F0ACB858
:100310004FF0370000F0A8B84FF0380000F0A4B854
:100320004FF0390000F0A0B84FF03A0000F09CB850
:100330004FF03B0000F098B84FF03C0000F094B84C
:100340004FF03D0000F090B84FF03E0000F08CB848
:100350004FF03F0000F088B84FF0400000F084B844
:100360004FF0410000F080B84FF0420000F07CB840
:100370004FF0430000F078B84FF0440000F074B83C
:100380004FF0450000F070B84FF0460000F06CB838
:100390004FF0470000F068B84FF0480000F064B834
:1003A0004FF0490000F060B84FF04A0000F05CB830
:1003B0004FF04B0000F058B84FF04C0000F054B82C
:1003C0004FF04D0000F050B84FF04E0000F04CB828
:1003D0004FF04F0000F048B84FF0500000F044B824
:1003E0004FF0510000F040B84FF0520000F03CB820
:1003F0004FF0530000F038B84FF0540000F034B81C
:100400004FF0550000F030B84FF0560000F02CB817
:100410004FF0570000F028B84FF0580000F024B813
:100420004FF0590000F020B84FF05A0000F01CB80F
:100430004FF05B0000F018B84FF05C0000F014B80B
:100440004FF05D0000F010B84FF05E0000F00CB807
:100450004FF05F0000F008B84FF0600000F004B803
:100460004FF0610000F000B86A4602F12002EFF39D
:1004700010832DE9FC0F72B6694600F0C9FB69468E
:10048000884209D000F1280191E8F00F016821E9C4
:10049000F00F90E8FC0F01E0B1E8FC0F81F3088851
:1004A000DFF808E083F3108870470000F9FFFFFFD2
:1004B00008B500F027F800F0ADF900F0B9F80C4AE3
:1004C0000C4B9A424FF0000302D242F8043BF7E78C
:1004D000094A0A499818884204D20949595899503A
:1004E0000433F5E700F028FB00F07EFF00F0EEFF9C
:1004F0001C03002048520020000000201C030020A4
:100500003C84010813B53C4A3C4C136843F001039A
:1005100013603B4B00201860116821F0847121F0BA
:100520000111116037490C60146824F480241460B0
:10053000354C2060106840F480301060334A0192DE
:100540000846019A002A07DD2B4A1268940303D457
:10055000019A013A0192F4E7019A002A2C4A18DC28
:100560002C492D4B086803430B602C4B196841F054
:1005700080011960136843F0825343F480231360B1
:10058000274A136843F4904343F02003136002B0FA
:1005900010BD116841F08051116022490C6844F48B
:1005A00080440C60196821F0F0011960196821F489
:1005B000604141F400411960196821F4E05141F4AF
:1005C000A0511960184901600B49086840F080701B
:1005D000086008688001FCD5144940F20560086095
:1005E000196821F0030141F002011960196801F056
:1005F0000C010829FAD1B3E700380240103000247A
:1006000008380240043802400C38024014821900B5
:100610004038024030380240FF01400E343802407A
:10062000443802400070004019544007003C02402A
:100630007047C0F30313082B0AD8064A00F00F00D6
:1006400052F82320012301B9103003FA00F0906121
:10065000704700BF646601082DE9F84FC0F3031628
:10066000082E00F2A880564B00F44022B2F5002F6D
:1006700053F8263000F00F0109D0B2F5402F08D012
:10068000B2F5802ADAF1000252EB0A0202E00222FD
:1006900000E00322EFF3108872B603274C001D68B8
:1006A000A740FF433D4002FA04FC4CEA0505032A3B
:1006B0001D600CD000F44035B5F5803F05D0B5F590
:1006C000003F0CBF0225002502E0012500E00025C7
:1006D000D3F80CC0022A0CEA070C05FA04F545EA27
:1006E0000C050CBFC0F303394FF000090729DD608A
:1006F0008BBF24252025A1F1080C8C464FEA8C0CD9
:1007000055F803B04FF00F0A0AFA0CFA2BEA0A0A5E
:1007100009FA0CF94AEA090C45F803C002F1FF3C5A
:10072000BCF1010F12D800F44065B5F5006F09D097
:10073000B5F5406F08D0B5F58069D9F1000555EBE6
:10074000090504E0022502E0032500E00025D3F8B6
:10075000089005FA04F409EA07073C4301259C6068
:10076000AC455C6805FA01F103D8850501D5214344
:1007700001E024EA0101012A596004D1C0F30021FB
:10078000FFF757FF10E0C3050ED500F00C020D4B2C
:1007900000F003008000D4580F21814024EA0101B9
:1007A000864041EA0600D05018F0010F00D162B631
:1007B0000020BDE8F88F6FF01500BDE8F88F00BF8E
:1007C0006466010808380140C0B2FFF745BFC0F3B6
:1007D0000313082B0DD8084A52F8233000F00F00FD
:1007E0001B69012202FA00F003420CBF0020012025
:1007F00070470020704700BF64660108034B1B6808
:100800001B06FBD5024B1860704700BF0048004034
:100810000448004008B500214FF48022144800F03D
:10082000E9F91448FFF718FF1348FFF715FF134BBA
:1008300013491A6822F47D521A6053F8042C22F4EA
:10084000BB5222F01C0243F8042C0A6822F4E06236
:1008500022F001020A600B4A40F26D11116053F858
:10086000042C42F4005242F00C0243F8042C08BD60
:10087000403802401A7C09001B7C090010480040E7
:10088000144800400848004010B5036C8185DA68C0
:1008900001F4D07422F4D0722243DA60036C5A69F6
:1008A00001F0010122F001021143596110BD6FF006
:1008B00018007047836A1A6C5068DA8D40EA024269
:1008C0000A600022DA85C0B2704710B5806AEFF383
:1008D000108472B6838D11B143F0200104E023F43B
:1008E000907121F0010189B2FFF7CEFF14F0010FE2
:1008F00000D162B610BD836A1B6C1868C0F340104B
:100900007047836A1B6C59607047836A1B6C186858
:10091000C0F3C010704738B504464FF48075226CA0
:1009200013689BB29906E38507D5A18D880604D587
:10093000204600F025FD012304E013F00E031CBF48
:1009400053680023E28D110606D5A28D120603D549
:10095000204600F0DDFC0123013D01D0002BDED15B
:10096000002038BD0148FFF7D6BF00BF00000020BF
:100970000148FFF7D0BF00BF5000002038B5044643
:10098000806AEFF3108572B6828D41B142F080012A
:1009900089B2FFF779FF204600F0BAFC05E022F0AB
:1009A00080010904090CFFF76FFF15F0010F00D15A
:1009B00062B638BD10B5846A94F8380000F0B8F912
:1009C00094F838000021BDE8104000F043BE38B56F
:1009D000846A94F83800E16C00F03CFE054618B9D2
:1009E00094F8380000F0B6F9284638BD38B5846A66
:1009F000374A236C9342054606D002F54C42934297
:100A000008D13448202202E033484FF480220021EC
:100A100000F0F0F8606CFFF71FFEA06CFFF71CFE03
:100A2000226C94F83210136923F47D5309B143F416
:100A300000531361236CDA6822F4BE72DA60226C10
:100A4000536923F4E06323F001035361AB6A596BEC
:100A5000DA6B186C4908B2FBF1F14A090131A1EBDC
:100A60004211490841EA02128260186C93F8301072
:100A7000C268012922F4B05202D142F4C06203E0FC
:100A8000022908BF42F4806293F83150092D02D048
:100A9000082D02D109B142F48052C260196C93F85A
:100AA00032000A6922F4405208B142F400520A614D
:100AB0001B6C5A6922F440725A61226CD36843F469
:100AC000005343F00C030020D360A08538BD00BF65
:100AD00000480040443802404038024038B5846A3B
:100AE000054600212046FFF7CFFEAB6A0F4A1B6C7C
:100AF000934206D002F54C42934208D10C48202183
:100B000002E00C484FF48021002200F073F8226CC0
:100B1000D36823F4005323F00C03D360606CFFF719
:100B200053FEA06CBDE83840FFF74EBE00480040C1
:100B3000443802404038024010B50024064BE058CB
:100B400010B10021FFF7A0FE0434182CF6D10348A1
:100B5000BDE81040FFF74ABF88660108000000208A
:100B600030B51049104885B000F098FB0D490F488A
:100B700000F094FB68460E4901F092FF0024012327
:100B80000C4AA15849B1CA783AB95D1C684630335D
:100B90008DF8093000F082FB2B460434182CEFD17D
:100BA00005B030BD00000020D0660108DD660108F8
:100BB000E86601088866010838B504460C48036CED
:100BC000DA685D69002102F4D07305F001051D4368
:100BD000FFF75AFE0A2C02D10D20FFF70FFEE0B2FC
:100BE000FFF70CFE02482946FFF74EFE204638BDAF
:100BF0000000002010B5EFF3108372B6046824EAF9
:100C000001011143016013F0010F00D162B610BD64
:100C1000F8B50B4C064604200D4600F047FC304664
:100C20002768256000F0A7F82946304600F02EFD21
:100C300025682760042000F041FC2846F8BD00BF6D
:100C4000444D00200F2810B51ADD2F2806DC03F1D3
:100C5000604303F561430B6010380CE04F2804DC5F
:100C6000154C1C440C60303805E0612821DC134C25
:100C70001C440C605038012303FA00F010600BE0B4
:100C80000F4B0B60042802D14FF4803303E005289A
:100C900004D14FF400331360002010BD062802D1A8
:100CA0004FF48023F7E70F2803D1064B0B60012395
:100CB000F1E74FF0FF3010BD04E100E008E100E093
:100CC00024ED00E010E000E010B5144A00231360AA
:100CD00053604FF08033C2F8183CC2F81C3CC2F895
:100CE000203C0F4B1B680133DB0002F5407213F10F
:100CF000FF3304D34FF0803142F8041BF7E7094B70
:100D0000094900240B201C6000F0A4FC07490320C3
:100D100000F0A0FC84F3118862B610BD00E100E091
:100D200004E000E0444D0020B90D0008790D0008F2
:100D300013B58023694601AA0446FFF783FF38B93B
:100D4000009B019A0F2CDCBF196821EA02021A608D
:100D500002B010BD13B50023694601AA0446FFF78F
:100D600071FF30B9009B019A0F2CDCBF19680A4350
:100D70001A6002B010BD704710B50B6C0B4C9A1E78
:100D8000A2420BD30A4CA24208D233F8023CB3F57C
:100D90005F4F03D1BDE8104000F00EB8EFF31083B1
:100DA00072B60448B72100F021F800BF0000000827
:100DB00034840108F36601088B6A012B10B50C46D8
:100DC0000DD007D3022B0DD14822C86A01F077FE5F
:100DD000226B05E0C86A482201F071FE02E0CA6A8F
:100DE000014B1A60002010BD444D002008B50620BC
:100DF00000F05CFB0D4B1B6823B90D4B1B68B3F96E
:100E00000C307BB9EFF3108372B6072000F04EFB75
:100E1000FA2000F00FF8072000F050FBFA2000F055
:100E200009F8F2E7012000F015FE00BF444D002054
:100E3000584D002082B000230093009B83420CD2C7
:100E400000230193019A44F24C139A4202D8019B69
:100E50000133F6E7009B0133EEE702B07047000074
:100E600070B583681C69636A1B690E46154698470E
:100E700010F1190F3ED140F205339E4204D040F2EA
:100E800006339E4218D070BDEFF3108272B6A18B6C
:100E9000638B09B21BB2994205DC618BA38B09B24B
:100EA0001BB2CB1A20E0608BA38BB4F91E1000B2EA
:100EB0001BB2C31A0B4417E0EFF3108272B6E1893C
:100EC000238A09B21BB2994205DA218AE38909B261
:100ED0001BB2CB1A07E0208AE389B4F9121000B2E2
:100EE0001BB2C31A0B44013B12F0010F00D162B6D2
:100EF00000202B6070BD38B504460D46204600F03A
:100F0000DBFD68B100F0B4FD0368042B03D0054895
:100F10008821FFF76BFF002DF0D06FF0030038BD84
:100F200038BD00BF246701082DE9F843C589B0F931
:100F300012302DB2013504460F4690469D42A8BF9F
:100F40000025238A1BB29D4208D0E289636912B250
:100F5000ADB29F54E5810020BDE8F883B8F1000FE1
:100F60001DD0EFF3108972B60126636A66705B6A62
:100F70002046314698473146A01DFFF7BCFF636A03
:100F800006465B6A20460021984719F0010F00D100
:100F900062B6002ED5DA6FF00300BDE8F8836FF07B
:100FA0000A00BDE8F8832DE9F84F836880460E46B5
:100FB00015461C6902F0A2FA074628B1E37843B946
:100FC0004FF0FF30BDE8F88F00F03CFD0028F5D071
:100FD00018E0EFF3108772B606EB050846450AD015
:100FE00016F8014B0A2C02D10D20FFF7E5FD204633
:100FF000FFF7E2FDF2E717F0010F00D162B62846D5
:10100000BDE8F88F04F10C0948460121FFF773FF92
:1010100000283EDBD8F8003083F0400A636A20469F
:101020005B6A39469847CAF3801AA846B8F1000FA0
:101030001FD0E37816F801BB33B920465946524613
:10104000FFF772FF07460AE0BBF10A0FF5D1204611
:101050000D215246FFF768FF07460028EDD0002F0C
:1010600004DAA84506D2C8EB050703E008F1FF380B
:10107000DCE72F46E289238A12B21BB29A4204D0DF
:10108000636A20465B6A01219847484600F056FD96
:101090003846BDE8F88F2DE9F04783681C6904F1F4
:1010A000180780460E46384601219146FFF723FF78
:1010B00000284CDB00254D4545D2A38B628B9BB2AB
:1010C00012B219B28A420ED0226AB4F91E00525CE2
:1010D00001339BB219B28842D8BF0023A3830135E4
:1010E00032700136E7E7002D2DD1D8F800305B06CD
:1010F00027D4636A20469B6929469847628BA38B55
:1011000012B21BB29A4216D1EFF3108A72B6636A1A
:1011100020469B69012198470121A17004F1080034
:10112000FFF7E9FE1AF0010F00D162B60028C2DA1B
:101130006FF0030507E0636A20469B690121984729
:10114000B9E76FF00A05384600F0F8FC2846BDE81C
:10115000F0872DE9F04183681C69271D384601217D
:10116000FFF7C9FE051E38DB94F8008008F101087E
:1011700018F0FF082CD0B8F1010F26D1EFF310863C
:1011800072B6E3782BB9636A20461B689847051E40
:1011900009DB636A20469B689847051E626A07DA86
:1011A00053682046984716F0010F00D162B611E04F
:1011B0000023E38123826383A38393692046012173
:1011C000984716F0010F00D162B684F8008001E064
:1011D0006FF01705384600F0B1FC2846BDE8F081F5
:1011E00038B50C46054600F055FC2846224600213D
:1011F000BDE8384001F06CBC70B583681C69251DE2
:1012000028460021FFF777FE2378012B02D9013B06
:1012100023703CE00021636A21709B692046984757
:10122000E289238A12B21BB29A4203D01A4801F013
:1012300019FCF5E7636A2046DB6A984718B9164837
:1012400001F010FCF6E7EFF3108672B6636A2046F1
:10125000DB689847E3781BB9636A20465B68984768
:1012600016F0010F00D162B60021A01DFFF7B8FFF4
:10127000002104F10800FFF7B3FF012104F10C0085
:10128000FFF7AEFF04F118000121FFF7A9FF284680
:1012900000F054FC002070BD20A1070070B50122B1
:1012A0000C46054601F10C00002101F011FC04F18F
:1012B00018000021012201F00BFC201D0021012259
:1012C00001F006FC00210A46A01D01F001FC0021EE
:1012D0000A4604F1080001F0FBFB284623460349B7
:1012E0004FF4DB72BDE870400BF0A8BC0C6701083E
:1012F000837823B100238370083000F01FBC70474F
:10130000437823B100234370063000F017BC7047C8
:1013100070B504460025E289238A12B21BB29A42B4
:10132000AEB20BD1E289238A12B21BB29A4220D10B
:10133000636A20465B6A002198471AE0636A204688
:101340009B6A98470028EDD0218A6369626A09B2D6
:10135000126A595C20469047238AB4F9122001335F
:101360009BB223821BB29A42DCBF00232382013549
:10137000D1E726B12046BDE87040FFF7C1BF70BD80
:101380002DE9F341458BB0F91E302DB201350446ED
:101390009D42A8BF00250026B7B2636A2046DB69DC
:1013A0009847D0B1B4F81C80636A1FFA88F85B696B
:1013B000204601A90FFA88F898474545EDD0628B81
:1013C000236A12B201369854ABB26383B4F91E306B
:1013D00001359D42A8BF0025DEE717B12046FFF783
:1013E00087FF02B0BDE8F08108B5044B0BB1AFF345
:1013F0000080BDE8084000F041B800BF00000000D8
:1014000038B50509E907044603D518480021FFF758
:1014100010F9AA0703D516480021FFF70AF96B0750
:1014200003D514480021FFF704F92D0703D512480E
:101430000021FFF7FEF8E00703D50C480121FFF774
:10144000F8F8A10703D50A480121FFF7F2F862076F
:1014500003D508480121FFF7ECF8230705D5064816
:101460000121BDE83840FFF7E4B838BD04090400A5
:1014700006090400160904002609040008B50748F7
:10148000FFF7EAF80648FFF7E7F80648FFF7E4F841
:101490000548BDE80840FFF7DFB800BF04090400B5
:1014A000060904001609040026090400024B33F85B
:1014B0001000000AFFF7A4BF34670108024B13F8BD
:1014C0001000FFF79DBF00BF3467010807B53F4A12
:1014D0000023136053603E4A136053603D4A13601B
:1014E00053603D4A136053603C4A136053603C4A6A
:1014F000136053603B4A136053603B4A1360536070
:101500003A4A13803A4A002599189D5008334FF6FD
:10151000FF70802B8880F5D1364C14609580294669
:10152000C822204601F0B4FA03236376324B63618C
:1015300002236383314B2549C4F8C830204604F1A7
:10154000C803C4F8C430C4F8CC5001F053FB2046A3
:1015500001F0C0FF684601A901F0B2FD9DE803005B
:1015600001F01EFC264B0BB100F05CFD254B0BB1CE
:1015700001F0F0F9244B0BB101F0A8F9234B0BB1AA
:10158000AFF30080224B0BB100F0E4FE214B0BB116
:1015900011F030FA204B0BB110F0ECFE0AF0F5FD23
:1015A00008F0ACFD01F078FFA17E124800F08AF847
:1015B000104800F0ABF80F4800F0A3F8A368012230
:1015C0001A7000F02BF801F08FFDFCE7584D002059
:1015D000F84D0020504D0020704D0020604D00203F
:1015E000484D0020684D0020044E0020004E002091
:1015F000784D00201C050020CD1400084467010828
:101600002520000855290008CD280008000000000A
:1016100055230008F52901087523010813B5002496
:1016200000F0DCFC00940848084B64214FF4006291
:1016300000F0E6F8A04204DC05484FF48E71FFF795
:10164000D5FB204602B010BD986701081140000884
:101650009D670108612838B504460FD8EFF310855F
:1016600072B611B9FFF764FB0649074B43F8241023
:1016700015F0010F00D162B6002038BD4FF0FF30E9
:1016800038BD00BFB11600081C4E0020612808B507
:1016900007D8054B054A53F82030002B08BF1346E6
:1016A00000E0024B984708BD1C4E0020B116000810
:1016B00008B5EFF3108372B601485521FFF796FB8A
:1016C000AF67010870B505464FF4277001F088FB3D
:1016D000044698B1A86000F055FC061E06DA2046C4
:1016E00001F072FB0023AB60304670BD04F10800CE
:1016F0000021012201F0ECF9002070BD6FF00B0019
:1017000070BD836801225A700020704738B5856823
:10171000044605F128000AF064FD05F5E87007F0BD
:1017200099FF0C4803210AF0F6FF051E0BD1012199
:101730000AF013FF284602210AF00FFF2046BDE8F9
:10174000384000F07DBC01DD0AF0DAFE6FF01600D3
:1017500038BD00BFD06601082DE9F7430746C82011
:101760000E469046994601F03BFB0446002839D0CE
:101770003146FFF7A7FF00281EDB204600F076FC6D
:10178000002819DB20464946324601F052FE002867
:1017900012DB009620464146174A0A9B00F074F877
:1017A000002809DB39460B9A204600F0CFF8204686
:1017B000FFF7A7FF002801DA45420EE02046A58981
:1017C00000F01EF90028A8BF28B211DA00F050F985
:1017D0000A490568204601F019FA2046314600F012
:1017E000B5FC00E00C2500F043F905604FF0FF3038
:1017F00003B0BDE8F08300BF191A0008684D00204F
:1018000073B5069C00930E4615460194002132469E
:101810002B46FFF7A1FF02B070BD73B5069C009385
:101820000E4615460194022132462B46FFF794FFDF
:1018300002B070BD70B5054600F0B2FC1022104930
:101840000B8801339BB218B200280B80DCBF012348
:101850000B8003F00F040B4951F834604EB941F886
:10186000345001EBC4018B80AB8100F0B1FC3046F9
:1018700070BD013AE3D100F0ABFC4FF0FF3070BD1A
:10188000004E0020784D00202DE9F04104460E4620
:1018900017469846FFF7CEFF054618BB638B9DF8A9
:1018A0001820276102F0030223F003031343F6B26A
:1018B000638304F1380229462676C4F81480032095
:1018C00000F068F92046657601F004FE00F068FC3F
:1018D0002046064901F08EF90423637600F078FC77
:1018E00084F8C0602846BDE8F08100BF684D002044
:1018F0002DE9F04104460F4616469846FFF79AFF39
:101900000546E8B9638B277623F0030343F0010310
:101910006383294604F138022661C4F81480032049
:1019200000F038F92046657601F0D4FD00F038FC6F
:101930002046054901F05EF90423637600F048FC77
:101940002846BDE8F08100BF684D00202DE9F74F23
:1019500081462A48174601F0AAF8451C9FB1002489
:1019600057F8240080B101F0A2F8D9F828300130EE
:1019700005449D423AD2013440F201139C42EFD11A
:101980006FF0060037E03C46A61CB60071194846C9
:1019900001F054FE054660B306440660174801F0A6
:1019A00086F816498046304601F07AF808F10108B9
:1019B000B044AB464FF0000AA24511DA4BF8048F51
:1019C000386801F074F857F8041B03464046019349
:1019D00001F066F8019B013398440AF1010AEBE734
:1019E000002046F8040CC9F8C45004E06FF023004E
:1019F00001E06FF00B0003B0BDE8F08FC76701088E
:101A000010B5EFF3108472B601F02CFE14F0010F44
:101A100000D162B6002010BD08B5094B1B68D3F891
:101A2000C410012051F8202032B1013040F20112DF
:101A30009042F7D1012001E05B69984700F00AF875
:101A4000584D0020024B186800B1808900B27047E1
:101A5000584D002008B5054B1B68C4B221461846F6
:101A6000002200F0E3FB204601F008FD584D002065
:101A700008B501F043FD38B9044B186820B1437E26
:101A8000032B01D1643008BD014808BD584D00202A
:101A9000EC05002008B530B1B0F90030002B09DBAF
:101AA0000123038006E0FFF7E3FF162303604FF0F6
:101AB000FF3008BD002008BDF8B51E4B04461D6868
:101AC000FFF7D6FF16230360002C30D0EFF310870A
:101AD00072B623881AB2002A03F1FF3303DD002017
:101AE000238068631EE06E6B1EB113488E21FFF7E2
:101AF0007DF923806C63FFF7BBFF05210660284654
:101B000001F054FCFFF7B4FF0368042B08D0FFF783
:101B1000AFFF00686E2814BF00206FF0000001E0E6
:101B20004FF0FF3017F0010F00D162B6F8BD4FF053
:101B3000FF30F8BD584D0020D067010810B510B334
:101B4000EFF3108472B6038847F6FF72934203D115
:101B50000E487821FFF74AF901339BB203801BB28C
:101B6000002B0ADC0A4B1B683BB15A6B8242FAD14C
:101B700000225A63184601F075FD14F0010F00D1E0
:101B800062B6002010BD4FF0FF3010BDE5670108C0
:101B9000504D0020F8B5164B1C68174606460D46FA
:101BA00000F0FEFAA36B07B13B60EDB1EFF31082DA
:101BB00072B6022E07D0032E0AD0012E0CD1A36BD1
:101BC00029680B4305E02968A36B23EA010300E0C1
:101BD0002B68A363002501E04FF0FF3512F0010FE1
:101BE00000D162B600F006F800F0F2FA2846F8BD1F
:101BF000584D002037B5154B1C6800F0D1FAA36B87
:101C00002046DD4300F012FC28400190019BC3B147
:101C100001A800F05BF8431C0546F7D0294601A84F
:101C200000F072FF2946204600F012F80546002811
:101C3000ECD02046291D00F059F8284600F026F87F
:101C4000E4E700F0C5FA03B030BD00BF584D0020F6
:101C500038B58268EFF3108572B6946900237CB1C1
:101C60002079884202D023462468F8E702F118015F
:101C70001BB1184600F0ADFF02E0084600F09FFFE0
:101C800015F0010F00D162B6204638BD10B5037BB8
:101C900023B9EFF3108472B60A4905E0022B0AD18A
:101CA000EFF3108472B6084900F069FF14F0010FD9
:101CB00000D162B610BD012B03D1BDE8104000F089
:101CC00011BA10BDC84F0020C04F002038B50546DE
:101CD00000242846214600F025FF28B90134202C95
:101CE000F7D14FF0FF3038BD204638BD2DE9F04127
:101CF00004460D463830097800F014FF804600286D
:101D00006BD0EFF3108772B6637E062B15D104F10A
:101D10003C00297800F006FF78B12946082204F13A
:101D20005800002600F0CBFEE663204601F09AFC46
:101D300017F0010F00D162B6A9E017F0010F00D132
:101D400062B6A6682A78EFF3108372B6B06920B144
:101D50000179914201D00068F9E713F0010F00D139
:101D600062B628B129460822043000F0A8FE8DE0B2
:101D700001F0C4FB58B1474800F021FF0446D0B938
:101D8000454800F01CFF044600287AD013E0EFF32A
:101D9000108772B63F4800F012FF044617F0010F9B
:101DA00000D162B638B9102001F014F804460028BA
:101DB00067D001230373201D2946082200F07FFE0F
:101DC000EFF3108572B6204606F1180100F0D7FE39
:101DD00015F0010F00D162B658E000F0E1F920469D
:101DE000297800F049FB064600B34368D3B100F000
:101DF00055FB0746C0B173684360B36883602946EA
:101E000008220C3000F05BFEEFF3108672B6384605
:101E100004F1480100F0B3FE16F0010F00D162B6E4
:101E2000464603E01E4601E06FF00B0600F0D0F9D5
:101E300020461A4901F092FBEFF3108772B6637ED9
:101E4000062B0AD104F158002946082200F037FE7B
:101E50000023E363204601F005FC17F0010F00D1D9
:101E600062B6637E052B03D12046042100F044FABC
:101E7000637E073B012B0AD82046042100F066F858
:101E800005E007484FF4B071FEF7B0FF002630467A
:101E9000BDE8F081C84F0020C04F0020C11E0008DF
:101EA000FA67010810B50C4600F03EF920B1214652
:101EB000BDE81040FFF71ABF6FF0020010BD00BF71
:101EC0002DE9F846054600F06BF9D5F86490AC6C46
:101ED000002C35D0D4F800A0EFF3108772B620465E
:101EE00005F1480105F1500600F053FE2046314649
:101EF00000F045FE17F0010F00D162B6AF6BA3688A
:101F0000227B012101FA02F23B4321461343AB63DA
:101F1000636811F80C0F00229847AF63FFF76AFE61
:101F2000EFF3108772B62046314600F032FE17F00C
:101F3000010F00D162B6204600F0D4FA5446C7E73C
:101F4000C5F86490BDE8F84600F042B938B5EFF343
:101F5000108472B6427ED31F012B0ED80025072AAB
:101F6000036E056603D15A8A013A5A8202E01A8A40
:101F7000013A1A82416601F075FB14F0010F00D19D
:101F800062B638BD70B50E4B1D68064600F008F904
:101F9000AB686BB15C6A7CB11C6A204600F01AFF2A
:101FA00040B134627062AB682246596A00F087FD26
:101FB000002401E06FF00B0400F00AF9204670BD28
:101FC000584D002008B500F077F80348002201685A
:101FD00000F0E2FAF7E700BF0C4E002013B50E4CFC
:101FE0000E480523236000236360A3600093E02173
:101FF0000B4B4FF48062FFF710FC83B218B200283D
:1020000004DAFFF735FD0068404202E0A3810123B6
:10201000A37302B010BD00BF0C4E00201068010871
:10202000C51F00080023044A044999500433B3F53E
:10203000C47FF8D1704700BF1C4E0020B1160008C5
:1020400010B50446806800F0EFFD22460121002013
:102050000AF08DFD2246062101200AF088FD0621A6
:10206000224602200AF083FD002010BDF8B58468E6
:10207000064604F128000AF0B4F804F5E87007F009
:10208000E9FA0C4B1A68B368956803F12C072C35F4
:102090000024AB681BB1284639190AF0B5F8103492
:1020A000802C05F11005F4D13046BDE8F840FFF76B
:1020B000C7BF00BF584D002010B5094803686BB179
:1020C000EFF3108472B600F07AFD14F0010F00D126
:1020D00062B60028F1D000F077FEEEE710BD00BF39
:1020E000044E002038B5044601F008FA70B1EFF351
:1020F000108572B60B49204600F041FD002000F02B
:102100009FFA15F0010F00D162B638BD00F050FE05
:102110000028ECD1204600F057FEBDE8384000F022
:102120004DBE00BF044E002000280BDB064B00F024
:102130000F0203EBC201B1F90410814202D153F83E
:102140003200704700207047784D002038B50D46AA
:102150000446F0B1104B1BB1B0F90C00AFF3008096
:10216000A28952B102F00F020C4B002143F8321049
:1021700003EBC2034FF6FF729A80E36A1BB120465D
:10218000294601F0DFF9204600F072FA2046FFF7F9
:10219000A9FF002038BD00BF00000000784D0020DE
:1021A00010B5094B1C6864B101F0A8F948B9A38BBC
:1021B0001AB27E2A03DD05486921FEF717FE0133B6
:1021C000A383002010BD00BF584D002017680108F0
:1021D00070B5144B1C681D4614B301F08FF9F8B9A3
:1021E000EFF3108672B6A38B0BB1013BA383B4F956
:1021F0001C30002B10DC0023A3830B4B1B680BB19E
:1022000001F084F9638BDB0606D5236A23B92B68BA
:102210009C421CBF1423236216F0010F00D162B64A
:10222000002070BD584D0020F84D0020F8B5438BBC
:102230009B0604460F4616462DD400F02DF8A568DF
:102240000DB9F6B915E0638B03F00303012B03D03E
:102250006B680BB13F021F606B78012BF1D100233B
:102260006B60B5F90230002BEBDAA81CFFF766FCB7
:10227000F7E7A06828B14378012B02D1AC3000F019
:1022800087FB204600F0F4F9204600F04BF9638B01
:1022900043F020036383F8BD10B5044600F008F84E
:1022A000204600F018F82046BDE8104000F064B960
:1022B00038B50446EFF3108572B6406A30B100F0CD
:1022C000FFF9606A00F032FA0023636215F0010F33
:1022D00000D162B638BDEFF3108272B6437E052B93
:1022E00005D1436B1988013119800023436312F033
:1022F000010F00D162B6704738B5EFF3108472B6A3
:10230000427E052A08D1426B1588013515800022CE
:102310004263416601F0A6F914F0010F00D162B6E4
:1023200038BD000038B54FF4A07000F053FD074BE6
:1023300000F5A075186000F11404054900F01FFCB9
:10234000AC4201D02046F6E738BD00BFF0050020C2
:10235000A84F00202F4AF8B50023136053602E4A7F
:10236000136053602D4A136053602D4A136053600D
:102370002C4A4FF4C0701360536000F02BFD0546EB
:1023800000F5C076002200F118040275224900F021
:10239000F6FBB44201D02046F4E7234CC020656030
:1023A00000F018FD054600F1C007022200F11806F2
:1023B00002751A4900F0E3FBBE4201D03046F4E753
:1023C000A560FFF7AFFF4FF4807000F003FD0546F6
:1023D00000F58077002200F110060273104900F02A
:1023E000CEFBBE4201D03046F4E78020E56000F02D
:1023F000F1FC054600F18007022200F1100602738D
:10240000084900F0BCFBBE4201D03046F4E725612C
:10241000F8BD00BFA84F0020B04F0020B84F0020EB
:10242000C84F0020C04F0020F005002037B5002223
:1024300083680192EFF3108572B69C692CB1217903
:1024400001A800F054FB2468F8E715F0010F00D153
:1024500062B6019803B030BD10B5064B04461B6848
:1024600028B11846FFF7E2FF2060002010BD4FF0B2
:10247000FF3010BD584D002038B50D46044650B110
:10248000FFF78EFE246C24B1237CAB4201D024687C
:10249000F9E7FFF79DFE204638BD000010B501F0BA
:1024A0002DF840B10D4800F08AFBA8B90C48BDE8F2
:1024B000104000F084BBEFF3108472B6074800F0C0
:1024C0007EFB14F0010F00D162B628B9182000F08D
:1024D00081FC08B10123037510BD00BFB04F00207F
:1024E000B84F002010B5037D23B9EFF3108472B606
:1024F0000A4905E0022B0AD1EFF3108472B60849AD
:1025000000F03DFB14F0010F00D162B610BD012BAD
:1025100003D1BDE81040FFF7E5BD10BDB04F00206E
:10252000B84F002010B5044604F1400000F047FB0E
:1025300010B100F025F9F7E704F1480000F03FFB87
:1025400010B1FFF7CFFFF7E704F1500000F037FBC1
:1025500010B1FFF7C7FFF7E74FF0FF32A263E06368
:1025600010BD10B5044604F1180000F028FB10B1AE
:10257000FFF78CFBF7E710BD437E072B04D1036EFA
:102580005A8A013A5A827047082B03D1036E1A8A7D
:10259000013A1A82704700002DE9F84F05460F46B0
:1025A0009346EFF3108872B6244B4468D3F800903A
:1025B0001FFA88F80E469A46DAF800301CB32269F2
:1025C00061699A1A8A4214D32046291D00F01EFB25
:1025D000A368B3B10022E068A26018F0010F00D137
:1025E00062B69847EFF3108872B61FFA88F86C68E5
:1025F000E2E76169521A1344C9EB03039E4228BF04
:102600001E462468D8E7C9EB0309B9450FD276B155
:1026100005EB8B05C9EB07094E4528BF4E4642F234
:102620001070AC73704300F01DFA0123AB7318F007
:10263000010F00D162B6BDE8F88F00BFD04F002077
:1026400010B5044660B9094B1121B3F90C0000F034
:10265000F5F8002807DAFFF70BFA0068404210BDD2
:102660006FF0150010BD204610BD00BF0C4E0020BD
:1026700038B5846805460CB36378012B02D9013B59
:10268000637019E02046FFF76CFF204600F0FDF86C
:1026900004F1280009F0A9FD204600F0E3FA04F552
:1026A000E87006F0DBFF204600F04AF9204600F013
:1026B00004F92046FFF716FD0023AB6038BD00008B
:1026C00038B50446EFF3108572B658B1037BDB07CB
:1026D00008D5144B1B6800205BB1A3420DD01846EF
:1026E0001B68F9E74FF0FF3015F0010F00D162B61B
:1026F00038BD0D488121FEF779FB23681BB199682D
:10270000A2680A449A6018B1064900F062FA02E031
:10271000044800F054FA237B002023F001032060DA
:102720002373E1E7E84F00202A68010838B5044622
:10273000EFF3108572B6037BD90701D5FFF7C0FF11
:10274000237B9A0707D515F0010F00D162B620460A
:10275000FFF7C8FC0DE05B070BD42046064900F0EC
:102760000EFA064B1A8801321A8015F0010F00D1BB
:1027700062B6002038BD00BFDC4F0020E44F0020CF
:10278000014900F0FCB900BFA84F00202DE9F0413D
:10279000274B1F2880460E4615461F6807D9FFF7AE
:1027A00067F9162303604FF0FF30BDE8F08138462B
:1027B0004146FFF761FE044655B130B143682B60D6
:1027C00083686B60C368AB6002E028606860A860E3
:1027D0004EB335684DB9204644B307F1400100F0CF
:1027E000D8F92046FFF7CCFF1DE0B4B9114800F03E
:1027F000E6F9044650B9FFF795FD0E4800F0DFF901
:10280000044618B90C486821FEF7F0FA84F81080E5
:10281000204607F1400100F0B2F933686360736845
:10282000A360B368E3600020BDE8F081BDE8F081FB
:10283000584D0020A84F00203B68010873B5061EC4
:102840000C4615DD1F2916D8FFF7AAFC002569469E
:1028500030468DF800408DF801500195FFF722FBBE
:102860000446FFF7B5FCAC42A8BF28460BDA04E0EB
:102870006FF0250401E06FF01504FFF7F9F86442EA
:1028800004604FF0FF3002B070BD38B50546EC680B
:102890006CB1204650F80C3BEB60FFF7FBF804F1FD
:1028A0000A00FFF7F7F82046FFF71CFCEFE705F1F9
:1028B0000800BDE83840FFF7EDB810B50446D4F87D
:1028C000940210B10AF00FFBF9E710BD7FB500F0DC
:1028D00055FC684600F0C4FC684600F02CF9044B37
:1028E000002218605A60034B1A6007B05DF804FBC1
:1028F000D44F0020D04F002010B586B0EFF31084E5
:1029000072B6684600F0ACFC684600F014F9064B5D
:10291000002218605A60054B1A6014F0010F00D1B4
:1029200062B606B010BD00BFD44F0020D04F0020CB
:10293000024B1A6801321A60704700BFD04F002066
:1029400010B50446406A08B1FFF7CCFB00232362B0
:10295000636210BD0A4A002310B513605360094A30
:102960001C4613605360084805492044183400F0A1
:1029700006F9B4F5C07FF6D1044B10221A8010BDC1
:10298000DC4F0020E84F002004060020E44F002028
:10299000F8B50646D0B100F0CBF9341D0827002564
:1029A0002368002B0ADBA38B9B0707D52046012158
:1029B00000F00FF835EA200528BF0546013F04F175
:1029C0002404EDD1304600F0C5F900E00546284664
:1029D000F8BDF8B50368002B04460F463EDB838B39
:1029E0009B073BD500F063F96669E3689E4206D118
:1029F000204600F07BF96069E368C01AF8BDA5695C
:102A00009D4204D0204600F071F90020F8BD761BED
:102A10002068294632460AF094F800280BDAA37F92
:102A200043F00203A377204600F060F9FFF720F897
:102A300000684042F8BD0544361A1FB9E368636177
:102A40002E4402E0002EE3DCF8E7B542D0D0636903
:102A50005A1C626115F8012B1A70F6E76FF0080036
:102A6000F8BD000007B568B1084AB0FBF2F302FBFD
:102A7000130000934FF47A73434300216846019397
:102A80000FF01EFB03B05DF804FB00BF40420F00D7
:102A900002440346934202D003F8011BFAE7704751
:102AA0000023CA5CC2540133002AFAD1704703469E
:102AB0001A46013311780029FAD1101A704710B55F
:102AC0000023934203D0CC5CC4540133F9E710BD1A
:102AD00008B528B1B2F5004F02D20280002008BD2F
:102AE000FEF7C6FF162303604FF0FF3008BD1F2915
:102AF00007D8012303FA01F103680B4303600020A8
:102B000070474FF0FF3070471F2908D8012303FAA0
:102B100001F1036823EA01030360002070474FF0CE
:102B2000FF3070471F299DBF0068C84000F00100BA
:102B30004FF0FF307047F8B5456907690446A5F1C5
:102B4000460305F26C7040F26D165E4300F010F91A
:102B5000C1B2384600F000F9E368A168013B1E44A9
:102B6000453D06EBA5052844182202FB00116268CA
:102B700020683C2303FB012203FB0200F8BD002375
:102B800003600B680BB9086001E04B68186048608F
:102B900070470346086888B183B1834209D11A6837
:102BA0000A604A68934209D100234B6070472AB1FA
:102BB000104602689A42FAD100F00BB870470368D9
:102BC0002BB11A68026002B9426000221A601846EE
:102BD00070470A6803685AB153B14A689A4214BFF1
:102BE000196848604FF000020CBF026001601A6073
:102BF00018467047002343600B6803600B6813B9E5
:102C00000860486070475860086070474268036811
:102C10000AB90B6000E013600BB94A6000E05A602B
:102C20000023036043607047F8B500F1AC05064629
:102C3000002128460122FFF74BFF002406F1B007D0
:102C40002744002124223846FFF722FF2B194FF09A
:102C5000FF325A603846243400F01CF8B4F5907FF7
:102C6000ECD1F8BD70B500F1AC0605463046FEF774
:102C700011FF002405F1B4002044FEF70BFF3319C7
:102C8000186908B1FFF72EFA2434B4F5907FF1D11A
:102C900070BD000010B50021044601220430FFF78A
:102CA00017FF4FF6FF73E3800023A36010BD38B514
:102CB0000446FEF7C7FEB4F906308342054602D14A
:102CC000A36801330EE0201DFEF7F6FE40B1FEF7CB
:102CD000CFFE0368042BF6D003486A21FEF786F87E
:102CE000E5800123A36038BD4F68010810B5044694
:102CF000FEF7A8FEB4F90630834202D00B487E21CD
:102D000010E0A368012B02DD013BA36010BD4FF66C
:102D1000FF73E3800023A360201DFEF70FFF18B1AF
:102D200002488E21FEF762F810BD00BF4F6801080F
:102D300010B504462046FEF7BFFE40B1FEF798FEF0
:102D40000368042BF6D002485121FEF74FF810BD5E
:102D500062680108FEF7F2BE044B012833F8103018
:102D600001DD01B101331846704700BF78680108E2
:102D70004FF4C87390FBF3F203FB12035BB16423BF
:102D800090FBF3F203FB12033BB110F0030F14BFEF
:102D9000002001207047012070471846704700004E
:102DA00003460A460148194600F050B8F04F00208B
:102DB000014800F079B800BFF04F0020014800F052
:102DC000ABB800BFF04F00200146014800F0E2B868
:102DD000F04F00200146014800F027B9F04F0020D5
:102DE0000146014800F060B9F04F00202DE9F041A4
:102DF0000A4401F10F0424F00F048168C56922F030
:102E00000F02C4EB020C6144816000EB8505214692
:102E10000826EC6041F8086BEF684FF00048C7F8EF
:102E20000480ACF11007A760A2F108074E606F6143
:102E300042F8086CA4686A6944EA08045460C269EC
:102E40000132C261BDE8F04100F07CB870B50E46B9
:102E5000002104468160C161154620304FF498720C
:102E6000FFF716FE04F130031220A3F1100201381F
:102E700043F8083CDA6003F11003F6D1204600F075
:102E800007F8204631462A46BDE87040FFF7AEBF3E
:102E900010B5002104460122FFF71AFE4FF6FF731A
:102EA00063800023636010BD38B50446FEF7CAFD99
:102EB000B4F902308342054604D16368013363608C
:102EC000002038BD20460FF05BF818B9012365805B
:102ED000636038BD4FF0FF3038BD38B50446FEF7AB
:102EE000B1FDB4F902308342054602D16368013373
:102EF0000EE02046FEF7E0FD40B1FEF7B9FD0368A5
:102F0000042BF6D00348AB21FDF770FF6580012349
:102F1000636038BD9268010808B54268012A02DD85
:102F2000013A426008BD4FF6FF72428000224260C3
:102F3000FEF704FE18B10248DC21FDF757FF08BD7B
:102F40009268010838B5054608680C4600F015F887
:102F5000821C05EB021205EB0015AB6A3BB1196848
:102F600029B12068814202D21A469B68F6E7946034
:102F7000E260A36003B1DC6038BDB0F5800F07D21A
:102F800003090020012B02D901305B08FAE77047E2
:102F90001220704770B505460C46002944D0FFF753
:102FA0009CFF54F8043C54F8082C23F00043A4F18F
:102FB000080144F8043C8B185868002814DBD868D2
:102FC0009E688A58866098681A4408B1DE68C660B0
:102FD000186854F8083C034444F8083C506800F072
:102FE000004003435360134654F8042C8A1A506877
:102FF000002811DBD16890688860916809B1D068B9
:10300000C86054F8080C116801441160586800F059
:1030100000400143596011462846FFF793FF2846B8
:10302000BDE87040FFF778BF70BD70B50646002957
:1030300038D001F1170525F00F05FFF74EFFB5F564
:10304000800F03D22846FFF798FF00E0122006EB1E
:103050000010846A0CB32368AB4201D2A468F9E77C
:10306000E368A2689A60A3680BB1E268DA6022683C
:10307000531B0F2B0CD96119635122444D602560FD
:10308000506800F00040034353603046FFF75AFF9A
:10309000636843F00043636008343046FFF73CFF49
:1030A000204670BD084670BD38B50D46FFF7BDFF20
:1030B000044618B100212A46FFF7EAFC204638BD35
:1030C00038B5044601200D46FEF7F0F9044B1B68A5
:1030D0002360C3F1005303F500332B6038BD00BFFC
:1030E00060660108704700BF30BF704700230928A1
:1030F00002DD01330A38FAE740EA03107047002086
:1031000070470B4B80221A6082B000220192019A14
:10311000B2F5803F05D21A68520605D4019A0132F1
:10312000F4E76FF06D0000E0002002B0704700BFD0
:103130000C2800400F4ACA231360532313600E4B20
:10314000196821F02001196082B0002101910199D4
:10315000B1F5003F05D21968890605D401990131FE
:10316000F4E76FF06D0000E00020FF23136002B071
:10317000704700BF242800400C2800402DE9F84388
:1031800000F02EFF0A25DFF8D4802C4BD8F8002061
:103190009A4299462FD02A4800214FF48032FDF7F9
:1031A00029FD27484FF480310022FDF723FD00F070
:1031B00091FAFFF7BFFF0446D0B9224E224FCA232F
:1031C0003360532333603B685B0602D4FFF799FFFB
:1031D00058B91E4B1A6822F040021A601C4A9A60C5
:1031E0003B6823F080033B600020FF2333600446EC
:1031F000C8F800900DE0FFF79DFF134B1A6822F40A
:1032000040721A6003F58A3308334FF400320446E3
:103210001A602CB1013DB6D16FF06D00BDE8F883A6
:103220000C491320FEF716FA1320FDF793FD0A4B05
:1032300001221A702046BDE8F88300BFEEFECEFAE8
:1032400070380240242800400C2800400828004024
:10325000FF007F00FF300008840700205028004056
:1032600030B51D4B1D4A1C6811681A68A242F8D17E
:103270000A23C1F3021501F00F0403FB05440460A7
:1032800001F4FE44250BC4F3032403FB054401F4BD
:103290007C1144600C0DC1F3034103FB04118160F8
:1032A000C2F3011402F00F0103FB0411C16002F428
:1032B000F8510C0BC1F3032103FB0411013902F493
:1032C0007F020161110DC2F3034203FB012364334A
:1032D0004361002030BD00BF0428004000280040AA
:1032E0002DE9F04F87B0694610F01AFE0098FFF7FD
:1032F000FDFE05460198FFF7F9FE06460298FFF726
:10330000F5FE81460398FFF7F1FE07460498013069
:10331000FFF7ECFE804605986438FFF7E7FE1A4A8F
:10332000CA23136053231360184B196811F0400F20
:10333000834614469A461ED04FEA094343EA0623C1
:103340002B434FEA0B40124A40EA082003F07F3338
:1033500023F0FE433843136020F07F400D4B20F0F4
:10336000C0001860DAF8003023F08003CAF800309B
:10337000FFF7E0FE03E0FFF7C4FE0028DCD0FF22E9
:10338000226007B0BDE8F08F242800400C280040E0
:103390000028004004280040034B586808B95960D1
:1033A00070476FF00F007047840700202DE9F0414F
:1033B000437E174D023B012B064688462F6803D9F2
:1033C00014485F21FDF712FD0EF090FB41460446C4
:1033D00030460EF0FBFB104B1B681BB10EF0C4FB1C
:1033E0002043C4B28CB10D4C216807F1780031B193
:1033F00000F016F82B6878332360BDE8F081296867
:10340000BDE8F041783100F05EB9BDE8F08100BF61
:10341000584D0020A3680108F84D0020444D0020BD
:10342000814205D00023CA58C2500433482BFAD138
:10343000704738B5C36A04460D462BB1836A8B4288
:1034400002D0114600F07EF8E36A1BB92846FFF768
:10345000C1FCE062E36A6BB11A1F1544C3F10403B7
:1034600025F0070525631D44A5620320FEF71EF81D
:10347000002038BD4FF0FF3038BD000008B5EFF335
:10348000108372B60EF04AFC024B1868783000F0D8
:1034900015F900BF584D002008B50C4B00221A60EA
:1034A000FFF720FEFDF710FC094B0BB112F0A0F85E
:1034B00000F03BF90DF0EEFDFDF752FB00F018FDBA
:1034C0000220BDE80840FDF7F1BF00BF444D0020D9
:1034D000F155010810B50446002168305822FFF765
:1034E000D7FA236BA367236923F00103C4F8B8302C
:1034F0004FF08073C4F8BC3010BD0000024B186858
:10350000003018BF01207047444D002070B50B4CAF
:1035100026680EF029FB80B1094D296806F1780074
:1035200029B1FFF77DFF236878332B6070BD2168D8
:10353000BDE87040783100F0C6B870BD584D00202D
:10354000444D002010B50446C06A18B1FEF7CAFD0C
:103550000023E3620023A36210BD000010B5826E59
:10356000002A34D1EFF3108472B6194A12689042DF
:1035700017D1184A12680AB9884724E08166116C8D
:10358000C16651680167516C41671349116401219B
:1035900051604FF08071516478301146FFF740FF61
:1035A00011E0D0F8B820C266C26F0267D0F8BC2024
:1035B0004267094AC0F8B8200122C2674FF0807202
:1035C0008166C0F8BC2014F0010F00D162B610BDB6
:1035D000584D0020444D0020DD35000830B5154B16
:1035E0001C6893B00520656EFDF760FFA36E1BB9E4
:1035F00011486321FDF7FAFB04F178016846FFF7F3
:103600000FFFE36E1093626F236F11920021A26E81
:103610000193A16613F0010F00D162B620469047D6
:10362000EFF3108372B605206566FDF747FF684625
:1036300000F044F8584D0020BA6801080346C06AFB
:10364000073121F0070158B19A6A8A4207D9186BED
:10365000401A511A18639867996204307047002025
:103660007047000070B5437E114C043B042B0546A7
:10367000266803D90F485921FDF7B8FB0EF0C2FAAE
:1036800014232B6228460EF001FA80B10A4D2968F6
:1036900006F1780029B1FFF7C3FE236878332B6069
:1036A00070BD2168BDE87040783100F00CB870BD85
:1036B000584D0020D2680108444D002001464FF0CB
:1036C000010000DF70470A4601464FF0020000DFAC
:1036D0007047000010B50D480021012200F088FC61
:1036E0000A4C23889B0702D400F012F8F8E7204622
:1036F0004FF440714FF4807200F07AFC20460021B4
:103700004FF40042BDE8104000F072BC7038024037
:10371000024B1A6801321A60704700BF8C07002004
:1037200008B50EF0D5FA002008BD08B50B4B0C49C2
:103730001A6822F07F4242F000421A60A3F60C534E
:10374000084A1A600F20FDF785FF074B07221A6011
:103750000F20BDE80840FDF7FDBA00BF20ED00E0F6
:10376000213700087FA2190010E000E070B5C36C9B
:103770001A68002A044613DB9D688DB900F16006C3
:103780003046FFF71CFAE06250B104F10C00054925
:1037900007F0FFFDE06A18B13146FFF7F0F9E56286
:1037A00070BD00BF913C000810B5C06BEFF31084F2
:1037B00072B60378DB0701D5FFF7D8FF14F0010FCD
:1037C00000D162B6002010BD0EB477B5079CE36C43
:1037D0001A68002A14DB9D6895B904F1600630462A
:1037E000FFF7EDF9E06258B104F10C000A4902223A
:1037F00007F0F0FDE06A18B13146FFF7C0F9E56265
:1038000000946068054A642101230EF017FB03B0A1
:10381000BDE8704003B07047913C0008C93700080C
:10382000084B1A6842F0007122F0007219601A60A9
:10383000054B1A6842F001021A601A68D207FCD4DC
:10384000704700BF103802400090024038B5C46B8A
:10385000EFF3108572B64D20FDF76AFA6068FEF747
:103860002FFFA068FEF72CFFFFF7DAFF23786FF336
:103870000003237015F0010F00D162B6002038BD9F
:103880000D4B0E491A68086002F01C0242F0030258
:103890001A6082B0002201920199094A914206D829
:1038A000186810F0010004D0019A0132F3E76FF0BC
:1038B0006D0002B0704700BF1080024014800240CB
:1038C000FEFF0400104B1A68800102F01C0242F057
:1038D000010200F4F86002431A6082B000220192F3
:1038E00001980A4A90420AD8186810F0010003D1E2
:1038F000074B1B680B8004E0019A0132EFE76FF081
:103900006D0002B0704700BF10800240FEFF04004F
:10391000148002402DE9FF41C46BFFF781FF23783B
:1039200003F0FD036FF3820323709A4B1A6822F0B1
:103930001C0242F010021A604FF40040FFF7A0FF93
:1039400000285DDB4120FDF775FA00230393039AFD
:10395000914B9A420AD801200DF10A01FFF7B2FFFC
:1039600000284DDBBDF80A305E0704D5039A8A4B68
:103970009A4203D91DE0039B0133E7E74FF48050DF
:10398000FFF77EFF00283BDB00230393039A824B63
:103990009A420AD801200DF10A01FFF793FF00288F
:1039A0002EDBBDF80A309D0606D5039A7A4B9A4263
:1039B00005D96FF06D05E8E0039B0133E5E71F20B3
:1039C0000DF10A01FFF77EFF002819DBBDF80A2080
:1039D000237802F01C02142A08D0182A0BD0082AD7
:1039E00003F0FB0304D143F0020306E043F00403B9
:1039F0006FF3410301E043F006032370002503E069
:103A00000546002840F0C1806449654B0A68654E50
:103A10001340227850074CBF43F4206343F40073F3
:103A2000920748BF43F480435F4A0B6011685F4BC5
:103A30000B4043F0400313605D49002353609360E3
:103A400008684FF64072024042F080020A60594A0C
:103A500013603168584A0A4042F0806242F0040222
:103A6000564932600A6802F0784242F0307242F4FD
:103A7000B03204F5A15704F500580A6008372366F0
:103A8000636608F10808384604F1600107F5187705
:103A9000FFF775F84745F6D104F1E8020021E2642A
:103AA0006165A4F85E1013464FF480101860002082
:103AB0009860032903F1100001F1010114BFD860DF
:103AC000DA6004290346EFD13D4B00211A6004F16E
:103AD00068022265A165A4F85C10134604F5947091
:103AE0004FF000471F6044F260275F60072903F131
:103AF000100701F10101986014BFDF60DA60082946
:103B00003B4600F51870EBD12E4B1A60E37E227F06
:103B100043EA02222C4B1A60627EA37E120442EA20
:103B20000362E37D1A43237E42EA0322274B1A6095
:103B300053F8442C42F0080243F8442C326842F413
:103B40008012326053F8442C42F0040243F8442CB3
:103B5000336843F400533360336843F00203336047
:103B60001B4B4FF402721A601A4AC3F8E02F0094FC
:103B700001236068184A64210EF060F9237843F04D
:103B8000010323704D20FDF7E5F8284604B0BDE899
:103B9000F08100BF10800240FEFF04000080024060
:103BA000038130FD189002400480024000F8FF7F3E
:103BB000188002401C800240211FCEF80090024075
:103BC000109002400C90024040800240448002402D
:103BD0003C80024040000100C93700080EB430B5F7
:103BE000039C04F10C052846FFF730FE2846FFF73A
:103BF00091FE2046FFF7BAFDBDE8304003B07047A4
:103C000007B5C36C1A6842F0E0421A60028F5A602E
:103C1000C26A9A601A6842F000421A60DA68C264A6
:103C20000022C2620287426D02B94365B0F85E307D
:103C300001339BB2032BA0F85E30124B09D91A68EE
:103C400044F20501114009B922F4803222F0400209
:103C50001A600D4A1168490704D50421116000213A
:103C600042F8101C1A6842F001121A60009041F2EA
:103C70007071064A806801230EF0E0F8002003B05E
:103C80005DF804FB1C90024014900240DD3B0008EC
:103C900038B5C46B0546208FC8B104F10C0006F09E
:103CA000A1FB2046FFF7ACFFE36C1A68002A0CDB8F
:103CB0009B6853B904F16000FEF781FF2862002879
:103CC00014BF00206FF00B0038BD6FF00F0038BD3F
:103CD0002DE9F047824B834F3A68196801EA0209DF
:103CE00019F4803F984600F0F88019F0400F79D021
:103CF00040233B607C4D2A6E2B46002A72D02C6DEF
:103D000009222168002901DA1C656BE0013AFBD029
:103D1000B3F85E0074490328F6D82068860507D5F5
:103D20002068C00504D401208C65A1F85C0057E030
:103D30002168C90508D421688E0505D4B3F85C1044
:103D40000131A3F85C104BE0B3F85C10013189B28B
:103D5000012918BF6448A3F85C1018BF866D20685D
:103D600008BF264610F4004A24D123685F48C3F3F5
:103D70000D43043B2B87FEF722FFB268EA62B06076
:103D8000E2682A65B5F85C205346934205DA4FF0A5
:103D900000413160F6680133F7E70023AB65A5F811
:103DA0005C303A68140667D54E4A8021116042F8AB
:103DB0000C3C61E00020884206DA4FF0004CC6F867
:103DC00000C0F6680130F6E700219965A3F85C10A1
:103DD0003868000604D543488026066040F80C1C6D
:103DE000E4688EE719F0010F42D001233E4D3B609D
:103DF0006C6D34B32368002B22DB2368DA0003D513
:103E0000A0683A49FEF7BBFE0023A36023689B002D
:103E100014D5B5F85E30344A013BA5F85E30D8F8C9
:103E2000003043F4803343F04003C8F80030B5F865
:103E30005E301BB95365A2F85E3002E0E468D9E752
:103E40006C65B5F85E3083B9274B9868FEF738FC8F
:103E5000D8F8003044F244021A4012B123F00103B2
:103E600001E023F00113C8F800301F48FFF77EFC83
:103E70004FF480333B6030E02A8F1B4C40F24E23DE
:103E80009A421DD8E36A9E89082E0AD104F10C00DB
:103E900007F012FA238F9BB104F10C0006F0A2FA8E
:103EA0000BE040F606000FF0F1FE864208D104F167
:103EB0000C0006F036FA238F13B12046FFF7A0FE60
:103EC000E86A094C00283FF415AF04F16001FEF7E1
:103ED00056FE0023E36223870CE70020BDE8F0874D
:103EE0001C9002401490024090070020F007002030
:103EF00038B5294C002142F208022046FEF7C8FDE1
:103F0000264BE363264B2364264B6364A4640DF0C5
:103F100067FF60600DF064FFA0602348FCF79CFB26
:103F20002248FCF799FB224B22481A6842F400020F
:103F30001A60FCF791FB204B20481A6822F0EC62D3
:103F400042F480021A60FCF787FB1D48FCF784FBF3
:103F50001C48FCF781FB1C48FCF77EFB1B48FCF768
:103F60007BFB1B48FCF778FB1A48FCF775FB1A48EB
:103F7000FCF772FB4D201949FDF76CFB054650B963
:103F800004F10C00FFF762FC04F10C002946BDE8C7
:103F9000384006F011B838BD9007002015390008E8
:103FA0004D380008A937000821BC080002BC0800F1
:103FB00004380140080C08000838024007BC08001B
:103FC00001BC080024BC080025BC08006DBC08002A
:103FD0006EBC08006BBC080068BC0800D13C00083F
:103FE000024800214FF48072FCF704BE00700040CC
:103FF00010B5EFF3108372B6048824EA010189B288
:104000000A43028013F0010F00D162B610BD000018
:1040100010B50DF0E9F900F01DF800F09DF8041E50
:1040200006DA0DF00DFE09494C3022460FF00AFB6E
:104030000020014600F04CF804460DF001FE044952
:1040400022464C300FF0FEFA012010BDEB6801084B
:104050001569010808B50DF0E1F9BDE8084000F068
:1040600001B800007FB5E0238DF80930DE23154D3F
:104070008DF80A30AD238DF80B30BE2304AC00263A
:104080008DF80C3002A9EF2328468DF80D308DF8FD
:10409000086000F043FB0C4B44F80C3D28462146D9
:1040A00000F0B2FA094B01932146284600F0DAFAF3
:1040B0006FF07F4328462146019300F001FB304614
:1040C00004B070BD3C690108C0A8011EC0A8011F52
:1040D00010B501F0ADF8044602F02AFF236A01464C
:1040E0002046984737B501F0A3F804461548A16D5E
:1040F0000FF089FAA06D0FF03FFAA16D12480FF092
:1041000082FAA06D0FF038FA0DF09AFD04F15C050B
:10411000021D402128460FF080F920B12046294693
:1041200000F09EFFE6E7A56DFDF7A2FC0368009393
:104130000649074B074A28460FF084FA236A2046AF
:10414000012198473F6B0108396B01081E6A01087D
:1041500050690108416901087FB54FF4B8530093D5
:104160004FF400636422029304936846044B019267
:104170000392059300F088F807B05DF804FB00BFD8
:10418000E54000082DE9F0433D480025846885603E
:1041900089B00230FDF7D2FC022029462A4605F0FC
:1041A00078F9061E04DAFDF763FC0068404264E01B
:1041B0000223ADF810302368ADF8123004A90822AC
:1041C000059504F093FE002850DB3046052105F0EC
:1041D000B7FB00284ADB002008F092F9012008F024
:1041E0008FF9022008F08CF908AA082542F8145D1E
:1041F000304604A905F0EBFB071E37DB1E230793AF
:104200004FF0010800950021052206ABCDF818807B
:1042100005F011FD002826DB2146384600F09DF907
:104220000321814608F077FA051E1CDB4846FEF79D
:10423000CBFD0021284608F07CF94146284608F0CD
:1042400078F92846022108F074F9022D02DD28468B
:1042500008F056F900230093211D0EC90948FDF707
:10426000CFFA0304B7D5384608F04AF9304608F0CB
:1042700047F92046FEF7A8FD012009B0BDE8F0830C
:104280004051002056690108F7B505461020FEF799
:10429000A1FD0446002830D02B680360EB68436022
:1042A000184F2B6983603E786B69C36056B93146FD
:1042B0003246B81CFEF70CFC381D31460122FEF7D1
:1042C00007FCFE600023BC6000936968AA680E4882
:1042D0000E4BFDF795FA05B2002D07DAFDF7C8FB86
:1042E00005682046FEF770FD684208E00848FDF7C3
:1042F000E3FB0028FADB284601E06FF00B0003B077
:10430000F0BD00BF405100206569010885410008EB
:10431000425100206FF0180070472DE9F04183688A
:104320000E461D69174601EB02080023464523D0BF
:1043300016F8011B0D290FD0EA180A2903F1010410
:1043400082F8241109D12C440D2184F82411DC1C9D
:10435000002382F8263102E01C46FD2C0ADD05F11F
:104360000C0005F592712246002305F0D5FA0028CD
:1043700010DB00242346D9E713B93846BDE8F081A5
:104380001A4605F10C0005F59271002305F0C4FAF8
:104390000028F2DABDE8F08107B5FF238DF804307C
:1043A0008DF805108DF80620002301A904220C3099
:1043B0008DF8073005F0B0FA03B05DF804FB38B5AE
:1043C0000468836814F040041D6916D12846FDF77F
:1043D00073FB002804DAFDF74BFB046864420EE02F
:1043E0006B790133B3F5807F18BF6B71284608BF26
:1043F0006FF01704FDF7A2FB01E06FF025042046E3
:1044000038BD13B583681C692046FDF755FB0028AD
:1044100004DAFDF72DFB0068404224E06379012BAC
:1044200005D9013B63712046FDF788FB1AE0FDF7D3
:10443000B7FE01A80D49A2680EF093FB002805DB2A
:10444000019808F014FC0198FEF7BEFC04F10C0082
:1044500005F0A3F92046FDF71DFB2046FEF7B4FC4E
:10446000FDF7B6FE002002B010BD00BF8C69010848
:104470002DE9F84304460E46174699460025002FBD
:104480003FD0089885422B4633D2A17816F8012BED
:1044900005292CD8DFE801F0210318181B1BFF2A7F
:1044A00003D1013509F8032015E0FB3A032A12D89D
:1044B000DFE802F002040608022311E003230FE004
:1044C00004230DE005230BE02046FE2101E02046F9
:1044D000FC21FFF761FF002302E0FF2A02D1012344
:1044E000A37004E00D2A1CBF09F803200135013F29
:1044F000C5E704F12403C3EB0608E77084F80480E1
:1045000001E0E77027712846BDE8F883F7B58368B6
:104510001C690D461646E37833B121790096214493
:10452000204624311A460FE004F124074FF480722C
:104530000093019304F10C00394604F075FE021E4D
:1045400008DD0096204639462B46FFF791FF0246CC
:104550000028E0D0104603B0F0BD73B50646002534
:104560004FF409700195FEF735FC0446002841D050
:1045700029460122FEF7ACFAA5706571E570257138
:10458000304605F0BAF8054678B304F10C0105F0A1
:104590009BF9002829DB284605F0FFF81648FDF7AF
:1045A0008BFA002805DAFDF763FA03680433F5D0C7
:1045B0001BE01248C368A360C3680133C3600430C2
:1045C000FDF7BCFA01A80E49A2680EF0CAFA00284D
:1045D0000BDB01980B494FF4DB72234608F02EFBEE
:1045E0000028019806DAFEF7EFFB2046FEF7ECFB09
:1045F0000020FFE702B070BD445100204051002070
:104600008C6901087469010870B50D4686B00646CC
:1046100010B94FF0FF3522E00029FAD00220012125
:10462000002204F036FF041EF3DB31460622684602
:104630000FF08DFA02232946ADF80830042200233A
:1046400003A8ADF80A30FEF73AFA204640F20271AC
:104650006A4607F0B4FF0546204607F051FF28469A
:1046600006B070BD70B50D4686B0064610B94FF065
:10467000FF3522E00029FAD002200121002204F0B7
:1046800008FF041EF3DB3146062268460FF05FFA8E
:1046900002232946ADF808300422002303A8ADF810
:1046A0000A30FEF70CFA204640F204716A4607F021
:1046B00086FF0546204607F023FF284606B070BD5A
:1046C00070B50D4686B0064610B94FF0FF3522E0B2
:1046D0000029FAD002200121002204F0DAFE041E93
:1046E000F3DB3146062268460FF031FA02232946F1
:1046F000ADF808300422002303A8ADF80A30FEF715
:10470000DEF920464FF4E1616A4607F058FF05469E
:10471000204607F0F5FE284606B070BD70B50D4680
:1047200086B0064610B94FF0FF3520E00029FAD0D8
:1047300002200121002204F0ACFE041EF3DB31460E
:10474000062268460FF003FA0223294606220DF1DD
:104750000A00ADF80830FEF7B2F9204640F20B71BE
:104760006A4607F02CFF0546204607F0C9FE28469A
:1047700006B070BD90F8373000EBC30393F83C30BF
:104780009A09032A02D113F0010310D090F83830AF
:10479000184490F8390083070BD48309022B02D008
:1047A000032B01D007E0C04300F00100704718461A
:1047B0007047002070470120704738B5056895F8AC
:1047C0002530044613B1406807F09AFEAB682846CE
:1047D00098470025A3689D4206DA04EB850301355E
:1047E000D868FEF7F1FAF5E72046BDE83840FEF755
:1047F000EBBA38B5044604F10C02A168006800F079
:1048000063FE05462046FFF7D8FF284638BD90F8DE
:104810003730033300EBC30393F824209209012AB5
:1048200006D1002280F82620881A4142414107E043
:10483000022A0CD10022891A80F8262018BF0121F3
:1048400093F8240061F3000083F8240010E090F84E
:104850003830034493F839209209012A0AD1002202
:1048600080F8262093F8390061F3000083F83900BE
:104870001046704780F82610003118BF01214842C9
:1048800070472DE9F0470D6881460E462C4615F815
:10489000011B11B9237833B917E02A480FF0F4F857
:1048A0000028F3D1F6E73E2B0CD163783E2B04D1E0
:1048B000023434602448BDE8F08701343460234872
:1048C000BDE8F087232B03D134600020BDE8F087DA
:1048D000222B08BF013404F101070CBFDFF87C80F4
:1048E000DFF86080BA4655460AF1010A297831B9E5
:1048F0002A782B464AB1002201351A7005E040465D
:104900000FF0C2F80028EED0F2E735602378242BB0
:1049100014D138460E490FF0C4F840B90D4B99F840
:1049200026409A1E002C0CBF1C46144606E0384652
:104930000DF0C4FE084C002818BF04462046BDE810
:10494000F08700BF9B690108A6690108A4690108F6
:10495000A9690108A1690108A36901085B6B010845
:104960002DE9F04F9BB00DF168080AAF04460D46E3
:10497000402200213846FEF78BF848F8545D0023AA
:1049800084F8243084F8253020464146FFF779FF2B
:104990000546002800F0CB81A6490FF082F8A64911
:1049A0005FFA80F928460FF07CF8B9F1000F02D0C9
:1049B00010F0FF0F55D120464146FFF762FF8246B7
:1049C00020B923699D499E4A2046CCE094F838B02E
:1049D00004EB0B0393F839309B09012B00F0BF80E7
:1049E00094F8376004EBC60393F83C30C3F38113AB
:1049F000033303F00303012B40F2B180E36A002B81
:104A000000F0AD80236B002BC0F2A980012E03D9EA
:104A100023698C492046A5E0B9F1000F204614BF58
:104A2000022501250393FFF7A5FE039BA28E013605
:104A3000F6B21344002284F83620F21C04EBC202C2
:104A400084F8376092F8241004EBC60665F38711EA
:104A500060F3000182F82410554686F83DB03364B7
:104A600091E0284678490FF01CF8F0B941462046FD
:104A7000FFF707FF94F83730033304EBC303054611
:104A800093F82420C2F38111033101F003010129BD
:104A900004D923696D496C4A204664E042F0C002A3
:104AA00083F8242000286ED142E1284668490EF0A0
:104AB000F8FF002846D120464146FFF7E2FE0246B5
:104AC00018B123695D49204611E094F83700C31CF2
:104AD00004EBC30393F824108D09032D03D023693D
:104AE0005A49204603E020B923695A492046584ACA
:104AF00039E0C80713D5E06A996A0EF04CFC00282B
:104B000009DA2569FCF7B4FF03680093204652498F
:104B10004F4A524BA847012384F8363003E041F056
:104B2000010183F8241094F83730DA1C04EBC20238
:104B3000013B92F824106FF3871182F8241084F857
:104B40003730F4E094F8373004EBC30393F83C308B
:104B5000C3F38113033303F00303012B13D8236939
:104B60003A4920462A46984794F83C2002F03F02F2
:104B7000002342F0010284F8363084F8373084F89C
:104B80003C202364CDE028462D490EF08AFF814663
:104B9000002834D120464146FFF773FE054618B978
:104BA0002369264920469EE094F83860A31993F8BB
:104BB00039309B09012B03D123692449204692E017
:104BC000012E03D923691F4920468CE00136F6B235
:104BD0002046FFF7CFFD84F838602644D0F101006D
:104BE00096F839304FF0010262F3871338BF002086
:104BF00060F3410369F3000386F8393098E02846F2
:104C000017490EF04EFF68BB41462046FFF739FEBC
:104C100094F838302344054693F839209109012946
:104C200004D0236909490E4A20466EE0022161F34F
:104C3000871231E05D6B0108636B0108AB69010805
:104C4000696B0108EA6901086C6B0108C669010813
:104C50006F6B0108056A01081E6A0108746B010880
:104C60007A6B01082846A1490EF01BFFB8B94146EE
:104C70002046FFF706FE94F838302344054693F8A3
:104C800039209109022908BF42F0C00204D02369EB
:104C90009749964A204638E083F8392048E028466C
:104CA00094490EF0FEFE20BB20464146FFF7E9FD89
:104CB000054618B12369904920460EE094F8383033
:104CC000E21892F83920C2F38112023202F0030294
:104CD000012A04D9236986492046864A15E023B96A
:104CE000236986492046864A0FE0013B84F8383024
:104CF0001EE094F83830234493F839309B09012B97
:104D000016D123697A4920462A46984794F83930C3
:104D1000002203F03D0362F3000384F8382084F896
:104D2000393020460121FFF772FD04468AE1002553
:104D30000023A362002D31D0284672490EF0B1FE47
:104D400000282DD10A23A36220464146FFF799FD92
:104D5000054618B36C490EF0A4FE064600BB20467B
:104D60004146FFF78EFD8146D0B107A932460EF0CD
:104D7000BDFCA0621430272804D8079B4B4501D006
:104D80001B782BB123695C495E4A20469847C8E7E7
:104D900020464146FFF775FD054608B9002451E15C
:104DA0002046FFF7E7FC0028F8D00A9501262046A8
:104DB0004146FFF766FD47F8260010B101360F2E79
:104DC000F5D11AA901EB86030022012E43F8402CED
:104DD00000F0F78006F1FF3801EB88094B4959F8DC
:104DE000400C0EF05EFE28B9012384F8243049F807
:104DF000400C4646022E40F3E480A6F102081AABAE
:104E000003EB8809424959F8400C0EF04AFE78B984
:104E10001AA901EB8606012356F8441C84F82530B4
:104E2000204601F099FD464681464FF0260818E0DD
:104E300059F8400C37490EF034FE78B9012384F854
:104E400025301AAB03EB8606204656F8441C01F0C9
:104E500083FD464681464FF0160802E04FF00008F9
:104E6000C1460B2E04DD23692B4920462A4698476C
:104E700094F82530A3B1484641464FF4DB7207F061
:104E80004AFCB0F1000A0DDA0A9E2569FCF7F0FD34
:104E90000368009320462149214B3246A84784E00D
:104EA0004FF0FF3A94F82430002B46D02368204678
:104EB00098470546002838D04C20FDF791FF8046E2
:104EC00080B380E8200486604FF0000B4FEA8B032C
:104ED00057F82B0003930EF0FFFD039B0BF1010B22
:104EE0004344B345D860F1DB41E000BF7F6B01086C
:104EF000C6690108846B0108AB690108056A0108ED
:104F0000696B0108876B01088C6B01088F6B0108C6
:104F1000A4690108A6690108366A01081E6A010829
:104F20006E7B0108AB682846984794F82530002B23
:104F30003BD0504607F0E4FA37E094F8253023B12F
:104F4000A3692046514607AA9847204631463A466B
:104F500000F0BAFA94F8253005461BB1E369204603
:104F600007A99847002D20DB204600211FE094F878
:104F7000253023B1AB6928465146002298470020CE
:104F800006A90CF065FE00B30A9F2669FCF770FDC8
:104F9000036800932D492E4B20463A46B0474046C1
:104FA000FFF70BFCAB682846984720460121FFF726
:104FB0002EFC0446B9F1000F44D0484601F020FD14
:104FC00040E04FF00008C14652E7A36A002B11D021
:104FD000069E4FF00200C3EB060605DA0EF0CEFC8B
:104FE000B042A8BF304604E00EF0CFFCB042B8BFDC
:104FF0003046069007A80EF001FE022107A80EF029
:1050000009FE06A907A80EF00EFE0DF1120007A971
:10501000104A43460DF0C2F830B1009026690B49A2
:105020000A9A0D4B2046B9E7BDF912000DF080F940
:10503000069A0092BDF91230256908490A9A20465D
:10504000A84791E720461BB0BDE8F08F1E6A010813
:10505000916B0108F34700089F6B0108AE6B0108D4
:105060002DE9F843002304460F4680F836300D46FC
:105070000E4694F83690B9F1000F32D1EB1BA3869F
:10508000284619490EF01AFD2B5C2A182BB9204628
:105090003146BDE8F843FFF763BC0A2BF7D0232B5A
:1050A000F5D03B2B02F1010009D1804682F8009037
:1050B00020463146FFF754FCA0B945460FE02221B7
:1050C0000EF0E2FC48B9094A256909492046134611
:1050D000A8474FF0FF30BDE8F883451CB046464670
:1050E000C7E70020BDE8F883536A01085B6B01083D
:1050F000586A010890F83730033300EBC30393F884
:1051000024209209032A09D193F8252080F8382019
:1051100093F824206FF3000283F8242000207047C6
:105120005C30704770B504460E4615463AB1806D46
:1051300008B10EF021FA636D2B60A36D6B60002344
:105140006665A36570BD38B50446856D0CF078FDC5
:105150002830854207D10CF073FD28300EF00CFA90
:105160000123636538BDA06D28B10EF005FAA06D6E
:105170000EF0D7F806E0606D002803DB012801D0AF
:1051800007F0BEF94FF0FF3363650023A36538BD18
:1051900038B50D460446FFF7D6FF2B6863656B688C
:1051A000A36538BD10B50446FFF7CDFF2046BDE826
:1051B0001040FDF709BE0C4608B5FFF7F3FF204687
:1051C000FCF748FC0EB417B5836D044633B106AA4C
:1051D000A06D059901920EF042FA08E0406D064973
:1051E0000EF075F8A0650028F1D14FF0FF3003B044
:1051F000BDE8104003B070473A7A010870B5836D7E
:1052000004460D4616463BB128463246A36D0121A1
:10521000BDE870400EF061B9406D04490EF057F8DA
:10522000A0650028F0D14FF0FF3070BD3A7A010838
:1052300010B59C20FDF7D4FD0446A8B10B4B0360CC
:105240000B4B83600B4BC3600B4B03610B4B4361F8
:105250000B4B03620B4B83610B4BC3610123436513
:105260000CF0EEFC2830A065204610BD8D520008E1
:10527000A5510008FD510008C55100082151000842
:10528000B7510008255100089151000808B5FFF7F3
:10529000CFFF08BD08B503490369126898474FF06E
:1052A000FF3008BDC26A0108002070474FF0FF3090
:1052B000704708B50021036A984710B5CB680469A8
:1052C0000A461BB103491268A04710BD0249126883
:1052D000A04710BDDC6E0108E56E01082DE9F04124
:1052E000114D04460F4655F8100CA5F1100880B179
:1052F00039460EF0D6FB103506460028F3D1236957
:105300000A4920463A46984720464146FFF7D5FFCE
:1053100006E02369064920463A4698474FF0FF3693
:105320003046BDE8F08100BFCC6B0108EB6E010890
:10533000C26A01080129F8B504460E46174674DD15
:1053400050684D490EF0ADFB20B9022E08D0022264
:10535000012301E00122002357F822500BB962E03B
:105360000546236945492046984723694449204614
:105370009847236943492046984723694249204674
:105380009847236941492046984723694049204668
:10539000984723693F492046984723693C4920465E
:1053A000984723693C492046984723693549204658
:1053B0009847236939492046984723693849204648
:1053C0009847236932492046984723693549204642
:1053D000984723692B49204698472369324920463C
:1053E000984723692E492046984723692849204633
:1053F000984723692B492046984725B120462946DE
:10540000FFF76CFF35E023692849294D204698476E
:10541000A5F11001103555F8203C002B29D020466D
:10542000FFF74BFFF4E7002DE8D122492046FFF7B4
:1054300055FF2369204920469847002523691F49C5
:105440001F4F2046984707EB051700267319302B8E
:1054500008D8320123691B49BA58204609369847B3
:10546000362EF3D123691449204601359847092D7A
:10547000E4D10020F8BD00BFF56E0108F86E010808
:105480000C6F0108476F01084B6F0108576F010847
:105490005F6F0108786F0108806F0108876F01084E
:1054A000966F01089C6F0108A56F0108B46F010891
:1054B000CC6B0108CC6F0108456F0108AC7C01087A
:1054C000BC6B0108D16F01082DE9F843164DD2F8E5
:1054D000008004460E46914655F8100CA5F11007C1
:1054E000D0B141460EF0DDFA10350028F4D13B7AF8
:1054F0009E4203DA23690D49204607E07B7A9E42EB
:10550000D8BF7B6809DD2369094920464246984790
:105510004FF0FF30BDE8F883064B204631464A463F
:105520009847BDE8F88300BFCC6B0108FB6A01080F
:10553000366A01089552000838B50C460C490546F4
:105540000EF0AFFA28B90B490B4822460DF0F2FADB
:1055500005E0094809492A4623460DF0EBFA0648BA
:10556000002380F88130BDE838400EF0B5BA00BFA6
:105570009C740108A0740108982700209E740108FB
:105580002DE9F04713F0030F8CB004468846164609
:1055900099467DD008465AB1511CFFF7CDFF05A9A9
:1055A000074607F0F5F905463846FDF70DFC03E020
:1055B00005A907F0EDF90546D4F810A05DB1FCF798
:1055C00057FA0368009320464449454A454BD04763
:1055D0004FF0FF307FE019F0020F51D0424F386892
:1055E00079683A89BB7A02AD03C52A80AB70059D04
:1055F00005F47047B7F5804F01D164230DE0B7F58E
:10560000005F01D1632308E0B7F5C04F01D16223E9
:1056100003E0B7F5004F02D03F238DF80830EF05C7
:1056200044BF72238DF80930280644BF77238DF8D4
:105630000A30690644BF78238DF80B30AA0644BFB0
:1056400072238DF80C30EB0644BF77238DF80D30B4
:105650002F0744BF78238DF80E30680744BF7223AC
:105660008DF80F30A90744BF77238DF81030EA0773
:1056700044BF78238DF8113020461C4902AAD04738
:1056800019F0010F04D023691949069A204698475A
:105690002369DEB1751C204614492A4698473378A1
:1056A0001B070DD5284613490EF0FBF940B12846DB
:1056B00011490EF0F6F918B123691049204602E0AD
:1056C00023690F4920469847002004E020460D49F1
:1056D0004246984730460CB0BDE8F0871E6A010884
:1056E00065720108A4740108B7740108A97401085F
:1056F000AD740108B2740108B1740108B4740108F2
:10570000456F0108E66E01082DE9F341064608469B
:105710000D461746984607F0E7FA044648B9009543
:1057200034690F490F4A104B3046A0474FF0FF3005
:1057300012E0204607F04EFB024640B130462946B3
:105740004346B8470028F4DA4FF0FF3500E005463D
:10575000204607F098FA284602B0BDE8F08100BF65
:10576000A96A010865720108C2740108F8B51F46EC
:10577000137803F0080306460D4603F0FF04002BE0
:1057800029D0541C204615490EF08BF908B9002485
:1057900021E0204612490EF084F90028F7D0214676
:1057A0002846FFF7C9FE054633690E492A463046AA
:1057B0009847304629460C4A3B46FFF7A5FF04466A
:1057C00048B930462946094A3B46FFF79DFF044643
:1057D0002846FDF7F9FA2046F8BD00BFB27401086B
:1057E000B1740108CC740108815500086D57000898
:1057F0002DE9F04F87B00446059191460025012719
:10580000059B9F4280F28780002D40F084802046D7
:1058100059F8271001F0A0F80490002877D0012152
:10582000D9F8006006F077FFB0F1000A09DA2569BF
:10583000FCF71EF90368009320463949394B32467C
:105840000EE04FF40070FDF7C5FA804630BB2569C5
:10585000FCF70EF9036800933149334B204632467A
:10586000A8474FF0FF354EE043D04FF0000B6246A3
:10587000CDF80CC0E3682046414698470028DDF883
:105880000CC032DAFCF7F4F803682569042B22D146
:10589000204626493246A8474FF0FF35504641463C
:1058A0004FF4007206F0A1FFB0F1000CDCDAFCF757
:1058B000DFF803682569042B04D120461B493246D2
:1058C000A84705E0009320461549194B3246A847E2
:1058D0004FF0FF350DE0FCF7CBF80368009320464E
:1058E0000F49144B3246A847D6E78344E345BEDB55
:1058F000D4E72369104920469847504606F000FE39
:105900004046FDF761FA049801F07AF801E04FF0A3
:10591000FF35013774E7284607B0BDE8F08F00BFB8
:105920001E6A01086E7B0108D1740108716A0108C2
:105930004775010853750108456F01082DE9F04FBF
:105940008DB051680446154601F006F883460028DC
:1059500000F0BF80012106F0DEFEB0F100090DDA93
:1059600026692D68FCF784F80368009320465E4999
:105970005E4B2A46B0474FF0FF36A6E02046A968A6
:1059800000F0EAFF8046002800F09A8005A906F0A2
:10599000FFFF064600282FD1059B03F47043B3F5A3
:1059A000804F22D1AF683846FDF781F801380028D2
:1059B00005DD3A5C2F2A02D100223A54F6E76868E6
:1059C000AF680EF015FB01463846FFF7B5FD0746F8
:1059D00028B9236946492A68204698477CE0404612
:1059E00001F00EF8B846262108E0B3F5004F14BFC9
:1059F00002212621074601E02621002740464FF4D8
:105A0000DB7206F088FEB0F1000A19DA2D68D4F8CE
:105A100010A0FCF72DF80368009320463249334B61
:105A20002A46D04747E014DB1A46504631490393D3
:105A300007F087F80028039B1EDB1B1A002BF3DC02
:105A400048462C494FF4007206F0CFFE031EEAD1FF
:105A50002DE0FCF70DF80368D4F810C0042B12D029
:105A60002D68CDF80CC0FCF703F8036800932046BE
:105A70001D49214B2A4616E0FBF7FAFF0368D4F8CC
:105A800010C0042B04D120461C492A68E0470FE0CF
:105A90002D68CDF80CC0FBF7EBFF036800931249AB
:105AA000174B20462A46DDF80CC0E04700E01E46B2
:105AB000504606F025FD7FB13846FDF785F901E037
:105AC0004FF0FF36484606F01BFD584600F098FFA1
:105AD00006E04FF0FF3603E0404600F091FFF1E7AB
