:020000040800F2
:1000000034840020B104000891010008990100081F
:10001000A1010008A9010008B10100088901000838
:10002000890100088901000889010008B901000858
:10003000C101000889010008C9010008D1010008B8
:10004000D9010008E1010008E9010008F1010008F8
:10005000F901000801020008090200081102000865
:1000600019020008210200082902000831020008D4
:100070003902000841020008490200085102000844
:1000800059020008610200086902000871020008B4
:100090007902000881020008890200089102000824
:1000A00099020008A1020008A9020008B102000894
:1000B000B9020008C1020008C9020008D102000804
:1000C000D9020008E1020008E9020008F102000874
:1000D000F9020008010300080903000811030008E1
:1000E0001903000821030008290300083103000850
:1000F00039030008410300084903000851030008C0
:10010000590300086103000869030008710300082F
:10011000790300088103000889030008910300089F
:1001200099030008A1030008A9030008B10300080F
:10013000B9030008C1030008C9030008D10300087F
:10014000D9030008E1030008E9030008F1030008EF
:10015000F90300080104000809040008110400085C
:1001600019040008210400082904000831040008CB
:10017000390400084104000849040008510400083B
:1001800059040008610400084FF0000000F06CB949
:100190004FF0020000F068B94FF0030000F064B9BE
:1001A0004FF0040000F060B94FF0050000F05CB9BA
:1001B0004FF0060000F058B94FF00B0000F054B9B2
:1001C0004FF00C0000F050B94FF00E0000F04CB9A9
:1001D0004FF00F0000F048B94FF0100000F044B9A4
:1001E0004FF0110000F040B94FF0120000F03CB9A0
:1001F0004FF0130000F038B94FF0140000F034B99C
:100200004FF0150000F030B94FF0160000F02CB997
:100210004FF0170000F028B94FF0180000F024B993
:100220004FF0190000F020B94FF01A0000F01CB98F
:100230004FF01B0000F018B94FF01C0000F014B98B
:100240004FF01D0000F010B94FF01E0000F00CB987
:100250004FF01F0000F008B94FF0200000F004B983
:100260004FF0210000F000B94FF0220000F0FCB880
:100270004FF0230000F0F8B84FF0240000F0F4B87D
:100280004FF0250000F0F0B84FF0260000F0ECB879
:100290004FF0270000F0E8B84FF0280000F0E4B875
:1002A0004FF0290000F0E0B84FF02A0000F0DCB871
:1002B0004FF02B0000F0D8B84FF02C0000F0D4B86D
:1002C0004FF02D0000F0D0B84FF02E0000F0CCB869
:1002D0004FF02F0000F0C8B84FF0300000F0C4B865
:1002E0004FF0310000F0C0B84FF0320000F0BCB861
:1002F0004FF0330000F0B8B84FF0340000F0B4B85D
:100300004FF0350000F0B0B84FF0360000F0ACB858
:100310004FF0370000F0A8B84FF0380000F0A4B854
:100320004FF0390000F0A0B84FF03A0000F09CB850
:100330004FF03B0000F098B84FF03C0000F094B84C
:100340004FF03D0000F090B84FF03E0000F08CB848
:100350004FF03F0000F088B84FF0400000F084B844
:100360004FF0410000F080B84FF0420000F07CB840
:100370004FF0430000F078B84FF0440000F074B83C
:100380004FF0450000F070B84FF0460000F06CB838
:100390004FF0470000F068B84FF0480000F064B834
:1003A0004FF0490000F060B84FF04A0000F05CB830
:1003B0004FF04B0000F058B84FF04C0000F054B82C
:1003C0004FF04D0000F050B84FF04E0000F04CB828
:1003D0004FF04F0000F048B84FF0500000F044B824
:1003E0004FF0510000F040B84FF0520000F03CB820
:1003F0004FF0530000F038B84FF0540000F034B81C
:100400004FF0550000F030B84FF0560000F02CB817
:100410004FF0570000F028B84FF0580000F024B813
:100420004FF0590000F020B84FF05A0000F01CB80F
:100430004FF05B0000F018B84FF05C0000F014B80B
:100440004FF05D0000F010B84FF05E0000F00CB807
:100450004FF05F0000F008B84FF0600000F004B803
:100460004FF0610000F000B86A4602F12002EFF39D
:1004700011832DE9FC0F72B6694601F015F8694643
:10048000884209D000F1280191E8F00F016821E9C4
:10049000F00F90E8FC0F01E0B1E8FC0F81F3088851
:1004A000DFF808E083F3118862B67047F9FFFFFFB9
:1004B00080B582B000AF00F09DF900F093FB00F032
:1004C000A9F9412000F076FB1A4B3B6004E03B6841
:1004D0001A1D3A6000221A603A68174B9A42F6D306
:1004E000422000F067FB154B7B60154B3B6007E03B
:1004F0003B681A1D3A607A68111D796012681A60AB
:100500003A68104B9A42F3D3432000F053FB00F0BB
:1005100003FF442000F04EFB02F0FEF8462000F0FE
:1005200049FB0D2000F046FB0A2000F043FB02F0DF
:10053000B3F900BFB0030020388000206007030833
:1005400000000020B003002080B483B000AF174B40
:100550001B687B607B6843F001037B60134B7A6808
:100560001A60134B00221A60104B1B687B607B687B
:1005700023F0847323F001137B600C4B7A681A60BC
:100580000C4B0D4A1A60094B1B687B607B6823F497
:1005900080237B60054B7A681A60084B00221A6042
:1005A0000C37BD465DF8047B704700BF0038024041
:1005B0000838024004380240103000240C38024051
:1005C00080B483B000AF0C4B1B687B607B686FEA24
:1005D00053236FEA43237B607B6843F480037B6093
:1005E0007B6843F060637B60034B7A681A600C376A
:1005F000BD465DF8047B70473038024080B483B05C
:1006000000AF054B1B687B60034B7A681A600C37A0
:10061000BD465DF8047B70473438024080B400AFBB
:10062000BD465DF8047B704780B483B000AF0B4BD0
:100630001B687B607B6843F480237B607B6843F4AA
:1006400080037B607B6843F080537B60034B7A6858
:100650001A600C37BD465DF8047B70474038024095
:1006600080B483B000AF0B4B1B687B607B6843F0AA
:1006700001037B607B6843F400637B607B6843F429
:1006800080437B60034B7A681A600C37BD465DF887
:10069000047B70474438024080B483B000AF464BBF
:1006A0001B687B607B6843F480337B60424B7A68D5
:1006B0001A60424B3B6009E03F4B1B6803F4003378
:1006C000002B00D005E03B68013B3B603B68002B02
:1006D000F2DC3B68002B6ADD394B1B687B607B6872
:1006E00043F080537B60364B7A681A60354B1B6849
:1006F0007B607B6843F480437B60324B7A681A608E
:10070000314B1B687B607B6823F0F0037B602E4BD2
:100710007A681A602C4B1B687B607B6823F460430B
:100720007B607B6843F400437B60274B7A681A60E8
:10073000254B1B687B607B6823F4E0537B607B6800
:1007400043F4A0537B60204B7A681A601F4B7B6098
:100750001F4B7A681A60184B1B687B607B6843F0FC
:1007600080737B60144B7A681A6000BF124B1B6861
:1007700003F00073002BF9D040F205637B60154B4A
:100780007A681A60104B1B687B607B6823F0030358
:100790007B607B6843F002037B600B4B7A681A60D6
:1007A00000BF094B1B6803F00C03082BF9D10C3771
:1007B000BD465DF8047B7047003802401482190082
:1007C0004038024000700040083802401954400789
:1007D00004380240003C024080B500AFFFF7F0FE55
:1007E000FFF70CFFFFF71AFFFFF71EFFFFF738FFB9
:1007F00080BD00BF80B500AFFFF7A6FEFFF74CFF3E
:10080000FFF7EAFF80BD00BF80B400AFBD465DF8D2
:10081000047B704780B500AFFFF7F6FF80BD00BFD7
:1008200080B592B000AF78607B6803F0F0031B09DD
:100830003B633B6B082B02D96FF0150346E18B4BF2
:100840003A6B53F82230FB627B6803F00F03BB6204
:100850007B6803F44023B3F5002F0BD0B3F5402F92
:100860000BD0B3F5802F02D000237B6308E0012377
:100870007B6305E002237B6302E003237B6300BF0D
:10088000EFF31183BB61BB69DBB2FB7510233B61E6
:100890003B6983F31188FB7D87F82730FB6A1B686F
:1008A0007B64BB6A5B00032202FA03F3DB437A6CCE
:1008B00013407B64BB6A5B007A6B02FA03F37A6CC9
:1008C00013437B64FB6A7A6C1A6000233B647B6B86
:1008D000032B0FD07B6803F44033B3F5803F03D084
:1008E000B3F5003F03D005E001233B6402E002239F
:1008F0003B6400BFFB6A0C331B687B64BB6A5B0014
:10090000032202FA03F3DB437A6C13407B64BB6A75
:100910005B003A6C02FA03F37A6C13437B64FB6A64
:100920000C337A6C1A607B6B022B05D17B6803F465
:1009300070431B0B3B6401E000233B64BB6A072B45
:1009400004D82023FB63BB6ABB6304E02423FB635E
:10095000BB6A083BBB63FA6AFB6B13441B687B648E
:10096000BB6B9B000F2202FA03F3DB437A6C13404C
:100970007B64BB6B9B003A6C02FA03F37A6C134303
:100980007B64FA6AFB6B13447A6C1A607B6B012BF5
:1009900002D07B6B022B18D17B6803F44063B3F564
:1009A000006F0BD0B3F5406F0BD0B3F5806F02D062
:1009B00000233B6408E001233B6405E002233B6421
:1009C00002E003233B6400BF01E000233B64FB6AB9
:1009D00008331B687B64BB6A5B00032202FA03F3E3
:1009E000DB437A6C13407B64BB6A5B003A6C02FAAF
:1009F00003F37A6C13437B64FB6A08337A6C1A60E6
:100A0000FB6A04331B687B64BB6A012202FA03F3AE
:100A10003B647B6B012B02D07B6B022B09D17B6883
:100A200003F40073002B04D07A6C3B6C13437B649B
:100A300004E03B6CDB437A6C13407B64FB6A043359
:100A40007A6C1A607B6B012B12D17B6803F4807384
:100A5000002B0CBF00230123DBB287F8263097F868
:100A600026307868194600F047F826E0FCD20208E4
:100A70007B6803F48073002B1FD0BB6A03F00C0269
:100A8000144B13443B623B6A1B687B64BB6A03F0F4
:100A900003039B00FB610F22FB6902FA03F3DB43B4
:100AA0007A6C13407B643A6BFB6902FA03F37A6C4D
:100AB00013437B643B6A7A6C1A6097F82730FB73A8
:100AC000FB7BBB60BB6883F3118800231846483763
:100AD000BD4680BD0838014080B582B000AF786067
:100AE0007B68DBB27B607868FFF79AFE03461846A6
:100AF0000837BD4680BD00BF80B487B000AF7860C6
:100B00000B46FB707B6803F0F0031B093B613B69FC
:100B1000082B1BD8104B3A6953F82230FB607B68D6
:100B200003F00F03BB60FB78002B05D0BB680122EC
:100B300002FA03F37B6105E0BB681033012202FA7D
:100B400003F37B61FB6818337A691A601C37BD4672
:100B50005DF8047B704700BFFCD2020880B487B008
:100B600000AF78607B6803F0F0031B097B617B6951
:100B7000082B16D80E4B7A6953F822303B617B68FC
:100B800003F00F03FB603B6910331A68FB68012117
:100B900001FA03F31340002B0CBF00230123DBB247
:100BA00000E0002318461C37BD465DF8047B704703
:100BB000FCD2020880B483B000AF0346FB7100BFD3
:100BC000064B1B6803F08003002BF9D0044BFA7925
:100BD0001A600C37BD465DF8047B70470048004042
:100BE0000448004080B582B000AF204800214FF497
:100BF000802200F027FC1E48FFF712FE1D48FFF779
:100C00000FFE1D4B1B687B607B6823F47D537B606C
:100C1000194B7A681A60194B1B687B607B6823F458
:100C2000BB5323F01C037B60144B7A681A60144B8F
:100C30001B687B607B6823F4E06323F001037B6027
:100C40000F4B7A681A600F4B40F26D121A600B4B13
:100C50001B687B607B6843F4005343F00C037B60AC
:100C6000064B7A681A600837BD4680BD403802409E
:100C70001A7C09001B7C0900104800400C48004009
:100C8000144800400848004080B483B000AF78604A
:100C900039607B681A6E3B6813441B6818460C3732
:100CA000BD465DF8047B704780B485B000AFF86046
:100CB000B9607A60FB681A6EBB6813447A681A6080
:100CC0001437BD465DF8047B704700BF80B584B023
:100CD00000AF78600B467B807B687A88A3F84C2055
:100CE00078680C21FFF7D0FFF860FB6823F4D0731D
:100CF000FB607B8803F4D073FA681343FB60786869
:100D00000C21FA68FFF7D0FF78681421FFF7BCFFC9
:100D1000F860FB6823F00103FB607B8803F00103AC
:100D2000FA681343FB6078681421FA68FFF7BCFF88
:100D30001037BD4680BD00BF80B584B000AF78607D
:100D400039603B68002B17D078680C21FFF79CFFB7
:100D5000F86078681421FFF797FFB860FB689BB2D2
:100D600003F4D0739AB2BB689BB203F001039BB249
:100D700013439AB23B681A8078680021FFF7A6FFF8
:100D80001037BD4680BD00BF80B588B000AF786029
:100D90007B689B6CBB61BB69DA6DBB695B6D5B0893
:100DA000B2FBF3F37B617B695B093B613B691B0130
:100DB000FB603B695B017A69D31A01335B08BB6056
:100DC000FA68BB681343FB60B8690821FA68FFF74B
:100DD0006BFFB8690C21FFF757FFF861FB6923F43B
:100DE000B053FB61BB6993F85030012B04D1FB6910
:100DF00043F4C063FB6108E0BB6993F85030022BF9
:100E000003D1FB6943F48063FB61BB6993F8513004
:100E1000092B09D0BB6993F85130082B08D1BB6965
:100E200093F85030002B03D0FB6943F48053FB61EF
:100E3000B8690C21FA69FFF737FFB8691021FFF78D
:100E400023FFF861FB6923F44053FB61BB6993F80E
:100E50005230002B03D0FB6943F40053FB61B869A7
:100E60001021FA69FFF720FFB8691421FFF70CFF82
:100E7000F861FB6923F44073FB61B8691421FA69D6
:100E8000FFF712FF2037BD4680BD00BF80B586B09A
:100E900000AF78600B46FB707B689B6C7B617B6965
:100EA0001A6E0D4B9A4200D013E04FF480233B6141
:100EB0000A4BFB6000BFFB78002B05D0F8680021CF
:100EC0003A6900F0BFFA04E0F8683969002200F0DE
:100ED000B9FA1837BD4680BD00480040403802408E
:100EE00080B584B000AF78607B689B6CBB6078682D
:100EF0000121FFF7CBFFBB685B6E1846FFF790FC44
:100F0000BB689B6E1846FFF78BFCB8681021FFF793
:100F1000BBFEF860FB6823F47D53FB60BB6893F86D
:100F20005230002B03D0FB6843F40053FB60B868D9
:100F30001021FA68FFF7B8FEB8680C21FFF7A4FE8D
:100F4000F860FB6823F4BE73FB60B8680C21FA6894
:100F5000FFF7AAFEB8681421FFF796FEF860FB6859
:100F600023F4E06323F00103FB60B8681421FA68FE
:100F7000FFF79AFE7868FFF707FFB8680C21FFF7C4
:100F800083FEF860FB6843F4005343F00C03FB60FE
:100F9000B8680C21FA68FFF787FEBB680022A3F847
:100FA0004C20002318461037BD4680BD80B584B064
:100FB00000AF78607B689B6CFB60F8680021FFF7EE
:100FC000BBFE78680021FFF761FFF8680C21FFF78E
:100FD0005BFEB860BB6823F4005323F00C03BB60D6
:100FE000F8680C21BA68FFF75FFEFB685B6E184675
:100FF000FFF772FDFB689B6E1846FFF76DFD10371B
:10100000BD4680BD80B584B000AF78607B689B6CC6
:10101000FB60FB6893F858301A46FB68DB6E10469D
:10102000194601F08BFDB860BB68002B05D1FB6849
:1010300093F85830184600F067FCBB681846103724
:10104000BD4680BD80B584B000AF78607B689B6C86
:10105000FB60FB6893F85830184600F02FFCFB68E3
:1010600093F858301846002101F068FD1037BD464E
:1010700080BD00BF80B584B000AF78600123FB72F3
:101080000023FB6041E00023FB7278680021FFF73A
:10109000FBFD03469AB27B68A3F84E207B68B3F849
:1010A0004E3003F02003002B0DD07B68B3F84C309A
:1010B00003F02003002B06D07B68184601F0CEFA1F
:1010C0000123FB720AE07B68B3F84E3003F00E0395
:1010D000002B03D078680421FFF7D6FD7B68B3F8B6
:1010E0004E3003F08003002B0CD07B68B3F84C30FB
:1010F00003F08003002B05D07B68184601F058FAF6
:101100000123FB72FB680133FB60FB68FF2B02DCF1
:10111000FB7A002BB7D1002318461037BD4680BD9F
:1011200080B487B000AFF860B9607A6000237B615B
:101130006FF018037B6100BF7B6918461C37BD4602
:101140005DF8047B704700BF80B584B000AF786065
:1011500039607B689B6CFB60F8680421FFF794FDA5
:10116000B860FB68B3F84E301B041A46BB681A43DC
:101170003B681A60FB680022A3F84E20BB68DBB214
:1011800018461037BD4680BD80B58AB000AF786084
:101190000B46FB707B689B6C3B62EFF31183BB617A
:1011A000BB69DBB2FB7510233B613B6983F311889C
:1011B000FB7DFB773B6AB3F84C30FB84FB78002B5C
:1011C00004D0FB8C43F02003FB8405E0FB8C23F46C
:1011D000907323F00103FB84FB8C386A1946FFF7F8
:1011E00075FDFB7FFB73FB7BBB60BB6883F31188E2
:1011F0002837BD4680BD00BF80B584B000AF7860A1
:101200007B689B6CFB60F8680021FFF73DFD03469F
:1012100003F02003002B0CBF00230123DBB2184690
:101220001037BD4680BD00BF80B584B000AF786088
:1012300039607B689B6CFB603B68F86804211A4648
:10124000FFF732FD1037BD4680BD00BF80B58AB0C4
:1012500000AF78600B46FB707B689B6C7B62EFF3A2
:101260001183FB61FB69DBB2FB7610237B617B6939
:1012700083F31188FB7E87F82330FB78002B0ED098
:101280007B6AB3F84C3043F080033B843B8C786A34
:101290001946FFF71BFD786801F08AF909E07B6ABF
:1012A000B3F84C3023F080039BB2786A1946FFF7FD
:1012B0000DFD97F82330FB74FB7CFB60FB6883F328
:1012C00011882837BD4680BD80B584B000AF7860F6
:1012D0007B689B6CFB60F8680021FFF7D5FC034638
:1012E00003F08003002B0CBF00230123DBB2184660
:1012F0001037BD4680BD00BF80B582B000AF7860BA
:1013000039600448FFF7B6FE034618460837BD4665
:1013100080BD00BF0000002080B582B000AF002378
:101320007B6010E00D4B7A6853F82230002B07D019
:101330000A4B7A6853F8223018460021FFF7FCFC6C
:101340007B6801337B607B68052BEBD9044B184627
:10135000FFF7C6FD0837BD4680BD00BF50D3020869
:101360000000002080B586B000AF00233B611E4B1B
:101370001E48194601F0B4F81B4B1D48194601F0F0
:10138000AFF801233B613B4618461A4904F002FFBF
:1013900000237B6121E0184B7A6953F82230002B3F
:1013A00000D117E0144B7A6953F82230DB78002B18
:1013B00000D00FE03B695A1C3A61DBB23033DBB23C
:1013C0007B720D4B7A6953F822303A461046194623
:1013D00001F086F87B6901337B617B69052BDAD9E3
:1013E0001837BD4680BD00BF0000002068D302084A
:1013F00078D3020884D3020850D3020880B584B0A1
:1014000000AF78600E4BFB6007F10A03F8681946DD
:10141000FFF792FC7B680A2B02D10D20FFF7CAFB75
:101420007B68DBB21846FFF7C5FB7B89F868194675
:10143000FFF74CFC7B6818461037BD4680BD00BFE7
:101440000000002080B48DB000AFF860B9607A6011
:10145000EFF311837B627B6ADBB287F823301023C2
:10146000FB61FB6983F3118897F8233087F82F30ED
:10147000FB681B68BB62BB68DB43BA6A1340BB6294
:10148000BA6A7B681343BB62FB68BA6A1A6097F852
:101490002F30FB76FB7E7B617B6983F311883437C9
:1014A000BD465DF8047B704780B584B000AF7860BE
:1014B0003960042001F0CAF90D4B1B68FB600C4B2E
:1014C0003A681A60786800F045FA7868396801F07F
:1014D0006FFB074B1B683B60054BFA681A600420E2
:1014E00001F0C8F93B6818461037BD4680BD00BF03
:1014F000807A002080B586B000AF78603960EFF365
:1015000011837B617B69DBB2FB741023FB60FB689A
:1015100083F3118803200449044A04F097FD04482A
:10152000992100F04DFA00BF90D3020880D4020840
:10153000ACD3020880B586B000AF78603960EFF3B5
:1015400011837B617B69DBB2FB741023FB60FB685A
:1015500083F31188054B1B6803200549054A04F0F5
:1015600075FD0548A12100F02BFA00BF28ED00E031
:10157000C0D302088CD40208ACD3020880B586B070
:1015800000AF78603960EFF311837B617B69DBB278
:10159000FB741023FB60FB6883F31188054B1B6809
:1015A00003200549054A04F051FD0548A92100F032
:1015B00007FA00BF28ED00E0E8D302089CD4020837
:1015C000ACD3020880B586B000AF78603960EFF325
:1015D00011837B617B69DBB2FB741023FB60FB68CA
:1015E00083F3118803200449044A04F02FFD0448C2
:1015F000B12100F0E5F900BF14D40208B0D402080C
:10160000ACD3020880B586B000AF78603960EFF3E4
:1016100011837B617B69DBB2FB741023FB60FB6889
:1016200083F3118803200449044A04F00FFD0448A1
:10163000B92100F0C5F900BF34D40208C0D40208B3
:10164000ACD3020880B586B000AF78603960EFF3A4
:1016500011837B617B69DBB2FB741023FB60FB6849
:1016600083F3118803200449044A04F0EFFC044882
:10167000C12100F0A5F900BF5CD40208D4D402084F
:10168000ACD3020880B485B000AF7860094B1B680A
:10169000FB60FB6823F07F43FB607B681B06FA68F6
:1016A0001343FB60034BFA681A601437BD465DF8BC
:1016B000047B70471CED00E080B584B000AFF8609B
:1016C000B9607A603B60FB68012B02DDFB68612B2F
:1016D00003DD3648E92100F073F9FB680F2B37DD95
:1016E000FB682F2B0FDC3B6803F1604303F561437C
:1016F000BA681360FB68103B012202FA03F31A4632
:101700007B681A604CE0FB684F2B0DDC3A68284B75
:101710001344BA681360FB68303B012202FA03F3FA
:101720001A467B681A603BE0FB68612B0DDC3A6867
:10173000204B1344BA681360FB68503B012202FA45
:1017400003F31A467B681A602AE04FF0FF3328E063
:10175000BB68194A1A60FB68042B04D17B684FF4FC
:1017600080321A601CE0FB68052B04D17B684FF4C3
:1017700000321A6014E0FB68062B04D17B684FF43A
:1017800080221A600CE0FB680F2B06D1BB680B4A65
:101790001A607B6801221A6002E04FF0FF3300E01C
:1017A000002318461037BD4680BD00BFACD30208E9
:1017B00004E100E008E100E024ED00E010E000E0DA
:1017C00080B584B000AF2C4B00221A602B4B002256
:1017D0001A602B4B4FF080321A602A4B4FF0803248
:1017E0001A60294B4FF080321A60284B1B68013376
:1017F000DB00BB60264BFB6006E0FB684FF08032ED
:101800001A60FB680433FB60BB685A1EBA60002B89
:10181000F3D1204B00221A600B201F4901F08EF9F2
:1018200003201E4901F08AF90020FFF72BFF022058
:101830001B4901F083F904201A4901F07FF90520C2
:10184000194901F07BF90620184901F077F90E20BB
:10185000174901F073F90C20164901F06FF90020C7
:10186000154901F06BF900237B607B6883F31188D5
:1018700062B61037BD4680BD00E100E004E100E043
:1018800018ED00E01CED00E020ED00E004E000E0D9
:1018900000E400E0807A0020411C00089D1A000846
:1018A000F51400083D1A0008351500087D150008DC
:1018B000C5150008051600084516000880B586B055
:1018C00000AF786007F1100207F10C037868114649
:1018D0001A468023FFF7F0FE0346002B11D17B68E8
:1018E0000F2B03DD3B69FA681A600AE03B691B684D
:1018F0007B61FB68DB437A6913407B613B697A69F2
:101900001A601837BD4680BD80B586B000AF7860DC
:1019100007F1100207F10C03786811461A460023FC
:10192000FFF7CAFE0346002B10D17B680F2B03DDA7
:101930003B69FA681A6009E03B691B687B61FB68D8
:101940007A6913437B613B697A691A601837BD462F
:1019500080BD00BF80B483B000AF78600C37BD4657
:101960005DF8047B704700BF80B586B000AF78603B
:10197000114B1B68002B04D1104B1B689B89002B5B
:1019800017D1EFF311837B617B69DBB2FB7410230A
:10199000FB60FB6883F31188072000F057FFFA20F3
:1019A00000F02EF8072000F065FFFA2000F028F87C
:1019B000F2E7786801F0ACFC807A0020947A00208D
:1019C00080B586B002AF786039600A4B1B68FB6057
:1019D000062000F03BFFFB68D0333A680092019389
:1019E00003200549054A7B6804F07AFB0120FFF7D4
:1019F000BBFF00BF947A0020E4D4020818D5020887
:101A000080B485B000AF78600023FB600DE0002358
:101A1000BB6002E0BB680133BB60BA6844F24C13A0
:101A20009A42F7D9FB680133FB60FA687B689A42F7
:101A3000EDD31437BD465DF8047B704780B588B0A0
:101A400002AF78603960EFF311837B617B69DBB2B1
:101A5000FB741023FB60FB6883F3118803200949A2
:101A6000094A04F03DFB094B1B68094A12680092C1
:101A700003200849044A04F033FB07488021FFF79C
:101A80009FFF00BF24D5020888D5020828ED00E09A
:101A900034ED00E04CD5020870D50208F0B593B0E3
:101AA00008AF786039603B687B6203205449554A2F
:101AB00004F016FB7B6A009303205349514A7B686C
:101AC00004F00EFBEFF311833B623B6ADBB2EFF3F2
:101AD0001082FA61FA69D2B21046EFF30582BA6158
:101AE000BA691146EFF314827A617A690090019124
:101AF000029203204549434A04F0F2FA444B1B6822
:101B0000444A1468444A1068444A1168444A1268B6
:101B1000009401900291039203204249394A04F053
:101B2000DFFA7B6A28331B687A6A2C32D2F800E02D
:101B30007A6A303216687A6A343215687A6A0832FC
:101B400014687A6A0C3210687A6A103211687A6AFC
:101B500014321268CDF800E00196029503940490C7
:101B60000591069203203049264A04F0B9FA7B6AAF
:101B700018331B687A6A1C32D2F800E07A6A203285
:101B800016687A6A243215687A6A383214687A6A72
:101B900010687A6A3C3211687A6A40321268CDF86D
:101BA00000E00196029503940490059106920320AB
:101BB0001E49144A04F094FA1D4B1B6844331B68F9
:101BC0001B4A1268043212680092032019490D4A18
:101BD00004F086FAEFF311833B613B69DBB2FB73E0
:101BE0001023BB60BB6883F311880A4B1B6803207A
:101BF0001149044A04F074FA1048B721FFF7E0FED7
:101C000094D5020814D70208A8D50208C0D5020846
:101C100028ED00E02CED00E030ED00E038ED00E0D4
:101C20003CED00E0FCD502084CD6020880D6020844
:101C3000807A0020B4D60208DCD60208FCD602085E
:101C400080B584B000AF786039603B68FB60FB68AA
:101C5000002B04D02B4B1B68FA689A4203D02A4809
:101C6000A021FFF7ADFEFB689B6ABB60BB68012B40
:101C700016D0012B02D3022B22D03EE0FB682C337E
:101C80001B68002B03D12048CF21FFF799FEFB688A
:101C90002C331B681846F968482204F0D9FA2CE066
:101CA000FB682C331B68002B03D11748E821FFF792
:101CB00087FEFB682C331B681A46124B1A601CE027
:101CC000FB682C331B68002B04D0FB6830331B6887
:101CD000002B03D10C48FF21FFF772FEFB682C3369
:101CE0001B681846F968482204F0B2FAFB683033E2
:101CF0001B681A46034B1A6000BF002318461037B2
:101D0000BD4680BD807A002024D7020880B584B00B
:101D100000AFF860B9607A60F86801F02DFBF868F0
:101D2000B9687A6804F0B4FA034618461037BD461D
:101D300080BD00BF80B582B000AF78600B46FB70FD
:101D40000FE001F0F9FA03461B68042B03D00A48A0
:101D50008821FFF735FEFB78002B02D06FF00303DC
:101D600006E0786801F028FB0346002BE9D1002348
:101D700018460837BD4680BD50D7020880B58CB0E4
:101D800000AFF860B9601346FB71FB689B8C9BB297
:101D90001BB20133FB62FB681B8D1AB2FB6A9A42CD
:101DA00001DC0023FB62FB68DB8C9BB21AB2FB6A8E
:101DB0009A420FD0FB68DA6AFB689B8C9BB21BB21D
:101DC0001344BA68D2B21A70FB6A9AB2FB689A845A
:101DD000002338E0FB79002B31D0EFF311833B6215
:101DE0003B6ADBB2FB771023BB61BB6983F31188CD
:101DF000FB7F87F82B30FB6801225A70FB685B6C15
:101E00005B6AF86801219847FB680C33184601218A
:101E1000FFF790FF7862FB685B6C5B6AF8680021F3
:101E2000984797F82B30FB75FB7D3B613B6983F34B
:101E300011887B6A002B05DA6FF0030303E06FF073
:101E40000A0300E0AFE718463037BD4680BD00BF4B
:101E500080B586B000AFF860B9607A607B687B615E
:101E600010E0BB685A1CBA601B783B613B690A2BC7
:101E700002D10D20FFF7C2FA3869FFF7BFFA7B687D
:101E8000013B7B607B68002BEBD17B6918461837E0
:101E9000BD4680BD80B58EB000AFF860B9607A6095
:101EA000FB689B68FB62FB6A1B69BB627B687B63A8
:101EB00006F00EFB0346002B04D101F013FA034693
:101EC000002B24D1BB6ADB78002B1DD0EFF31183EC
:101ED0003B623B6ADBB2FB771023BB61BB6983F3D8
:101EE0001188FB7F87F82530B86AB9687A68FFF7F0
:101EF000AFFF386397F82530FB75FB7D3B613B698D
:101F000083F311883B6B70E04FF0FF336DE0BB6AE9
:101F10001C3318460121FFF70DFF38633B6B002B84
:101F200001DA3B6B61E0FB681B6803F04003002BA8
:101F300014BF00230123DBB287F82730BB6A5B6C38
:101F40005B6AB86A0021984736E0BB685A1CBA60E1
:101F50001B7887F8263000233B63BB6ADB78002BB5
:101F60000BD097F826300A2B07D197F82730B86A9C
:101F70000D211A46FFF702FF38633B6B002B09D196
:101F800097F8262097F82730B86A11461A46FFF7C7
:101F9000F5FE38633B6B002B0BDA7A6B7B689A4259
:101FA00004D97A6B7B68D31A7B6308E03B6B7B6355
:101FB00005E07B68013B7B607B68002BC5D1BB6A79
:101FC0009B8C9AB2BB6ADB8C9BB212B21BB29A4258
:101FD00005D0BB6A5B6C5B6AB86A01219847BB6A33
:101FE0001C33184601F068FA7B6B18463837BD463B
:101FF00080BD00BF80B590B000AFF860B9607A6076
:10200000FB689B687B637B6B1B693B633B6B30337B
:10201000FB620023FB63FB6A18460121FFF78AFE7F
:10202000B862BB6A002B01DABB6A8CE080E0FB6A15
:102030005B897B87FB6A1B899BB2B7F93A201BB28D
:102040009A4220D0FB6A1A69B7F93A3013441B78D8
:1020500087F827307B8F01337B87FB6A9B89B7F931
:102060003A201BB29A4201DB00237B87FB6A7A8FFE
:102070005A81BB685A1CBA6097F827201A70FB6B0C
:102080000133FB6354E0FB6B002B00DD55E0FB6884
:102090001B6803F04003002B03D06FF00A03FB63BF
:1020A0004BE03B6B5B6C9B69386B00219847FB6A8C
:1020B0001B899AB2FB6A5B899BB212B21BB29A422D
:1020C00030D1EFF311833B623B6ADBB2FB77102325
:1020D000BB61BB6983F31188FB7F87F826303B6BBC
:1020E0005B6C9B69386B012198473B6B01229A70AE
:1020F0003B6B143318460121FFF71CFEB86297F8BA
:102100002630FB75FB7D3B613B6983F31188BB6A1D
:10211000002B0DDAFB6B002B03D16FF00303FB6385
:102120000BE00AE03B6B5B6C9B69386B01219847C5
:10213000FA6B7B689A42FFF47AAF3B6B30331846F8
:1021400001F0BAF9FB6B18464037BD4680BD00BFB1
:1021500080B594B000AFF860B9607A60FB689B68A6
:102160003B643B6C1B69FB63FB6B5B6C1B69F86836
:10217000B9687A689847F864FB6C13F1190F40F05E
:102180008E80BB6840F20532934204D040F20632A2
:10219000934243D083E0EFF311837B637B6BDBB22D
:1021A00087F833301023FB62FB6A83F3118897F8BA
:1021B000333087F83B30FB6B5B8F9AB2FB6B1B8F26
:1021C0009BB212B21BB29A420ADCFB6B1B8F9BB212
:1021D0001AB2FB6B5B8F9BB21BB2D31ABB640DE0D0
:1021E000FB6B9B8F1AB2FB6B1B8F9BB219B2FB6B05
:1021F0005B8F9BB21BB2CB1A1344BB6497F83B3086
:1022000087F82B3097F82B307B627B6A83F3118839
:102210007B68BA6C1A600023FB6440E0EFF3118323
:102220003B623B6ADBB2FB771023BB61BB6983F384
:102230001188FB7F87F83A30FB6B9B8C9AB2FB6B63
:10224000DB8C9BB212B21BB29A420BDAFB6BDB8CBB
:102250009BB21AB2FB6B9B8C9BB21BB2D31A013B95
:102260007B640EE0FB6B1B8D1AB2FB6BDB8C9BB2AD
:1022700019B2FB6B9B8C9BB21BB2CB1A1344013B74
:102280007B6497F83A30FB75FB7D3B613B6983F3D8
:1022900011887B687A6C1A600023FB6400BFFB6CBA
:1022A00018465037BD4680BD80B58AB000AF786013
:1022B0007B689B687B627B6A1B693B623B6A043379
:1022C00018460021FFF736FD3B6A1B78012B0CD91D
:1022D0003B6A1B78013BDAB23B6A1A703B6A0433F3
:1022E000184601F0E9F8002366E03B6A00221A7004
:1022F0003B6A5B6C9B69386A0021984702E0304872
:1023000003F042FE3B6A9B8C9AB23B6ADB8C9BB229
:1023100012B21BB29A42F2D102E0294803F034FE15
:102320003B6A5B6CDB6A386A98470346002BF4D043
:10233000EFF31183BB61BB69DBB2FB7510233B611B
:102340003B6983F31188FB7DFB773B6A5B6CDB6841
:10235000386A98473B6ADB78002B04D13B6A5B6C98
:102360005B68386A9847FB7FFB73FB7BBB60BB688D
:1023700083F311883B6A0C33184600210022FFF7D3
:10238000C5FC3B6A1433184600210022FFF7BEFC4F
:102390003B6A1C33184600210122FFF7B7FC3B6A59
:1023A0003033184600210122FFF7B0FC3B6A0433AA
:1023B000184601F081F8002318462837BD4680BD35
:1023C00020A1070080B590B000AF78607B689B6863
:1023D000BB63BB6B1B697B637B6B043318460121BA
:1023E000FFF7A8FCF863FB6B002B01DAFB6B73E0D3
:1023F0007B6B1B78013387F8333097F83330002B31
:1024000003D16FF01703FB6360E097F83330012BC3
:1024100058D1EFF31183FB62FB6ADBB287F82B30F4
:1024200010237B627B6A83F3118897F82B3087F83F
:1024300032307B6BDB78002B13D17B6B5B6C1B68C2
:10244000786B9847F863FB6B002B0ADA97F8323009
:1024500087F8233097F82330FB61FB6983F31188F9
:1024600034E07B6B5B6C9B68786B9847F863FB6B25
:10247000002B0DDA7B6B5B6C5B68786B984797F889
:102480003230FB76FB7E7B617B6983F311881DE034
:102490007B6B00229A847B6B0022DA847B6B0022A8
:1024A0001A877B6B00225A877B6B5B6C9B69786B0E
:1024B0000121984797F83230FB74FB7CFB60FB6886
:1024C00083F311887B6B97F833201A707B6B04338E
:1024D000184600F0F1FFFB6B18464037BD4680BD43
:1024E00080B582B000AF786039603B681C33184615
:1024F0000021012203F0CCFE3B6830331846002156
:10250000012203F0C5FE3B68043318460021012276
:1025100003F0BEFE3B680C3318460021002203F096
:10252000B7FE3B68143318460021002203F0B0FECA
:1025300003200849084A7B6803F088FD786807494A
:102540004FF4DB723B6817F0C7FD034618460837A7
:10255000BD4680BD60D7020874D7020838D702088C
:1025600080B582B000AF78607B689B78DBB2002BCF
:1025700007D07B6800229A707B681433184600F0FD
:102580009BFF0837BD4680BD80B582B000AF786044
:102590007B685B78DBB2002B07D07B6800225A7027
:1025A0007B680C33184600F087FF0837BD4680BDB6
:1025B00080B584B000AF78600023FB8122E07B68A7
:1025C0005B6C1B6A7A68D16A7A68D28C92B212B25A
:1025D0000A441278786811469847FB890133FB81D9
:1025E0007B68DB8C9BB201339BB29BB27A68194645
:1025F000D1847A68118D1AB20BB29A4202DB7B68E1
:102600000022DA847B689B8C9AB27B68DB8C9BB25D
:1026100012B21BB29A4207D07B685B6C9B6A7868E7
:1026200098470346002BCAD17B689B8C9AB27B6883
:10263000DB8C9BB212B21BB29A4205D17B685B6CF9
:102640005B6A786800219847FB89002B02D0786884
:10265000FFF79AFF1037BD4680BD00BF80B588B038
:1026600000AF78607B6830337B617B691B899BB2EC
:102670001BB20133FB6100237B837B699B891AB208
:10268000FB699A4202DC0023FB6133E032E07B69A4
:102690005B899BB21AB2FB699A4214BF00230123E3
:1026A000DBB2FB747B685B6C5B6907F10C027868DA
:1026B000114698470346BB74FB7C002B1AD17B69FB
:1026C0001A697B691B899BB21BB21344BA7C1A70CE
:1026D0007B8B01337B83FB699AB27B691A81FB692F
:1026E0000133FB617B699B891BB2FA699A4201DB6A
:1026F0000023FB617B685B6CDB6978689847034665
:10270000002BC4D17B8B002B02D07868FFF728FF09
:102710002037BD4680BD00BF80B500AF00F07EF819
:1027200080BD00BF80B582B000AF78607B6803F0E9
:102730000103002B03D011480021FEF7DDF97B686F
:1027400003F00203002B03D00D480021FEF7D4F95B
:102750007B6803F00403002B03D00A480021FEF736
:10276000CBF97B6803F00803002B03D00648002157
:10277000FEF7C2F90837BD4680BD00BF040904005A
:1027800006090400160904002609040080B582B079
:1027900000AF78607B6803F00103002B03D0114881
:1027A0000121FEF7A9F97B6803F00203002B03D097
:1027B0000D480121FEF7A0F97B6803F00403002B0C
:1027C00003D00A480121FEF797F97B6803F008035C
:1027D000002B03D006480121FEF78EF90837BD46CD
:1027E00080BD00BF040904000609040016090400A6
:1027F0002609040080B582B000AF78607B681B09B1
:1028000003F00F031846FFF78DFF7B6803F00F03FB
:102810001846FFF7BBFF0837BD4680BD80B500AF47
:102820000648FDF7FDFF0648FDF7FAFF0548FDF7EE
:10283000F7FF0548FDF7F4FF80BD00BF0409040061
:1028400006090400160904002609040080B582B0B8
:1028500000AF7860064B7A6833F812301B0A9BB2DF
:10286000DBB21846FFF7C6FF0837BD4680BD00BF84
:1028700084D7020880B582B000AF7860054B7A68D3
:1028800033F81230DBB21846FFF7B4FF0837BD4605
:1028900080BD00BF84D7020880B584B000AF764BFE
:1028A00000221A60744B00225A60744B00221A6096
:1028B000724B00225A60724B00221A60704B002249
:1028C0005A60704B00221A606E4B00225A606E4BA9
:1028D00000221A606C4B00225A606C4B00221A6076
:1028E0006A4B00225A606A4B00221A60684B002231
:1028F0005A60684B00221A60664B00225A60664B91
:1029000000221A800023FB6015E06449FA68134630
:102910005B0013449B000B4400221A605F49FA6875
:1029200013465B0013449B000B444FF6FF729A80E2
:10293000FB680133FB60FB680F2BE6DD574B584A01
:102940001A60564B00229A8055480021F82203F065
:1029500005FC534B032283F82B20514B514A5A61FB
:102960004F4B02229A85504850491F2203F044FCE5
:102970004B4B002283F8EF204D4B4B4A1A604C4BD7
:1029800000225A60464B4A4AC3F8F42044483A4968
:1029900003F0E8FD424805F079FD00F0F3FD07F192
:1029A00008023B1D1046194605F002FABA687B681A
:1029B0001046194604F0D8FE3E4B002B01D001F022
:1029C00005FE3D4B002B01D003F0F4F93B4B002BEF
:1029D00001D003F09DF93A4B002B01D0AFF30080FA
:1029E000384B002B01D002F04DFB374B002B01D0B0
:1029F00023F06EFA354B002B01D022F087FA16F047
:102A000057F912F003F905F021FD254B9B8DDBB240
:102A10002348194600F00EF90346002B04DA2C482F
:102A20004FF4F971FEF7CCFF1D4800F05DF9034645
:102A3000002B04DA26484FF4FD71FEF7C1FF184859
:102A400000F034F90346002B04DA214840F2022159
:102A5000FEF7B6FF124B9B6801221A7000F064F873
:102A60000346002B04DA1A4840F20921FEF7A8FFBA
:102A700005F0BEF9FCE700BF947A0020747B0020CB
:102A80008C7A0020AC7A00209C7A0020847A002086
:102A9000A47A0020807B00207C7B0020B47A002078
:102AA000B00500209928000880060020DCD7020825
:102AB000A8060020CD450008B55D0008115D00089E
:102AC0000000000085500008D15E02080D4F02088A
:102AD000E8D7020880B500AF01F032FD80BD00BF2D
:102AE00080B584B002AF00230093094864214FF4FD
:102AF0000062084B00F0BAF978607B68002B04DCB8
:102B000005484FF48E71FEF75BFF0837BD4680BD68
:102B1000F8D70208919C000800D8020880B500AFE1
:102B2000FFF7DEFF80BD00BF80B500AFFFF7D2FF2B
:102B3000FFF7F4FF0023184680BD00BF80B58AB0C0
:102B400000AF786039604FF0FF337B627B68612BA8
:102B500024D8EFF31183FB61FB69DBB2FB76102312
:102B60007B617B6983F31188FB7E87F823303B68A8
:102B7000002B04D17868FEF7A1FE0B4B3B600B4B9A
:102B80007A68396843F8221097F82330FB74FB7C8D
:102B9000FB60FB6883F3118800237B627B6A184625
:102BA0002837BD4680BD00BFF52B0008987B00206C
:102BB00080B584B000AF786039607B68612B05D840
:102BC0000A4B7A6853F82230002B02D1084BFB6085
:102BD00004E0064B7A6853F82230FB60FB687868A3
:102BE000396898471037BD4680BD00BF987B0020EC
:102BF000F52B000880B586B000AF78603960EFF340
:102C000011837B617B69DBB2FB741023FB60FB6883
:102C100083F3118803200449044A7B6803F060FAB7
:102C200003485521FEF7CCFE14D802083CD8020810
:102C300024D8020880B584B000AF78600B46FB70E2
:102C40007B68002B03D07B689B68002B03D0164861
:102C5000B821FEF7B5FE4FF43D7004F0C5FDF860F5
:102C6000FB68002B02D16FF00B0319E07B68FA6858
:102C70009A60F86801F006FCB860BB68002B07DAC0
:102C8000F86804F093FD7B6800229A60BB6807E057
:102C9000FB68103318460021012203F0F9FA0023E3
:102CA00018461037BD4680BD50D8020880B584B0A4
:102CB00000AF78607B68002B03D07B689B68002B9B
:102CC00004D108484FF48E71FEF77AFE7B689B684A
:102CD000FB60FB6801225A70002318461037BD467E
:102CE00080BD00BF50D8020880B584B000AF7860C6
:102CF0007B689B68FB60FB68002B03D117485A2157
:102D0000FEF75EFEFB683433184616F025F8FB68C4
:102D100003F50973184610F05BFC1148032116F007
:102D200029FDB860BB68002B0CD10020012116F0F2
:102D300083FB0020022116F07FFB786801F060FC25
:102D4000034607E0BB68002B02DDB86816F028FBDD
:102D50006FF0160318461037BD4680BD68D80208CC
:102D600088D8020880B58AB002AFF8607A603B600C
:102D70000B46FB72F82004F037FDB861BB69002BED
:102D800002D10C23FB6162E0FB7AB8691946FFF7B8
:102D900051FF78617B69002B03DA7B695B42FB6141
:102DA00050E0B86901F098FC78617B69002B03DA88
:102DB0007B695B42FB6145E03A68FB7AB869114682
:102DC0001A4605F0E1FA78617B69002B03DA7B692A
:102DD0005B42FB6136E0FB7A0093B8697968214A6F
:102DE000BB6A00F0E3F978617B69002B03DA7B6949
:102DF0005B42FB6126E0B869F968FA6A00F008FAFC
:102E0000B869FFF753FF78617B69002B03DA7B69B0
:102E10005B42FB6116E0BB699B897B82B86900F06D
:102E20000BFA78617B69002B09DA00F085FA03461A
:102E30001B68FB61B8690C4903F0B8FB02E0B7F905
:102E400012300BE0FB7AB869194601F065FD00F01D
:102E500073FA0346FA691A604FF0FF3318462037B9
:102E6000BD4680BD79320008A47A002080B586B0C6
:102E700002AFF860B9607A603B603B680093BB6961
:102E80000193F8680021BA687B68FFF76BFF03467F
:102E900018461037BD4680BD80B586B002AFF860D9
:102EA000B9607A603B603B680093BB690193F86846
:102EB0000221BA687B68FFF755FF034618461037B2
:102EC000BD4680BD80B586B000AF786001F0F8FDEA
:102ED00000233B6146E0294B1B889BB201339BB228
:102EE0009BB2264A19461180FB82B7F91630002B97
:102EF00004DC224B01221A800123FB82FB8A03F0AF
:102F00000F03FB601E49FA6813465B0013449B00E5
:102F10000B441B68002B22D11949FA6813465B0049
:102F200013449B000B447A681A601549FA681346EB
:102F30005B0013449B000B44FA8A9A801049FA689C
:102F400013465B0013449B000B44083300221A60B5
:102F50007B68FA8A9A8101F0DBFD002309E03B6976
:102F600001333B613B690F2BB5DD01F0D1FD4FF023
:102F7000FF3318461837BD4680BD00BF7C7B00205C
:102F8000B47A002080B586B000AFF860B9607A608E
:102F90003B60F868FFF796FF78617B69002B3ED1B4
:102FA000BB68DAB2FB681A76BB68DAB2FB6883F8F2
:102FB0002A20FB687A681A613A68FB685A6197F8B8
:102FC000203003F0030387F82030FB689B8D23F04B
:102FD00003039AB2FB689A85FB689A8D97F82030B4
:102FE0009BB213439AB2FB689A85FB68483303206F
:102FF00000211A4600F002FEFB68002283F82B2015
:10300000F86805F043FA01F05BFDF868064903F043
:10301000A9FAFB68042283F82B2001F079FD7B6973
:1030200018461837BD4680BDA47A002080B582B00E
:1030300000AF786039603B68002B01D1074B3B60E3
:103040007B68D033184639681F2203F0D5F87B68B7
:10305000002283F8EF200837BD4680BD98D80208CB
:1030600080B58AB000AF786039607B68D0337B610F
:10307000786903F0A9F8034601333B620023FB6142
:103080003B68002B26D01EE0FB699B003A68134486
:103090001B68184603F098F802463B6A1344013354
:1030A0003B627B689A6B3B6A9A4202D86FF02303BB
:1030B00075E0FB690133FB61FB69B3F5807F02DDDD
:1030C0006FF006036BE0FB699B003A6813441B68D2
:1030D000002BD9D1FB6902339B003B617A683969C7
:1030E0003B6A0B441046194605F084FBF860FB6808
:1030F000002B04D12C4840F20E21FEF761FCFB6846
:10310000002B02D16FF00B0349E0FA683B691344CE
:103110007B62FB687A6A1A60786903F055F80346A7
:103120000133BB60786A796903F034F8BB687A6A66
:1031300013447B620023BB6121E0BB6901339B0028
:10314000FA6813447A6A1A60BB699B003A681344B0
:103150001B68184603F038F803460133BB60BB69AF
:103160009B003A6813441B68786A194603F012F80A
:10317000BB687A6A13447B62BB690133BB61BA697D
:10318000FB699A42D9DBFB6901339B00FA6813445F
:1031900000221A607B68FA68C3F8F42000231846FE
:1031A0002837BD4680BD00BFA4D8020880B588B0CE
:1031B00002AFF860B9607A603B6097F82030009306
:1031C000F868B9687A683B68FFF7DCFE78617B696C
:1031D000002B04D1BB68DAB2FB6883F8F0207B696E
:1031E00018461837BD4680BD80B586B002AFF8607E
:1031F000B9607A603B6001230093F868B9687A6827
:103200003B68FFF7BFFE034618461037BD4680BD3A
:1032100080B584B000AFF860B9607A60F868B968CA
:10322000FFF704FFF8687968FFF71AFF03461846AE
:103230001037BD4680BD00BF80B588B000AF786054
:10324000EFF31183BB61BB69DBB2FB7510233B61FC
:103250003B6983F31188FB7DFB77786805F0FCFA06
:10326000FB7FFB73FB7BBB60BB6883F31188002390
:1032700018462037BD4680BD80B584B000AF174BDF
:103280001B68BB60BB689B8D03F00303012B03D15C
:1032900013486B21FEF794FB0123FB6009E0FB68F8
:1032A0000133FB60FB68B3F5807F02DD012000F095
:1032B0002FF8BB68D3F8F420FB689B0013441B680D
:1032C000002BECD1BB685B69BA68D2F8F420F868CF
:1032D000114698477860786800F01AF8947A0020D0
:1032E000B8D8020880B483B000AF084B1B687B607D
:1032F0007B68002B02D07B689B8900E000231BB217
:1033000018460C37BD465DF8047B7047947A002060
:1033100080B584B000AF7860064B1B68FB607B68AB
:10332000DBB27B60F8687968002201F061FD7868A3
:1033300005F070F8947A002080B582B000AF05F0F7
:10334000C7F80346002B0DD1094B1B687B607B68D7
:10335000002B07D07B6893F82B30032B02D17B68BE
:10336000743300E0034B18460837BD4680BD00BFEC
:10337000947A0020B006002080B582B000AF78605B
:103380007B68002B0CD07B681B881BB2002B02DBF8
:103390007B6801221A80786800F082FB002306E037
:1033A000FFF7CAFF034616221A604FF0FF33184694
:1033B0000837BD4680BD00BF80B58AB000AF7860D9
:1033C0003B4B1B683B624FF0FF337B6205F080F89C
:1033D0000346002B03D037486921FEF7F1FAFFF7C7
:1033E000ABFF034616221A607B68002B5BD0EFF31D
:1033F0001183BB61BB69DBB2FB7510233B613B6989
:1034000083F31188FB7DFB777B681B881BB2002B45
:103410000FDD7B681B889BB2013B9AB27B681A80E8
:10342000786800F04FFB3B6A00225A6400237B62FD
:1034300032E03B6A5B6C002B03D01E488E21FEF706
:10344000BFFA7B681B889BB2013B9AB27B681A80EB
:103450003B6A7A685A6401F033FB786800F050FBED
:10346000FFF76AFF034600221A60386A052104F05C
:103470000FFFFFF761FF03461B68042B0AD0FFF71D
:103480005BFF03461B686E2B04D0786800F01AFBC4
:1034900000237B6201F03CFBFB7FFB73FB7BBB608B
:1034A000BB6883F311887B6A18462837BD4680BD08
:1034B000947A0020CCD8020880B58AB000AF78603A
:1034C00000237B624FF0FF333B627B68002B4FD0C1
:1034D000EFF31183BB61BB69DBB2FB7510233B616A
:1034E0003B6983F31188FB7DFB777B681B881AB2ED
:1034F00047F6FF739A4203D120487821FEF760FA1D
:10350000786800F011FB7B681B889BB201339AB28C
:103510007B681A8001F0D4FA7B681B881BB2002BF1
:1035200017DC174B1B687B6202E07B6A1B687B62BF
:103530007B6A002B04D07B6A5A6C7B689A42F4D178
:103540007B6A002B05D07B6A00225A64786A05F0FA
:1035500083F9786A796800F007FB01F0D9FA002353
:103560003B62FB7FFB73FB7BBB60BB6883F3118813
:103570003B6A18462837BD4680BD00BFE4D8020824
:103580008C7A002080B500AF00F05EFA80BD00BFED
:1035900080B485B000AF78600E4B1B68FB60FB68A1
:1035A000002B0ED0FB681A680A4B1A607B685A68B9
:1035B000FB681A607B68FA685A60FB6800221A810F
:1035C00001E00023FB60FB6818461437BD465DF838
:1035D000047B70477407002080B485B000AF78602A
:1035E00039607B685B68FB6009E0FB685A683B6890
:1035F0009A4201D1FB6806E0FB681B68FB60FB6830
:10360000002BF2D1002318461437BD465DF8047B29
:10361000704700BF80B584B000AF786039607868CB
:103620003968FFF7D9FFF860FB68002B03D1786891
:10363000FFF7AEFFF860FB6818461037BD4680BD47
:1036400080B485B000AF786039603B6800225A6072
:103650003B6800221A810023BB607B685B68FB60CB
:1036600004E0FB68BB60FB681B68FB60FB68002B29
:1036700003D0FA683B689A42F3D1FB68002B12D062
:10368000BB68002B04D03B681A68BB681A6003E073
:103690003B681A687B685A60054B1A683B681A6079
:1036A000034B3A681A601437BD465DF8047B7047D7
:1036B0007407002080B588B000AFF860B9607A6008
:1036C0000023BB61FB685B68FB610EE0FB691B6864
:1036D0007B61FB695B68002B05D0BB68F869F96802
:1036E0007A689847B8617B69FB61FB69002B02D05F
:1036F000BB69002BEAD0BB6918462037BD4680BDA8
:1037000080B584B000AFF860B9607A60B868F968D5
:10371000FFF796FF002318461037BD4680BD00BF57
:1037200080B586B000AFF860B9607A60FB685B680E
:103730007B617B683B61786901F092F80346002B5E
:1037400004D1B868F968FFF77BFF38E03B691A7E5F
:103750007B6993F82A309A4231D93B691A7E7B699A
:103760001B7E9A421ED97B691A7E7B6993F82A30A8
:103770009A4210D97B695B7E0F2B0CD87B695B7EEC
:103780007A69127E79690B449A767B695B7E013394
:10379000DAB27B695A763B691B7E7869194601F07B
:1037A000EFF80CE07B695B7E3A69127E79690B4425
:1037B0009A767B695B7E0133DAB27B695A760023A5
:1037C00018461837BD4680BD80B485B000AFF8609C
:1037D000B9607A60002318461437BD465DF8047B53
:1037E000704700BF80B58AB000AFF860B9607A60FA
:1037F000FB685B68FB617B68BB61F86901F030F8CE
:103800000346002B04D1B868F968FFF719FF89E077
:10381000FB691A7EFB6993F82A309A4200F0828095
:10382000FB695B7E002B10D1FB695B7E002B04D013
:103830003F484FF4EC71FEF7C3F8FB6993F82A3068
:10384000F869194601F0BAF96CE0FB691A7EBB69A8
:103850001B7E9A423BD801237B6200233B6210E02F
:10386000FA697B6A134418339A78F9693B6A0B4406
:1038700018339B789A4201D97B6A3B627B6A013399
:103880007B62FB695B7E1A467B6A9A42E8DCFA69D6
:103890003B6A134418339B787B61FB695B7E013B79
:1038A0007B627B6A002B09DDFA697B6A134418335B
:1038B0009A78F9693B6A0B4418339A707B6ADAB2DA
:1038C000FB695A76F869796901F05AF82AE0002311
:1038D0007B6221E0FA697B6A134418339A78BB69EA
:1038E0001B7E9A4215D1FB695B7E013B3B623B6AC2
:1038F000002B09DDFA693B6A134418339A78F96999
:103900007B6A0B4418339A703B6ADAB2FB695A76C9
:1039100008E07B6A01337B62FB695B7E1A467B6A47
:103920009A42D7DC002318462837BD4680BD00BF29
:10393000FCD8020880B586B000AFF860B9607A6044
:10394000094B1B687B61FB685A687B699A4206D009
:10395000F868B9687A68FFF745FF034600E000237E
:1039600018461837BD4680BD947A002080B586B0D1
:1039700000AFF860B9607A60094B1B687B61FB6837
:103980005A687B699A4206D1F868B9687A68FFF785
:1039900029FF012300E0002318461837BD4680BDEB
:1039A000947A002080B582B000AF786039607B687F
:1039B000002B05D0386806497A68FFF77BFE04E0E3
:1039C000386804490022FFF775FE0837BD4680BD00
:1039D000E5370008C937000880B584B000AF7860CB
:1039E0003960154B1B68FB607B68002B0AD0386878
:1039F00012497A68FFF75EFE386811497A68FFF766
:103A000059FE04E038680F490022FFF753FE38687A
:103A1000F968FFF7E1FDB860BB68002B08D0BB6810
:103A20001B891BB2002B03DC3868B968FFF708FE5E
:103A30001037BD4680BD00BF947A0020353900089C
:103A40006D390008C937000880B483B000AF124B4D
:103A5000124A1A6000237B6012E07B685A1C1346EE
:103A60005B0013449B000D4A99180C487A68134672
:103A70005B0013449B00034419607B6801337B6047
:103A80007B680E2BE9DD054B0022C3F8B4200C3710
:103A9000BD465DF8047B704774070020B406002023
:103AA00080B582B000AF78607B685B68002B04D083
:103AB000786803490022FFF7FDFD0837BD4680BD49
:103AC0000137000880B584B000AF78600B4B1B68ED
:103AD000FB607868F968FFF79DFDB860BB68002B54
:103AE00009D0BB68FA685A60BB681B899BB2013376
:103AF0009AB2BB681A811037BD4680BD947A002007
:103B000080B584B000AF7860054B1B68FB607868B7
:103B10000449FA68FFF7CEFD1037BD4680BD00BFEF
:103B2000947A00202137000880B584B000AF786017
:103B30000C4B1B68FB607868F968FFF74DFDB860B7
:103B4000BB68002B0BD0BB681B891BB2002B06DDAA
:103B5000BB681B899BB2013B9AB2BB681A811037C4
:103B6000BD4680BD947A002080B582B000AF7860F9
:103B700039603B681B881BB2002B02DD7B68002B81
:103B80000CD03B681B881BB2002B02DC7B68002B2F
:103B900004D10B4840F2D331FDF712FF04F098FC3A
:103BA0000346002B04D078683968FFF7FBFE03E07A
:103BB00078683968FFF710FF0837BD4680BD00BF41
:103BC000FCD8020880B582B000AF786039603B68ED
:103BD0001B881BB2002B04DD064840F2FF31FDF7C5
:103BE000EFFE386804497A68FFF764FD0837BD4680
:103BF00080BD00BFFCD80208E537000880B58EB054
:103C000000AFF860B9607A602A4B1B683B63002301
:103C10007B6300F055FF3B6B9B6CFB627B68002B6A
:103C200002D07B68FA6A1A60BB68002B3AD0EFF3C7
:103C300011837B627B6ADBB287F823301023FB6140
:103C4000FB6983F3118897F8233087F82B30FB68E2
:103C5000022B0BD0032B12D0012B15D13B6B9A6C8E
:103C6000BB681B681A433B6B9A6411E03B6B9A6C10
:103C7000BB681B68DB431A403B6B9A6408E0BB6877
:103C80001A683B6B9A6403E04FF0FF337B6300BF1D
:103C900097F82B30FB76FB7E7B617B6983F3118881
:103CA00000F00AF800F034FF7B6B18463837BD4649
:103CB00080BD00BF947A002090B585B000AF1B4B4B
:103CC0001B68FB6000F0FCFEFB689B6CDC43F86843
:103CD00001F070FA034623403B601EE03B46184665
:103CE00000F0CCF8B860BB68B3F1FF3F15D03B469D
:103CF0001846B96802F00CFBF868B96800F018F8CB
:103D000078607B68002B08D07B680433F86819461C
:103D100000F0F6F9786800F05DF83B68002BDDD123
:103D200000F0F6FE1437BD4690BD00BF947A002027
:103D300080B58CB000AF786039607B689B687B622F
:103D40007B6A002B03D122485E21FDF739FEEFF399
:103D50001183FB61FB69DBB2FB7610237B617B691E
:103D600083F31188FB7E87F823300023BB627B6AD4
:103D70005B6AFB6204E0FB6ABB62FB6A1B68FB6276
:103D8000FB6A002B05D0FB6A1B791A463B689A42F6
:103D9000F1D1FB6A002B0ED0BB6A002B06D07B6AE8
:103DA0002433B86A194602F0B3FB04E07B6A24337B
:103DB000184602F08DFB97F82330FB74FB7CFB6008
:103DC000FB6883F31188FB6A18463037BD4680BD17
:103DD00014D9020880B58EB000AF78607B681B7B79
:103DE000002B1ED1EFF311833B633B6BDBB287F8F3
:103DF0002F301023BB62BB6A83F3118897F82F30F2
:103E000087F8373078681B4902F00AFB97F837309B
:103E100087F8273097F827303B623B6A83F3118895
:103E200025E07B681B7B022B1AD1EFF31183FB612A
:103E3000FB69DBB2FB7610237B617B6983F311881E
:103E4000FB7E87F8373078680B4902F0E9FA97F87B
:103E50003730FB74FB7CFB60FB6883F3118806E062
:103E60007B681B7B012B02D1786800F097FC383708
:103E7000BD4680BD487D0020407D002080B584B0D7
:103E800000AF78600023FB600BE07868F96802F00F
:103E90005DFA0346002B01D0FB6807E0FB680133A5
:103EA000FB60FB681F2BF0DD4FF0FF331846103727
:103EB000BD4680BD80B58CB000AF7860396000230E
:103EC000FB6200F0FDFD3B681B787868194601F045
:103ED000B1F9B862BB6A002B38D0BB6A5B68002BB3
:103EE00034D001F0CBF978627B6A002B03D16FF0FC
:103EF0000B03FB622AE0BB6A5A687B6A5A60BB6AA2
:103F00009A687B6A9A607B6A0C3318463968082283
:103F100002F09EF9EFF31183FB61FB69DBB2FB76E4
:103F200010237B617B6983F31188FB7E87F8233044
:103F30007B685833786A194602F072FA97F8233092
:103F4000FB74FB7CFB60FB6883F3118800F0E0FDF1
:103F5000FB6A18463037BD4680BD00BF80B588B0CB
:103F600000AF04F0B5FA0346002B0BD01C4802F05A
:103F7000AFFAF861FB69002B2CD11A4802F0A8FABD
:103F8000F86127E0EFF311837B617B69DBB2FB749F
:103F90001023FB60FB6883F31188FB7CFB761048E1
:103FA00002F096FAF861FB7EFB72FB7A7B607B681D
:103FB00083F31188FB69002B0CD1FB69002B03D123
:103FC000102003F001FCF861FB69002B02D0FB69B3
:103FD00001221A73FB6918462037BD4680BD00BF19
:103FE000487D0020407D002080B58AB000AF786019
:103FF000396000237B627B68002B03D11748D721EF
:10400000FDF7DEFCEFF31183FB61FB69DBB2FB76AE
:1040100010237B617B6983F31188FB7E87F8233053
:104020007B685B6A7B6202E07B6A1B687B627B6AFF
:10403000002B05D07B6A1B791A463B689A42F3D164
:1040400097F82330FB74FB7CFB60FB6883F31188DB
:104050007B6A18462837BD4680BD00BF38D90208A4
:1040600080B58AB000AF786039607B689B683B623E
:104070003B6A002B03D12148F921FDF7A1FC3B68E5
:104080001B78386A1946FFF7AFFF78627B6A002B0E
:1040900007D07B6A043318463968082202F0D8F842
:1040A00026E0FFF75BFF78627B6A002B20D07B6AFB
:1040B000043318463968082202F0CAF8EFF3118376
:1040C000BB61BB69DBB2FB7510233B613B6983F3CA
:1040D0001188FB7DFB773B6A2433786A194602F02E
:1040E0009FF9FB7FFB73FB7BBB60BB6883F311888D
:1040F0007B6A18462837BD4680BD00BF38D9020804
:1041000080B590B000AF786039600023FB637B68B6
:10411000002B02D03B68002B04D157484FF4A0710C
:10412000FDF74EFC7B6803F148023B681B781046A4
:10413000194602F00BF90346002B4FD0EFF3118321
:104140007B637B6BDBB287F833301023FB62FB6A47
:1041500083F3118897F8333087F83B307B6893F806
:104160002B30062B24D17B6803F14C023B681B7873
:104170001046194602F0EAF80346002B18D07B6877
:10418000683318463968082202F062F87B6800221A
:10419000DA64786804F060FB97F83B3087F82B30DE
:1041A00097F82B307B627B6A83F3118800BF5DE058
:1041B00097F83B3087F8233097F82330FB61FB6991
:1041C00083F3118878683968FFF74AFF0346002BAC
:1041D0004CD129484FF4B071FDF7F2FB786839688B
:1041E000FFF768FEF8637868244904F02DFAEFF3CE
:1041F0001183BB61BB69DBB2FB7510233B613B697B
:1042000083F31188FB7D87F83B307B6893F82B3074
:10421000062B0CD17B68683318463968082202F0F7
:1042200017F87B680022DA64786804F015FB97F8C9
:104230003B30FB73FB7BBB60BB6883F311887B68FF
:1042400093F82B30052B03D17868042100F07AFE17
:104250007B6893F82B30072B04D07B6893F82B30C6
:10426000082B03D17868042100F0A8F8FB6B1846EE
:104270004037BD4680BD00BF38D90208B9420008AA
:1042800080B584B000AF03463960FB80B7F90630D3
:10429000184600F0B7FAF860FB68002B02D16FF007
:1042A000020304E0F8683968FFF72AFF034618465E
:1042B0001037BD4680BD00BF80B592B000AF7860BA
:1042C00000F0FEFB7B685B6F3B647B689B6D7B64EF
:1042D00068E07B6C1B68FB63EFF311833B633B6B14
:1042E000DBB287F82F301023BB62BB6A83F31188DF
:1042F00097F82F3087F83B307B685833786C194635
:1043000002F0AEF87B686033786C194602F088F8EA
:1043100097F83B3087F8273097F827303B623B6AA5
:1043200083F311887B689B6C7B637B6C9A687B6BE7
:104330001A437B6C1B7B012101FA03F31A437B6850
:104340009A647B6C5B687A6C127B11467A6C0C32D7
:1043500008461146002298477B687A6B9A64FFF7FB
:10436000ABFCEFF31183FB61FB69DBB2FB7610233F
:104370007B617B6983F31188FB7E87F83B307B6828
:104380006033786C194602F06BF897F83B30FB7499
:10439000FB7CFB60FB6883F31188786C00F0B4FF52
:1043A000FB6B7B647B6C002B93D17B683A6C5A6708
:1043B00000F0AEFB4837BD4680BD00BF80B58AB077
:1043C00000AF78603960EFF31183FB61FB69DBB20A
:1043D000FB7610237B617B6983F31188FB7E87F872
:1043E00027307B6893F82B30072B04D07B6893F839
:1043F0002B30082B38D17B681B6F3B623B6A002B4C
:1044000003D11F487421FDF7DBFA7B6800221A678D
:104410007B6893F82B30072B10D13B6A5B8A1BB269
:10442000002B03DC16487C21FDF7CAFA3B6A5B8A45
:104430009BB2013B9AB23B6A5A820FE03B6A1B8AED
:104440001BB2002B03DC0E488121FDF7B9FA3B6A51
:104450001B8A9BB2013B9AB23B6A1A827B683A681C
:104460005A67786804F0F8F997F82730FB74FB7CFA
:10447000FB60FB6883F311882837BD4680BD00BF11
:1044800050D9020880B586B000AF7860214B1B6818
:104490003B610023FB6000237B617B68002B06D01F
:1044A0003B69002B03D03B699B68002B03D11A4862
:1044B0005921FDF785FA00F003FB3B699B68002B4F
:1044C00021D03B699B681B6B002B1CD03B699B6810
:1044D000DB6ABB60B86803F077F9F860FB68002B13
:1044E00003D16FF00B037B610DE07B68BA68DA6281
:1044F0007B68FA681A633B699B681B6BF86819460E
:10450000BA6801F0A5FE00F003FB7B691846183776
:10451000BD4680BD947A002064D9020880B582B07F
:1045200000AF7860396000F033F9044B1B68034832
:104530001946002200F0C4FFF5E700BF887B002089
:1045400080B584B002AF1D4B05221A601B4B0022C0
:104550005A601A4B00229A60002300931848E02109
:104560004FF40062174BFEF797FC0346FB80B7F948
:104570000630002B03DC1448AE21FDF721FAB7F911
:104580000630002B0EDAFEF7D7FE03461B683B60B1
:104590003B68002B03DC0C48B221FDF711FA3B68A5
:1045A0005B4207E0054BFA889A81044B01229A731B
:1045B000B7F9063018460837BD4680BD887B002015
:1045C00078D902081D45000880D9020880B483B05C
:1045D00000AF00237B6007E0074B7A68074943F888
:1045E00022107B6801337B607B68612BF4DD0C3724
:1045F000BD465DF8047B7047987B0020F52B0008D2
:1046000080B582B000AF78607B68002B03D07B68F8
:104610009B68002B03D10E484D21FDF7D1F97B6833
:104620009B68184601F0ECFF002001217A6815F024
:10463000B1FC012006217A6815F0ACFC02200621AD
:104640007A6815F0A7FC002318460837BD4680BDE0
:1046500098D9020880B586B000AF78601C4B1B6803
:104660003B617B68002B07D07B689B68002B03D0E5
:104670003B699B68002B03D116486121FDF7A0F927
:104680003B699B683C33FB607B689B683C33BB6049
:1046900000237B6115E07B691B01FA6813449B686A
:1046A000002B0BD07B691B01FA681A447B691B0144
:1046B000B9680B441046194614F08AFB7B69013334
:1046C0007B617B69072BE6DD1837BD4680BD00BFE7
:1046D000947A0020B4D9020880B584B000AF786025
:1046E0007B689B68FB60FB68002B03D11148D621D7
:1046F000FDF766F97B689B8D03F00303012B03D163
:104700000C48D921FDF75CF9FB683433184614F0E6
:1047100023FBFB6803F5097318460EF059FF786810
:10472000FFF798FF7868FFF76BFF034618461037CE
:10473000BD4680BDB4D9020880B588B000AF1DE089
:10474000EFF311837B617B69DBB2FB741023FB60A9
:10475000FB6883F31188FB7CFB770C4801F0B8FE03
:10476000B861FB7FFB72FB7A7B607B6883F3118807
:10477000BB69002B02D0B86903F018F8034B1B6823
:10478000002BDDD12037BD4680BD00BF807B0020DF
:1047900080B500AFFFF7D0FF80BD00BF80B588B007
:1047A00000AF786003F094FE0346002B04D102F0C2
:1047B000EBFF0346002B1BD0EFF31183BB61BB69FA
:1047C000DBB2FB7510233B613B6983F31188FB7DF2
:1047D000FB7778680A4901F023FE002000F024FFEF
:1047E000FB7FFB73FB7BBB60BB6883F3118804E03A
:1047F000786802F0DBFF02F0D1FF2037BD4680BDB4
:10480000807B002080B485B000AF0346FB8000238E
:10481000FB60B7F90630002B19DBFB8803F00F03B0
:10482000BB600E49BA6813465B0013449B000B44FF
:104830009B88B7F906201BB29A4208D10749BA688B
:1048400013465B0013449B000B441B68FB60FB6832
:1048500018461437BD465DF8047B7047B47A0020D3
:1048600080B483B000AF78607B689B899BB203F013
:104870000F02094913465B0013449B000B441A685E
:104880007B689A4214BF00230123DBB218460C3721
:10489000BD465DF8047B7047B47A002080B485B0D3
:1048A00000AF0346FB80FB8803F00F03FB60184951
:1048B000FA6813465B0013449B000B4400221A6005
:1048C0001349FA6813465B0013449B000B444FF6F0
:1048D000FF729A800F4B19680D48FA6813465B0007
:1048E00013449B00034408331B68CA1A094B1A601F
:1048F0000749FA6813465B0013449B000B440833D6
:1049000000221A601437BD465DF8047B704700BF73
:10491000B47A0020247D002080B584B000AF786098
:104920000B46FB700023FB607B68002B21D0134BF0
:10493000002B05D07B689B891BB21846AFF3008023
:104940007B689B89002B05D07B689B891BB218462E
:10495000FFF7A4FF7B68DB6B002B04D0FB78786843
:10496000194603F0F9FD786800F0AAFE7868FFF7B1
:1049700015FFFB6818461037BD4680BD00000000DB
:1049800080B58AB000AF786039604A4B1B687B62A3
:104990003B68002B02DD3B68FF2B07DDFEF7CCFCFC
:1049A000034616221A604FF0FF337EE0EFF31183C7
:1049B000FB61FB69DBB2FB7610237B617B6983F3D0
:1049C0001188FB7E87F823307B6893F82B3087F8BB
:1049D000223097F82230022B14D0032B38D17B6879
:1049E0001B681B7E1A463B689A4206DB3B68DBB2BB
:1049F0007868194603F0C8FD4EE03B68DAB27B6880
:104A00001A7649E07B6A1B7E1A463B689A4206DAB0
:104A10003B68DBB27868194603F0B6FD17E07868AA
:104A200000F0C2FE0346002B03D02348B721FCF759
:104A3000C7FF3B68DAB27B681A76786800F068FED8
:104A40000346002B03D01C48BF21FCF7B9FF23E02D
:104A500097F82230194ADB0013441B79002B16D03B
:104A600097F82220154B53F832307868194601F038
:104A70009DFD3B68DAB27B681A7697F822200F4BCF
:104A800053F832307868194600F0BCFE03E03B680A
:104A9000DAB27B681A7600BF97F82330FB74FB7C90
:104AA000FB60FB6883F31188002318462837BD4656
:104AB00080BD00BF947A0020D4D9020894D70208A0
:104AC00080B582B000AF104B1B687B607B68002B09
:104AD00014D003F0FDFC0346002B0FD17B68DB8D67
:104AE0001BB27E2B03DD09486921FCF769FF7B6857
:104AF000DB8D9BB201339AB27B68DA8500231846BE
:104B00000837BD4680BD00BF947A0020F0D9020866
:104B100080B588B000AF274B1B68FB61FB69002B99
:104B200043D003F0D5FC0346002B3ED1EFF31183B5
:104B30007B617B69DBB2FB741023FB60FB6883F352
:104B40001188FB7CFB76FB69DB8D002B06D0FB69B3
:104B5000DB8D9BB2013B9AB2FB69DA85FB69DB8D89
:104B60001BB2002B1ADCFB690022DA85124B1B6892
:104B7000002B01D003F0BCFCFB699B8D03F01003FC
:104B8000002B0BD0FB691B6B002B07D1094B1A685C
:104B9000FB699A4202D0FB6914221A63FB7EFB7206
:104BA000FB7A7B607B6883F31188002318462037EB
:104BB000BD4680BD947A0020747B002080B584B00F
:104BC00000AF7860396078683968FFF7D9FEF8601F
:104BD000FB68002B07D13B68DAB27B6883F82A2098
:104BE0007B6800225A76FB6818461037BD4680BDA8
:104BF00080B485B000AF2A4B1B687B607B689B89C3
:104C00009BB203F00F033B6026493A6813465B00F2
:104C100013449B000B4408331B68591C21483A6815
:104C200013465B0013449B000344083319601E4B7A
:104C30001B6801331C4A1360C82B2CD90023BB60AE
:104C40000023FB6021E01749FA6813465B00134418
:104C50009B000B4408331B6859081248FA68134636
:104C60005B0013449B000344083319600D49FA6844
:104C700013465B0013449B000B4408331B68BA685F
:104C80001344BB60FB680133FB60FB680F2BDADD6C
:104C9000054BBA681A601437BD465DF8047B70474F
:104CA000947A0020B47A0020247D002080B58AB058
:104CB00000AF786039607B6803F00F033B626FF0F0
:104CC00002037B623B68002B03D12248B321FCF72F
:104CD00077FEEFF31183BB61BB69DBB2FB75102379
:104CE0003B613B6983F31188FB7DFB771A493A6A84
:104CF00013465B0013449B000B441B68002B1CD025
:104D000015493A6A13465B0013449B000B449B8889
:104D10001AB27B689A4210D1104B1A683B681A602D
:104D20000D493A6A13465B0013449B000B44083359
:104D30001A683B685A6000237B62FB7FFB73FB7B36
:104D4000BB60BB6883F311887B6A18462837BD4671
:104D500080BD00BF04DA0208B47A0020247D002060
:104D600080B584B000AF786039607B689B68FB6079
:104D7000FB68002B20D07B689B8D03F00303012B85
:104D800008D0FB68DB68002B04D0FB68DB683A685E
:104D900012021A60FB685B78012B0DD1FB680022C0
:104DA000DA6004E0FB6804331846FEF785FBFB6815
:104DB0009B881BB2002BF5DB1037BD4680BD00BFC2
:104DC00080B584B000AF78607B689B68FB60FB684F
:104DD000002B09D0FB685B78012B05D17B689B68B1
:104DE000BC33184601F016F81037BD4680BD00BF31
:104DF00080B584B000AFF860B9601346FB71FB6802
:104E00009B8D03F02003002B00D019E0F86800F020
:104E10001BF8F868B968FFF7A3FFFB79002B02D1F4
:104E2000F868FFF7CDFFF86800F04AFCF86800F07A
:104E3000BFFAFB689B8D43F020039AB2FB689A850A
:104E40001037BD4680BD00BF80B582B000AF78602E
:104E5000786800F009F8786800F032F8786800F0B7
:104E6000F1FA0837BD4680BD80B588B000AF7860E4
:104E7000EFF31183BB61BB69DBB2FB7510233B61B0
:104E80003B6983F31188FB7DFB777B685B6B002BB1
:104E90000CD07B685B6B184600F022FD7B685B6B77
:104EA000184600F089FD7B6800225A63FB7FFB7384
:104EB000FB7BBB60BB6883F311882037BD4680BD98
:104EC00080B58AB000AF7860EFF31183FB61FB69B6
:104ED000DBB2FB7610237B617B6983F31188FB7E59
:104EE00087F827307B6893F82B30052B1CD17B6823
:104EF0005B6C3B623B6A002B04D03B6A1B881BB295
:104F0000002B03DB0E487A21FCF75AFD7868396ADA
:104F1000FEF758FE3B6A1B889BB201339AB23B6A8C
:104F20001A807B6800225A6497F82730FB74FB7C58
:104F3000FB60FB6883F311882837BD4680BD00BF46
:104F40001CDA020880B58AB000AF78603960EFF3F0
:104F50001183FB61FB69DBB2FB7610237B617B690C
:104F600083F31188FB7E87F827307B6893F82B301A
:104F7000052B22D17B685B6C3B623B6A002B04D023
:104F80003B6A1B881BB2002B03DB11487421FCF722
:104F900017FD7868396AFEF715FE3B6A1B889BB2DD
:104FA00001339AB23B6A1A807B6800225A647B689C
:104FB0003A685A67786803F04FFC97F82730FB741B
:104FC000FB7CFB60FB6883F311882837BD4680BDFE
:104FD00034DA020880B586B000AF786013460A461E
:104FE0007A807B707A8813465B001344DB00184696
:104FF00002F0EAFBF860FB687B6100233B610DE097
:105000007B697A781A757B6903F118027A61184610
:10501000796801F005FA3B6901333B617A883B69A5
:105020009A42EDDCFB6818461837BD4680BD00BFCC
:1050300080B586B000AF786013460A467A807B70F0
:105040007B881B01184602F0BFFBF860FB687B61A0
:1050500000233B610DE07B697A781A737B6903F169
:1050600010027A611846796801F0DAF93B69013378
:105070003B617A883B699A42EDDCFB681846183739
:10508000BD4680BD80B500AF204B00221A601F4B8B
:1050900000225A601E4B00221A601D4B00225A60EB
:1050A0001C4B00221A601B4B00225A601A4B002234
:1050B0001A60194B00225A60184B00221A60174BD5
:1050C00000225A60124810210022FFF783FF024697
:1050D000134B1A600F4808210222FFF77BFF02469C
:1050E000104B1A6000F024F80B4810210022FFF743
:1050F0009FFF02460C4B1A60084808210222FFF766
:1051000097FF0246094B1A6080BD00BF287D002032
:10511000307D0020387D0020487D0020407D00202B
:105120007C070020800700208407002088070020DB
:1051300080B582B000AF4FF4A07002F045FB02468C
:105140000C4B1A600B4B1B687B6000233B600AE032
:105150007B6803F114027A601846074901F060F990
:105160003B6801333B603B680F2BF1DD0837BD46E0
:1051700080BD00BF78070020287D002080B584B066
:1051800000AF78600A4B1B68BB604FF0FF33FB60D9
:105190007B68002B07D0B86800F00CF802467B68EB
:1051A0001A600023FB60FB6818461037BD4680BDBF
:1051B000947A002080B58CB000AF78607B689B68E3
:1051C000BB62BB6A002B03D119487721FCF7F8FBBF
:1051D0000023FB60EFF311833B623B6ADBB2FB779A
:1051E0001023BB61BB6983F31188FB7F87F82730ED
:1051F000BB6A5B6AFB620AE0FB6A1B7907F10C027F
:105200001046194601F066F8FB6A1B68FB62FB6AF0
:10521000002BF1D197F82730FB75FB7D3B613B6993
:1052200083F31188FB6818463037BD4680BD00BF48
:105230004CDA020880B584B000AF78603960002392
:10524000FB607B68002B13D0FFF73AFC7B681B6D7B
:10525000FB6002E0FB681B68FB60FB68002B05D06D
:10526000FB681B7C1A463B689A42F3D1FFF750FC5F
:10527000FB6818461037BD4680BD00BF80B588B0BA
:1052800000AF03F025F90346002B0BD01C4801F0BA
:105290001FF9F861FB69002B2CD11A4801F018F9AD
:1052A000F86127E0EFF311837B617B69DBB2FB746C
:1052B0001023FB60FB6883F31188FB7CFB761048AE
:1052C00001F006F9F861FB7EFB72FB7A7B607B687C
:1052D00083F31188FB69002B0CD1FB69002B03D1F0
:1052E000182002F071FAF861FB69002B02D0FB690B
:1052F00001221A75FB6918462037BD4680BD00BFE4
:10530000307D0020387D002080B58EB000AF786001
:105310007B681B7D002B1ED1EFF311833B633B6B3E
:10532000DBB287F82F301023BB62BB6A83F311888E
:1053300097F82F3087F8373078681B4901F070F8FC
:1053400097F8373087F8273097F827303B623B6A69
:1053500083F3118825E07B681B7D022B1AD1EFF3C4
:105360001183FB61FB69DBB2FB7610237B617B69F8
:1053700083F31188FB7E87F8373078680B4901F09A
:105380004FF897F83730FB74FB7CFB60FB6883F3C6
:10539000118806E07B681B7D012B02D17868FFF73E
:1053A000FDF93837BD4680BD307D0020387D0020B6
:1053B00080B584B000AF786002E0F86800F0F6FBDA
:1053C0007B685033184601F083F8F860FB68002BC7
:1053D000F3D102E0B868FFF797FF7B6858331846AF
:1053E00001F076F8B860BB68002BF3D102E0B86832
:1053F000FFF78AFF7B686033184601F069F8B860F0
:10540000BB68002BF3D17B684FF0FF329A647B6856
:105410000022DA641037BD4680BD00BF80B584B07D
:1054200000AF786002E0F868FEF7D4FC7B682433B4
:10543000184601F04DF8F860FB68002BF3D11037E7
:10544000BD4680BD80B582B000AF78607B6893F8C0
:105450002B30072B15D17B681B6F002B05D07B6889
:105460001B6F5B8A1BB2002B03DC14486921FCF71D
:10547000A7FA7B681A6F538A9BB2013B9BB2538297
:1054800019E07B6893F82B30082B14D17B681B6FD5
:10549000002B05D07B681B6F1B8A1BB2002B03DC23
:1054A00006487321FCF78CFA7B681A6F138A9BB24B
:1054B000013B9BB213820837BD4680BD64DA020807
:1054C00080B598B000AFF860B9607A60BB687B6562
:1054D000EFF31183BB63BB6BDBB287F8373010236C
:1054E0003B633B6B83F3118897F8373087F85B3069
:1054F0004C4B1B683B65FB685B68FB6557E0494BA1
:105500001B68FB64FB6D1B69FA6CD31ABB64FB6DF3
:105510005A69BB6C9A4236D8FB680433F86D194659
:1055200001F044F8FB6D9B687B647B6C002B26D0FC
:10553000FB6DDB683B64FB6D00229A6097F85B3083
:1055400087F82F3097F82F30BB62BB6A83F311883E
:105550007B6C386C9847EFF311837B627B6ADBB21C
:1055600087F823301023FB61FB6983F3118897F8D8
:10557000233087F85B30FB685B68FB6517E0FB6DE9
:105580001B68FB6513E0FA6C3B6DD31ABA6C1344CD
:10559000BB64FB6D5B69BA6CD31AFB63FA6B7B6D02
:1055A0009A4201D2FB6B7B65FB6D1B68FB65FB6D53
:1055B000002BA4D11B4B1A683B6DD31ABB64BA6C89
:1055C000BB689A4222D27B6D002B1FD0BA68BB6C9D
:1055D000D31AFB637A6DFB6B9A4238BF13467B6527
:1055E000FA687B6802339B00134400229A717B6D3A
:1055F00042F2107202FB03F3184600F0C5FCFA6891
:105600007B6802339B00134401229A7197F85B3048
:10561000FB76FB7E7B617B6983F311886037BD4637
:1056200080BD00BF507D002080B586B000AF78609F
:105630007B68002B0DD10F4B9B89FB82B7F916308D
:105640001846112100F0C0FA38613B69002B0BDAD3
:1056500002E06FF0150308E0FDF76EFE03461B68DD
:10566000FB60FB685B4200E0002318461837BD462C
:1056700080BD00BF887B002080B582B000AF78601D
:105680007868FFF7CBFE786800F0DAFA7B6834338D
:10569000184613F077FB786800F0F4FF7B6803F599
:1056A000097318460DF0A2FF786800F063FB786874
:1056B00000F0F4FA7868FFF771F80837BD4680BD4E
:1056C00080B584B000AF78607B68002B04D10F48B0
:1056D0004FF4C771FCF774F97B689B68FB60FB684B
:1056E000002B10D0FB685B78012B06D9FB685B7838
:1056F000013BDAB2FB685A7002E0F868FFF7BCFFC2
:105700007B6800229A601037BD4680BD78DA0208B7
:1057100080B584B000AF7860204B1B68BB60BB686D
:10572000DB8D002B10D0BB681A7E7B681B7E9A42F3
:105730000AD278681A4900F065F87B68012283F87C
:105740002B200023FB7324E07868144900F05AF8FA
:105750000346002B17D0BB68DB8D002B03D17B6881
:105760001B68002B03D10F488621FCF729F97B68C1
:10577000032283F82B207B681B68022283F82B20EE
:105780000123FB7305E07B68022283F82B200023B2
:10579000FB73FB7B18461037BD4680BD947A002012
:1057A000747B00208CDA020880B584B000AF78608A
:1057B0000023BB600023FB737B685B68002B0FD169
:1057C0007B681B68BB60BB68002B03D10B486B2157
:1057D000FCF7F6F8BB68032283F82B200123FB7348
:1057E0007868074900F0E2FE7B68002283F82B20EE
:1057F000FB7B18461037BD4680BD00BFA8DA020803
:10580000947A002080B586B000AF786039607B68FC
:105810001B7EBB740023FB74BB7C002B03D12F4881
:105820006B21FCF7CDF83B681B687B6102E07B696C
:105830001B687B617B69002B04D07B691B7EBA7C73
:105840009A42F4D97B69002B21D13B685B68FB60ED
:10585000FB68002B0ED17B6800221A607B68002257
:105860005A603B687A681A603B687A685A6001231C
:10587000FB742DE07B6800221A607B68FA685A602E
:10588000FB687A681A603B687A685A6020E07B6936
:105890005B68FB60FB68002B0ED17B687A691A603D
:1058A0007B6800225A607B697A685A603B687A6834
:1058B0001A600123FB740BE07B687A691A607B68CD
:1058C000FA685A60FB687A681A607B697A685A607D
:1058D000FB7C18461837BD4680BD00BFC8DA0208F9
:1058E00080B58CB000AF78604FF0FF337B62EFF390
:1058F0001183FB61FB69DBB2FB7610237B617B6963
:1059000083F31188FB7E87F823307B68002B42D01D
:105910007B681B7B03F00103002B3CD00023BB62A0
:10592000234B1B68FB6204E0FB6ABB62FB6A1B68DB
:10593000FB62FB6A002B03D0FA6A7B689A42F3D1C0
:10594000FB6A002B03D11B488121FCF739F8FB6A65
:105950001B68002B08D0FB6A1B68FA6A1268916802
:10596000FA6A92680A449A60BB6A002B04D0B86A4B
:105970000F4900F0CDFD02E00D4800F0A9FD7B6865
:1059800000221A607B681B7B23F00103DAB27B687C
:105990001A7300237B6297F82330FB74FB7CFB6057
:1059A000FB6883F311887B6A18463037BD4680BD9B
:1059B000687D0020E8DA020880B58AB000AF786020
:1059C0007B68002B03D129486421FBF7F9FFEFF333
:1059D00011833B623B6ADBB2FB771023BB61BB697F
:1059E00083F31188FB7F87F827307B681B7B03F0EC
:1059F0000103002B02D07868FFF772FF7B681B7BE6
:105A000003F00203002B0BD097F82730FB75FB7DCA
:105A10003B613B6983F311887868FEF7BFFE1FE0A6
:105A20007B681B7B03F00403002B19D178681049B5
:105A300000F0F6FC0F4B1B8801339AB20D4B1A8015
:105A40000C4B1B88102B03D908489321FBF7B8FF98
:105A500097F82730FB73FB7BBB60BB6883F311882F
:105A6000002318462837BD4680BD00BFFCDA020877
:105A70005C7D0020647D002080B582B000AF0C48C2
:105A800000F026FD78607B68002B0CD1FFF750FBFF
:105A9000074800F01DFD78607B68002B03D10548A6
:105AA0006821FBF78DFF7B6818460837BD4680BD2F
:105AB000287D002010DB020880B586B000AFF860BA
:105AC000B9607A60384B1B683B61FB681F2B07D9B4
:105AD000FDF732FC034616221A604FF0FF335EE0FA
