:020000040800F2
:1000000030A40020B1040008910100089901000803
:10001000A1010008A9010008B10100088901000838
:10002000890100088901000889010008B901000858
:10003000C101000889010008C9010008D1010008B8
:10004000D9010008E1010008E9010008F1010008F8
:10005000F901000801020008090200081102000865
:1000600019020008210200082902000831020008D4
:100070003902000841020008490200085102000844
:1000800059020008610200086902000871020008B4
:100090007902000881020008890200089102000824
:1000A00099020008A1020008A9020008B102000894
:1000B000B9020008C1020008C9020008D102000804
:1000C000D9020008E1020008E9020008F102000874
:1000D000F9020008010300080903000811030008E1
:1000E0001903000821030008290300083103000850
:1000F00039030008410300084903000851030008C0
:10010000590300086103000869030008710300082F
:10011000790300088103000889030008910300089F
:1001200099030008A1030008A9030008B10300080F
:10013000B9030008C1030008C9030008D10300087F
:10014000D9030008E1030008E9030008F1030008EF
:10015000F90300080104000809040008110400085C
:1001600019040008210400082904000831040008CB
:10017000390400084104000849040008510400083B
:1001800059040008610400084FF0000000F06CB949
:100190004FF0020000F068B94FF0030000F064B9BE
:1001A0004FF0040000F060B94FF0050000F05CB9BA
:1001B0004FF0060000F058B94FF00B0000F054B9B2
:1001C0004FF00C0000F050B94FF00E0000F04CB9A9
:1001D0004FF00F0000F048B94FF0100000F044B9A4
:1001E0004FF0110000F040B94FF0120000F03CB9A0
:1001F0004FF0130000F038B94FF0140000F034B99C
:100200004FF0150000F030B94FF0160000F02CB997
:100210004FF0170000F028B94FF0180000F024B993
:100220004FF0190000F020B94FF01A0000F01CB98F
:100230004FF01B0000F018B94FF01C0000F014B98B
:100240004FF01D0000F010B94FF01E0000F00CB987
:100250004FF01F0000F008B94FF0200000F004B983
:100260004FF0210000F000B94FF0220000F0FCB880
:100270004FF0230000F0F8B84FF0240000F0F4B87D
:100280004FF0250000F0F0B84FF0260000F0ECB879
:100290004FF0270000F0E8B84FF0280000F0E4B875
:1002A0004FF0290000F0E0B84FF02A0000F0DCB871
:1002B0004FF02B0000F0D8B84FF02C0000F0D4B86D
:1002C0004FF02D0000F0D0B84FF02E0000F0CCB869
:1002D0004FF02F0000F0C8B84FF0300000F0C4B865
:1002E0004FF0310000F0C0B84FF0320000F0BCB861
:1002F0004FF0330000F0B8B84FF0340000F0B4B85D
:100300004FF0350000F0B0B84FF0360000F0ACB858
:100310004FF0370000F0A8B84FF0380000F0A4B854
:100320004FF0390000F0A0B84FF03A0000F09CB850
:100330004FF03B0000F098B84FF03C0000F094B84C
:100340004FF03D0000F090B84FF03E0000F08CB848
:100350004FF03F0000F088B84FF0400000F084B844
:100360004FF0410000F080B84FF0420000F07CB840
:100370004FF0430000F078B84FF0440000F074B83C
:100380004FF0450000F070B84FF0460000F06CB838
:100390004FF0470000F068B84FF0480000F064B834
:1003A0004FF0490000F060B84FF04A0000F05CB830
:1003B0004FF04B0000F058B84FF04C0000F054B82C
:1003C0004FF04D0000F050B84FF04E0000F04CB828
:1003D0004FF04F0000F048B84FF0500000F044B824
:1003E0004FF0510000F040B84FF0520000F03CB820
:1003F0004FF0530000F038B84FF0540000F034B81C
:100400004FF0550000F030B84FF0560000F02CB817
:100410004FF0570000F028B84FF0580000F024B813
:100420004FF0590000F020B84FF05A0000F01CB80F
:100430004FF05B0000F018B84FF05C0000F014B80B
:100440004FF05D0000F010B84FF05E0000F00CB807
:100450004FF05F0000F008B84FF0600000F004B803
:100460004FF0610000F000B86A4602F12002EFF39D
:1004700011832DE9FC0F72B6694601F015F8694643
:10048000884209D000F1280191E8F00F016821E9C4
:10049000F00F90E8FC0F01E0B1E8FC0F81F3088851
:1004A000DFF808E083F3118862B67047F9FFFFFFB9
:1004B00080B582B000AF00F09DF900F093FB00F032
:1004C000A9F9412000F076FB1A4B3B6004E03B6841
:1004D0001A1D3A6000221A603A68174B9A42F6D306
:1004E000422000F067FB154B7B60154B3B6007E03B
:1004F0003B681A1D3A607A68111D796012681A60AB
:100500003A68104B9A42F3D3432000F053FB00F0BB
:1005100003FF442000F04EFB02F00CF9462000F0EF
:1005200049FB0D2000F046FB0A2000F043FB02F0DF
:10053000C1F900BFC403002034A0002058400308C4
:1005400000000020C403002080B483B000AF174B2C
:100550001B687B607B6843F001037B60134B7A6808
:100560001A60134B00221A60104B1B687B607B687B
:1005700023F0847323F001137B600C4B7A681A60BC
:100580000C4B0D4A1A60094B1B687B607B6823F497
:1005900080237B60054B7A681A60084B00221A6042
:1005A0000C37BD465DF8047B704700BF0038024041
:1005B0000838024004380240103000240C38024051
:1005C00080B483B000AF0C4B1B687B607B686FEA24
:1005D00053236FEA43237B607B6843F480037B6093
:1005E0007B6843F060637B60034B7A681A600C376A
:1005F000BD465DF8047B70473038024080B483B05C
:1006000000AF054B1B687B60034B7A681A600C37A0
:10061000BD465DF8047B70473438024080B400AFBB
:10062000BD465DF8047B704780B483B000AF0B4BD0
:100630001B687B607B6843F480237B607B6843F4AA
:1006400080037B607B6843F080537B60034B7A6858
:100650001A600C37BD465DF8047B70474038024095
:1006600080B483B000AF0B4B1B687B607B6843F0AA
:1006700001037B607B6843F400637B607B6843F429
:1006800080437B60034B7A681A600C37BD465DF887
:10069000047B70474438024080B483B000AF464BBF
:1006A0001B687B607B6843F480337B60424B7A68D5
:1006B0001A60424B3B6009E03F4B1B6803F4003378
:1006C000002B00D005E03B68013B3B603B68002B02
:1006D000F2DC3B68002B6ADD394B1B687B607B6872
:1006E00043F080537B60364B7A681A60354B1B6849
:1006F0007B607B6843F480437B60324B7A681A608E
:10070000314B1B687B607B6823F0F0037B602E4BD2
:100710007A681A602C4B1B687B607B6823F460430B
:100720007B607B6843F400437B60274B7A681A60E8
:10073000254B1B687B607B6823F4E0537B607B6800
:1007400043F4A0537B60204B7A681A601F4B7B6098
:100750001F4B7A681A60184B1B687B607B6843F0FC
:1007600080737B60144B7A681A6000BF124B1B6861
:1007700003F00073002BF9D040F205637B60154B4A
:100780007A681A60104B1B687B607B6823F0030358
:100790007B607B6843F002037B600B4B7A681A60D6
:1007A00000BF094B1B6803F00C03082BF9D10C3771
:1007B000BD465DF8047B7047003802401482190082
:1007C0004038024000700040083802401954400789
:1007D00004380240003C024080B500AFFFF7F0FE55
:1007E000FFF70CFFFFF71AFFFFF71EFFFFF738FFB9
:1007F00080BD00BF80B500AFFFF7A6FEFFF74CFF3E
:10080000FFF7EAFF80BD00BF80B400AFBD465DF8D2
:10081000047B704780B500AFFFF7F6FF80BD00BFD7
:1008200080B592B000AF78607B6803F0F0031B09DD
:100830003B633B6B082B02D96FF0150346E18B4BF2
:100840003A6B53F82230FB627B6803F00F03BB6204
:100850007B6803F44023B3F5002F0BD0B3F5402F92
:100860000BD0B3F5802F02D000237B6308E0012377
:100870007B6305E002237B6302E003237B6300BF0D
:10088000EFF31183BB61BB69DBB2FB7510233B61E6
:100890003B6983F31188FB7D87F82730FB6A1B686F
:1008A0007B64BB6A5B00032202FA03F3DB437A6CCE
:1008B00013407B64BB6A5B007A6B02FA03F37A6CC9
:1008C00013437B64FB6A7A6C1A6000233B647B6B86
:1008D000032B0FD07B6803F44033B3F5803F03D084
:1008E000B3F5003F03D005E001233B6402E002239F
:1008F0003B6400BFFB6A0C331B687B64BB6A5B0014
:10090000032202FA03F3DB437A6C13407B64BB6A75
:100910005B003A6C02FA03F37A6C13437B64FB6A64
:100920000C337A6C1A607B6B022B05D17B6803F465
:1009300070431B0B3B6401E000233B64BB6A072B45
:1009400004D82023FB63BB6ABB6304E02423FB635E
:10095000BB6A083BBB63FA6AFB6B13441B687B648E
:10096000BB6B9B000F2202FA03F3DB437A6C13404C
:100970007B64BB6B9B003A6C02FA03F37A6C134303
:100980007B64FA6AFB6B13447A6C1A607B6B012BF5
:1009900002D07B6B022B18D17B6803F44063B3F564
:1009A000006F0BD0B3F5406F0BD0B3F5806F02D062
:1009B00000233B6408E001233B6405E002233B6421
:1009C00002E003233B6400BF01E000233B64FB6AB9
:1009D00008331B687B64BB6A5B00032202FA03F3E3
:1009E000DB437A6C13407B64BB6A5B003A6C02FAAF
:1009F00003F37A6C13437B64FB6A08337A6C1A60E6
:100A0000FB6A04331B687B64BB6A012202FA03F3AE
:100A10003B647B6B012B02D07B6B022B09D17B6883
:100A200003F40073002B04D07A6C3B6C13437B649B
:100A300004E03B6CDB437A6C13407B64FB6A043359
:100A40007A6C1A607B6B012B12D17B6803F4807384
:100A5000002B0CBF00230123DBB287F8263097F868
:100A600026307868194600F047F826E044E202088C
:100A70007B6803F48073002B1FD0BB6A03F00C0269
:100A8000144B13443B623B6A1B687B64BB6A03F0F4
:100A900003039B00FB610F22FB6902FA03F3DB43B4
:100AA0007A6C13407B643A6BFB6902FA03F37A6C4D
:100AB00013437B643B6A7A6C1A6097F82730FB73A8
:100AC000FB7BBB60BB6883F3118800231846483763
:100AD000BD4680BD0838014080B582B000AF786067
:100AE0007B68DBB27B607868FFF79AFE03461846A6
:100AF0000837BD4680BD00BF80B487B000AF7860C6
:100B00000B46FB707B6803F0F0031B093B613B69FC
:100B1000082B1BD8104B3A6953F82230FB607B68D6
:100B200003F00F03BB60FB78002B05D0BB680122EC
:100B300002FA03F37B6105E0BB681033012202FA7D
:100B400003F37B61FB6818337A691A601C37BD4672
:100B50005DF8047B704700BF44E2020880B487B0B0
:100B600000AF78607B6803F0F0031B097B617B6951
:100B7000082B16D80E4B7A6953F822303B617B68FC
:100B800003F00F03FB603B6910331A68FB68012117
:100B900001FA03F31340002B0CBF00230123DBB247
:100BA00000E0002318461C37BD465DF8047B704703
:100BB00044E2020880B483B000AF0346FB7100BF7B
:100BC000064B1B6803F08003002BF9D0044BFA7925
:100BD0001A600C37BD465DF8047B70470048004042
:100BE0000448004080B582B000AF204800214FF497
:100BF000802200F027FC1E48FFF712FE1D48FFF779
:100C00000FFE1D4B1B687B607B6823F47D537B606C
:100C1000194B7A681A60194B1B687B607B6823F458
:100C2000BB5323F01C037B60144B7A681A60144B8F
:100C30001B687B607B6823F4E06323F001037B6027
:100C40000F4B7A681A600F4B40F26D121A600B4B13
:100C50001B687B607B6843F4005343F00C037B60AC
:100C6000064B7A681A600837BD4680BD403802409E
:100C70001A7C09001B7C0900104800400C48004009
:100C8000144800400848004080B483B000AF78604A
:100C900039607B681A6E3B6813441B6818460C3732
:100CA000BD465DF8047B704780B485B000AFF86046
:100CB000B9607A60FB681A6EBB6813447A681A6080
:100CC0001437BD465DF8047B704700BF80B584B023
:100CD00000AF78600B467B807B687A88A3F84C2055
:100CE00078680C21FFF7D0FFF860FB6823F4D0731D
:100CF000FB607B8803F4D073FA681343FB60786869
:100D00000C21FA68FFF7D0FF78681421FFF7BCFFC9
:100D1000F860FB6823F00103FB607B8803F00103AC
:100D2000FA681343FB6078681421FA68FFF7BCFF88
:100D30001037BD4680BD00BF80B584B000AF78607D
:100D400039603B68002B17D078680C21FFF79CFFB7
:100D5000F86078681421FFF797FFB860FB689BB2D2
:100D600003F4D0739AB2BB689BB203F001039BB249
:100D700013439AB23B681A8078680021FFF7A6FFF8
:100D80001037BD4680BD00BF80B588B000AF786029
:100D90007B689B6CBB61BB69DA6DBB695B6D5B0893
:100DA000B2FBF3F37B617B695B093B613B691B0130
:100DB000FB603B695B017A69D31A01335B08BB6056
:100DC000FA68BB681343FB60B8690821FA68FFF74B
:100DD0006BFFB8690C21FFF757FFF861FB6923F43B
:100DE000B053FB61BB6993F85030012B04D1FB6910
:100DF00043F4C063FB6108E0BB6993F85030022BF9
:100E000003D1FB6943F48063FB61BB6993F8513004
:100E1000092B09D0BB6993F85130082B08D1BB6965
:100E200093F85030002B03D0FB6943F48053FB61EF
:100E3000B8690C21FA69FFF737FFB8691021FFF78D
:100E400023FFF861FB6923F44053FB61BB6993F80E
:100E50005230002B03D0FB6943F40053FB61B869A7
:100E60001021FA69FFF720FFB8691421FFF70CFF82
:100E7000F861FB6923F44073FB61B8691421FA69D6
:100E8000FFF712FF2037BD4680BD00BF80B586B09A
:100E900000AF78600B46FB707B689B6C7B617B6965
:100EA0001A6E0D4B9A4200D013E04FF480233B6141
:100EB0000A4BFB6000BFFB78002B05D0F8680021CF
:100EC0003A6900F0BFFA04E0F8683969002200F0DE
:100ED000B9FA1837BD4680BD00480040403802408E
:100EE00080B584B000AF78607B689B6CBB6078682D
:100EF0000121FFF7CBFFBB685B6E1846FFF790FC44
:100F0000BB689B6E1846FFF78BFCB8681021FFF793
:100F1000BBFEF860FB6823F47D53FB60BB6893F86D
:100F20005230002B03D0FB6843F40053FB60B868D9
:100F30001021FA68FFF7B8FEB8680C21FFF7A4FE8D
:100F4000F860FB6823F4BE73FB60B8680C21FA6894
:100F5000FFF7AAFEB8681421FFF796FEF860FB6859
:100F600023F4E06323F00103FB60B8681421FA68FE
:100F7000FFF79AFE7868FFF707FFB8680C21FFF7C4
:100F800083FEF860FB6843F4005343F00C03FB60FE
:100F9000B8680C21FA68FFF787FEBB680022A3F847
:100FA0004C20002318461037BD4680BD80B584B064
:100FB00000AF78607B689B6CFB60F8680021FFF7EE
:100FC000BBFE78680021FFF761FFF8680C21FFF78E
:100FD0005BFEB860BB6823F4005323F00C03BB60D6
:100FE000F8680C21BA68FFF75FFEFB685B6E184675
:100FF000FFF772FDFB689B6E1846FFF76DFD10371B
:10100000BD4680BD80B584B000AF78607B689B6CC6
:10101000FB60FB6893F858301A46FB68DB6E10469D
:10102000194601F0B3FDB860BB68002B05D1FB6821
:1010300093F85830184600F067FCBB681846103724
:10104000BD4680BD80B584B000AF78607B689B6C86
:10105000FB60FB6893F85830184600F02FFCFB68E3
:1010600093F858301846002101F090FD1037BD4626
:1010700080BD00BF80B584B000AF78600123FB72F3
:101080000023FB6041E00023FB7278680021FFF73A
:10109000FBFD03469AB27B68A3F84E207B68B3F849
:1010A0004E3003F02003002B0DD07B68B3F84C309A
:1010B00003F02003002B06D07B68184601F0DCFA11
:1010C0000123FB720AE07B68B3F84E3003F00E0395
:1010D000002B03D078680421FFF7D6FD7B68B3F8B6
:1010E0004E3003F08003002B0CD07B68B3F84C30FB
:1010F00003F08003002B05D07B68184601F066FAE8
:101100000123FB72FB680133FB60FB68FF2B02DCF1
:10111000FB7A002BB7D1002318461037BD4680BD9F
:1011200080B487B000AFF860B9607A6000237B615B
:101130006FF018037B6100BF7B6918461C37BD4602
:101140005DF8047B704700BF80B584B000AF786065
:1011500039607B689B6CFB60F8680421FFF794FDA5
:10116000B860FB68B3F84E301B041A46BB681A43DC
:101170003B681A60FB680022A3F84E20BB68DBB214
:1011800018461037BD4680BD80B58AB000AF786084
:101190000B46FB707B689B6C3B62EFF31183BB617A
:1011A000BB69DBB2FB7510233B613B6983F311889C
:1011B000FB7DFB773B6AB3F84C30FB84FB78002B5C
:1011C00004D0FB8C43F02003FB8405E0FB8C23F46C
:1011D000907323F00103FB84FB8C386A1946FFF7F8
:1011E00075FDFB7FFB73FB7BBB60BB6883F31188E2
:1011F0002837BD4680BD00BF80B584B000AF7860A1
:101200007B689B6CFB60F8680021FFF73DFD03469F
:1012100003F02003002B0CBF00230123DBB2184690
:101220001037BD4680BD00BF80B584B000AF786088
:1012300039607B689B6CFB603B68F86804211A4648
:10124000FFF732FD1037BD4680BD00BF80B58AB0C4
:1012500000AF78600B46FB707B689B6C7B62EFF3A2
:101260001183FB61FB69DBB2FB7610237B617B6939
:1012700083F31188FB7E87F82330FB78002B0ED098
:101280007B6AB3F84C3043F080033B843B8C786A34
:101290001946FFF71BFD786801F098F909E07B6AB1
:1012A000B3F84C3023F080039BB2786A1946FFF7FD
:1012B0000DFD97F82330FB74FB7CFB60FB6883F328
:1012C00011882837BD4680BD80B584B000AF7860F6
:1012D0007B689B6CFB60F8680021FFF7D5FC034638
:1012E00003F08003002B0CBF00230123DBB2184660
:1012F0001037BD4680BD00BF80B582B000AF7860BA
:1013000039600448FFF7B6FE034618460837BD4665
:1013100080BD00BF0000002080B582B000AF002378
:101320007B6010E00D4B7A6853F82230002B07D019
:101330000A4B7A6853F8223018460021FFF7FCFC6C
:101340007B6801337B607B68052BEBD9044B184627
:10135000FFF7C6FD0837BD4680BD00BF98E2020812
:101360000000002080B586B000AF00233B611E4B1B
:101370001E48194601F0C2F81B4B1D48194601F0E2
:10138000BDF801233B613B4618461A4904F0FAFFB9
:1013900000237B6121E0184B7A6953F82230002B3F
:1013A00000D117E0144B7A6953F82230DB78002B18
:1013B00000D00FE03B695A1C3A61DBB23033DBB23C
:1013C0007B720D4B7A6953F822303A461046194623
:1013D00001F094F87B6901337B617B69052BDAD9D5
:1013E0001837BD4680BD00BF00000020B0E20208F3
:1013F000C0E20208CCE2020898E2020880B584B09C
:1014000000AF78600E4BFB6007F10A03F8681946DD
:10141000FFF792FC7B680A2B02D10D20FFF7CAFB75
:101420007B68DBB21846FFF7C5FB7B89F868194675
:10143000FFF74CFC7B6818461037BD4680BD00BFE7
:101440000000002080B48DB000AFF860B9607A6011
:10145000EFF311837B627B6ADBB287F823301023C2
:10146000FB61FB6983F3118897F8233087F82F30ED
:10147000FB681B68BB62BB68DB43BA6A1340BB6294
:10148000BA6A7B681343BB62FB68BA6A1A6097F852
:101490002F30FB76FB7E7B617B6983F311883437C9
:1014A000BD465DF8047B704780B584B000AF7860BE
:1014B0003960042001F0D8F90D4B1B68FB600C4B20
:1014C0003A681A60786800F045FA7868396801F07F
:1014D00097FB074B1B683B60054BFA681A600420BA
:1014E00001F0D6F93B6818461037BD4680BD00BFF5
:1014F000989A002080B586B000AF78603960EFF32D
:1015000011837B617B69DBB2FB741023FB60FB689A
:1015100083F3118803200449044A04F05BFE044865
:10152000992100F04DFA00BFD8E20208C8E3020892
:10153000F4E2020880B586B000AF78603960EFF35E
:1015400011837B617B69DBB2FB741023FB60FB685A
:1015500083F31188054B1B6803200549054A04F0F5
:1015600039FE0548A12100F02BFA00BF28ED00E06C
:1015700008E30208D4E30208F4E2020880B586B06A
:1015800000AF78603960EFF311837B617B69DBB278
:10159000FB741023FB60FB6883F31188054B1B6809
:1015A00003200549054A04F015FE0548A92100F06D
:1015B00007FA00BF28ED00E030E30208E4E3020888
:1015C000F4E2020880B586B000AF78603960EFF3CE
:1015D00011837B617B69DBB2FB741023FB60FB68CA
:1015E00083F3118803200449044A04F0F3FD0448FE
:1015F000B12100F0E5F900BF5CE30208F8E302085E
:10160000F4E2020880B586B000AF78603960EFF38D
:1016100011837B617B69DBB2FB741023FB60FB6889
:1016200083F3118803200449044A04F0D3FD0448DD
:10163000B92100F0C5F900BF7CE3020808E4020804
:10164000F4E2020880B586B000AF78603960EFF34D
:1016500011837B617B69DBB2FB741023FB60FB6849
:1016600083F3118803200449044A04F0B3FD0448BD
:10167000C12100F0A5F900BFA4E302081CE40208A0
:10168000F4E2020880B485B000AF7860094B1B68B3
:10169000FB60FB6823F07F43FB607B681B06FA68F6
:1016A0001343FB60034BFA681A601437BD465DF8BC
:1016B000047B70471CED00E080B584B000AFF8609B
:1016C000B9607A603B60FB68012B02DDFB68612B2F
:1016D00003DD3648E92100F073F9FB680F2B37DD95
:1016E000FB682F2B0FDC3B6803F1604303F561437C
:1016F000BA681360FB68103B012202FA03F31A4632
:101700007B681A604CE0FB684F2B0DDC3A68284B75
:101710001344BA681360FB68303B012202FA03F3FA
:101720001A467B681A603BE0FB68612B0DDC3A6867
:10173000204B1344BA681360FB68503B012202FA45
:1017400003F31A467B681A602AE04FF0FF3328E063
:10175000BB68194A1A60FB68042B04D17B684FF4FC
:1017600080321A601CE0FB68052B04D17B684FF4C3
:1017700000321A6014E0FB68062B04D17B684FF43A
:1017800080221A600CE0FB680F2B06D1BB680B4A65
:101790001A607B6801221A6002E04FF0FF3300E01C
:1017A000002318461037BD4680BD00BFF4E2020892
:1017B00004E100E008E100E024ED00E010E000E0DA
:1017C00080B584B000AF2C4B00221A602B4B002256
:1017D0001A602B4B4FF080321A602A4B4FF0803248
:1017E0001A60294B4FF080321A60284B1B68013376
:1017F000DB00BB60264BFB6006E0FB684FF08032ED
:101800001A60FB680433FB60BB685A1EBA60002B89
:10181000F3D1204B00221A600B201F4901F0B6F9CA
:1018200003201E4901F0B2F90020FFF72BFF022030
:101830001B4901F0ABF904201A4901F0A7F9052072
:10184000194901F0A3F90620184901F09FF90E206B
:10185000174901F09BF90C20164901F097F9002077
:10186000154901F093F900237B607B6883F31188AD
:1018700062B61037BD4680BD00E100E004E100E043
:1018800018ED00E01CED00E020ED00E004E000E0D9
:1018900000E400E0989A0020411C00089D1A00080E
:1018A000F51400083D1A0008351500087D150008DC
:1018B000C5150008051600084516000880B586B055
:1018C00000AF786007F1100207F10C037868114649
:1018D0001A468023FFF7F0FE0346002B11D17B68E8
:1018E0000F2B03DD3B69FA681A600AE03B691B684D
:1018F0007B61FB68DB437A6913407B613B697A69F2
:101900001A601837BD4680BD80B586B000AF7860DC
:1019100007F1100207F10C03786811461A460023FC
:10192000FFF7CAFE0346002B10D17B680F2B03DDA7
:101930003B69FA681A6009E03B691B687B61FB68D8
:101940007A6913437B613B697A691A601837BD462F
:1019500080BD00BF80B483B000AF78600C37BD4657
:101960005DF8047B704700BF80B586B000AF78603B
:10197000114B1B68002B04D1104B1B689B89002B5B
:1019800017D1EFF311837B617B69DBB2FB7410230A
:10199000FB60FB6883F31188072000F065FFFA20E5
:1019A00000F02EF8072000F073FFFA2000F028F86E
:1019B000F2E7786801F0F4FC989A0020AC9A0020D5
:1019C00080B586B002AF786039600A4B1B68FB6057
:1019D000062000F049FFFB68D0333A68009201937B
:1019E00003200549054A7B6804F03EFC0120FFF70F
:1019F000BBFF00BFAC9A00202CE4020860E40208A0
:101A000080B485B000AF78600023FB600DE0002358
:101A1000BB6002E0BB680133BB60BA6844F24C13A0
:101A20009A42F7D9FB680133FB60FA687B689A42F7
:101A3000EDD31437BD465DF8047B704780B588B0A0
:101A400002AF78603960EFF311837B617B69DBB2B1
:101A5000FB741023FB60FB6883F3118803200949A2
:101A6000094A04F001FC094B1B68094A12680092FC
:101A700003200849044A04F0F7FB07488021FFF7D8
:101A80009FFF00BF6CE40208D0E4020828ED00E0EC
:101A900034ED00E094E40208B8E40208F0B593B035
:101AA00008AF786039603B687B6203205449554A2F
:101AB00004F0DAFB7B6A009303205349514A7B68A8
:101AC00004F0D2FBEFF311833B623B6ADBB2EFF32E
:101AD0001082FA61FA69D2B21046EFF30582BA6158
:101AE000BA691146EFF314827A617A690090019124
:101AF000029203204549434A04F0B6FB444B1B685D
:101B0000444A1468444A1068444A1168444A1268B6
:101B1000009401900291039203204249394A04F053
:101B2000A3FB7B6A28331B687A6A2C32D2F800E068
:101B30007A6A303216687A6A343215687A6A0832FC
:101B400014687A6A0C3210687A6A103211687A6AFC
:101B500014321268CDF800E00196029503940490C7
:101B60000591069203203049264A04F07DFB7B6AEA
:101B700018331B687A6A1C32D2F800E07A6A203285
:101B800016687A6A243215687A6A383214687A6A72
:101B900010687A6A3C3211687A6A40321268CDF86D
:101BA00000E00196029503940490059106920320AB
:101BB0001E49144A04F058FB1D4B1B6844331B6834
:101BC0001B4A1268043212680092032019490D4A18
:101BD00004F04AFBEFF311833B613B69DBB2FB731B
:101BE0001023BB60BB6883F311880A4B1B6803207A
:101BF0001149044A04F038FB1048B721FFF7E0FE12
:101C0000DCE402085CE60208F0E4020808E50208E9
:101C100028ED00E02CED00E030ED00E038ED00E0D4
:101C20003CED00E044E5020894E50208C8E502083E
:101C3000989A0020FCE5020824E6020844E602081F
:101C400080B584B000AF786039603B68FB60FB68AA
:101C5000002B04D0304B1B68FA689A4203D02F48FF
:101C6000A021FFF7ADFEFB689B6ABB60BB68012B40
:101C700016D0012B02D3022B22D03EE0FB682C337E
:101C80001B68002B03D12548CF21FFF799FEFB6885
:101C90002C331B681846F968482204F0D1FB35E064
:101CA000FB682C331B68002B03D11C48E821FFF78D
:101CB00087FEFB682C331B681A46174B1A6025E019
:101CC000FB682C331B68002B04D0FB6830331B6887
:101CD000002B03D11148FF21FFF772FEFB682C3364
:101CE0001B681846F968482204F0AAFBFB683033E9
:101CF0001B681A46084B1A6008E0FB6828331B680B
:101D000003200749074A04F0AFFA00BF0023184632
:101D10001037BD4680BD00BF989A00206CE60208CF
:101D200080E60208A0E6020880B584B000AFF86043
:101D3000B9607A60F86801F067FBF868B9687A689A
:101D400004F09EFB034618461037BD4680BD00BF19
:101D500080B582B000AF78600B46FB700FE001F0F9
:101D600033FB03461B68042B03D00A488821FFF786
:101D700027FEFB78002B02D06FF0030306E07868A3
:101D800001F062FB0346002BE9D100231846083717
:101D9000BD4680BDC4E6020880B58CB000AFF860D7
:101DA000B9601346FB71FB689B8C9BB21BB201337D
:101DB000FB62FB681B8D1AB2FB6A9A4201DC0023AE
:101DC000FB62FB68DB8C9BB21AB2FB6A9A420FD0B3
:101DD000FB68DA6AFB689B8C9BB21BB21344BA683F
:101DE000D2B21A70FB6A9AB2FB689A84002338E078
:101DF000FB79002B31D0EFF311833B623B6ADBB2FE
:101E0000FB771023BB61BB6983F31188FB7F87F8E5
:101E10002B30FB6801225A70FB685B6C5B6AF868C8
:101E200001219847FB680C3318460121FFF790FF0A
:101E30007862FB685B6C5B6AF8680021984797F8EA
:101E40002B30FB75FB7D3B613B6983F311887B6A1B
:101E5000002B05DA6FF0030303E06FF00A0300E0E4
:101E6000AFE718463037BD4680BD00BF80B586B0AD
:101E700000AFF860B9607A607B687B6110E0BB6896
:101E80005A1CBA601B783B613B690A2B02D10D20BA
:101E9000FFF7B4FA3869FFF7B1FA7B68013B7B6062
:101EA0007B68002BEBD17B6918461837BD4680BD97
:101EB00080B58EB000AFF860B9607A60FB689B684F
:101EC000FB62FB6A1B69BB627B687B6306F09EFB5F
:101ED0000346002B04D101F04DFA0346002B24D118
:101EE000BB6ADB78002B1DD0EFF311833B623B6AAA
:101EF000DBB2FB771023BB61BB6983F31188FB7FE7
:101F000087F82530B86AB9687A68FFF7AFFF386399
:101F100097F82530FB75FB7D3B613B6983F31188A6
:101F20003B6B70E04FF0FF336DE0BB6A1C3318462B
:101F30000121FFF70DFF38633B6B002B01DA3B6B90
:101F400061E0FB681B6803F04003002B14BF002313
:101F50000123DBB287F82730BB6A5B6C5B6AB86A27
:101F60000021984736E0BB685A1CBA601B7887F896
:101F7000263000233B63BB6ADB78002B0BD097F83D
:101F800026300A2B07D197F82730B86A0D211A4658
:101F9000FFF702FF38633B6B002B09D197F826202F
:101FA00097F82730B86A11461A46FFF7F5FE3863EE
:101FB0003B6B002B0BDA7A6B7B689A4204D97A6B05
:101FC0007B68D31A7B6308E03B6B7B6305E07B682F
:101FD000013B7B607B68002BC5D1BB6A9B8C9AB2AE
:101FE000BB6ADB8C9BB212B21BB29A4205D0BB6AB1
:101FF0005B6C5B6AB86A01219847BB6A1C33184660
:1020000001F0A2FA7B6B18463837BD4680BD00BF91
:1020100080B590B000AFF860B9607A60FB689B68EB
:102020007B637B6B1B693B633B6B3033FB62002341
:10203000FB63FB6A18460121FFF78AFEB862BB6AA0
:10204000002B01DABB6A8CE080E0FB6A5B897B874E
:10205000FB6A1B899BB2B7F93A201BB29A4220D087
:10206000FB6A1A69B7F93A3013441B7887F82730AE
:102070007B8F01337B87FB6A9B89B7F93A201BB2C0
:102080009A4201DB00237B87FB6A7A8F5A81BB6807
:102090005A1CBA6097F827201A70FB6B0133FB6358
:1020A00054E0FB6B002B00DD55E0FB681B6803F080
:1020B0004003002B03D06FF00A03FB634BE03B6B44
:1020C0005B6C9B69386B00219847FB6A1B899AB24D
:1020D000FB6A5B899BB212B21BB29A4230D1EFF31A
:1020E00011833B623B6ADBB2FB771023BB61BB69A8
:1020F00083F31188FB7F87F826303B6B5B6C9B6911
:10210000386B012198473B6B01229A703B6B14336B
:1021100018460121FFF71CFEB86297F82630FB75C0
:10212000FB7D3B613B6983F31188BB6A002B0DDAB1
:10213000FB6B002B03D16FF00303FB630BE00AE0A2
:102140003B6B5B6C9B69386B01219847FA6B7B6832
:102150009A42FFF47AAF3B6B3033184601F0F4F942
:10216000FB6B18464037BD4680BD00BF80B594B0BC
:1021700000AFF860B9607A60FB689B683B643B6CB9
:102180001B69FB63FB6B5B6C1B69F868B9687A6859
:102190009847F864FB6C13F1190F40F08E80BB6810
:1021A00040F20532934204D040F20632934243D0CB
:1021B00083E0EFF311837B637B6BDBB287F8333013
:1021C0001023FB62FB6A83F3118897F8333087F89A
:1021D0003B30FB6B5B8F9AB2FB6B1B8F9BB212B2D7
:1021E0001BB29A420ADCFB6B1B8F9BB21AB2FB6BD1
:1021F0005B8F9BB21BB2D31ABB640DE0FB6B9B8F52
:102200001AB2FB6B1B8F9BB219B2FB6B5B8F9BB23D
:102210001BB2CB1A1344BB6497F83B3087F82B30C2
:1022200097F82B307B627B6A83F311887B68BA6CEA
:102230001A600023FB6440E0EFF311833B623B6ACA
:10224000DBB2FB771023BB61BB6983F31188FB7F93
:1022500087F83A30FB6B9B8C9AB2FB6BDB8C9BB2A2
:1022600012B21BB29A420BDAFB6BDB8C9BB21AB236
:10227000FB6B9B8C9BB21BB2D31A013B7B640EE0C1
:10228000FB6B1B8D1AB2FB6BDB8C9BB219B2FB6B29
:102290009B8C9BB21BB2CB1A1344013B7B6497F817
:1022A0003A30FB75FB7D3B613B6983F311887B68AA
:1022B0007A6C1A600023FB6400BFFB6C1846503731
:1022C000BD4680BD80B58AB000AF78607B689B68F2
:1022D0007B627B6A1B693B623B6A043318460021C0
:1022E000FFF736FD3B6A1B78012B0CD93B6A1B7844
:1022F000013BDAB23B6A1A703B6A0433184601F0BC
:1023000023F9002366E03B6A00221A703B6A5B6C8B
:102310009B69386A0021984702E0304803F0DEFEEE
:102320003B6A9B8C9AB23B6ADB8C9BB212B21BB2AB
:102330009A42F2D102E0294803F0D0FE3B6A5B6C7E
:10234000DB6A386A98470346002BF4D0EFF3118319
:10235000BB61BB69DBB2FB7510233B613B6983F357
:102360001188FB7DFB773B6A5B6CDB68386A9847BA
:102370003B6ADB78002B04D13B6A5B6C5B68386A94
:102380009847FB7FFB73FB7BBB60BB6883F31188C3
:102390003B6A0C33184600210022FFF7C5FC3B6A5C
:1023A0001433184600210022FFF7BEFC3B6A1C33A1
:1023B000184600210122FFF7B7FC3B6A303318466C
:1023C00000210122FFF7B0FC3B6A0433184601F0FC
:1023D000BBF8002318462837BD4680BD20A1070062
:1023E00080B590B000AF78607B689B68BB63BB6BC7
:1023F0001B697B637B6B043318460121FFF7A8FC44
:10240000F863FB6B002B01DAFB6B73E07B6B1B78D3
:10241000013387F8333097F83330002B03D16FF056
:102420001703FB6360E097F83330012B58D1EFF3CB
:102430001183FB62FB6ADBB287F82B3010237B62CF
:102440007B6A83F3118897F82B3087F832307B6BE7
:10245000DB78002B13D17B6B5B6C1B68786B984728
:10246000F863FB6B002B0ADA97F8323087F82330D9
:1024700097F82330FB61FB6983F3118834E07B6BB1
:102480005B6C9B68786B9847F863FB6B002B0DDAED
:102490007B6B5B6C5B68786B984797F83230FB76A8
:1024A000FB7E7B617B6983F311881DE07B6B0022DF
:1024B0009A847B6B0022DA847B6B00221A877B6B09
:1024C00000225A877B6B5B6C9B69786B0121984774
:1024D00097F83230FB74FB7CFB60FB6883F3118858
:1024E0007B6B97F833201A707B6B0433184601F02E
:1024F0002BF8FB6B18464037BD4680BD80B582B0D7
:1025000000AF786039603B681C3318460021012217
:1025100003F0B6FF3B68303318460021012203F078
:10252000AFFF3B68043318460021012203F0A8FFE7
:102530003B680C3318460021002203F0A1FF3B68E2
:10254000143318460021002203F09AFF03200849A3
:10255000084A7B6803F03EFE786807494FF4DB7257
:102560003B6818F0F1F9034618460837BD4680BDB0
:10257000D4E60208E8E60208ACE6020880B582B0BC
:1025800000AF78607B689B78DBB2002B07D07B685C
:1025900000229A707B681433184600F0D5FF083784
:1025A000BD4680BD80B582B000AF78607B685B7847
:1025B000DBB2002B07D07B6800225A707B680C339B
:1025C000184600F0C1FF0837BD4680BD80B584B015
:1025D00000AF78600023FB8122E07B685B6C1B6AA4
:1025E0007A68D16A7A68D28C92B212B20A441278AE
:1025F000786811469847FB890133FB817B68DB8C47
:102600009BB201339BB29BB27A681946D1847A6837
:10261000118D1AB20BB29A4202DB7B680022DA8477
:102620007B689B8C9AB27B68DB8C9BB212B21BB22C
:102630009A4207D07B685B6C9B6A78689847034630
:10264000002BCAD17B689B8C9AB27B68DB8C9BB2D7
:1026500012B21BB29A4205D17B685B6C5B6A7868E8
:1026600000219847FB89002B02D07868FFF79AFF7A
:102670001037BD4680BD00BF80B588B000AF786020
:102680007B6830337B617B691B899BB21BB2013352
:10269000FB6100237B837B699B891AB2FB699A42A9
:1026A00002DC0023FB6133E032E07B695B899BB293
:1026B0001AB2FB699A4214BF00230123DBB2FB74F8
:1026C0007B685B6C5B6907F10C0278681146984780
:1026D0000346BB74FB7C002B1AD17B691A697B69AA
:1026E0001B899BB21BB21344BA7C1A707B8B0133DB
:1026F0007B83FB699AB27B691A81FB690133FB61B9
:102700007B699B891BB2FA699A4201DB0023FB615A
:102710007B685B6CDB69786898470346002BC4D103
:102720007B8B002B02D07868FFF728FF2037BD464F
:1027300080BD00BF80B500AF00F07EF880BD00BF57
:1027400080B582B000AF78607B6803F00103002B96
:1027500003D011480021FEF7CFF97B6803F0020394
:10276000002B03D00D480021FEF7C6F97B6803F06B
:102770000403002B03D00A480021FEF7BDF97B6853
:1027800003F00803002B03D006480021FEF7B4F93C
:102790000837BD4680BD00BF0409040006090400D7
:1027A000160904002609040080B582B000AF7860E5
:1027B0007B6803F00103002B03D011480121FEF7D1
:1027C0009BF97B6803F00203002B03D00D48012125
:1027D000FEF792F97B6803F00403002B03D00A484C
:1027E0000121FEF789F97B6803F00803002B03D071
:1027F00006480121FEF780F90837BD4680BD00BFBD
:10280000040904000609040016090400260904004E
:1028100080B582B000AF78607B681B0903F00F03BE
:102820001846FFF78DFF7B6803F00F031846FFF78C
:10283000BBFF0837BD4680BD80B500AF0648FDF739
:10284000EFFF0648FDF7ECFF0548FDF7E9FF0548F7
:10285000FDF7E6FF80BD00BF04090400060904007F
:10286000160904002609040080B582B000AF786024
:10287000064B7A6833F812301B0A9BB2DBB218465B
:10288000FFF7C6FF0837BD4680BD00BFF8E6020867
:1028900080B582B000AF7860054B7A6833F81230AB
:1028A000DBB21846FFF7B4FF0837BD4680BD00BF56
:1028B000F8E6020880B584B000AF03207A497B4A6D
:1028C00003F0D2FC7A4B00221A60794B00225A6046
:1028D000784B00221A60774B00225A60764B002218
:1028E0001A60754B00225A60744B00221A60734BB9
:1028F00000225A60724B00221A60714B00225A600B
:10290000704B00221A606F4B00225A606E4B0022FF
:102910001A606D4B00225A606C4B00221A606B4BA0
:1029200000225A606A4B00221A800023FB6015E0E7
:102930006849FA6813465B0013449B000B4400226D
:102940001A606449FA6813465B0013449B000B4409
:102950004FF6FF729A80FB680133FB60FB680F2B18
:10296000E6DD5C4B5C4A1A605A4B00229A805A485A
:102970000021F82203F0EAFC574B032283F82B20B6
:10298000554B564A5A61544B02229A855448554930
:102990001F2203F029FD504B002283F8EF20524BF9
:1029A0004F4A1A60504B00225A604B4B4E4AC3F8B4
:1029B000F42049483E4903F0CDFE474805F004FEA7
:1029C00000F028FE07F108023B1D1046194605F0ED
:1029D00073FABA687B681046194604F049FF434B06
:1029E000002B01D001F09CFE414B002B01D003F0E5
:1029F0008BFA404B002B01D003F034FA3E4B002BF6
:102A000001D0AFF300803D4B002B01D002F0E4FB7E
:102A10003B4B002B01D024F033F93A4B002B01D073
:102A200023F064F816F09EFD12F04CFA05F0AAFDB2
:102A3000294B9B8DDBB22848194600F023F9034649
:102A4000002B04DA30484FF4F971FEF7B9FF224841
:102A500000F072F90346002B04DA2B484FF4FD71A5
:102A6000FEF7AEFF1C4800F049F90346002B04DADC
:102A7000254840F20221FEF7A3FF174B9B68012275
:102A80001A7000F079F80346002B04DA1E4840F271
:102A90000921FEF795FF03201C49044A03F09AFB25
:102AA00005F02AFAFCE700BF5CE7020894E7020899
:102AB000AC9A00208C9B0020A49A0020C49A00208D
:102AC000B49A00209C9A0020BC9A0020989B002079
:102AD000949B0020CC9A0020C4050020B528000853
:102AE0009406002050E70208BC0600202147000899
:102AF000095F0008655E000800000000D951000869
:102B0000816C0208ED5A020868E7020878E70208BB
:102B100080B500AF01F0ACFD80BD00BF80B584B0D2
:102B200002AF07200C490D4A03F054FB0023009329
:102B30000B4864214FF400620A4B00F0DFF9786023
:102B40007B68002B04DC08484FF48E71FEF738FFD9
:102B50000837BD4680BD00BFA0E70208D8E70208DD
:102B6000BCE70208D5A20008C4E7020880B500AFA0
:102B7000FFF7D4FF80BD00BF80B500AFFFF7C8FFEF
:102B8000FFF7F4FF0023184680BD00BF80B58AB070
:102B900000AF786039604FF0FF337B627B68612B58
:102BA00024D8EFF31183FB61FB69DBB2FB761023C2
:102BB0007B617B6983F31188FB7E87F823303B6858
:102BC000002B04D17868FEF779FE0B4B3B600B4B72
:102BD0007A68396843F8221097F82330FB74FB7C3D
:102BE000FB60FB6883F3118800237B627B6A1846D5
:102BF0002837BD4680BD00BF452C0008B09B002093
:102C000080B584B000AF786039607B68612B05D8EF
:102C10000A4B7A6853F82230002B02D1084BFB6034
:102C200004E0064B7A6853F82230FB60FB68786852
:102C3000396898471037BD4680BD00BFB09B002063
:102C4000452C000880B586B000AF78603960EFF39E
:102C500011837B617B69DBB2FB741023FB60FB6833
:102C600083F3118803200449044A7B6803F0FCFACB
:102C700003485521FEF7A4FEE8E7020810E8020821
:102C8000F8E7020880B584B000AF78600B46FB70AF
:102C90007B68002B03D07B689B68002B03D0164811
:102CA000B821FEF78DFE4FF43D7004F021FEF86070
:102CB000FB68002B02D16FF00B0319E07B68FA6808
:102CC0009A60F86801F076FCB860BB68002B07DA00
:102CD000F86804F0EFFD7B6800229A60BB6807E0AB
:102CE000FB68103318460021012203F0C9FB0023C2
:102CF00018461037BD4680BD24E8020880B584B070
:102D000000AF78607B68002B03D07B689B68002B4A
:102D100004D108484FF48E71FEF752FE7B689B6821
:102D2000FB60FB6801225A70002318461037BD462D
:102D300080BD00BF24E8020880B584B000AF786091
:102D40007B689B68FB60FB68002B03D11F485A21FE
:102D5000FEF736FEFB683433184616F057FCFB6866
:102D600003F50973184610F0F3FD1948032117F015
:102D700039F9B860BB68002B0CD10020012116F096
:102D800093FF0020022116F08FFF786801F0E2FC2B
:102D9000034617E0BB68002B09DD03200D490E4AEE
:102DA000BB6803F061FAB86816F054FF08E000F061
:102DB0000BFB03461B6803200849074A03F054FA3B
:102DC0006FF0160318461037BD4680BD3CE8020878
:102DD0005CE802086CE80208B4E802088CE8020823
:102DE00080B58AB002AFF8607A603B600B46FB7238
:102DF000F82004F07DFDB861BB69002B07D10320EA
:102E00003A493B4A03F0E6F90C23FB6162E0FB7AA6
:102E1000B8691946FFF736FF78617B69002B03DA42
:102E20007B695B42FB6150E0B86901F0FFFC7861AF
:102E30007B69002B03DA7B695B42FB6145E03A6802
:102E4000FB7AB86911461A4605F022FB78617B6966
:102E5000002B03DA7B695B42FB6136E0FB7A00936F
:102E6000B8697968234ABB6A00F0E8F978617B6940
:102E7000002B03DA7B695B42FB6126E0B869F968E5
:102E8000FA6A00F00DFAB869FFF738FF78617B69DC
:102E9000002B03DA7B695B42FB6116E0BB699B890F
:102EA0007B82B86900F010FA78617B69002B09DA3F
:102EB00000F08AFA03461B68FB61B8690E4903F00B
:102EC0006DFC02E0B7F912300BE0FB7AB8691946E5
:102ED00001F0CCFD00F078FA0346FA691A604FF071
:102EE000FF3318462037BD4680BD00BFCCE802083E
:102EF000F0E8020809330008BC9A002080B586B0CB
:102F000002AFF860B9607A603B603B680093BB69D0
:102F10000193F8680021BA687B68FFF761FF0346F8
:102F200018461037BD4680BD80B586B002AFF86048
:102F3000B9607A603B603B680093BB690193F868B5
:102F40000221BA687B68FFF74BFF0346184610372B
:102F5000BD4680BD80B586B000AF786001F05AFEF6
:102F600000233B6146E0294B1B889BB201339BB297
:102F70009BB2264A19461180FB82B7F91630002B06
:102F800004DC224B01221A800123FB82FB8A03F01E
:102F90000F03FB601E49FA6813465B0013449B0055
:102FA0000B441B68002B22D11949FA6813465B00B9
:102FB00013449B000B447A681A601549FA6813465B
:102FC0005B0013449B000B44FA8A9A801049FA680C
:102FD00013465B0013449B000B44083300221A6025
:102FE0007B68FA8A9A8101F03DFE002309E03B6983
:102FF00001333B613B690F2BB5DD01F033FE4FF030
:10300000FF3318461837BD4680BD00BF949B002093
:10301000CC9A002080B586B000AFF860B9607A60C5
:103020003B60F868FFF796FF78617B69002B3ED123
:10303000BB68DAB2FB681A76BB68DAB2FB6883F861
:103040002A20FB687A681A613A68FB685A6197F827
:10305000203003F0030387F82030FB689B8D23F0BA
:1030600003039AB2FB689A85FB689A8D97F8203023
:103070009BB213439AB2FB689A85FB6848330320DE
:1030800000211A4600F030FEFB68002283F82B2056
:10309000F86805F099FA01F0BDFDF868064903F0FB
:1030A00059FBFB68042283F82B2001F0DBFD7B69D0
:1030B00018461837BD4680BDBC9A002080B582B046
:1030C00000AF786039603B68002B01D1074B3B6053
:1030D0007B68D033184639681F2203F085F97B6876
:1030E000002283F8EF200837BD4680BD00E90208C2
:1030F00080B58AB000AF786039607B68D0337B617F
:10310000786903F059F9034601333B620023FB6100
:103110003B68002B26D01EE0FB699B003A681344F5
:103120001B68184603F048F902463B6A1344013312
:103130003B627B689A6B3B6A9A4202D86FF023032A
:1031400075E0FB690133FB61FB69B3F5807F02DD4C
:103150006FF006036BE0FB699B003A6813441B6841
:10316000002BD9D1FB6902339B003B617A68396936
:103170003B6A0B441046194605F02EFCF860FB68CC
:10318000002B04D12C4840F20E21FEF719FCFB68FD
:10319000002B02D16FF00B0349E0FA683B6913443E
:1031A0007B62FB687A6A1A60786903F005F9034666
:1031B0000133BB60786A796903F0E4F8BB687A6A26
:1031C00013447B620023BB6121E0BB6901339B0098
:1031D000FA6813447A6A1A60BB699B003A68134420
:1031E0001B68184603F0E8F803460133BB60BB696F
:1031F0009B003A6813441B68786A194603F0C2F8CA
:10320000BB687A6A13447B62BB690133BB61BA69EC
:10321000FB699A42D9DBFB6901339B00FA681344CE
:1032200000221A607B68FA68C3F8F420002318466D
:103230002837BD4680BD00BF0CE9020880B588B0C4
:1032400002AFF860B9607A603B6097F82030009375
:10325000F868B9687A683B68FFF7DCFE78617B69DB
:10326000002B04D1BB68DAB2FB6883F8F0207B69DD
:1032700018461837BD4680BD80B586B002AFF860ED
:10328000B9607A603B6001230093F868B9687A6896
:103290003B68FFF7BFFE034618461037BD4680BDAA
:1032A00080B584B000AFF860B9607A60F868B9683A
:1032B000FFF704FFF8687968FFF71AFF034618461E
:1032C0001037BD4680BD00BF80B588B000AF7860C4
:1032D000EFF31183BB61BB69DBB2FB7510233B616C
:1032E0003B6983F31188FB7DFB77786805F0A6FBCB
:1032F000FB7FFB73FB7BBB60BB6883F31188002300
:1033000018462037BD4680BD80B584B000AF174B4E
:103310001B68BB60BB689B8D03F00303012B03D1CB
:1033200013486B21FEF74CFB0123FB6009E0FB68AF
:103330000133FB60FB68B3F5807F02DD012000F004
:103340002FF8BB68D3F8F420FB689B0013441B687C
:10335000002BECD1BB685B69BA68D2F8F420F8683E
:10336000114698477860786800F01AF8AC9A002007
:1033700020E9020880B483B000AF084B1B687B6073
:103380007B68002B02D07B689B8900E000231BB286
:1033900018460C37BD465DF8047B7047AC9A002098
:1033A00080B584B000AF7860064B1B68FB607B681B
:1033B000DBB27B60F8687968002201F0C3FD7868B1
:1033C00005F0BAF8AC9A002080B582B000AF05F0E5
:1033D0001DF90346002B0DD1094B1B687B607B68F0
:1033E000002B07D07B6893F82B30032B02D17B682E
:1033F000743300E0034B18460837BD4680BD00BF5C
:10340000AC9A0020C406002080B582B000AF78607E
:103410007B68002B0CD07B681B881BB2002B02DB67
:103420007B6801221A80786800F0A6FB002306E082
:10343000FFF7CAFF034616221A604FF0FF33184603
:103440000837BD4680BD00BF80B58AB000AF786048
:103450003B4B1B683B624FF0FF337B6205F0D6F8B5
:103460000346002B03D037486921FEF7A9FAFFF77E
:10347000ABFF034616221A607B68002B5BD0EFF38C
:103480001183BB61BB69DBB2FB7510233B613B69F8
:1034900083F31188FB7DFB777B681B881BB2002BB5
:1034A0000FDD7B681B889BB2013B9AB27B681A8058
:1034B000786800F07DFB3B6A00225A6400237B623F
:1034C00032E03B6A5B6C002B03D01E488E21FEF776
:1034D00077FA7B681B889BB2013B9AB27B681A80A3
:1034E0003B6A7A685A6401F095FB786800F07EFBCD
:1034F000FFF76AFF034600221A60386A052104F0CC
:103500004BFFFFF761FF03461B68042B0AD0FFF750
:103510005BFF03461B686E2B04D0786800F048FB05
:1035200000237B6201F09EFBFB7FFB73FB7BBB6098
:10353000BB6883F311887B6A18462837BD4680BD77
:10354000AC9A002034E9020880B58AB000AF7860F8
:1035500000237B624FF0FF333B627B68002B4FD030
:10356000EFF31183BB61BB69DBB2FB7510233B61D9
:103570003B6983F31188FB7DFB777B681B881AB25C
:1035800047F6FF739A4203D120487821FEF718FAD4
:10359000786800F03FFB7B681B889BB201339AB2CE
:1035A0007B681A8001F036FB7B681B881BB2002BFE
:1035B00017DC174B1B687B6202E07B6A1B687B622F
:1035C0007B6A002B04D07B6A5A6C7B689A42F4D1E8
:1035D0007B6A002B05D07B6A00225A64786A05F06A
:1035E0002DFA786A796800F035FB01F03BFB002387
:1035F0003B62FB7FFB73FB7BBB60BB6883F3118883
:103600003B6A18462837BD4680BD00BF4CE902081A
:10361000A49A002080B500AF00F082FA80BD00BF00
:1036200080B584B000AF7860104B1B68FB60FB680E
:10363000002B0ED0FB681A680C4B1A607B685A6826
:10364000FB681A607B68FA685A60FB6800221A817E
:1036500006E003200649074A02F0BCFD0023FB6098
:10366000FB6818461037BD4680BD00BF88070020A4
:1036700064E9020860EA020880B485B000AF7860AF
:1036800039607B685B68FB6009E0FB685A683B68EF
:103690009A4201D1FB6806E0FB681B68FB60FB688F
:1036A000002BF2D1002318461437BD465DF8047B89
:1036B000704700BF80B584B000AF7860396078682B
:1036C0003968FFF7D9FFF860FB68002B03D17868F1
:1036D000FFF7A6FFF860FB6818461037BD4680BDAF
:1036E00080B485B000AF786039603B6800225A60D2
:1036F0003B6800221A810023BB607B685B68FB602B
:1037000004E0FB68BB60FB681B68FB60FB68002B88
:1037100003D0FA683B689A42F3D1FB68002B12D0C1
:10372000BB68002B04D03B681A68BB681A6003E0D2
:103730003B681A687B685A60054B1A683B681A60D8
:10374000034B3A681A601437BD465DF8047B704736
:103750008807002080B588B000AFF860B9607A6053
:103760000023BB61FB685B68FB610EE0FB691B68C3
:103770007B61FB695B68002B05D0BB68F869F96861
:103780007A689847B8617B69FB61FB69002B02D0BE
:10379000BB69002BEAD0BB6918462037BD4680BD07
:1037A00080B584B000AFF860B9607A60B868F96835
:1037B000FFF796FF002318461037BD4680BD00BFB7
:1037C00080B586B000AFF860B9607A60FB685B686E
:1037D0007B617B683B61786901F0ECF80346002B64
:1037E0000AD103202649274A7B6902F0F3FCB86816
:1037F000F968FFF775FF3EE03B691A7E7B6993F835
:103800002A309A4237D93B691A7E7B691B7E9A42DD
:1038100024D97B691A7E7B6993F82A309A4216D99B
:103820007B695B7E0F2B0DD87B695B7E7A69127E8C
:1038300079690B449A767B695B7E0133DAB27B69E6
:103840005A7604E0032010490E4A02F0C3FC3B699B
:103850001B7E7869194601F03DF90CE07B695B7EBF
:103860003A69127E79690B449A767B695B7E0133F3
:10387000DAB27B695A76002318461837BD4680BDF8
:103880008CE9020820EA0208BCE9020880B485B08D
:1038900000AFF860B9607A60002318461437BD465F
:1038A0005DF8047B704700BF80B58AB000AFF86058
:1038B000B9607A60FB685B68FB617B68BB61F86933
:1038C00001F078F80346002B0AD103204C494D4AF9
:1038D000FB6902F07FFCB868F968FFF701FF89E037
:1038E000FB691A7EFB6993F82A309A4200F08280C5
:1038F000FB695B7E002B10D1FB695B7E002B04D043
:1039000041484FF4EC71FEF75BF8FB6993F82A30FD
:10391000F869194601F0FCF96CE0FB691A7EBB6995
:103920001B7E9A423BD801237B6200233B6210E05E
:10393000FA697B6A134418339A78F9693B6A0B4435
:1039400018339B789A4201D97B6A3B627B6A0133C8
:103950007B62FB695B7E1A467B6A9A42E8DCFA6905
:103960003B6A134418339B787B61FB695B7E013BA8
:103970007B627B6A002B09DDFA697B6A134418338A
:103980009A78F9693B6A0B4418339A707B6ADAB209
:10399000FB695A76F869796901F09CF82AE00023FE
:1039A0007B6221E0FA697B6A134418339A78BB6919
:1039B0001B7E9A4215D1FB695B7E013B3B623B6AF1
:1039C000002B09DDFA693B6A134418339A78F969C8
:1039D0007B6A0B4418339A703B6ADAB2FB695A76F9
:1039E00008E07B6A01337B62FB695B7E1A467B6A77
:1039F0009A42D7DC002318462837BD4680BD00BF59
:103A00008CE9020834EA0208E0E9020880B586B0D1
:103A100000AFF860B9607A60094B1B687B61FB6896
:103A20005A687B699A4206D0F868B9687A68FFF7E5
:103A30003BFF034600E0002318461837BD4680BD13
:103A4000AC9A002080B586B000AFF860B9607A60AB
:103A5000094B1B687B61FB685A687B699A4206D1F7
:103A6000F868B9687A68FFF71FFF012300E00023B8
:103A700018461837BD4680BDAC9A002080B582B08C
:103A800000AF786039607B68002B05D03868064944
:103A90007A68FFF75FFE04E0386804490022FFF708
:103AA00059FE0837BD4680BDA93800088D3800088A
:103AB00080B584B000AF78603960154B1B68FB603F
:103AC0007B68002B0AD0386812497A68FFF742FEFB
:103AD000386811497A68FFF73DFE04E038680F49FD
:103AE0000022FFF737FE3868F968FFF7C5FDB860B8
:103AF000BB68002B08D0BB681B891BB2002B03DC02
:103B00003868B968FFF7ECFD1037BD4680BD00BFCF
:103B1000AC9A00200D3A0008453A00088D3800089C
:103B200080B483B000AF124B124A1A6000237B604E
:103B300012E07B685A1C13465B0013449B000D4A3D
:103B400099180C487A6813465B0013449B000344A1
:103B500019607B6801337B607B680E2BE9DD054BC8
:103B60000022C3F8B4200C37BD465DF8047B7047D3
:103B700088070020C806002080B582B000AF7860BA
:103B80007B685B68002B09D003200649064A02F0D7
:103B900021FB786805490022FFF7DCFD0837BD46A8
:103BA00080BD00BFF8E902084CEA0208A13700080E
:103BB00080B584B000AF78600B4B1B68FB60786801
:103BC000F968FFF777FDB860BB68002B09D0BB68C8
:103BD000FA685A60BB681B899BB201339AB2BB6812
:103BE0001A811037BD4680BDAC9A002080B584B0E4
:103BF00000AF7860054B1B68FB6078680449FA6881
:103C0000FFF7A8FD1037BD4680BD00BFAC9A00206D
:103C1000C137000880B584B000AF78600C4B1B68DA
:103C2000FB607868F968FFF727FDB860BB68002B78
:103C30000BD0BB681B891BB2002B06DDBB681B8940
:103C40009BB2013B9AB2BB681A811037BD4680BD5A
:103C5000AC9A002080B582B000AF786039603B68D4
:103C60001B881BB2002B02DD7B68002B0CD03B684D
:103C70001B881BB2002B02DC7B68002B04D10B4895
:103C800040F2D331FDF79CFE04F0C0FC0346002B4C
:103C900004D078683968FFF7F1FE03E07868396886
:103CA000FFF706FF0837BD4680BD00BFE0E9020808
:103CB00080B582B000AF786039603B681B881BB26A
:103CC000002B04DD064840F2FF31FDF779FE38682D
:103CD00004497A68FFF73EFD0837BD4680BD00BF46
:103CE000E0E90208A938000880B58EB000AFF8609E
:103CF000B9607A602A4B1B683B6300237B6300F04A
:103D000089FF3B6B9B6CFB627B68002B02D07B685E
:103D1000FA6A1A60BB68002B3AD0EFF311837B621A
:103D20007B6ADBB287F823301023FB61FB6983F3E6
:103D3000118897F8233087F82B30FB68022B0BD0C3
:103D4000032B12D0012B15D13B6B9A6CBB681B68FF
:103D50001A433B6B9A6411E03B6B9A6CBB681B681F
:103D6000DB431A403B6B9A6408E0BB681A683B6B04
:103D70009A6403E04FF0FF337B6300BF97F82B306A
:103D8000FB76FB7E7B617B6983F3118800F00AF888
:103D900000F068FF7B6B18463837BD4680BD00BF1A
:103DA000AC9A002090B585B000AF1B4B1B68FB6040
:103DB00000F030FFFB689B6CDC43F86801F0A4FA6C
:103DC000034623403B601EE03B46184600F0CCF81B
:103DD000B860BB68B3F1FF3F15D03B461846B968E1
:103DE00002F08EFBF868B96800F018F878607B681C
:103DF000002B08D07B680433F868194600F0F6F908
:103E0000786800F05DF83B68002BDDD100F02AFFF8
:103E10001437BD4690BD00BFAC9A002080B58CB071
:103E200000AF786039607B689B687B627B6A002B9F
:103E300003D122485E21FDF7C3FDEFF31183FB613F
:103E4000FB69DBB2FB7610237B617B6983F311880E
:103E5000FB7E87F823300023BB627B6A5B6AFB62D0
:103E600004E0FB6ABB62FB6A1B68FB62FB6A002B17
:103E700005D0FB6A1B791A463B689A42F1D1FB6A6E
:103E8000002B0ED0BB6A002B06D07B6A2433B86AA5
:103E9000194602F035FC04E07B6A2433184602F030
:103EA0000FFC97F82330FB74FB7CFB60FB6883F30B
:103EB0001188FB6A18463037BD4680BD70EA02089B
:103EC00080B58EB000AF78607B681B7B002B1ED165
:103ED000EFF311833B633B6BDBB287F82F3010238A
:103EE000BB62BB6A83F3118897F82F3087F83730AD
:103EF00078681B4902F08CFB97F8373087F8273039
:103F000097F827303B623B6A83F3118825E07B6892
:103F10001B7B022B1AD1EFF31183FB61FB69DBB230
:103F2000FB7610237B617B6983F31188FB7E87F826
:103F3000373078680B4902F06BFB97F83730FB7429
:103F4000FB7CFB60FB6883F3118806E07B681B7BCE
:103F5000012B02D1786800F0CBFC3837BD4680BD1C
:103F6000609D0020589D002080B584B000AF78602F
:103F70000023FB600BE07868F96802F0DFFA034683
:103F8000002B01D0FB6807E0FB680133FB60FB6896
:103F90001F2BF0DD4FF0FF3318461037BD4680BDB4
:103FA00080B58CB000AF786039600023FB6200F010
:103FB00031FE3B681B787868194601F0E5F9B86274
:103FC000BB6A002B38D0BB6A5B68002B34D001F091
:103FD000FFF978627B6A002B03D16FF00B03FB6261
:103FE0002AE0BB6A5A687B6A5A60BB6A9A687B6A35
:103FF0009A607B6A0C3318463968082202F020FA6E
:10400000EFF31183FB61FB69DBB2FB7610237B616D
:104010007B6983F31188FB7E87F823307B685833F4
:10402000786A194602F0F4FA97F82330FB74FB7CA7
:10403000FB60FB6883F3118800F014FEFB6A1846EE
:104040003037BD4680BD00BF80B588B000AF04F0FA
:10405000DDFA0346002B0BD01C4802F031FBF8615F
:10406000FB69002B2CD11A4802F02AFBF86127E0EB
:10407000EFF311837B617B69DBB2FB741023FB6080
:10408000FB6883F31188FB7CFB76104802F018FB79
:10409000F861FB7EFB72FB7A7B607B6883F311889F
:1040A000FB69002B0CD1FB69002B03D1102003F01E
:1040B0000FFCF861FB69002B02D0FB6901221A7327
:1040C000FB6918462037BD4680BD00BF609D0020BB
:1040D000589D002080B58AB000AF78603960002319
:1040E0007B627B68002B03D11748D721FDF768FC62
:1040F000EFF31183FB61FB69DBB2FB7610237B617D
:104100007B6983F31188FB7E87F823307B685B6AC9
:104110007B6202E07B6A1B687B627B6A002B05D0B6
:104120007B6A1B791A463B689A42F3D197F8233091
:10413000FB74FB7CFB60FB6883F311887B6A184689
:104140002837BD4680BD00BF94EA020880B58AB01A
:1041500000AF786039607B689B683B623B6A002BEC
:1041600003D12148F921FDF72BFC3B681B78386A05
:104170001946FFF7AFFF78627B6A002B07D07B6A96
:10418000043318463968082202F05AF926E0FFF78E
:104190005BFF78627B6A002B20D07B6A0433184671
:1041A0003968082202F04CF9EFF31183BB61BB6957
:1041B000DBB2FB7510233B613B6983F31188FB7D08
:1041C000FB773B6A2433786A194602F021FAFB7FB9
:1041D000FB73FB7BBB60BB6883F311887B6A18466B
:1041E0002837BD4680BD00BF94EA020880B594B070
:1041F00004AF786039600023FB633B681B78184686
:104200003B685B7819463B685A687B689B6C0090FA
:1042100001910292039303205C495D4A7B6801F09F
:10422000D9FF7B68002B02D03B68002B04D1594892
:104230004FF4A071FDF7C4FB7B6803F148023B68B3
:104240001B781046194602F079F90346002B4FD02F
:10425000EFF311837B637B6BDBB287F83330102382
:10426000FB62FB6A83F3118897F8333087F83B30A1
:104270007B6893F82B30062B24D17B6803F14C022A
:104280003B681B781046194602F058F90346002B8C
:1042900018D07B68683318463968082202F0D0F8D5
:1042A0007B680022DA64786804F0C8FB97F83B303A
:1042B00087F82B3097F82B307B627B6A83F3118869
:1042C00000BF5DE097F83B3087F8233097F8233044
:1042D000FB61FB6983F3118878683968FFF736FF63
:1042E0000346002B4CD12B484FF4B071FDF768FB0F
:1042F00078683968FFF754FEF8637868264904F057
:1043000067FAEFF31183BB61BB69DBB2FB75102366
:104310003B613B6983F31188FB7D87F83B307B6809
:1043200093F82B30062B0CD17B686833184639681C
:10433000082202F085F87B680022DA64786804F0CD
:104340007DFB97F83B30FB73FB7BBB60BB6883F363
:1043500011887B6893F82B30052B03D178680421F2
:1043600000F09AFE7B6893F82B30072B04D07B6813
:1043700093F82B30082B03D17868042100F0B6F8AD
:10438000FB6B18464037BD4680BD00BFACEA020853
:10439000E0EA020894EA0208D543000880B584B038
:1043A00000AF03463960FB80B7F90630184600F0CD
:1043B000D3FAF860FB68002B02D16FF0020304E02F
:1043C000F8683968FFF712FF034618461037BD46F4
:1043D00080BD00BF80B592B000AF786000F01AFCDD
:1043E0007B685B6F3B647B689B6D7B646EE07B6C82
:1043F0001B68FB6303203B493B4A7B6C01F0EAFEF0
:10440000EFF311833B633B6BDBB287F82F30102354
:10441000BB62BB6A83F3118897F82F3087F83B3073
:104420007B685833786C194602F012F97B68603368
:10443000786C194602F0ECF897F83B3087F8273093
:1044400097F827303B623B6A83F311887B689B6C4B
:104450007B637B6C9A687B6B1A437B6C1B7B0121B3
:1044600001FA03F31A437B689A647B6C5B687A6C8D
:10447000127B11467A6C0C3208461146002298478E
:104480007B687A6B9A64FFF78DFCEFF31183FB6115
:10449000FB69DBB2FB7610237B617B6983F31188B8
:1044A000FB7E87F83B307B686033786C194602F0FE
:1044B000CFF897F83B30FB74FB7CFB60FB6883F321
:1044C0001188786C00F0CAFFFB6B7B647B6C002B5F
:1044D0008DD17B683A6C5A6700F0C4FB4837BD4603
:1044E00080BD00BFF0EA020810EB020880B58AB078
:1044F00000AF78603960EFF31183FB61FB69DBB2D9
:10450000FB7610237B617B6983F31188FB7E87F840
:1045100027307B6893F82B30072B04D07B6893F807
:104520002B30082B38D17B681B6F3B623B6A002B1A
:1045300003D11F487421FDF743FA7B6800221A67F4
:104540007B6893F82B30072B10D13B6A5B8A1BB238
:10455000002B03DC16487C21FDF732FA3B6A5B8AAC
:104560009BB2013B9AB23B6A5A820FE03B6A1B8ABC
:104570001BB2002B03DC0E488121FDF721FA3B6AB8
:104580001B8A9BB2013B9AB23B6A1A827B683A68EB
:104590005A67786804F052FA97F82730FB74FB7C6E
:1045A000FB60FB6883F311882837BD4680BD00BFE0
:1045B0001CEB020880B586B000AF7860214B1B6809
:1045C0003B610023FB6000237B617B68002B06D0EE
:1045D0003B69002B03D03B699B68002B03D11A4831
:1045E0005921FDF7EDF900F015FB3B699B68002BA5
:1045F00021D03B699B681B6B002B1CD03B699B68DF
:10460000DB6ABB60B86803F063F9F860FB68002BF5
:1046100003D16FF00B037B610DE07B68BA68DA624F
:104620007B68FA681A633B699B681B6BF8681946DC
:10463000BA6801F005FF00F015FB7B6918461837D2
:10464000BD4680BDAC9A002030EB020880B582B038
:1046500000AF7860396000F045F9044B1B680348EF
:104660001946002200F0D6FFF5E700BFA09B00200E
:1046700080B584B002AF234B05221A60214B002283
:104680005A60204B00229A6007201F491F4A01F000
:10469000A1FD002300931E48E0214FF400621D4B52
:1046A000FEF742FC0346FB80B7F90630002B03DC23
:1046B0001948AE21FDF784F9B7F90630002B14DA5A
:1046C000FEF782FE03461B683B603B68002B03DC61
:1046D0001148B221FDF774F9032010490B4A3B68D9
:1046E00001F0C2FD3B685B4207E0064BFA889A8105
:1046F000044B01229A73B7F9063018460837BD46B5
:1047000080BD00BFA09B002044EB0208B8EB02086C
:1047100078EB02084D46000880EB020898EB02088F
:1047200080B483B000AF00237B6007E0074B7A685A
:10473000074943F822107B6801337B607B68612B5B
:10474000F4DD0C37BD465DF8047B7047B09B00205C
:10475000452C000880B582B000AF78607B68002BE4
:1047600003D07B689B68002B03D10E484D21FDF7D9
:1047700027F97B689B68184602F03AF8002001216F
:104780007A6816F03FF8012006217A6816F03AF8A8
:10479000022006217A6816F035F8002318460837FB
:1047A000BD4680BDC8EB020880B586B000AF78601A
:1047B0001C4B1B683B617B68002B07D07B689B68A8
:1047C000002B03D03B699B68002B03D11648612165
:1047D000FDF7F6F83B699B683C33FB607B689B68A0
:1047E0003C33BB6000237B6115E07B691B01FA68E9
:1047F00013449B68002B0BD07B691B01FA681A4499
:104800007B691B01B9680B441046194614F03AFF46
:104810007B6901337B617B69072BE6DD1837BD4679
:1048200080BD00BFAC9A0020E4EB020880B584B0E4
:1048300000AF78607B689B68FB60FB68002B03D14E
:104840001148D621FDF7BCF87B689B8D03F003036C
:10485000012B03D10C48D921FDF7B2F8FB683433A2
:10486000184614F0D3FEFB6803F5097318460FF0E1
:104870006FF87868FFF798FF7868FFF76BFF0346DB
:1048800018461037BD4680BDE4EB020880B588B0FD
:1048900000AF1DE0EFF311837B617B69DBB2FB743A
:1048A0001023FB60FB6883F31188FB7CFB770C48CB
:1048B00001F006FFB861FB7FFB72FB7A7B607B68CF
:1048C00083F31188BB69002B02D0B86902F0F2FFB4
:1048D000034B1B68002BDDD12037BD4680BD00BFD8
:1048E000989B002080B500AFFFF7D0FF80BD00BFD0
:1048F00080B588B000AF786003F088FE0346002BD7
:1049000004D102F0C5FF0346002B1BD0EFF3118347
:10491000BB61BB69DBB2FB7510233B613B6983F371
:104920001188FB7DFB7778680A4901F071FE002051
:1049300000F024FFFB7FFB73FB7BBB60BB6883F352
:10494000118804E0786802F0B5FF02F0ABFF203771
:10495000BD4680BD989B002080B485B000AF034663
:10496000FB800023FB60B7F90630002B19DBFB88C6
:1049700003F00F03BB600E49BA6813465B00134493
:104980009B000B449B88B7F906201BB29A4208D1C2
:104990000749BA6813465B0013449B000B441B682D
:1049A000FB60FB6818461437BD465DF8047B704712
:1049B000CC9A002080B483B000AF78607B689B897C
:1049C0009BB203F00F02094913465B0013449B009E
:1049D0000B441A687B689A4214BF00230123DBB2A0
:1049E00018460C37BD465DF8047B7047CC9A002012
:1049F00080B485B000AF0346FB80FB8803F00F0353
:104A0000FB601849FA6813465B0013449B000B4493
:104A100000221A601349FA6813465B0013449B0096
:104A20000B444FF6FF729A800F4B19680D48FA68D5
:104A300013465B0013449B00034408331B68CA1AE7
:104A4000094B1A600749FA6813465B0013449B0040
:104A50000B44083300221A601437BD465DF8047B0E
:104A6000704700BFCC9A00203C9D002080B584B0E8
:104A700000AF78600B46FB700023FB607B68002B67
:104A800021D0134B002B05D07B689B891BB21846A5
:104A9000AFF300807B689B89002B05D07B689B89E6
:104AA0001BB21846FFF7A4FF7B68DB6B002B04D01A
:104AB000FB787868194603F0FFFD786800F0AAFEDD
:104AC0007868FFF715FFFB6818461037BD4680BDB4
:104AD0000000000080B58AB000AF786039604A4BB2
:104AE0001B687B623B68002B02DD3B68FF2B07DD08
:104AF000FEF76AFC034616221A604FF0FF337EE091
:104B0000EFF31183FB61FB69DBB2FB7610237B6162
:104B10007B6983F31188FB7E87F823307B6893F8E9
:104B20002B3087F8223097F82230022B14D0032B39
:104B300038D17B681B681B7E1A463B689A4206DBAD
:104B40003B68DBB27868194603F0CEFD4EE03B6867
:104B5000DAB27B681A7649E07B6A1B7E1A463B68AC
:104B60009A4206DA3B68DBB27868194603F0BCFD6E
:104B700017E0786800F0C2FE0346002B03D02348FC
:104B8000B721FCF71DFF3B68DAB27B681A767868BC
:104B900000F068FE0346002B03D01C48BF21FCF741
:104BA0000FFF23E097F82230194ADB0013441B79EA
:104BB000002B16D097F82220154B53F83230786826
:104BC000194601F0EBFD3B68DAB27B681A7697F87C
:104BD00022200F4B53F832307868194600F0BCFEA3
:104BE00003E03B68DAB27B681A7600BF97F823309F
:104BF000FB74FB7CFB60FB6883F311880023184681
:104C00002837BD4680BD00BFAC9A002004EC0208E6
:104C100008E7020880B582B000AF104B1B687B60CC
:104C20007B68002B14D003F0F1FC0346002B0FD15E
:104C30007B68DB8D1BB27E2B03DD09486921FCF705
:104C4000BFFE7B68DB8D9BB201339AB27B68DA854D
:104C5000002318460837BD4680BD00BFAC9A00202F
:104C600020EC020880B588B000AF274B1B68FB61C1
:104C7000FB69002B43D003F0C9FC0346002B3ED157
:104C8000EFF311837B617B69DBB2FB741023FB6064
:104C9000FB6883F31188FB7CFB76FB69DB8D002BC3
:104CA00006D0FB69DB8D9BB2013B9AB2FB69DA85CA
:104CB000FB69DB8D1BB2002B1ADCFB690022DA8555
:104CC000124B1B68002B01D003F0B0FCFB699B8DDD
:104CD00003F01003002B0BD0FB691B6B002B07D1DB
:104CE000094B1A68FB699A4202D0FB6914221A63C5
:104CF000FB7EFB72FB7A7B607B6883F31188002369
:104D000018462037BD4680BDAC9A00208C9B002001
:104D100080B584B000AF7860396078683968FFF793
:104D2000D9FEF860FB68002B07D13B68DAB27B68DC
:104D300083F82A207B6800225A76FB6818461037D1
:104D4000BD4680BD80B485B000AF2A4B1B687B6038
:104D50007B689B899BB203F00F033B6026493A684E
:104D600013465B0013449B000B4408331B68591C1B
:104D700021483A6813465B0013449B000344083300
:104D800019601E4B1B6801331C4A1360C82B2CD9B9
:104D90000023BB600023FB6021E01749FA6813463B
:104DA0005B0013449B000B4408331B6859081248EE
:104DB000FA6813465B0013449B00034408331960F0
:104DC0000D49FA6813465B0013449B000B440833FB
:104DD0001B68BA681344BB60FB680133FB60FB6867
:104DE0000F2BDADD054BBA681A601437BD465DF843
:104DF000047B7047AC9A0020CC9A00203C9D002098
:104E000080B58AB000AF786039607B6803F00F032B
:104E10003B626FF002037B623B68002B03D12248A8
:104E2000B321FCF7CDFDEFF31183BB61BB69DBB2AE
:104E3000FB7510233B613B6983F31188FB7DFB7796
:104E40001A493A6A13465B0013449B000B441B68E3
:104E5000002B1CD015493A6A13465B0013449B0093
:104E60000B449B881AB27B689A4210D1104B1A6887
:104E70003B681A600D493A6A13465B0013449B0075
:104E80000B4408331A683B685A6000237B62FB7F3F
:104E9000FB73FB7BBB60BB6883F311887B6A18469E
:104EA0002837BD4680BD00BF34EC0208CC9A0020F4
:104EB0003C9D002080B584B000AF786039607B688D
:104EC0009B68FB60FB68002B20D07B689B8D03F008
:104ED0000303012B08D0FB68DB68002B04D0FB68C0
:104EE000DB683A6812021A60FB685B78012B0DD10F
:104EF000FB680022DA6004E0FB6804331846FEF722
:104F000023FBFB689B881BB2002BF5DB1037BD46EB
:104F100080BD00BF80B584B000AF78607B689B68BF
:104F2000FB60FB68002B09D0FB685B78012B05D187
:104F30007B689B68BC33184601F016F81037BD46F5
:104F400080BD00BF80B584B000AFF860B960134683
:104F5000FB71FB689B8D03F02003002B00D019E050
:104F6000F86800F01BF8F868B968FFF7A3FFFB7951
:104F7000002B02D1F868FFF7CDFFF86800F04AFC7B
:104F8000F86800F0BFFAFB689B8D43F020039AB2EB
:104F9000FB689A851037BD4680BD00BF80B582B0E2
:104FA00000AF7860786800F009F8786800F032F8AF
:104FB000786800F0F1FA0837BD4680BD80B588B04A
:104FC00000AF7860EFF31183BB61BB69DBB2FB75A7
:104FD00010233B613B6983F31188FB7DFB777B6882
:104FE0005B6B002B0CD07B685B6B184600F022FDDE
:104FF0007B685B6B184600F089FD7B6800225A6372
:10500000FB7FFB73FB7BBB60BB6883F3118820379E
:10501000BD4680BD80B58AB000AF7860EFF31183E4
:10502000FB61FB69DBB2FB7610237B617B6983F359
:105030001188FB7E87F827307B6893F82B30052B8F
:105040001CD17B685B6C3B623B6A002B04D03B6AE3
:105050001B881BB2002B03DB0E487A21FCF7B0FC47
:105060007868396AFEF724FE3B6A1B889BB20133DD
:105070009AB23B6A1A807B6800225A6497F82730FC
:10508000FB74FB7CFB60FB6883F311882837BD460B
:1050900080BD00BF4CEC020880B58AB000AF7860DC
:1050A0003960EFF31183FB61FB69DBB2FB76102300
:1050B0007B617B6983F31188FB7E87F827307B68EF
:1050C00093F82B30052B22D17B685B6C3B623B6AEB
:1050D000002B04D03B6A1B881BB2002B03DB11485A
:1050E0007421FCF76DFC7868396AFEF7E1FD3B6AD4
:1050F0001B889BB201339AB23B6A1A807B680022FC
:105100005A647B683A685A67786803F097FC97F8A6
:105110002730FB74FB7CFB60FB6883F31188283726
:10512000BD4680BD64EC020880B586B000AF7860F3
:1051300013460A467A807B707A8813465B001344D4
:10514000DB00184602F0C4FBF860FB687B610023BB
:105150003B610DE07B697A781A757B6903F118026F
:105160007A611846796801F053FA3B6901333B6173
:105170007A883B699A42EDDCFB6818461837BD46D1
:1051800080BD00BF80B586B000AF786013460A4688
:105190007A807B707B881B01184602F099FBF860CF
:1051A000FB687B6100233B610DE07B697A781A73B1
:1051B0007B6903F110027A611846796801F028FAD8
:1051C0003B6901333B617A883B699A42EDDCFB68BD
:1051D00018461837BD4680BD80B500AF204B002271
:1051E0001A601F4B00225A601E4B00221A601D4B92
:1051F00000225A601C4B00221A601B4B00225A608E
:105200001A4B00221A60194B00225A60184B0022D8
:105210001A60174B00225A60124810210022FFF733
:1052200083FF0246134B1A600F4808210222FFF742
:105230007BFF0246104B1A6000F024F80B48102147
:105240000022FFF79FFF02460C4B1A600848082116
:105250000222FFF797FF0246094B1A6080BD00BF8C
:10526000409D0020489D0020509D0020609D002012
:10527000589D0020900700209407002098070020E8
:105280009C07002080B582B000AF4FF4A07002F000
:105290001FFB02460C4B1A600B4B1B687B60002304
:1052A0003B600AE07B6803F114027A601846074904
:1052B00001F0AEF93B6801333B603B680F2BF1DD39
:1052C0000837BD4680BD00BF8C070020409D0020F0
:1052D00080B584B000AF78600A4B1B68BB604FF0AC
:1052E000FF33FB607B68002B07D0B86800F00CF838
:1052F00002467B681A600023FB60FB681846103783
:10530000BD4680BDAC9A002080B58CB000AF7860FF
:105310007B689B68BB62BB6A002B03D1194877216D
:10532000FCF74EFB0023FB60EFF311833B623B6A0B
:10533000DBB2FB771023BB61BB6983F31188FB7F72
:1053400087F82730BB6A5B6AFB620AE0FB6A1B795D
:1053500007F10C021046194601F0B4F8FB6A1B680D
:10536000FB62FB6A002BF1D197F82730FB75FB7DC0
:105370003B613B6983F31188FB6818463037BD46B3
:1053800080BD00BF7CEC020880B584B000AF7860BF
:1053900039600023FB607B68002B13D0FFF73AFCD9
:1053A0007B681B6DFB6002E0FB681B68FB60FB68B1
:1053B000002B05D0FB681B7C1A463B689A42F3D150
:1053C000FFF750FCFB6818461037BD4680BD00BF94
:1053D00080B588B000AF03F019F90346002B0BD05D
:1053E0001C4801F06DF9F861FB69002B2CD11A48BB
:1053F00001F066F9F86127E0EFF311837B617B69C7
:10540000DBB2FB741023FB60FB6883F31188FB7C29
:10541000FB76104801F054F9F861FB7EFB72FB7AD1
:105420007B607B6883F31188FB69002B0CD1FB69DF
:10543000002B03D1182002F04BFAF861FB69002B16
:1054400002D0FB6901221A75FB6918462037BD4658
:1054500080BD00BF489D0020509D002080B58EB0CB
:1054600000AF78607B681B7D002B1ED1EFF31183AA
:105470003B633B6BDBB287F82F301023BB62BB6A08
:1054800083F3118897F82F3087F8373078681B49F5
:1054900001F0BEF897F8373087F8273097F82730B3
:1054A0003B623B6A83F3118825E07B681B7D022BFE
:1054B0001AD1EFF31183FB61FB69DBB2FB7610239A
:1054C0007B617B6983F31188FB7E87F837307868CE
:1054D0000B4901F09DF897F83730FB74FB7CFB60BB
:1054E000FB6883F3118806E07B681B7D012B02D1EA
:1054F0007868FFF7FDF93837BD4680BD489D00202C
:10550000509D002080B584B000AF786002E0F8685C
:1055100000F0F6FB7B685033184601F0D1F8F860D4
:10552000FB68002BF3D102E0B868FFF797FF7B68B8
:105530005833184601F0C4F8B860BB68002BF3D1AB
:1055400002E0B868FFF78AFF7B686033184601F015
:10555000B7F8B860BB68002BF3D17B684FF0FF321F
:105560009A647B680022DA641037BD4680BD00BFB4
:1055700080B584B000AF786002E0F868FEF7A0FC68
:105580007B682433184601F09BF8F860FB68002B19
:10559000F3D11037BD4680BD80B582B000AF7860D2
:1055A0007B6893F82B30072B15D17B681B6F002B82
:1055B00005D07B681B6F5B8A1BB2002B03DC144891
:1055C0006921FCF7FDF97B681A6F538A9BB2013B96
:1055D0009BB2538219E07B6893F82B30082B14D1CF
:1055E0007B681B6F002B05D07B681B6F1B8A1BB26F
:1055F000002B03DC06487321FCF7E2F97B681A6F85
:10560000138A9BB2013B9BB213820837BD4680BD13
:1056100094EC020880B598B000AFF860B9607A6089
:10562000BB687B65EFF31183BB63BB6BDBB287F8B1
:10563000373010233B633B6B83F3118897F8373087
:1056400087F85B304C4B1B683B65FB685B68FB6510
:1056500057E0494B1B68FB64FB6D1B69FA6CD31A5E
:10566000BB64FB6D5A69BB6C9A4236D8FB68043345
:10567000F86D194601F092F8FB6D9B687B647B6CBA
:10568000002B26D0FB6DDB683B64FB6D00229A602B
:1056900097F85B3087F82F3097F82F30BB62BB6AE2
:1056A00083F311887B6C386C9847EFF311837B622E
:1056B0007B6ADBB287F823301023FB61FB6983F33D
:1056C000118897F8233087F85B30FB685B68FB65CF
:1056D00017E0FB6D1B68FB6513E0FA6C3B6DD31A9A
:1056E000BA6C1344BB64FB6D5B69BA6CD31AFB6381
:1056F000FA6B7B6D9A4201D2FB6B7B65FB6D1B687D
:10570000FB65FB6D002BA4D11B4B1A683B6DD31AB4
:10571000BB64BA6CBB689A4222D27B6D002B1FD04F
:10572000BA68BB6CD31AFB637A6DFB6B9A4238BFC5
:1057300013467B65FA687B6802339B0013440022A2
:105740009A717B6D42F2107202FB03F3184600F06F
:10575000C5FCFA687B6802339B00134401229A71EE
:1057600097F85B30FB76FB7E7B617B6983F3118866
:105770006037BD4680BD00BF689D002080B586B003
:1057800000AF78607B68002B0DD10F4B9B89FB82AB
:10579000B7F916301846112100F0C0FA38613B699C
:1057A000002B0BDA02E06FF0150308E0FDF70CFEAA
:1057B00003461B68FB60FB685B4200E00023184661
:1057C0001837BD4680BD00BFA09B002080B582B0C9
:1057D00000AF78607868FFF7CBFE786800F0DAFAFF
:1057E0007B683433184613F027FF786801F042F8DD
:1057F0007B6803F5097318460EF0B8F8786800F076
:1058000063FB786800F0F4FA7868FFF771F80837FE
:10581000BD4680BD80B584B000AF78607B68002B4A
:1058200004D10F484FF4C771FCF7CAF87B689B6836
:10583000FB60FB68002B10D0FB685B78012B06D95E
:10584000FB685B78013BDAB2FB685A7002E0F868EB
:10585000FFF7BCFF7B6800229A601037BD4680BD11
:10586000A8EC020880B584B000AF7860204B1B68BC
:10587000BB60BB68DB8D002B10D0BB681A7E7B68D9
:105880001B7E9A420AD278681A4900F065F87B6854
:10589000012283F82B200023FB7324E0786814494D
:1058A00000F05AF80346002B17D0BB68DB8D002BA5
:1058B00003D17B681B68002B03D10F488621FCF7BE
:1058C0007FF87B68032283F82B207B681B68022209
:1058D00083F82B200123FB7305E07B68022283F809
:1058E0002B200023FB73FB7B18461037BD4680BD81
:1058F000AC9A00208C9B0020BCEC020880B584B0E0
:1059000000AF78600023BB600023FB737B685B689B
:10591000002B0FD17B681B68BB60BB68002B03D1D9
:105920000B486B21FCF74CF8BB68032283F82B2053
:105930000123FB737868074900F030FF7B68002281
:1059400083F82B20FB7B18461037BD4680BD00BF77
:10595000D8EC0208AC9A002080B586B000AF786021
:1059600039607B681B7EBB740023FB74BB7C002BFF
:1059700003D12F486B21FCF723F83B681B687B6140
:1059800002E07B691B687B617B69002B04D07B692B
:105990001B7EBA7C9A42F4D97B69002B21D13B68EB
:1059A0005B68FB60FB68002B0ED17B6800221A60ED
:1059B0007B6800225A603B687A681A603B687A68A4
:1059C0005A600123FB742DE07B6800221A607B681B
:1059D000FA685A60FB687A681A603B687A685A60AD
:1059E00020E07B695B68FB60FB68002B0ED17B6865
:1059F0007A691A607B6800225A607B697A685A600B
:105A00003B687A681A600123FB740BE07B687A6953
:105A10001A607B68FA685A60FB687A681A607B696A
:105A20007A685A60FB7C18461837BD4680BD00BFB7
:105A3000F8EC020880B58CB000AF78604FF0FF330F
:105A40007B62EFF31183FB61FB69DBB2FB76102312
:105A50007B617B6983F31188FB7E87F823307B6849
:105A6000002B42D07B681B7B03F00103002B3CD052
:105A70000023BB62234B1B68FB6204E0FB6ABB6232
:105A8000FB6A1B68FB62FB6A002B03D0FA6A7B6827
:105A90009A42F3D1FB6A002B03D11B488121FBF70B
:105AA0008FFFFB6A1B68002B08D0FB6A1B68FA6A31
:105AB00012689168FA6A92680A449A60BB6A002B7D
:105AC00004D0B86A0F4900F01BFE02E00D4800F058
:105AD000F7FD7B6800221A607B681B7B23F00103C3
