:020000040800F2
:100000004C120020B1040008910100089901000879
:10001000A1010008A9010008B10100088901000838
:10002000890100088901000889010008B901000858
:10003000C101000889010008C9010008D1010008B8
:10004000D9010008E1010008E9010008F1010008F8
:10005000F901000801020008090200081102000865
:1000600019020008210200082902000831020008D4
:100070003902000841020008490200085102000844
:1000800059020008610200086902000871020008B4
:100090007902000881020008890200089102000824
:1000A00099020008A1020008A9020008B102000894
:1000B000B9020008C1020008C9020008D102000804
:1000C000D9020008E1020008E9020008F102000874
:1000D000F9020008010300080903000811030008E1
:1000E0001903000821030008290300083103000850
:1000F00039030008410300084903000851030008C0
:10010000590300086103000869030008710300082F
:10011000790300088103000889030008910300089F
:1001200099030008A1030008A9030008B10300080F
:10013000B9030008C1030008C9030008D10300087F
:10014000D9030008E1030008E9030008F1030008EF
:10015000F90300080104000809040008110400085C
:1001600019040008210400082904000831040008CB
:10017000390400084104000849040008510400083B
:1001800059040008610400084FF0000000F06CB949
:100190004FF0020000F068B94FF0030000F064B9BE
:1001A0004FF0040000F060B94FF0050000F05CB9BA
:1001B0004FF0060000F058B94FF00B0000F054B9B2
:1001C0004FF00C0000F050B94FF00E0000F04CB9A9
:1001D0004FF00F0000F048B94FF0100000F044B9A4
:1001E0004FF0110000F040B94FF0120000F03CB9A0
:1001F0004FF0130000F038B94FF0140000F034B99C
:100200004FF0150000F030B94FF0160000F02CB997
:100210004FF0170000F028B94FF0180000F024B993
:100220004FF0190000F020B94FF01A0000F01CB98F
:100230004FF01B0000F018B94FF01C0000F014B98B
:100240004FF01D0000F010B94FF01E0000F00CB987
:100250004FF01F0000F008B94FF0200000F004B983
:100260004FF0210000F000B94FF0220000F0FCB880
:100270004FF0230000F0F8B84FF0240000F0F4B87D
:100280004FF0250000F0F0B84FF0260000F0ECB879
:100290004FF0270000F0E8B84FF0280000F0E4B875
:1002A0004FF0290000F0E0B84FF02A0000F0DCB871
:1002B0004FF02B0000F0D8B84FF02C0000F0D4B86D
:1002C0004FF02D0000F0D0B84FF02E0000F0CCB869
:1002D0004FF02F0000F0C8B84FF0300000F0C4B865
:1002E0004FF0310000F0C0B84FF0320000F0BCB861
:1002F0004FF0330000F0B8B84FF0340000F0B4B85D
:100300004FF0350000F0B0B84FF0360000F0ACB858
:100310004FF0370000F0A8B84FF0380000F0A4B854
:100320004FF0390000F0A0B84FF03A0000F09CB850
:100330004FF03B0000F098B84FF03C0000F094B84C
:100340004FF03D0000F090B84FF03E0000F08CB848
:100350004FF03F0000F088B84FF0400000F084B844
:100360004FF0410000F080B84FF0420000F07CB840
:100370004FF0430000F078B84FF0440000F074B83C
:100380004FF0450000F070B84FF0460000F06CB838
:100390004FF0470000F068B84FF0480000F064B834
:1003A0004FF0490000F060B84FF04A0000F05CB830
:1003B0004FF04B0000F058B84FF04C0000F054B82C
:1003C0004FF04D0000F050B84FF04E0000F04CB828
:1003D0004FF04F0000F048B84FF0500000F044B824
:1003E0004FF0510000F040B84FF0520000F03CB820
:1003F0004FF0530000F038B84FF0540000F034B81C
:100400004FF0550000F030B84FF0560000F02CB817
:100410004FF0570000F028B84FF0580000F024B813
:100420004FF0590000F020B84FF05A0000F01CB80F
:100430004FF05B0000F018B84FF05C0000F014B80B
:100440004FF05D0000F010B84FF05E0000F00CB807
:100450004FF05F0000F008B84FF0600000F004B803
:100460004FF0610000F000B86A4602F12002EFF39D
:1004700010832DE9FC0F72B6694600F0C9FB69468E
:10048000884209D000F1280191E8F00F016821E9C4
:10049000F00F90E8FC0F01E0B1E8FC0F81F3088851
:1004A000DFF808E083F3108870470000F9FFFFFFD2
:1004B00008B500F027F800F0ADF900F0B9F80C4AE3
:1004C0000C4B9A424FF0000302D242F8043BF7E78C
:1004D000094A0A499818884204D20949595899503A
:1004E0000433F5E700F028FB00F07EFF00F0F4FF96
:1004F00034030020500E00200000002034030020B0
:10050000F42D010813B53C4A3C4C136843F0010339
:1005100013603B4B00201860116821F0847121F0BA
:100520000111116037490C60146824F480241460B0
:10053000354C2060106840F480301060334A0192DE
:100540000846019A002A07DD2B4A1268940303D457
:10055000019A013A0192F4E7019A002A2C4A18DC28
:100560002C492D4B086803430B602C4B196841F054
:1005700080011960136843F0805343F488231360AB
:10058000274A136843F4904343F02003136002B0FA
:1005900010BD116841F08051116022490C6844F48B
:1005A00080440C60196821F0F0011960196821F489
:1005B000604141F400411960196821F4E05141F4AF
:1005C000A0511960184901600B49086840F080701B
:1005D000086008688001FCD5144940F20560086095
:1005E000196821F0030141F002011960196801F056
:1005F0000C010829FAD1B3E700380240103000247A
:1006000008380240043802400C38024014821900B5
:100610004038024030380240FF0140003438024088
:10062000443802400070004019544007003C02402A
:100630007047C0F30313082B0AD8064A00F00F00D6
:1006400052F82320012301B9103003FA00F0906121
:10065000704700BF141501082DE9F84FC0F30316C9
:10066000082E00F2A880564B00F44022B2F5002F6D
:1006700053F8263000F00F0109D0B2F5402F08D012
:10068000B2F5802ADAF1000252EB0A0202E00222FD
:1006900000E00322EFF3108872B603274C001D68B8
:1006A000A740FF433D4002FA04FC4CEA0505032A3B
:1006B0001D600CD000F44035B5F5803F05D0B5F590
:1006C000003F0CBF0225002502E0012500E00025C7
:1006D000D3F80CC0022A0CEA070C05FA04F545EA27
:1006E0000C050CBFC0F303394FF000090729DD608A
:1006F0008BBF24252025A1F1080C8C464FEA8C0CD9
:1007000055F803B04FF00F0A0AFA0CFA2BEA0A0A5E
:1007100009FA0CF94AEA090C45F803C002F1FF3C5A
:10072000BCF1010F12D800F44065B5F5006F09D097
:10073000B5F5406F08D0B5F58069D9F1000555EBE6
:10074000090504E0022502E0032500E00025D3F8B6
:10075000089005FA04F409EA07073C4301259C6068
:10076000AC455C6805FA01F103D8850501D5214344
:1007700001E024EA0101012A596004D1C0F30021FB
:10078000FFF757FF10E0C3050ED500F00C020D4B2C
:1007900000F003008000D4580F21814024EA0101B9
:1007A000864041EA0600D05018F0010F00D162B631
:1007B0000020BDE8F88F6FF01500BDE8F88F00BF8E
:1007C0001415010808380140C0B2FFF745BFC0F357
:1007D0000313082B0DD8084A52F8233000F00F00FD
:1007E0001B69012202FA00F003420CBF0020012025
:1007F00070470020704700BF14150108034B1B68A9
:100800001B06FBD5024B1860704700BF0014014067
:100810000414014008B500212022154800F0EAF92F
:100820001448FFF719FF1448FFF716FF134B14493C
:100830001A6822F47D521A6053F8042C22F4BB5239
:1008400022F01C0243F8042C0A6822F4E06222F031
:1008500001020A600B4A40F2D921116053F8042CBE
:1008600042F4005242F00C0243F8042C08BD00BFD1
:10087000443802406E8C0900698C09001014014054
:10088000141401400814014010B5036C8185DA6826
:1008900001F4D07422F4D0722243DA60036C5A69F6
:1008A00001F0010122F001021143596110BD6FF006
:1008B00018007047836A1A6C5068DA8D40EA024269
:1008C0000A600022DA85C0B2704710B5806AEFF383
:1008D000108472B6838D11B143F0200104E023F43B
:1008E000907121F0010189B2FFF7CEFF14F0010FE2
:1008F00000D162B610BD836A1B6C1868C0F340104B
:100900007047836A1B6C59607047836A1B6C186858
:10091000C0F3C010704738B504464FF48075226CA0
:1009200013689BB29906E38507D5A18D880604D587
:10093000204600F025FD012304E013F00E031CBF48
:1009400053680023E28D110606D5A28D120603D549
:10095000204600F0DDFC0123013D01D0002BDED15B
:10096000002038BD0148FFF7D6BF00BF00000020BF
:100970000148FFF7D0BF00BF5000002038B5044643
:10098000806AEFF3108572B6828D41B142F080012A
:1009900089B2FFF779FF204600F0BAFC05E022F0AB
:1009A00080010904090CFFF76FFF15F0010F00D15A
:1009B00062B638BD10B5846A94F8380000F0B8F912
:1009C00094F838000021BDE8104000F047BE38B56B
:1009D000846A94F83800E16C00F040FE054618B9CE
:1009E00094F8380000F0B6F9284638BD38B5846A66
:1009F000374A236C9342054606D002F54C42934297
:100A000008D13448202202E033484FF480220021EC
:100A100000F0F0F8606CFFF71FFEA06CFFF71CFE03
:100A2000226C94F83210136923F47D5309B143F416
:100A300000531361236CDA6822F4BE72DA60226C10
:100A4000536923F4E06323F001035361AB6A596BEC
:100A5000DA6B186C4908B2FBF1F14A090131A1EBDC
:100A60004211490841EA02128260186C93F8301072
:100A7000C268012922F4B05202D142F4C06203E0FC
:100A8000022908BF42F4806293F83150092D02D048
:100A9000082D02D109B142F48052C260196C93F85A
:100AA00032000A6922F4405208B142F400520A614D
:100AB0001B6C5A6922F440725A61226CD36843F469
:100AC000005343F00C030020D360A08538BD00BF65
:100AD00000480040443802404038024038B5846A3B
:100AE000054600212046FFF7CFFEAB6A0F4A1B6C7C
:100AF000934206D002F54C42934208D10C48202183
:100B000002E00C484FF48021002200F073F8226CC0
:100B1000D36823F4005323F00C03D360606CFFF719
:100B200053FEA06CBDE83840FFF74EBE00480040C1
:100B3000443802404038024010B50024064BE058CB
:100B400010B10021FFF7A0FE0434182CF6D10348A1
:100B5000BDE81040FFF74ABF38150108000000202B
:100B600030B51049104885B000F098FB0D490F488A
:100B700000F094FB68460E4901F086FF0024012333
:100B80000C4AA15849B1CA783AB95D1C684630335D
:100B90008DF8093000F082FB2B460434182CEFD17D
:100BA00005B030BD00000020801501088D1501083A
:100BB000981501083815010838B504460C48036C2F
:100BC000DA685D69002102F4D07305F001051D4368
:100BD000FFF75AFE0A2C02D10D20FFF70FFEE0B2FC
:100BE000FFF70CFE02482946FFF74EFE204638BDAF
:100BF0000000002010B5EFF3108372B6046824EAF9
:100C000001011143016013F0010F00D162B610BD64
:100C1000F8B50B4C064604200D4600F04DFC30465E
:100C20002768256000F0A7F82946304600F032FD1D
:100C300025682760042000F047FC2846F8BD00BF67
:100C40001C0A00200F2810B51ADD2F2806DC03F13E
:100C5000604303F561430B6010380CE04F2804DC5F
:100C6000154C1C440C60303805E0612821DC134C25
:100C70001C440C605038012303FA00F010600BE0B4
:100C80000F4B0B60042802D14FF4803303E005289A
:100C900004D14FF400331360002010BD062802D1A8
:100CA0004FF48023F7E70F2803D1064B0B60012395
:100CB000F1E74FF0FF3010BD04E100E008E100E093
:100CC00024ED00E010E000E010B5144A00231360AA
:100CD00053604FF08033C2F8183CC2F81C3CC2F895
:100CE000203C0F4B1B680133DB0002F5407213F10F
:100CF000FF3304D34FF0803142F8041BF7E7094B70
:100D0000094900240B201C6000F0A8FC07490320BF
:100D100000F0A4FC84F3118862B610BD00E100E08D
:100D200004E000E01C0A0020B90D0008790D00085D
:100D300013B58023694601AA0446FFF783FF38B93B
:100D4000009B019A0F2CDCBF196821EA02021A608D
:100D500002B010BD13B50023694601AA0446FFF78F
:100D600071FF30B9009B019A0F2CDCBF19680A4350
:100D70001A6002B010BD704710B50B6C0B4C9A1E78
:100D8000A2420BD30A4CA24208D233F8023CB3F57C
:100D90005F4F03D1BDE8104000F00EB8EFF31083B1
:100DA00072B60448B72100F021F800BF0000000827
:100DB000EC2D0108A31501088B6A012B10B50C4618
:100DC0000DD007D3022B0DD14822C86A01F06BFE6B
:100DD000226B05E0C86A482201F065FE02E0CA6A9B
:100DE000014B1A60002010BD1C0A002008B5062027
:100DF00000F062FB0D4B1B6823B90D4B1B68B3F968
:100E00000C307BB9EFF3108372B6072000F054FB6F
:100E1000FA2000F00FF8072000F056FBFA2000F04F
:100E200009F8F2E7012000F013FE00BF1C0A0020C1
:100E3000300A002082B000230093009B83420CD232
:100E400000230193019A44F24C139A4202D8019B69
:100E50000133F6E7009B0133EEE702B07047000074
:100E600070B583681C69636A1B690E46154698470E
:100E700010F1190F3ED140F205339E4204D040F2EA
:100E800006339E4218D070BDEFF3108272B6A18B6C
:100E9000638B09B21BB2994205DC618BA38B09B24B
:100EA0001BB2CB1A20E0608BA38BB4F91E1000B2EA
:100EB0001BB2C31A0B4417E0EFF3108272B6E1893C
:100EC000238A09B21BB2994205DA218AE38909B261
:100ED0001BB2CB1A07E0208AE389B4F9121000B2E2
:100EE0001BB2C31A0B44013B12F0010F00D162B6D2
:100EF00000202B6070BD38B504460D46204600F03A
:100F0000D9FD68B100F0B2FD0368042B03D0054899
:100F10008821FFF76BFF002DF0D06FF0030038BD84
:100F200038BD00BFD41501082DE9F843C589B0F9D3
:100F300012302DB2013504460F4690469D42A8BF9F
:100F40000025238A1BB29D4208D0E289636912B250
:100F5000ADB29F54E5810020BDE8F883B8F1000FE1
:100F60001DD0EFF3108972B60126636A66705B6A62
:100F70002046314698473146A01DFFF7BCFF636A03
:100F800006465B6A20460021984719F0010F00D100
:100F900062B6002ED5DA6FF00300BDE8F8836FF07B
:100FA0000A00BDE8F8832DE9F84F836880460E46B5
:100FB00015461C6902F094FA074628B1E37843B954
:100FC0004FF0FF30BDE8F88F00F03AFD0028F5D073
:100FD00018E0EFF3108772B606EB050846450AD015
:100FE00016F8014B0A2C02D10D20FFF7E5FD204633
:100FF000FFF7E2FDF2E717F0010F00D162B62846D5
:10100000BDE8F88F04F10C0948460121FFF773FF92
:1010100000283EDBD8F8003083F0400A636A20469F
:101020005B6A39469847CAF3801AA846B8F1000FA0
:101030001FD0E37816F801BB33B920465946524613
:10104000FFF772FF07460AE0BBF10A0FF5D1204611
:101050000D215246FFF768FF07460028EDD0002F0C
:1010600004DAA84506D2C8EB050703E008F1FF380B
:10107000DCE72F46E289238A12B21BB29A4204D0DF
:10108000636A20465B6A01219847484600F054FD98
:101090003846BDE8F88F2DE9F04783681C6904F1F4
:1010A000180780460E46384601219146FFF723FF78
:1010B00000284CDB00254D4545D2A38B628B9BB2AB
:1010C00012B219B28A420ED0226AB4F91E00525CE2
:1010D00001339BB219B28842D8BF0023A3830135E4
:1010E00032700136E7E7002D2DD1D8F800305B06CD
:1010F00027D4636A20469B6929469847628BA38B55
:1011000012B21BB29A4216D1EFF3108A72B6636A1A
:1011100020469B69012198470121A17004F1080034
:10112000FFF7E9FE1AF0010F00D162B60028C2DA1B
:101130006FF0030507E0636A20469B690121984729
:10114000B9E76FF00A05384600F0F6FC2846BDE81E
:10115000F0872DE9F04183681C69271D384601217D
:10116000FFF7C9FE051E38DB94F8008008F101087E
:1011700018F0FF082CD0B8F1010F26D1EFF310863C
:1011800072B6E3782BB9636A20461B689847051E40
:1011900009DB636A20469B689847051E626A07DA86
:1011A00053682046984716F0010F00D162B611E04F
:1011B0000023E38123826383A38393692046012173
:1011C000984716F0010F00D162B684F8008001E064
:1011D0006FF01705384600F0AFFC2846BDE8F081F7
:1011E00038B50C46054600F053FC2846224600213F
:1011F000BDE8384001F060BC70B583681C69251DEE
:1012000028460021FFF777FE2378012B02D9013B06
:1012100023703CE00021636A21709B692046984757
:10122000E289238A12B21BB29A4203D01A4801F013
:101230000DFCF5E7636A2046DB6A984718B9164843
:1012400001F004FCF6E7EFF3108672B6636A2046FD
:10125000DB689847E3781BB9636A20465B68984768
:1012600016F0010F00D162B60021A01DFFF7B8FFF4
:10127000002104F10800FFF7B3FF012104F10C0085
:10128000FFF7AEFF04F118000121FFF7A9FF284680
:1012900000F052FC002070BD20A1070070B50122B3
:1012A0000C46054601F10C00002101F005FC04F19B
:1012B00018000021012201F0FFFB201D0021012266
:1012C00001F0FAFB00210A46A01D01F0F5FB002108
:1012D0000A4604F1080001F0EFFB284623460349C3
:1012E0004FF4DB72BDE8704006F000B9BC15010890
:1012F000837823B100238370083000F01DBC704751
:10130000437823B100234370063000F015BC7047CA
:1013100070B504460025E289238A12B21BB29A42B4
:10132000AEB20BD1E289238A12B21BB29A4220D10B
:10133000636A20465B6A002198471AE0636A204688
:101340009B6A98470028EDD0218A6369626A09B2D6
:10135000126A595C20469047238AB4F9122001335F
:101360009BB223821BB29A42DCBF00232382013549
:10137000D1E726B12046BDE87040FFF7C1BF70BD80
:101380002DE9F341458BB0F91E302DB201350446ED
:101390009D42A8BF00250026B7B2636A2046DB69DC
:1013A0009847D0B1B4F81C80636A1FFA88F85B696B
:1013B000204601A90FFA88F898474545EDD0628B81
:1013C000236A12B201369854ABB26383B4F91E306B
:1013D00001359D42A8BF0025DEE717B12046FFF783
:1013E00087FF02B0BDE8F08108B5064B0BB10FF0E6
:1013F000FFFF054B0BB1AFF30080BDE8084000F0E4
:1014000043B800BFF11301080000000038B505091A
:10141000E907044603D518480021FFF70AF9AA078F
:1014200003D516480021FFF704F96B0703D51448CC
:101430000021FFF7FEF82D0703D512480021FFF722
:10144000F8F8E00703D50C480121FFF7F2F8A107EF
:1014500003D50A480121FFF7ECF8620703D50848D5
:101460000121FFF7E6F8230705D506480121BDE86D
:101470003840FFF7DEB838BD04090400060904004F
:10148000160904002609040008B50748FFF7E4F828
:101490000648FFF7E1F80648FFF7DEF80548BDE823
:1014A0000840FFF7D9B800BF04090400060904008A
:1014B0001609040026090400024B33F81000000A44
:1014C000FFF7A4BFE4150108024B13F81000FFF763
:1014D0009DBF00BFE415010807B53E4A0023136015
:1014E00053603D4A136053603C4A136053603C4A6A
:1014F000136053603B4A136053603B4A1360536070
:101500003A4A136053603A4A13605360394A138071
:10151000394A002599189D5008334FF6FF70802BEB
:101520008880F5D1354C146095802946C822204624
:1015300001F0A2FA03236376314B636102236383D4
:10154000304B2449C4F8C830204604F1C803C4F81D
:10155000C430C4F8CC5001F041FB204601F0ACFF90
:10156000684601A901F0A0FD9DE8030001F00CFC14
:10157000254B0BB100F054FD244B0BB101F0DEF90B
:10158000234B0BB101F096F9224B0BB1AFF3008066
:10159000214B0BB100F0D6FE204B0BB10BF0C2FE7D
:1015A0001F4B0BB10BF034FB05F0C2FA01F068FFE2
:1015B000A17E124800F08AF8104800F0ABF80F48FE
:1015C00000F0A3F8A36801221A7000F02BF801F0D4
:1015D0007FFDFCE7300A0020D00A0020280A002006
:1015E000480A0020380A0020200A0020400A002073
:1015F000DC0A0020D80A0020500A00203405002010
:10160000D9140008F4150108212000083D2900081C
:10161000B5280008000000004523000825D3000875
:1016200011CC000813B5002400F0D6FC0094084843
:10163000084B64214FF4006200F0E0F8A04204DCA3
:1016400005484FF48E71FFF7D1FB204602B010BD64
:1016500048160108813700084D160108612838B581
:1016600004460FD8EFF3108572B611B9FFF760FB8F
:101670000649074B43F8241015F0010F00D162B65C
:10168000002038BD4FF0FF3038BD00BFB91600084C
:10169000F40A0020612808B507D8054B054A53F81D
:1016A0002030002B08BF134600E0024B984708BDCE
:1016B000F40A0020B916000808B5EFF3108372B6DB
:1016C00001485521FFF792FB5F16010870B50546EA
:1016D0004FF4EC7001F078FB044698B1A86000F07C
:1016E0004FFC061E06DA204601F062FB0023AB60C9
:1016F000304670BD04F108000021012201F0DCF940
:10170000002070BD6FF00B0070BD836801225A701D
:101710000020704738B504468068283005F033FA59
:101720000B48032105F055FC051E0BD1012105F0E6
:10173000CCFB2846022105F0C8FB2046BDE8384016
:1017400000F07CBC01DD05F0ADFB6FF0160038BD8C
:10175000801501082DE9F7430746C8200E4690463C
:10176000994601F031FB0446002839D03146FFF795
:10177000ADFF00281EDB204600F076FC002819DBB8
:1017800020464946324601F048FE002812DB00960A
:1017900020464146174A0A9B00F074F8002809DBEE
:1017A00039460B9A204600F0CFF82046FFF7ADFFF0
:1017B000002801DA45420EE02046A58900F01EF916
:1017C0000028A8BF28B211DA00F050F90A490568CC
:1017D000204601F00FFA2046314600F0AFFC00E051
:1017E0000C2500F043F905604FF0FF3003B0BDE871
:1017F000F08300BF151A0008400A002073B5069C4C
:1018000000930E4615460194002132462B46FFF701
:10181000A1FF02B070BD73B5069C00930E4615463D
:101820000194022132462B46FFF794FF02B070BDAF
:1018300070B5054600F0ACFC102210490B8801334E
:101840009BB218B200280B80DCBF01230B8003F091
:101850000F040B4951F834604EB941F8345001EB94
:10186000C4018B80AB8100F0ABFC304670BD013A07
:10187000E3D100F0A5FC4FF0FF3070BDD80A002086
:10188000500A00202DE9F04104460E4617469846BE
:10189000FFF7CEFF054618BB638B9DF81820276124
:1018A00002F0030223F003031343F6B2638304F14F
:1018B000380229462676C4F81480032000F068F91F
:1018C0002046657601F0F8FD00F062FC20460649EE
:1018D00001F084F90423637600F072FC84F8C060A0
:1018E0002846BDE8F08100BF400A00202DE9F04104
:1018F00004460F4616469846FFF79AFF0546E8B994
:10190000638B277623F0030343F0010363832946A7
:1019100004F138022661C4F81480032000F038F97D
:101920002046657601F0C8FD00F032FC20460549EE
:1019300001F054F90423637600F042FC2846BDE828
:10194000F08100BF400A00202DE9F74F81462A4868
:10195000174601F0A0F8451C9FB1002457F8240059
:1019600080B101F098F8D9F82830013005449D4243
:101970003AD2013440F201139C42EFD16FF00600DD
:1019800037E03C46A61CB6007119484601F048FEF7
:10199000054660B306440660174801F07CF8164916
:1019A0008046304601F070F808F10108B044AB46BB
:1019B0004FF0000AA24511DA4BF8048F386801F0A5
:1019C0006AF857F8041B03464046019301F05CF89F
:1019D000019B013398440AF1010AEBE7002046F825
:1019E000040CC9F8C45004E06FF0230001E06FF06C
:1019F0000B0003B0BDE8F08F7716010810B5EFF3C8
:101A0000108472B601F020FE14F0010F00D162B60E
:101A1000002010BD08B5094B1B68D3F8C410012085
:101A200051F8202032B1013040F201129042F7D13A
:101A3000012001E05B69984700F00AF8300A0020B5
:101A4000024B186800B1808900B27047300A00204C
:101A500008B5054B1B68C4B221461846002200F0A9
:101A6000DDFB204601F0FEFC300A002008B501F045
:101A700037FD38B9044B186820B1437E032B01D1E0
:101A8000643008BD014808BD300A0020040600206B
:101A900008B530B1B0F90030002B09DB0123038019
:101AA00006E0FFF7E3FF162303604FF0FF3008BDA9
:101AB000002008BDF8B51E4B04461D68FFF7D6FF91
:101AC00016230360002C30D0EFF3108772B6238802
:101AD0001AB2002A03F1FF3303DD0020238068637C
:101AE0001EE06E6B1EB113488E21FFF77FF9238035
:101AF0006C63FFF7BBFF05210660284601F04AFC36
:101B0000FFF7B4FF0368042B08D0FFF7AFFF0068AE
:101B10006E2814BF00206FF0000001E04FF0FF308E
:101B200017F0010F00D162B6F8BD4FF0FF30F8BDDD
:101B3000300A00208016010810B510B3EFF31084AE
:101B400072B6038847F6FF72934203D10E4878219C
:101B5000FFF74CF901339BB203801BB2002B0ADC68
:101B60000A4B1B683BB15A6B8242FAD100225A637E
:101B7000184601F069FD14F0010F00D162B6002093
:101B800010BD4FF0FF3010BD95160108280A002047
:101B9000F8B5164B1C68174606460D4600F0F8FAD5
:101BA000A36B07B13B60EDB1EFF3108272B6022E6A
:101BB00007D0032E0AD0012E0CD1A36B29680B434A
:101BC00005E02968A36B23EA010300E02B68A36307
:101BD000002501E04FF0FF3512F0010F00D162B691
:101BE00000F006F800F0ECFA2846F8BD300A0020B4
:101BF00037B5154B1C6800F0CBFAA36B2046DD43CC
:101C000000F00CFC28400190019BC3B101A800F03A
:101C10005BF8431C0546F7D0294601A800F068FF91
:101C20002946204600F012F805460028ECD0204650
:101C3000291D00F059F8284600F026F8E4E700F0E6
:101C4000BFFA03B030BD00BF300A002038B582684B
:101C5000EFF3108572B6946900237CB12079884235
:101C600002D023462468F8E702F118011BB1184698
:101C700000F0A3FF02E0084600F095FF15F0010F09
:101C800000D162B6204638BD10B5037B23B9EFF30F
:101C9000108472B60A4905E0022B0AD1EFF31084D2
:101CA00072B6084900F05FFF14F0010F00D162B670
:101CB00010BD012B03D1BDE8104000F00BBA10BDE0
:101CC000A00C0020980C002038B5054600242846BA
:101CD000214600F01BFF28B90134202CF7D14FF02A
:101CE000FF3038BD204638BD2DE9F04104460D4691
:101CF0003830097800F00AFF804600286BD0EFF3F7
:101D0000108772B6637E062B15D104F13C0029784A
:101D100000F0FCFE78B12946082204F158000026A4
:101D200000F0C1FEE663204601F08EFC17F0010FC3
:101D300000D162B6A9E017F0010F00D162B6A66823
:101D40002A78EFF3108372B6B06920B1017991421D
:101D500001D00068F9E713F0010F00D162B628B195
:101D600029460822043000F09EFE8DE001F0B8FB09
:101D700058B1474800F017FF0446D0B9454800F075
:101D800012FF044600287AD013E0EFF3108772B6F2
:101D90003F4800F008FF044617F0010F00D162B67B
:101DA00038B9102001F00AF80446002867D0012352
:101DB0000373201D2946082200F075FEEFF31085FD
:101DC00072B6204606F1180100F0CDFE15F0010FA5
:101DD00000D162B658E000F0DBF92046297800F027
:101DE00043FB064600B34368D3B100F04FFB074600
:101DF000C0B173684360B3688360294608220C3021
:101E000000F051FEEFF3108672B6384604F1480137
:101E100000F0A9FE16F0010F00D162B6464603E0BD
:101E20001E4601E06FF00B0600F0CAF920461A4981
:101E300001F086FBEFF3108772B6637E062B0AD1A2
:101E400004F158002946082200F02DFE0023E36328
:101E5000204601F0F9FB17F0010F00D162B6637E56
:101E6000052B03D12046042100F03EFA637E073B98
:101E7000012B0AD82046042100F066F805E0074847
:101E80004FF4B071FEF7B2FF00263046BDE8F08196
:101E9000A00C0020980C0020BD1E0008AA16010806
:101EA00010B50C4600F038F920B12146BDE81040CD
:101EB000FFF71ABF6FF0020010BD00BF2DE9F84612
:101EC000054600F065F9D5F86490AC6C002C35D06F
:101ED000D4F800A0EFF3108772B6204605F1480150
:101EE00005F1500600F049FE2046314600F03BFE69
:101EF00017F0010F00D162B6AF6BA368227B0121FE
:101F000001FA02F23B4321461343AB63636811F8C5
:101F10000C0F00229847AF63FFF76AFEEFF31087BC
:101F200072B62046314600F028FE17F0010F00D1AE
:101F300062B6204600F0CEFA5446C7E7C5F8649072
:101F4000BDE8F84600F03CB938B5EFF3108472B63E
:101F5000427ED31F012B0ED80025072A036E05668B
:101F600003D15A8A013A5A8202E01A8A013A1A8245
:101F7000416601F069FB14F0010F00D162B638BD73
:101F800070B50E4B1D68064600F002F9AB686BB1E8
:101F90005C6A7CB11C6A204600F010FF40B13462DC
:101FA0007062AB682246596A00F07DFD002401E0B2
:101FB0006FF00B0400F004F9204670BD300A0020D9
:101FC00008B500F071F803480022016800F0DCFA5F
:101FD000F7E700BFE40A002013B50E4C0E480523B6
:101FE000236000236360A3600093E0210B4B4FF458
:101FF0008062FFF710FC83B218B2002804DAFFF702
:1020000035FD0068404202E0A3810123A37302B0C2
:1020100010BD00BFE40A0020C0160108C11F00085F
:102020000023044A044999500433B3F5C47FF8D11E
:10203000704700BFF40A0020B916000810B5044626
:10204000806800F0E5FD22460121002005F0EDF951
:1020500022460621012005F0E8F906212246022049
:1020600005F0E3F9002010BDF8B506468068283079
:1020700004F089FD0B4B1A68B368956803F12C07CF
:102080002C350024AB681BB12846391904F08EFDAD
:102090001034802C05F11005F4D13046BDE8F8402D
:1020A000FFF7CCBF300A002010B5094803686BB1B8
:1020B000EFF3108472B600F076FD14F0010F00D13A
:1020C00062B60028F1D000F073FEEEE710BD00BF4D
:1020D000DC0A002038B5044601F002FA70B1EFF3D3
:1020E000108572B60B49204600F03DFD002000F03F
:1020F0009FFA15F0010F00D162B638BD00F04CFE1A
:102100000028ECD1204600F053FEBDE8384000F036
:1021100049BE00BFDC0A002000280BDB064B00F0A4
:102120000F0203EBC201B1F90410814202D153F84E
:102130003200704700207047500A002038B50D4625
:102140000446F0B1104B1BB1B0F90C00AFF30080A6
:10215000A28952B102F00F020C4B002143F8321059
:1021600003EBC2034FF6FF729A80E36A1BB120466D
:10217000294601F0D9F9204600F072FA2046FFF70F
:10218000A9FF002038BD00BF00000000500A002059
:1021900010B5094B1C6864B101F0A2F948B9A38BD2
:1021A0001AB27E2A03DD05486921FEF71FFE0133BE
:1021B000A383002010BD00BF300A0020C71601080D
:1021C00070B5144B1C681D4614B301F089F9F8B9B9
:1021D000EFF3108672B6A38B0BB1013BA383B4F966
:1021E0001C30002B10DC0023A3830B4B1B680BB1AE
:1021F00001F07EF9638BDB0606D5236A23B92B68D1
:102200009C421CBF1423236216F0010F00D162B65A
:10221000002070BD300A0020D00A0020F8B5438BA2
:102220009B0604460F4616462DD400F02DF8A568EF
:102230000DB9F6B915E0638B03F00303012B03D04E
:102240006B680BB13F021F606B78012BF1D100234B
:102250006B60B5F90230002BEBDAA81CFFF76CFCC1
:10226000F7E7A06828B14378012B02D1AC3000F029
:1022700083FB204600F0F4F9204600F04BF9638B15
:1022800043F020036383F8BD10B5044600F008F85E
:10229000204600F018F82046BDE8104000F064B970
:1022A00038B50446EFF3108572B6406A30B100F0DD
:1022B000FBF9606A00F02EFA0023636215F0010F4B
:1022C00000D162B638BDEFF3108272B6437E052BA3
:1022D00005D1436B1988013119800023436312F043
:1022E000010F00D162B6704738B5EFF3108472B6B3
:1022F000427E052A08D1426B1588013515800022DF
:102300004263416601F0A0F914F0010F00D162B6FA
:1023100038BD000038B54FF4A07000F04FFD074BFA
:1023200000F5A075186000F11404054900F01BFCCD
:10233000AC4201D02046F6E738BD00BF08060020B9
:10234000800C00202F4AF8B50023136053602E4AFA
:10235000136053602D4A136053602D4A136053601D
:102360002C4A4FF4C0701360536000F027FD0546FF
:1023700000F5C076002200F118040275224900F031
:10238000F2FBB44201D02046F4E7234CC020656044
:1023900000F014FD054600F1C007022200F1180606
:1023A00002751A4900F0DFFBBE4201D03046F4E767
:1023B000A560FFF7AFFF4FF4807000F0FFFC05460B
:1023C00000F58077002200F110060273104900F03A
:1023D000CAFBBE4201D03046F4E78020E56000F041
:1023E000EDFC054600F18007022200F110060273A1
:1023F000084900F0B8FBBE4201D03046F4E7256141
:10240000F8BD00BF800C0020880C0020900C00203C
:10241000A00C0020980C00200806002037B50022F0
:1024200083680192EFF3108572B69C692CB1217913
:1024300001A800F050FB2468F8E715F0010F00D167
:1024400062B6019803B030BD10B5064B04461B6858
:1024500028B11846FFF7E2FF2060002010BD4FF0C2
:10246000FF3010BD300A002038B50D46044650B18B
:10247000FFF78EFE246C24B1237CAB4201D024688C
:10248000F9E7FFF79DFE204638BD000010B501F0CA
:1024900027F840B10D4800F086FBA8B90C48BDE80C
:1024A000104000F080BBEFF3108472B6074800F0D4
:1024B0007AFB14F0010F00D162B628B9182000F0A1
:1024C0007DFC08B10123037510BD00BF880C0020FE
:1024D000900C002010B5037D23B9EFF3108472B681
:1024E0000A4905E0022B0AD1EFF3108472B60849BD
:1024F00000F039FB14F0010F00D162B610BD012BC2
:1025000003D1BDE81040FFF7E5BD10BD880C0020E9
:10251000900C002010B5044604F1400000F043FB8D
:1025200010B100F021F9F7E704F1480000F03BFB9F
:1025300010B1FFF7CFFFF7E704F1500000F033FBD5
:1025400010B1FFF7C7FFF7E74FF0FF32A263E06378
:1025500010BD10B5044604F1180000F024FB10B1C2
:10256000FFF792FBF7E710BD437E072B04D1036E04
:102570005A8A013A5A827047082B03D1036E1A8A8D
:10258000013A1A82704700002DE9F84F05460F46C0
:102590009346EFF3108872B6244B4468D3F800904A
:1025A0001FFA88F80E469A46DAF800301CB3226902
:1025B00061699A1A8A4214D32046291D00F01AFB39
:1025C000A368B3B10022E068A26018F0010F00D147
:1025D00062B69847EFF3108872B61FFA88F86C68F5
:1025E000E2E76169521A1344C9EB03039E4228BF14
:1025F0001E462468D8E7C9EB0309B9450FD276B166
:1026000005EB8B05C9EB07094E4528BF4E4642F244
:102610001070AC73704300F019FA0123AB7318F01B
:10262000010F00D162B6BDE8F88F00BFA80C0020F2
:1026300010B5044660B9094B1121B3F90C0000F044
:10264000F1F8002807DAFFF711FA0068404210BDE0
:102650006FF0150010BD204610BD00BFE40A002039
:1026600038B584680546ECB16378012B02D9013B8B
:10267000637015E02046FFF76CFF204600F0F9F884
:1026800004F1280004F083FA204600F0DFFA204627
:1026900000F04AF9204600F004F92046FFF71AFD41
:1026A0000023AB6038BD000038B50446EFF3108559
:1026B00072B658B1037BDB0708D5144B1B680020AA
:1026C0005BB1A3420DD018461B68F9E74FF0FF300D
:1026D00015F0010F00D162B638BD0D488121FEF71B
:1026E00085FB23681BB19968A2680A449A6018B1F7
:1026F000064900F062FA02E0044800F054FA237B35
:10270000002023F0010320602373E1E7C00C0020C8
:10271000DA16010838B50446EFF3108572B6037B6C
:10272000D90701D5FFF7C0FF237B9A0707D515F01E
:10273000010F00D162B62046FFF7CCFC0DE05B072D
:102740000BD42046064900F00EFA064B1A880132D7
:102750001A8015F0010F00D162B6002038BD00BF0D
:10276000B40C0020BC0C0020014900F0FCB900BFF3
:10277000800C00202DE9F041274B1F2880460E4693
:1027800015461F6807D9FFF771F9162303604FF04C
:10279000FF30BDE8F08138464146FFF765FE04464C
:1027A00055B130B143682B6083686B60C368AB6020
:1027B00002E028606860A8604EB335684DB92046D5
:1027C00044B307F1400100F0D8F92046FFF7CCFFF1
:1027D0001DE0B4B9114800F0E6F9044650B9FFF71E
:1027E00099FD0E4800F0DFF9044618B90C4868213D
:1027F000FEF7FCFA84F81080204607F1400100F053
:10280000B2F9336863607368A360B368E360002063
:10281000BDE8F081BDE8F081300A0020800C002086
:10282000EB16010873B5061E0C4615DD1F2916D8D8
:10283000FFF7AEFC0025694630468DF800408DF864
:1028400001500195FFF72CFB0446FFF7B9FCAC42A1
:10285000A8BF28460BDA04E06FF0250401E06FF012
:102860001504FFF703F9644204604FF0FF3002B033
:1028700070BD38B50546EC686CB1204650F80C3B8D
:10288000EB60FFF705F904F10A00FFF701F92046B4
:10289000FFF720FCEFE705F10800BDE83840FFF73F
:1028A000F7B810B50446D4F8D00110B104F067FFB2
:1028B000F9E710BD7FB500F055FC684600F0C4FC98
:1028C000684600F02CF9044B002218605A60034B54
:1028D0001A6007B05DF804FBAC0C0020A80C0020C7
:1028E00010B586B0EFF3108472B6684600F0ACFC09
:1028F000684600F014F9064B002218605A60054B38
:102900001A6014F0010F00D162B606B010BD00BF0E
:10291000AC0C0020A80C0020024B1A6801321A608F
:10292000704700BFA80C002010B50446406A08B1EB
:10293000FFF7D0FB00232362636210BD0A4A002325
:1029400010B513605360094A1C4613605360084871
:1029500005492044183400F006F9B4F5C07FF6D1DB
:10296000044B10221A8010BDB40C0020C00C0020B3
:102970001C060020BC0C0020F8B50646D0B100F0C3
:10298000CBF9341D082700252368002B0ADBA38B15
:102990009B0707D52046012100F00FF835EA2005F6
:1029A00028BF0546013F04F12404EDD1304600F074
:1029B000C5F900E005462846F8BDF8B50368002BC8
:1029C00004460F463EDB838B9B073BD500F063F943
:1029D0006669E3689E4206D1204600F07BF9606993
:1029E000E368C01AF8BDA5699D4204D0204600F0F6
:1029F00071F90020F8BD761B20682946324604F0A4
:102A0000FEFC00280BDAA37F43F00203A3772046E5
:102A100000F060F9FFF72AF800684042F8BD05446D
:102A2000361A1FB9E36863612E4402E0002EE3DC2E
:102A3000F8E7B542D0D063695A1C626115F8012BE2
:102A40001A70F6E76FF00800F8BD000007B568B12E
:102A5000084AB0FBF2F302FB130000934FF47A73C1
:102A6000434300216846019309F078FF03B05DF805
:102A700004FB00BF40420F0002440346934202D0D1
:102A800003F8011BFAE770470023CA5CC254013304
:102A9000002AFAD1704703461A46013311780029FB
:102AA000FAD1101A704710B50023934203D0CC5CC2
:102AB000C4540133F9E710BD08B528B1B2F5004F91
:102AC00002D20280002008BDFEF7D0FF162303606B
:102AD0004FF0FF3008BD1F2907D8012303FA01F189
:102AE00003680B430360002070474FF0FF307047CE
:102AF0001F2908D8012303FA01F1036823EA01031F
:102B00000360002070474FF0FF3070471F299DBFC2
:102B10000068C84000F001004FF0FF307047F8B582
:102B2000456907690446A5F1460305F26C7040F259
:102B30006D165E4300F010F9C1B2384600F000F99E
:102B4000E368A168013B1E44453D06EBA50528440A
:102B5000182202FB0011626820683C2303FB01225B
:102B600003FB0200F8BD002303600B680BB908608B
:102B700001E04B681860486070470346086888B1F8
:102B800083B1834209D11A680A604A68934209D125
:102B900000234B6070472AB1104602689A42FAD16E
:102BA00000F00BB8704703682BB11A68026002B9D5
:102BB000426000221A60184670470A6803685AB1DA
:102BC00053B14A689A4214BF196848604FF0000236
:102BD0000CBF026001601A60184670470023436012
:102BE0000B6803600B6813B9086048607047586051
:102BF00008607047426803680AB90B6000E0136020
:102C00000BB94A6000E05A600023036043607047DC
:102C1000F8B500F1AC050646002128460122FFF771
:102C20004BFF002406F1B007274400212422384638
:102C3000FFF722FF2B194FF0FF325A603846243439
:102C400000F01CF8B4F5907FECD1F8BD70B500F140
:102C5000AC0605463046FEF71BFF002405F1B40024
:102C60002044FEF715FF3319186908B1FFF732FA4F
:102C70002434B4F5907FF1D170BD000010B500216F
:102C8000044601220430FFF717FF4FF6FF73E3807D
:102C90000023A36010BD38B50446FEF7D1FEB4F999
:102CA00006308342054602D1A36801330EE0201DA1
:102CB000FEF700FF40B1FEF7D9FE0368042BF6D003
:102CC00003486A21FEF792F8E5800123A36038BD2E
:102CD000FF16010810B50446FEF7B2FEB4F906303F
:102CE000834202D00B487E2110E0A368012B02DD55
:102CF000013BA36010BD4FF6FF73E3800023A36088
:102D0000201DFEF719FF18B102488E21FEF76EF85C
:102D100010BD00BFFF16010810B504462046FEF79F
:102D2000C9FE40B1FEF7A2FE0368042BF6D00248AC
:102D30005121FEF75BF810BD12170108FEF7FCBE2B
:102D4000044B012833F8103001DD01B1013318467E
:102D5000704700BF281701084FF4C87390FBF3F2C7
:102D600003FB12035BB1642390FBF3F203FB12033A
:102D70003BB110F0030F14BF002001207047012069
:102D8000704718467047000003460A460148194636
:102D900000F050B8C80C0020014800F079B800BF1E
:102DA000C80C0020014800F0ABB800BFC80C0020E0
:102DB0000146014800F0E2B8C80C00200146014875
:102DC00000F027B9C80C00200146014800F060B9A6
:102DD000C80C00202DE9F0410A4401F10F0424F051
:102DE0000F048168C56922F00F02C4EB020C614434
:102DF000816000EB850521460826EC6041F8086BF0
:102E0000EF684FF00048C7F80480ACF11007A760E6
:102E1000A2F108074E606F6142F8086CA4686A6905
:102E200044EA08045460C2690132C261BDE8F0415D
:102E300000F07CB870B50E46002104468160C16187
:102E4000154620304FF49872FFF716FE04F1300358
:102E50001220A3F11002013843F8083CDA6003F1B4
:102E60001003F6D1204600F007F8204631462A46E6
:102E7000BDE87040FFF7AEBF10B500210446012247
:102E8000FFF71AFE4FF6FF7363800023636010BDE7
:102E900038B50446FEF7D4FDB4F902308342054646
:102EA00004D1636801336360002038BD204609F017
:102EB0002FFD18B901236580636038BD4FF0FF30E6
:102EC00038BD38B50446FEF7BBFDB4F90230834285
:102ED000054602D1636801330EE02046FEF7EAFDA5
:102EE00040B1FEF7C3FD0368042BF6D00348AB21C5
:102EF000FDF77CFF65800123636038BD4217010840
:102F000008B54268012A02DD013A426008BD4FF669
:102F1000FF72428000224260FEF70EFE18B10248A6
:102F2000DC21FDF763FF08BD4217010838B50546EF
:102F300008680C4600F015F8821C05EB021205EB40
:102F40000015AB6A3BB1196829B12068814202D2F1
:102F50001A469B68F6E79460E260A36003B1DC6008
:102F600038BDB0F5800F07D203090020012B02D92C
:102F700001305B08FAE770471220704770B50546CC
:102F80000C46002944D0FFF79CFF54F8043C54F849
:102F9000082C23F00043A4F1080144F8043C8B18EA
:102FA0005868002814DBD8689E688A58866098683C
:102FB0001A4408B1DE68C660186854F8083C034437
:102FC00044F8083C506800F0004003435360134647
:102FD00054F8042C8A1A5068002811DBD1689068D4
:102FE0008860916809B1D068C86054F8080C11680D
:102FF00001441160586800F00040014359601146D7
:103000002846FFF793FF2846BDE87040FFF778BFDA
:1030100070BD70B50646002938D001F1170525F0BE
:103020000F05FFF74EFFB5F5800F03D22846FFF7D7
:1030300098FF00E0122006EB0010846A0CB32368AE
:10304000AB4201D2A468F9E7E368A2689A60A3687A
:103050000BB1E268DA602268531B0F2B0CD961199F
:10306000635122444D602560506800F000400343E6
:1030700053603046FFF75AFF636843F000436360D4
:1030800008343046FFF73CFF204670BD084670BD4F
:1030900038B50D46FFF7BDFF044618B100212A469A
:1030A000FFF7EAFC204638BD38B5044601200D463E
:1030B000FEF702FA044B1B682360C3F1005303F5CB
:1030C00000332B6038BD00BF10150108704700BFEA
:1030D00030BF70470023092802DD01330A38FAE7C0
:1030E00040EA03107047002070470B4B80221A60A3
:1030F00082B000220192019AB2F5803F05D21A688F
:10310000520605D4019A0132F4E76FF06D0000E039
:10311000002002B0704700BF0C2800400F4ACA23AD
:103120001360532313600E4B196821F020011960BE
:1031300082B0002101910199B1F5003F05D21968D3
:10314000890605D401990131F4E76FF06D0000E0C4
:103150000020FF23136002B0704700BF2428004006
:103160000C2800402DE9F84300F0F2FA0A25DFF8B8
:10317000D4802C4BD8F800209A4299462FD02A4868
:1031800000214FF48032FDF735FD27484FF48031A0
:103190000022FDF72FFD00F08FFAFFF7BFFF044676
:1031A000D0B9224E224FCA233360532333603B6889
:1031B0005B0602D4FFF799FF58B91E4B1A6822F03C
:1031C00040021A601C4A9A603B6823F080033B600F
:1031D0000020FF2333600446C8F800900DE0FFF79D
:1031E0009DFF134B1A6822F440721A6003F58A336C
:1031F00008334FF4003204461A602CB1013DB6D1B9
:103200006FF06D00BDE8F8830C491320FEF726FA35
:103210001320FDF79FFD0A4B01221A702046BDE8DE
:10322000F88300BFEEFECEFA70380240242800403A
:103230000C28004008280040FF007F00E73000080D
:103240009C0700205028004030B51D4B1D4A1C68CB
:1032500011681A68A242F8D10A23C1F3021501F0DD
:103260000F0403FB0544046001F4FE44250BC4F382
:10327000032403FB054401F47C1144600C0DC1F3ED
:10328000034103FB04118160C2F3011402F00F013A
:1032900003FB0411C16002F4F8510C0BC1F30321CC
:1032A00003FB0411013902F47F020161110DC2F325
:1032B000034203FB012364334361002030BD00BFA0
:1032C00004280040002800402DE9F04F87B06946EF
:1032D0000BF020FB0098FFF7FDFE05460198FFF775
:1032E000F9FE06460298FFF7F5FE81460398FFF7C0
:1032F000F1FE074604980130FFF7ECFE8046059882
:103300006438FFF7E7FE1A4ACA2313605323136099
:10331000184B196811F0400F834614469A461ED088
:103320004FEA094343EA06232B434FEA0B40124A74
:1033300040EA082003F07F3323F0FE433843136054
:1033400020F07F400D4B20F0C0001860DAF800300C
:1033500023F08003CAF80030FFF7E0FE03E0FFF738
:10336000C4FE0028DCD0FF22226007B0BDE8F08F49
:10337000242800400C280040002800400428004079
:10338000034B586808B9596070476FF00F007047D9
:103390009C0700202DE9F041437E174D023B012B95
:1033A000064688462F6803D914485F21FDF71EFDA5
:1033B00008F0D2FF41460446304609F03DF8104B74
:1033C0001B681BB109F006F82043C4B28CB10D4C48
:1033D000216807F1780031B100F016F82B687833D6
:1033E0002360BDE8F0812968BDE8F041783100F044
:1033F0005CB9BDE8F08100BF300A00205317010816
:10340000D00A00201C0A0020814205D00023CA589F
:10341000C2500433482BFAD1704738B5C36A04460A
:103420000D462BB1836A8B4202D0114600F07CF826
:10343000E36A1BB92846FFF7C1FCE062E36A6BB19F
:103440001A1F1544C3F1040325F0070525631D4425
:10345000A5620320FEF730F8002038BD4FF0FF30A2
:1034600038BD000008B5EFF3108372B609F0AAF872
:10347000024B1868783000F013F900BF300A0020C2
:1034800008B50B4B00221A60FFF720FEFDF71CFC6D
:10349000084B0BB10CF090FD00F039F908F0F0F991
:1034A000FDF75EFB0220BDE80840FEF705B800BF4F
:1034B0001C0A0020B9FF000810B50446002168303E
:1034C0005822FFF7D9FA236BA367236923F001037E
:1034D000C4F8B8304FF08073C4F8BC3010BD0000A1
:1034E000024B1868003018BF012070471C0A0020EA
:1034F00070B50B4C266808F06DFF80B1094D296846
:1035000006F1780029B1FFF77FFF236878332B603D
:1035100070BD2168BDE87040783100F0C6B870BD5C
:10352000300A00201C0A002010B50446C06A18B1F9
:10353000FEF7D0FD0023E3620023A36210BD00006C
:1035400010B5826E002A34D1EFF3108472B6194A96
:103550001268904217D1184A12680AB9884724E0C5
:103560008166116CC16651680167516C41671349EE
:103570001164012151604FF080715164783011461F
:10358000FFF742FF11E0D0F8B820C266C26F0267B1
:10359000D0F8BC204267094AC0F8B8200122C267AF
:1035A0004FF080728166C0F8BC2014F0010F00D18A
:1035B00062B610BD300A00201C0A0020C135000888
:1035C00030B5154B1C6893B00520656EFDF774FF90
:1035D000A36E1BB911486321FDF708FC04F17801C3
:1035E0006846FFF711FFE36E1093626F236F11922D
:1035F0000021A26E0193A16613F0010F00D162B603
:1036000020469047EFF3108372B605206566FDF7FC
:103610005BFF684600F044F8300A00206A17010892
:103620000346C06A073121F0070158B19A6A8A42FD
:1036300007D9186B401A511A1863986799620430B9
:10364000704700207047000070B5437E114C043B6A
:10365000042B0546266803D90F485921FDF7C6FB00
:1036600008F006FF14232B62284608F045FE80B1BF
:103670000A4D296806F1780029B1FFF7C5FE2368D5
:1036800078332B6070BD2168BDE87040783100F060
:103690000CB870BD300A0020821701081C0A0020F7
:1036A00001464FF0010000DF70470A4601464FF027
:1036B000020000DF7047000010B50D480021012214
:1036C00000F04EF80A4C23889B0702D400F012F851
:1036D000F8E720464FF440714FF4807200F040F854
:1036E000204600214FF40042BDE8104000F038B8F9
:1036F00070380240024B1A6801321A60704700BFEE
:10370000A407002008B508F037FF002008BD08B561
:103710000B4B0C491A6822F07F4242F000421A60BB
:10372000A3F60C53084A1A600F20FDF797FF074BCA
:1037300007221A600F20BDE80840FDF70BBB00BF51
:1037400020ED00E0053700087FA2190010E000E03E
:10375000024800214FF48072FDF74CBA007000401F
:1037600010B5EFF3108372B6048824EA010189B220
:103770000A43028013F0010F00D162B610BD0000B1
:1037800010B508F045FA00F011F80020014600F0ED
:103790000FF8044608F082FE034922464C300AF036
:1037A00099FC012010BD00BF9B17010808F04ABA20
:1037B00010B500F08FF8044600F0BEF8236A014609
:1037C000204698475C30704770B504460E46154653
:1037D0003AB1806D08B10AF017FC636D2B60A36DE0
:1037E0006B6000236665A36570BD38B50446856DC2
:1037F00008F054FE2830854207D108F04FFE2830EB
:103800000AF002FC0123636538BDA06D28B10AF0FF
:10381000FBFBA06D0AF0CDFA06E0606D002803DB2B
:10382000012801D003F03EFB4FF0FF336365002316
:10383000A36538BD38B50D460446FFF7D6FF2B68A3
:1038400063656B68A36538BD10B50446FFF7CDFF0F
:103850002046BDE81040FFF7ABBA0C4608B5FFF7AD
:10386000F3FF2046FEF7F4F80EB417B5836D044657
:1038700033B106AAA06D059901920AF038FC08E060
:10388000406D06490AF06BFAA0650028F1D14FF0AF
:10389000FF3003B0BDE8104003B070473225010887
:1038A00070B5836D04460D4616463BB12846324638
:1038B000A36D0121BDE870400AF057BB406D04497B
:1038C0000AF04DFAA0650028F0D14FF0FF3070BD2E
:1038D0003225010810B59C20FFF776FA0446A8B1FE
:1038E0000B4B03600B4B83600B4BC3600B4B0361B3
:1038F0000B4B43610B4B03620B4B83610B4BC3615F
:103900000123436508F0CAFD2830A065204610BD9C
:103910003139000849380008A13800086938000822
:10392000C53700085B380008C9370008353800087B
:1039300008B5FFF7CFFF08BD73B504461648A16D63
:103940000AF0A9FBA06D0AF05FFBA16D13480AF015
:10395000A2FBA06D0AF058FB08F0A0FD064608F097
:103960009DFD04F15C0500F1280340212846321D2D
:1039700000F04AF8013004D02046294600F0E4FC6B
:10398000E0E701250095A06D0549064A064B0AF0BF
:10399000A1FB284602B070BD7B190108751901080A
:1039A0005A180108C2170108CE170108006903F070
:1039B00026BD13B504468DF8071020690DF10701E7
:1039C000012203F01CFD002803DAFEF74FF803681C
:1039D000042BF2D002B010BD13B50446E0680DF11F
:1039E0000701012203F05FFB002802D14FF0FF30F6
:1039F00008E005DAFEF73AF80368042BEED0F5E7A5
:103A00009DF8070002B010BD70B586B01468094A71
:103A1000029206460D46084A0849019103921B6826
:103A2000049401A831462A46059302F039FF06B0F6
:103A300070BD00BFB3390008AD390008D93900089E
:103A400090F8373000EBC30393F83C309A09032A0F
:103A500002D113F0010310D090F83830184490F8D8
:103A6000390083070BD48309022B02D0032B01D02A
:103A700007E0C04300F0010070471846704700207F
:103A800070470120704738B5056895F82530044621
:103A900013B1406803F006FAAB6828469847002542
:103AA000A3689D4206DA04EB85030135D868FFF769
:103AB0007FF9F5E72046BDE83840FFF779B938B51A
:103AC000044604F10C02A168006800F0C7FD054639
:103AD0002046FFF7D8FF284638BD90F8373003332B
:103AE00000EBC30393F824209209012A06D1002297
:103AF00080F82620881A4142414107E0022A0CD171
:103B00000022891A80F8262018BF012193F824008A
:103B100061F3000083F8240010E090F8383003448B
:103B200093F839209209012A0AD1002280F8262030
:103B300093F8390061F3000083F8390010467047AC
:103B400080F82610003118BF0121484270472DE946
:103B5000F0470D6881460E462C4615F8011B11B939
:103B6000237833B917E02A480AF0D6FC0028F3D1AD
:103B7000F6E73E2B0CD163783E2B04D1023434603F
:103B80002448BDE8F087013434602348BDE8F0875D
:103B9000232B03D134600020BDE8F087222B08BF1F
:103BA000013404F101070CBFDFF87C80DFF860808E
:103BB000BA4655460AF1010A297831B92A782B46C6
:103BC0004AB1002201351A7005E040460AF0A4FC13
:103BD0000028EED0F2E735602378242B14D1384644
:103BE0000E490AF0A6FC40B90D4B99F826409A1EE2
:103BF000002C0CBF1C46144606E0384609F07EF93E
:103C0000084C002818BF04462046BDE8F08700BFD6
:103C1000D7170108E2170108E0170108E5170108A6
:103C2000DD170108DF1701088D1901082DE9F04F94
:103C300097B00DF158080BAF04460D462C22002119
:103C40003846FEF719FF48F8405D002384F8243019
:103C500084F8253020464146FFF779FF05460028C5
:103C600000F0CB81A6490AF064FCA6495FFA80F90E
:103C700028460AF05EFCB9F1000F02D010F0FF0FE9
:103C800055D120464146FFF762FF824620B923699D
:103C90009D499E4A2046CCE094F838B004EB0B03D3
:103CA00093F839309B09012B00F0BF8094F83760FE
:103CB00004EBC60393F83C30C3F38113033303F0E2
:103CC0000303012B40F2B180E36A002B00F0AD80CA
:103CD000236B002BC0F2A980012E03D923698C49E4
:103CE0002046A5E0B9F1000F204614BF02250125AA
:103CF0000393FFF7A5FE039BA28E0136F6B2134491
:103D0000002284F83620F21C04EBC20284F83760EB
:103D100092F8241004EBC60665F3871160F30001E6
:103D200082F82410554686F83DB0336491E0284669
:103D300078490AF0FEFBF0B941462046FFF707FF3D
:103D400094F83730033304EBC303054693F824207B
:103D5000C2F38111033101F00301012904D9236960
:103D60006D496C4A204664E042F0C00283F824208A
:103D700000286ED142E1284668490AF0DAFB0028A3
:103D800046D120464146FFF7E2FE024618B12369BC
:103D90005D49204611E094F83700C31C04EBC303CF
:103DA00093F824108D09032D03D023695A49204626
:103DB00003E020B923695A492046584A39E0C80728
:103DC00013D5E06A996A0AF02EF8002809DA256905
:103DD000FDF74CFE03680093204652494F4A524B70
:103DE000A847012384F8363003E041F0010183F84D
:103DF000241094F83730DA1C04EBC202013B92F82D
:103E000024106FF3871182F8241084F83730F4E01F
:103E100094F8373004EBC30393F83C30C3F38113B9
:103E2000033303F00303012B13D823693A492046D7
:103E30002A46984794F83C2002F03F02002342F0C3
:103E4000010284F8363084F8373084F83C2023644B
:103E5000CDE028462D490AF06CFB8146002834D17C
:103E600020464146FFF773FE054618B923692649E7
:103E700020469EE094F83860A31993F839309B09E6
:103E8000012B03D123692449204692E0012E03D956
:103E900023691F4920468CE00136F6B22046FFF721
:103EA000CFFD84F838602644D0F1010096F839300F
:103EB0004FF0010262F3871338BF002060F3410323
:103EC00069F3000386F8393098E0284617490AF06C
:103ED00030FB68BB41462046FFF739FE94F8383086
:103EE0002344054693F839209109012904D0236918
:103EF00009490E4A20466EE0022161F3871231E043
:103F00008F19010895190108E71701089B19010885
:103F1000261801089E19010802180108A1190108B4
:103F2000411801085A180108A6190108AC1901081E
:103F3000284696490AF0FDFAB8B941462046FFF7EF
:103F400006FE94F838302344054693F83920910949
:103F5000022908BF42F0C00204D023698C498B4A71
:103F6000204638E083F8392048E0284689490AF09D
:103F7000E0FA20BB20464146FFF7E9FD054618B1AF
:103F80002369854920460EE094F83830E21892F80B
:103F90003920C2F38112023202F00302012A04D94D
:103FA00023697B4920467B4A15E023B923697B4975
:103FB00020467B4A0FE0013B84F838301EE094F83D
:103FC0003830234493F839309B09012B16D12369EB
:103FD0006F4920462A46984794F83930002203F06A
:103FE0003D0362F3000384F8382084F8393020461A
:103FF0000121FFF772FD044697E100250023A3622B
:10400000002D31D0284667490AF093FA00282DD1B7
:104010000A23A36220464146FFF799FD054618B3DF
:1040200061490AF086FA064600BB20464146FFF782
:104030008EFD8146D0B108A932460AF09FF8A062F1
:104040001430272804D8089B4B4501D01B782BB18E
:1040500023695149534A20469847C8E720464146BC
:10406000FFF775FD054608B900245EE12046FFF71D
:10407000E7FC0028F8D00B95012620464146FFF7C3
:1040800066FD47F8260010B101360A2EF5D116A9B3
:1040900001EB86030022012E43F82C2C00F0048152
:1040A00006F1FF3801EB8809404959F82C0C0AF059
:1040B00040FA28B9012384F8243049F82C0C4646EC
:1040C000022E40F3F180A6F1020816AB03EB88093B
:1040D000374959F82C0C0AF02CFA78B916A901EBDB
:1040E0008606012356F8301C84F82530204601F05E
:1040F000FDFC464681464FF0260818E059F82C0C86
:104100002C490AF016FA78B9012384F8253016AB49
:1041100003EB8606204656F8301C01F0E7FC4646C5
:1041200081464FF0160802E04FF00008C146062E07
:1041300004DD2369204920462A469847CDF80080AF
:1041400020460B993A464B4601F0BCFF002804DBA1
:1041500020460CBF002101219CE094F825308BB350
:10416000484641464FF4DB7202F033FFB0F1000ADB
:104170002ADA0B9E2569FDF779FC03680093204637
:104180000E490F4B3246A84782E000BFB119010823
:1041900002180108B6190108E717010841180108BB
:1041A0009B190108B9190108BE190108C1190108B4
:1041B000E0170108E2170108721801085A180108EF
:1041C0005C2501084FF0FF3A94F8243043B323688C
:1041D000204698470546D8B13820FEF7F5FD8046C1
:1041E00098B180E8200486604FF0000B4FEA8B0303
:1041F00057F82B0003930AF0B7F9039B0BF1010B5F
:104200004344B345D860F1DB24E0AB6828469847C7
:1042100094F82530002B3BD0504602F043FE37E0A7
:1042200094F8253023B1A3692046514608AA98473F
:10423000204631463A4600F011FA94F825300546FA
:104240001BB1E369204608A99847002D20DB2046D2
:1042500000211FE094F8253023B1AB692846514670
:1042600000229847002007A908F020F900B30B9F0F
:104270002669FDF7FBFB036800932E492E4B204671
:104280003A46B0474046FFF7FEFBAB6828469847E2
:1042900020460121FFF721FC0446B9F1000F44D06C
:1042A000484601F077FC40E04FF00008C14645E782
:1042B000A36A002B11D0079E4FF00200C3EB060645
:1042C00005DA0AF0A3F8B042A8BF304604E00AF0CD
:1042D000A4F8B042B8BF3046079008A80AF0D6F953
:1042E000022108A80AF0DEF907A908A80AF0E3F9F4
:1042F0000DF1160008A9114A434608F09DFB30B1A4
:10430000009026690B490B9A0D4B2046B9E7BDF981
:10431000160008F05BFC079A0092BDF9163025697B
:1043200008490B9A2046A84791E7204617B0BDE8F8
:10433000F08F00BF5A180108C3190108BF3A0008DE
:10434000D1190108E01901082DE9F84300230446BA
:104350000F4680F836300D460E4694F83690B9F187
:10436000000F32D1EB1BA386284619490AF0EEF85C
:104370002B5C2A182BB920463146BDE8F843FFF7DD
:1043800055BC0A2BF7D0232BF5D03B2B02F10100B3
:1043900009D1804682F8009020463146FFF746FC5E
:1043A000A0B945460FE022210AF0B6F848B9094AFB
:1043B0002569094920461346A8474FF0FF30BDE85C
:1043C000F883451CB0464646C7E70020BDE8F883A1
:1043D0008F1801088D1901089418010890F83730DA
:1043E000033300EBC30393F824209209032A09D175
:1043F00093F8252080F8382093F824206FF30002EA
:1044000083F824200020704708B503490369126827
:1044100098474FF0FF3008BDFE1801080020704794
:104420004FF0FF30704708B50021036A984710B578
:10443000CB6804690A461BB103491268A04710BD46
:1044400002491268A04710BD9C1C0108A51C010868
:104450002DE9F041114D04460F4655F8100CA5F119
:10446000100880B139460AF064F810350646002875
:10447000F3D123690A4920463A46984720464146E7
:10448000FFF7D5FF06E02369064920463A469847DC
:104490004FF0FF363046BDE8F08100BFFC1901083F
:1044A000AB1C0108FE1801080129F8B504460E46A8
:1044B000174673DD506853490AF03BF820B9022EC5
:1044C00008D00222012301E00122002357F82250E4
:1044D0000BB961E0054623694B492046984723699B
:1044E0004A49204698472369494920469847236905
:1044F00048492046984723694749204698472369F9
:1045000046492046984723694549204698472369EC
:1045100042492046984723694249204698472369E3
:104520003B492046984723693F49204698472369DD
:104530003E492046984723693849204698472369D1
:104540003B492046984723693149204698472369CB
:1045500038492046984723693449204698472369BB
:104560002E4920469847236931492046984725B16E
:1045700020462946FFF76CFF41E023692E492F4D65
:1045800020469847A5F11001103555F8203C33B36B
:104590002046FFF74CFFF5E7002DE9D128492046DA
:1045A000FFF756FF236927492046984700252369CE
:1045B0002549264F2046984707EB0517002632016C
:1045C00023692349BA582046073698472A2EF6D140
:1045D00023691C49204601359847072DE7D12369F7
:1045E0001C49204698470025284607F0F3FA024662
:1045F00028B123691849204698470135F4E700207F
:10460000F8BD00BFB51C0108B81C0108CC1C01088E
:10461000071D01080B1D0108171D01081F1D0108BA
:10462000381D0108401D0108471D0108561D0108DD
:104630005C1D0108651D0108741D0108FC190108B5
:104640009C1D0108051D010854260108EC190108EC
:10465000A11D01088C1D0108A51C01082DE9F843C6
:10466000164DD2F8008004460E46914655F8100CBF
:10467000A5F11007D0B1414609F05BFF10350028C5
:10468000F4D13B7A9E4203DA23690D49204607E0C4
:104690007B7A9E42D8BF7B6809DD236909492046A1
:1046A000424698474FF0FF30BDE8F883064B20465E
:1046B00031464A469847BDE8F88300BFFC19010817
:1046C00037190108721801080944000838B50C466A
:1046D0000C49054609F02DFF28B90B490B48224625
:1046E00008F0A2FF05E0094809492A46234608F0D8
:1046F0009BFF0648002380F88130BDE8384009F070
:1047000033BF00BF2021010824210108A807002091
:10471000222101082DE9F04713F0030F8CB0044665
:104720008846164699467DD008465AB1511CFFF777
:10473000CDFF05A9074602F089FD05463846FEF77C
:1047400037FB03E005A902F081FD0546D4F810A06F
:104750005DB1FDF78BF90368009320464449454A53
:10476000454BD0474FF0FF307FE019F0020F51D09A
:10477000424F386879683A89BB7A02AD03C52A800E
:10478000AB70059D05F47047B7F5804F01D16423E8
:104790000DE0B7F5005F01D1632308E0B7F5C04F26
:1047A00001D1622303E0B7F5004F02D03F238DF81B
:1047B0000830EF0544BF72238DF80930280644BF46
:1047C00077238DF80A30690644BF78238DF80B30C3
:1047D000AA0644BF72238DF80C30EB0644BF772342
:1047E0008DF80D302F0744BF78238DF80E30680701
:1047F00044BF72238DF80F30A90744BF77238DF88B
:104800001030EA0744BF78238DF8113020461C4948
:1048100002AAD04719F0010F04D023691949069A5A
:10482000204698472369DEB1751C204614492A4664
:10483000984733781B070DD52846134909F079FEB0
:1048400040B12846114909F074FE18B12369104996
:10485000204602E023690F4920469847002004E0E3
:1048600020460D494246984730460CB0BDE8F087D7
:104870005A1801086A1F0108282101083B21010874
:104880002D210108312101083621010835210108B7
:1048900038210108051D0108A61C01082DE9F34176
:1048A000064608460D461746984602F069FE04463D
:1048B00048B9009534690F490F4A104B3046A0475C
:1048C0004FF0FF3012E0204602F0D0FE024640B129
:1048D000304629464346B8470028F4DA4FF0FF3502
:1048E00000E00546204602F01AFE284602B0BDE868
:1048F000F08100BFE51801086A1F01084621010880
:10490000F8B51F46137803F0080306460D4603F07A
:10491000FF04002B29D0541C2046154909F009FE3C
:1049200008B9002421E02046124909F002FE0028BF
:10493000F7D021462846FFF7C9FE054633690E49E0
:104940002A4630469847304629460C4A3B46FFF7F0
:10495000A5FF044648B930462946094A3B46FFF7B9
:104960009DFF04462846FEF723FA2046F8BD00BF07
:10497000362101083521010850210108154700089A
:10498000014900082DE9F04F87B004460591914692
:1049900000250127059B9F4280F28780002D40F073
:1049A0008480204659F8271001F0A0F804900028D0
:1049B00077D00121D9F8006002F00BFBB0F1000ABA
:1049C00009DA2569FDF752F8036800932046394952
:1049D000394B32460EE04FF40070FEF7EFF9804697
:1049E00030BB2569FDF742F8036800933149334B2A
:1049F00020463246A8474FF0FF354EE043D04FF0F7
:104A0000000B6246CDF80CC0E3682046414698474B
:104A10000028DDF80CC032DAFDF728F803682569B4
:104A2000042B22D1204626493246A8474FF0FF35B5
:104A3000504641464FF4007202F035FBB0F1000CD5
:104A4000DCDAFDF713F803682569042B04D120464E
:104A50001B493246A84705E0009320461549194BEB
:104A60003246A8474FF0FF350DE0FCF7FFFF036823
:104A7000009320460F49144B3246A847D6E783449B
:104A8000E345BEDBD4E723691049204698475046EA
:104A900002F008FA4046FEF78BF9049801F07AF824
:104AA00001E04FF0FF35013774E7284607B0BDE855
:104AB000F08F00BF5A1801085C2501085521010834
:104AC000AD180108CB210108D7210108051D0108F7
:104AD0002DE9F04F8DB051680446154601F006F8F7
:104AE0008346002800F0BF80012102F072FAB0F185
:104AF00000090DDA26692D68FCF7B8FF03680093FA
:104B000020465E495E4B2A46B0474FF0FF36A6E08E
:104B10002046A96800F0EAFF8046002800F09A804D
:104B200005A902F093FB064600282FD1059B03F44C
:104B30007043B3F5804F22D1AF683846FDF7ABFF25
:104B40000138002805DD3A5C2F2A02D100223A54B0
:104B5000F6E76868AF6809F045FF01463846FFF799
:104B6000B5FD074628B9236946492A682046984773
:104B70007CE0404601F00EF8B846262108E0B3F587
:104B8000004F14BF02212621074601E026210027FD
:104B900040464FF4DB7202F01CFAB0F1000A19DA59
:104BA0002D68D4F810A0FCF761FF0368009320463D
:104BB0003249334B2A46D04747E014DB1A46504669
:104BC0003149039302F01BFC0028039B1EDB1B1AD8
:104BD000002BF3DC48462C494FF4007202F063FAD4
:104BE000031EEAD12DE0FCF741FF0368D4F810C0A2
:104BF000042B12D02D68CDF80CC0FCF737FF0368EA
:104C0000009320461D49214B2A4616E0FCF72EFF53
:104C10000368D4F810C0042B04D120461C492A682C
:104C2000E0470FE02D68CDF80CC0FCF71FFF0368CC
:104C300000931249174B20462A46DDF80CC0E04786
:104C400000E01E46504602F02DF97FB13846FEF7CF
:104C5000AFF801E04FF0FF36484602F023F958461E
:104C600000F098FF06E04FF0FF3603E0404600F00A
:104C700091FFF1E730460DB0BDE8F08F5A180108FA
:104C80005C250108CD180108A8070020CB210108E8
:104C9000AD180108D72101082DE9F04F85B0002794
:104CA00004468A461546BB460397B946B846484A65
:104CB0005046294609F0CEFA421C034620D06F2BFD
:104CC0000FD0722B0AD0642B13D1424B20461968A7
:104CD00000F00CFF4FF001098046E8E70123039341
:104CE000E5E73C4B002118680A2209F047FA8346A1
:104CF000DDE7236938492A68204698470127D6E727
:104D0000002F55D1354EB9F1000F20D13168481C24
:104D1000504512DA55F82110204600F0E7FE3368BE
:104D20000133336055F823108046204600F0DEFE44
:104D3000336801330746336009E026690293204651
:104D400027492A68B047029B4F461E4632E0336827
:104D5000534507DA236923492A68204698474FF0CC
:104D6000FF3627E0B9F1000F0DD0404606F012FFE4
:104D7000061E1FDA73420093D4F810C01A492A683D
:104D80001A4B204612E0039B0093404639464FF4ED
:104D900000725B4606F09BFE061E0BDA7342009320
:104DA000D4F810C010492A68114B2046E04701E0B2
:104DB00006460027B8F1000F02D04046FDF7F8FF85
:104DC00017B13846FDF7F4FF304605B0BDE8F08F67
:104DD0005C2101084C0E0020E71701082401002087
:104DE00037190108721801085A18010862210108D0
:104DF000241F01082DE9F0434FF000098BB0044651
:104E0000884617464D463D4A4046394609F022FA43
:104E1000421C064616D06C2E06D0732E07D0522E9A
:104E200008D145F00405EEE745F00305EBE745F052
:104E30000105E8E7236932493A68204698474FF070
:104E40000109E0E7B9F1000F02D04FF0FF3052E066
:104E50002C4B1B685A1C424505DA23692A493A68DB
:104E600020469847F1E7434503DB00F031FE014659
:104E700001E057F82310204600F038FE06460028CF
:104E8000E3D003A902F0E2F900280DDA3F682569B2
:104E9000FCF7ECFD036800933A4620461B491C4B87
:104EA000A8474FF0FF3722E0039B03F47043B3F5AC
:104EB000804F06D02046314600222B46FFF72AFCC1
:104EC00014E023691349324620469847204631466C
:104ED000114A2B46FFF7E2FC074640B96B0706D59F
:104EE000204631460D4A2B46FFF7D8FC0746304690
:104EF00000F050FE38460BB0BDE8F0836D2101088C
:104F0000E717010824010020721801085A18010847
:104F1000282101085021010815470008014900080F
:104F20002DE9F34151680546164600F0DFFD0746BE
:104F3000A8B140F2FF1101F0FAFF041E0BDA366847
:104F4000D5F81080FCF792FD0368009328460749C6
:104F5000074B3246C047384600F01CFE01E04FF0D8
:104F6000FF34204602B0BDE8F08100BF5A180108A6
:104F7000B11F01082DE9F041394E04468846174615
:104F80000FCE8AB002AD0FC596E80F0085E80F007E
:104F9000002640463946334A09F05CF9431C054671
:104FA00022D03A2D15D0462D17D12F4B002118684D
:104FB0000A2209F0E3F8C0B210F0EF0F8DF80900F3
:104FC000E7D00C28E5D02028E3D0236927492046E4
:104FD00006E023692649204602E023692549204648
:104FE0003A6898470126D4E7002E35D1224B1B683A
:104FF00008F1FF329342204611D157F8231000F0F8
:1050000075FD0646A0B93F682669FCF72FFD0368C9
:105010000093204619491A4B3A46B0471CE04345D5
:10502000A8BF18492369B8BF11493A68984713E0E7
:1050300002A904F0EBFD051E0BDA3F68D4F81080DE
:10504000FCF714FD0368009320460C490E4B3A46CA
:10505000C047304600F09EFD28460AB0BDE8F0810A
:1050600000210108712101084C0E00201A190108C5
:1050700037190108E7170108240100205A18010810
:105080007521010872180108BE1F01082DE9F341BE
:1050900051680546164600F029FD0746A8B140F2C2
:1050A000FF1106F051FA041E0BDA3668D5F81080AD
:1050B000FCF7DCFC0368009328460749074B32469F
:1050C000C047384600F066FD01E04FF0FF3420464F
:1050D00002B0BDE8F08100BF5A180108E41F0108C2
:1050E0002DE9F3474FF0000804468A4615464FF471
:1050F0000079474650462946364A09F0ABF8431C2A
:10510000064626D06D2E07D0732E0ED03A2E236978
:1051100019D12046304918E0304B002118680A2286
:1051200009F02CF88046FF2808E02C4B0021186875
:105130000A2209F023F8B8F5804F8146DAD92369AD
:105140002749204601E0274920462A689847012739
:10515000D0E7002F39D1244B1B680AF1FF3293426C
:105160000DD1394655F823000A2209F007F8824686
:1051700009FB00F0FDF722FE074630B91DE01B4A8F
:1051800015495345A8BF114618E001230093404636
:10519000394652461FFA89F306F0D1FB002815DA8A
:1051A00040420090D4F810C011492A68114B2046A3
:1051B000E0473846FDF7FCFD07E00F4923692A6800
:1051C000204698474FF0FF3000E0304602B0BDE87F
:1051D000F08700BF85210108371901084C0E002017
:1051E0001A190108E71701082401002072180108A4
:1051F0005A1801088B210108CD1801082DE9F74341
:1052000051680546164600F071FC044618B328465E
:10521000B16800F06BFC074610B900F0BBFC1AE067
:105220002046394601F055FFB0F100080BDA366828
:10523000D5F81090FCF71AFC03680093284608493B
:10524000084B3246C847204600F0A4FC384600F020
:10525000A1FC404601E04FF0FF3003B0BDE8F08311
:105260005A1801089C2101082DE9F34151680546AF
:10527000164600F03BFC074698B102F061F8041EA8
:105280000BDA3668D5F81080FCF7F0FB0368009362
:1052900028460749074B3246C047384600F07AFC9B
:1052A00001E04FF0FF34204602B0BDE8F08100BFBE
:1052B0005A180108A32101082DE9F3415168054658
:1052C000164600F013FC074698B101F07BFF041E60
:1052D0000BDA3668D5F81080FCF7C8FB036800933A
:1052E00028460749074B3246C047384600F052FC73
:1052F00001E04FF0FF34204602B0BDE8F08100BF6E
:105300005A1801087A20010806CA01F097BB2DE956
:10531000F04FC3B051680446154600F0E7FB07465E
:1053200038B9236942492A68204698474FF0FF342C
:1053300079E02046A96800F0D9FB804638B9236996
:105340003B492A68204698474FF0FF3468E03846CA
:10535000012101F03EFEB0F100090DDA26692D6849
:10536000FCF784FB0368009320463249324B2A46FF
:10537000B0474FF0FF3450E04046012101F029FED4
:10538000B0F1000A0DDA26692D68FCF76FFB03689F
:10539000009320462749284B2A46B0474FF0FF3458
:1053A00038E04FF0000B02A98022484601F07BFE56
:1053B00022A906468022504601F075FE002E01DB30
:1053C00000280BDA2D682669FCF750FB0368009370
:1053D00020461849194B2A46B04716E0B042D4BFC0
:1053E0008344B344864205D02369154920465A4672
:1053F00098470AE002A822A9324609F070F800286E
:10540000F2D17F2ECFD8044601E04FF0FF34504652
:1054100001F048FD484601F045FD404600F0BAFB6A
:10542000384600F0B7FB204643B0BDE8F08F00BF20
:10543000371901085A1801085C250108CB21010819
:10544000AA210108406805F0DFBE806805F0DCBED7
:1054500013B50446438B0269216A40685A4305F03C
:10546000EBFE031E0ADA20680849094A5B420093F2
:105470000469084BA0474FF0FF3005E0A38314BF39
:10548000002301232376002002B010BD5A18010822
:10549000C1210108C4210108406801F003BD8068F2
:1054A00001F000BD37B50023056A83830446A38B52
:1054B000628B6068D21A294601F0F5FD031E0ADAF4
:1054C00020681049104A5B42009304690F4BA047C3
:1054D0004FF0FF3013E0A28B618B1A4492B29142DD
:1054E000A2831D4408D8237E002A14BF1A4643F025
:1054F00001022276002002E0002BD8D1F3E703B0AE
:1055000030BD00BF5A180108C1210108CB21010894
:1055100073B5066A04460025628BA0683146521BAB
:1055200001F06DFF031E0ADA20680949094A5B424F
:1055300000930469084BA0474FF0FF3006E01D447C
:105540001E44638BADB2AB42E6D8002002B070BD02
:105550005A180108C1210108D721010813B50169B2
:105560004269438B04468A1A5A438068216A05F0CF
:10557000C7FE031E10DA13F11B0F02D1012323769D
:105580000AE020680649074A5B4200930469064B1B
:10559000A0474FF0FF3000E0002002B010BD00BF78
:1055A0005A180108C1210108D02101082DE9F04352
:1055B00097B007461446894609A800213422FDF712
:1055C0005BFA4FF40073ADF83E3000254FF0FF3327
:1055D00009970C9304344FF001082E46C8454CDA65
:1055E00054F8040B8949032208F0EAFF38B954F84B
:1055F000041C3846033100F079FA06463AE054F8C4
:10560000040C8349032208F0DBFF38B954F8041C6A
:105610003846033100F06AFA05462BE07D4954F81C
:10562000040C032208F0CCFF014654F8040C31B9F5
:1056300003300A2208F0A2FDADF83E001AE07649D8
:10564000062208F0BDFF014654F8040C29B90630C3
:105650000A2208F093FD0C900CE07049052208F036
:10566000AFFF014630B954F8040C0A22053008F0A7
:1056700085FD0E9008F10108B0E706B155B93B6908
:105680006749684A384698474FF0FF34002E00F0CB
:10569000AE80A9E0BDF83E00FDF790FB119028B95F
:1056A0003B6961495F4A38469847A5E0304602A900
:1056B000099C01F0CBFD002808DB029B03F470433A
:1056C000B3F5C04253425341F3B907E001230093BD
:1056D00027695649534A564B20460FE03046012170
:1056E00001F077FC00280A900ADA2769FCF7BEF976
:1056F000036800934D494B4A4E4B2046B8477BE028
:105700004D4B12934D4B09E0304601210AAA05F09A
:105710002FFD002870DB4A4B12934A4B284602A902
:10572000139301F093FD002811DB029901F47041FD
:10573000B1F5C0435942594149B128460BAA05F079
:1057400017FD00285BDB404B1493404B17E02846C5
:1057500026214FF4D27201F03CFC00280B900BDAAA
:10576000099C2769FCF782F90368009320462F49BA
:105770002C4A304BB84742E0354B1493354B1593C8
:1057800000230D939DF83C3023BB0C9C1CB309A84F
:10579000129B9847041E1EDB9DF83C30002BF1D174
:1057A000BDF84030BDF83E20934204DA119A002142
:1057B000D1540133F6E70E9B0D9A9A4207D309A8FC
:1057C000149B9847041E06DB0C9B013B0C930D9B1E
:1057D0000133D6E7002409A8159B984709A8139B15
:1057E00098471198FDF7E4FA3046FDF7E1FA4DB11C
:1057F0002846FDF7DDFA05E04FF0FF34F4E74FF0FF
:10580000FF34EBE7204617B0BDE8F083DD21010847
:10581000E1210108E5210108E9210108F021010841
:1058200037190108C1210108CD1801085A180108CB
:10583000282101085C250108A55400089954000896
:1058400051540008455400085D5500084B540008A9
:10585000115500089F540008F0B50C46418BB0F973
:105860000C20037E264F0546264811F0100F0CBF72
:10587000BC46844611F0040F87B00CBF20264E268C
:1058800011F0080F01F003070CBF202150211E4822
:105890000391697E50F82770CDF800C000EB8100BD
:1058A0000296016904910197184926692046B0477C
:1058B00023691749204698476B8B03F00303012B9C
:1058C000236905D120461349D5F8C020984711E037
:1058D000D5F8C42052686AB120460E499847082678
:1058E000D5F8C4309A59043622B123690A492046B2
:1058F0009847F5E7236909492046984707B0F0BD66
:10590000D32701082C220108F821010831220108BF
:105910004A2201085622010854220108592201088E
:1059200073B505461646506801A9002208F026FC0A
:105930002B69044628B1019A71688A4201D0127815
:1059400032B128460649326898474FF0FF3004E0EC
:105950000449224628469847A04702B070BD00BFC0
:10596000E71701085C22010810B5054903690446E0
:1059700098470448214606F0BDFD002010BD00BF39
:1059800068220108595800087FB505465068037819
:105990002D2B144631D14378303B092B2DD80022D2
:1059A000013003A908F0EAFB0646A0680278303A05
:1059B000092A22D803A9002208F0E0FB314600B2F0
:1059C000FCF730FF00B3FCF751F803682E69032B96
:1059D0000BD0162B11D02468FCF748F8036800930D
:1059E00028460A490A4B224605E0A3680093094964
:1059F0002268094B2846B04704E02B690749226812
:105A0000284698474FF0FF3004B070BD5A1801087F
:105A10000F1F0108E518010890220108E717010887
:105A200073B505461446506801A9002208F0A6FB8C
:105A300028B1019B6268934201D01E783EB12B6968
:105A400005492268284698474FF0FF3002E008F0E9
:105A5000C1FC304602B070BDE717010873B50546BA
:105A60001446506801A9002208F088FB28B1019B68
:105A70006268934201D01E783EB12B6905492268C5
:105A8000284698474FF0FF3002E0FCF7DFFF304632
:105A900002B070BDE717010830B5044689B003A80D
:105AA00009F0CCF92369084920469847079B0093E1
:105AB000059B019325690549039A069B2046A84743
:105AC000002009B030BD00BF062301083B230108B8
:105AD00008B5044807F012FA034B002808BF18461F
