:020000040800F2
:100000002C140020B1040008910100089901000897
:10001000A1010008A9010008B10100088901000838
:10002000890100088901000889010008B901000858
:10003000C101000889010008C9010008D1010008B8
:10004000D9010008E1010008E9010008F1010008F8
:10005000F901000801020008090200081102000865
:1000600019020008210200082902000831020008D4
:100070003902000841020008490200085102000844
:1000800059020008610200086902000871020008B4
:100090007902000881020008890200089102000824
:1000A00099020008A1020008A9020008B102000894
:1000B000B9020008C1020008C9020008D102000804
:1000C000D9020008E1020008E9020008F102000874
:1000D000F9020008010300080903000811030008E1
:1000E0001903000821030008290300083103000850
:1000F00039030008410300084903000851030008C0
:10010000590300086103000869030008710300082F
:10011000790300088103000889030008910300089F
:1001200099030008A1030008A9030008B10300080F
:10013000B9030008C1030008C9030008D10300087F
:10014000D9030008E1030008E9030008F1030008EF
:10015000F90300080104000809040008110400085C
:1001600019040008210400082904000831040008CB
:10017000390400084104000849040008510400083B
:1001800059040008610400084FF0000000F06CB949
:100190004FF0020000F068B94FF0030000F064B9BE
:1001A0004FF0040000F060B94FF0050000F05CB9BA
:1001B0004FF0060000F058B94FF00B0000F054B9B2
:1001C0004FF00C0000F050B94FF00E0000F04CB9A9
:1001D0004FF00F0000F048B94FF0100000F044B9A4
:1001E0004FF0110000F040B94FF0120000F03CB9A0
:1001F0004FF0130000F038B94FF0140000F034B99C
:100200004FF0150000F030B94FF0160000F02CB997
:100210004FF0170000F028B94FF0180000F024B993
:100220004FF0190000F020B94FF01A0000F01CB98F
:100230004FF01B0000F018B94FF01C0000F014B98B
:100240004FF01D0000F010B94FF01E0000F00CB987
:100250004FF01F0000F008B94FF0200000F004B983
:100260004FF0210000F000B94FF0220000F0FCB880
:100270004FF0230000F0F8B84FF0240000F0F4B87D
:100280004FF0250000F0F0B84FF0260000F0ECB879
:100290004FF0270000F0E8B84FF0280000F0E4B875
:1002A0004FF0290000F0E0B84FF02A0000F0DCB871
:1002B0004FF02B0000F0D8B84FF02C0000F0D4B86D
:1002C0004FF02D0000F0D0B84FF02E0000F0CCB869
:1002D0004FF02F0000F0C8B84FF0300000F0C4B865
:1002E0004FF0310000F0C0B84FF0320000F0BCB861
:1002F0004FF0330000F0B8B84FF0340000F0B4B85D
:100300004FF0350000F0B0B84FF0360000F0ACB858
:100310004FF0370000F0A8B84FF0380000F0A4B854
:100320004FF0390000F0A0B84FF03A0000F09CB850
:100330004FF03B0000F098B84FF03C0000F094B84C
:100340004FF03D0000F090B84FF03E0000F08CB848
:100350004FF03F0000F088B84FF0400000F084B844
:100360004FF0410000F080B84FF0420000F07CB840
:100370004FF0430000F078B84FF0440000F074B83C
:100380004FF0450000F070B84FF0460000F06CB838
:100390004FF0470000F068B84FF0480000F064B834
:1003A0004FF0490000F060B84FF04A0000F05CB830
:1003B0004FF04B0000F058B84FF04C0000F054B82C
:1003C0004FF04D0000F050B84FF04E0000F04CB828
:1003D0004FF04F0000F048B84FF0500000F044B824
:1003E0004FF0510000F040B84FF0520000F03CB820
:1003F0004FF0530000F038B84FF0540000F034B81C
:100400004FF0550000F030B84FF0560000F02CB817
:100410004FF0570000F028B84FF0580000F024B813
:100420004FF0590000F020B84FF05A0000F01CB80F
:100430004FF05B0000F018B84FF05C0000F014B80B
:100440004FF05D0000F010B84FF05E0000F00CB807
:100450004FF05F0000F008B84FF0600000F004B803
:100460004FF0610000F000B86A4602F12002EFF39D
:1004700010832DE9FC0F72B6694600F0DFFB694678
:10048000884209D000F1280191E8F00F016821E9C4
:10049000F00F90E8FC0F01E0B1E8FC0F81F3088851
:1004A000DFF808E083F3108870470000F9FFFFFFD2
:1004B00010B500F03DF800F0C3F900F0CFF841208E
:1004C00000F0B2F9154A164B9A424FF0000402D2DE
:1004D00042F8044BF7E7422000F0A6F92346114A00
:1004E00011499818884204D2104959589950043338
:1004F000F5E7432000F098F900F034FB442000F0C9
:1005000093F901F09BF8462000F08EF90D2000F0E1
:100510008BF90A2000F088F901F040F91C03002053
:1005200030100020000000201C0300202842010899
:1005300013B53C4A3C4C136843F0010313603B4B3A
:1005400000201860116821F0847121F00111116000
:1005500037490C60146824F480241460354C206002
:10056000106840F480301060334A01920846019AC6
:10057000002A07DD2B4A1268940303D4019A013A3A
:100580000192F4E7019A002A2C4A18DC2C492D4BE1
:10059000086803430B602C4B196841F08001196017
:1005A000136843F0925343F480231360274A13687F
:1005B00043F4984343F02103136002B010BD116867
:1005C00041F08051116022490C6844F480440C6071
:1005D000196821F0F0011960196821F4604141F4B3
:1005E00000411960196821F4E05141F4A0511960EB
:1005F000184901600B49086840F08070086008687D
:100600008001FCD5144940F205600860196821F0AA
:10061000030141F002011960196801F00C01082979
:10062000FAD1B3E700380240103000240838024005
:10063000043802400C38024014821900403802404D
:1006400030380240FF014000343802404438024054
:100650000070004019544007003C02407047C0F34E
:100660000313082B0AD8064A00F00F0052F8232083
:10067000012301B9103003FA00F09061704700BF08
:10068000001F01082DE9F84FC0F30316082E00F2F1
:10069000A880564B00F44022B2F5002F53F82630C4
:1006A00000F00F0109D0B2F5402F08D0B2F5802A32
:1006B000DAF1000252EB0A0202E0022200E0032219
:1006C000EFF3108872B603274C001D68A740FF4364
:1006D0003D4002FA04FC4CEA0505032A1D600CD0DB
:1006E00000F44035B5F5803F05D0B5F5003F0CBFAF
:1006F0000225002502E0012500E00025D3F80CC00A
:10070000022A0CEA070C05FA04F545EA0C050CBFB1
:10071000C0F303394FF000090729DD608BBF2425A2
:100720002025A1F1080C8C464FEA8C0C55F803B03B
:100730004FF00F0A0AFA0CFA2BEA0A0A09FA0CF926
:100740004AEA090C45F803C002F1FF3CBCF1010F75
:1007500012D800F44065B5F5006F09D0B5F5406FCB
:1007600008D0B5F58069D9F1000555EB090504E01D
:10077000022502E0032500E00025D3F8089005FAE1
:1007800004F409EA07073C4301259C60AC455C681A
:1007900005FA01F103D8850501D5214301E024EADA
:1007A0000101012A596004D1C0F30021FFF757FF6E
:1007B00010E0C3050ED500F00C020D4B00F0030055
:1007C0008000D4580F21814024EA0101864041EA8B
:1007D0000600D05018F0010F00D162B60020BDE82D
:1007E000F88F6FF01500BDE8F88F00BF001F0108FB
:1007F00008380140C0B2FFF745BFC0F30313082B10
:100800000DD8084A52F8233000F00F001B6901226E
:1008100002FA00F003420CBF0020012070470020C4
:10082000704700BF001F0108034B1B681B06FBD568
:10083000024B1860704700BF0014014004140140CF
:1008400008B500212022154800F0EAF91448FFF706
:1008500019FF1448FFF716FF134B14491A6822F4C6
:100860007D521A6053F8042C22F4BB5222F01C0271
:1008700043F8042C0A6822F4E06222F001020A60C4
:100880000B4A40F2D921116053F8042C42F4005273
:1008900042F00C0243F8042C08BD00BF443802406B
:1008A0006E8C0900698C0900101401401414014079
:1008B0000814014010B5036C8185DA6801F4D07426
:1008C00022F4D0722243DA60036C5A6901F001010C
:1008D00022F001021143596110BD6FF018007047FA
:1008E000836A1A6C5068DA8D40EA02420A6000227C
:1008F000DA85C0B2704710B5806AEFF3108472B623
:10090000838D11B143F0200104E023F4907121F0B4
:10091000010189B2FFF7CEFF14F0010F00D162B6DA
:1009200010BD836A1B6C1868C0F340107047836A5F
:100930001B6C59607047836A1B6C1868C0F3C01049
:10094000704738B504464FF48075226C13689BB22B
:100950009906E38507D5A18D880604D5204600F0C9
:1009600039FE012304E013F00E031CBF536800237B
:10097000E28D110606D5A28D120603D5204600F0A1
:10098000F1FD0123013D01D0002BDED1002038BD57
:100990000148FFF7D6BF00BF000000200148FFF765
:1009A000D0BF00BF5000002038B50446806AEFF386
:1009B000108572B6828D41B142F0800189B2FFF795
:1009C00079FF204600F0CEFD05E022F08001090409
:1009D000090CFFF76FFF15F0010F00D162B638BDAB
:1009E00010B5846A94F8380000F06EFA94F8380074
:1009F0000021BDE8104000F0AFBF38B5846A94F81C
:100A00003800E16C00F0A8FF054618B994F83800EA
:100A100000F06CFA284638BD38B5846A374A236C32
:100A20009342054606D002F54C42934208D1344821
:100A3000202202E033484FF48022002100F0F0F839
:100A4000606CFFF71FFEA06CFFF71CFE226C94F891
:100A50003210136923F47D5309B143F40053136139
:100A6000236CDA6822F4BE72DA60226C536923F4D4
:100A7000E06323F001035361AB6A596BDA6B186CC6
:100A80004908B2FBF1F14A090131A1EB42114908D1
:100A900041EA02128260186C93F83010C268012992
:100AA00022F4B05202D142F4C06203E0022908BF2E
:100AB00042F4806293F83150092D02D0082D02D102
:100AC00009B142F48052C260196C93F832000A698D
:100AD00022F4405208B142F400520A611B6C5A6978
:100AE00022F440725A61226CD36843F4005343F0FD
:100AF0000C030020D360A08538BD00BF0048004033
:100B0000443802404038024038B5846A0546002126
:100B10002046FFF7CFFEAB6A0F4A1B6C934206D00C
:100B200002F54C42934208D10C48202102E00C48C7
:100B30004FF48021002200F073F8226CD36823F474
:100B4000005323F00C03D360606CFFF753FEA06CDE
:100B5000BDE83840FFF74EBE004800404438024030
:100B60004038024010B50024064BE05810B1002177
:100B7000FFF7A0FE0434182CF6D10348BDE810405E
:100B8000FFF74ABF241F01080000002030B51049BC
:100B9000104885B000F0A2FC0D490F4800F09EFC03
:100BA00068460E4902F028FA002401230C4AA15895
:100BB00049B1CA783AB95D1C684630338DF80930BE
:100BC00000F08CFC2B460434182CEFD105B030BD5E
:100BD000000000206C1F0108791F0108841F010814
:100BE000241F010838B504460C48036CDA685D69B7
:100BF000002102F4D07305F001051D43FFF75AFEF2
:100C00000A2C02D10D20FFF70FFEE0B2FFF70CFE19
:100C100002482946FFF74EFE204638BD000000205E
:100C200010B5EFF3108372B6046824EA0101114392
:100C3000016013F0010F00D162B610BDF8B50B4C86
:100C4000064604200D4600F05DFD3046276825600D
:100C500000F05DF92946304600F09AFE25682760CD
:100C6000042000F057FD2846F8BD00BFFC0B002013
:100C700008B5EFF3108372B60449054A032002F069
:100C800071F90448C12100F043F900BFE61F0108D3
:100C90008F1F01080720010808B5EFF3108372B613
:100CA0000449054A032002F05DF90448B92100F027
:100CB0002FF900BF182001089E1F01080720010816
:100CC00008B5EFF3108372B60449054A032002F019
:100CD00049F90448B12100F01BF900BF3E2001088A
:100CE000AF1F01080720010808B5EFF3108372B6A3
:100CF000054B06491B68064A032002F033F90548F4
:100D0000A92100F005F900BF28ED00E05C200108F2
:100D1000BC1F01080720010808B5EFF3108372B665
:100D2000054B06491B68064A032002F01BF90548DB
:100D3000A12100F0EDF800BF28ED00E085200108BA
:100D4000CD1F01080720010808B5EFF3108372B624
:100D50000449054A032002F005F90448992100F0EE
:100D6000D7F800BFAC200108DC1F010807200108EC
:100D700038B5841E5F2C03D91F48E92100F0C8F85C
:100D80000F281CDD2F280ADC03F1604303F56143C3
:100D90000B601038012303FA00F010601BE04F28AD
:100DA0004FF0010504DC154C1C440C60303803E0A6
:100DB000134C1C440C605038854015600BE0114BFF
:100DC0000B60042802D14FF4803303E0052804D1DE
:100DD0004FF400331360002038BD062802D14FF4D1
:100DE0008023F7E70F2803D1074B0B600123F1E7BE
:100DF0004FF0FF3038BD00BF0720010804E100E0DC
:100E000008E100E024ED00E010E000E010B5224A27
:100E10000023136053604FF08033C2F8183CC2F8CF
:100E20001C3CC2F8203C1D4B1B680133DB0002F563
:100E3000407213F1FF3304D34FF0803142F8041BAA
:100E4000F7E7174B174900240B201C6000F084FDC6
:100E50001549032000F080FD1449022000F07CFDBC
:100E60001349042000F078FD1249052000F074FDBC
:100E70001149062000F070FD10490E2000F06CFDB5
:100E80000F490C2000F068FD20460E4900F064FD7B
:100E900084F3118862B610BD00E100E004E000E0D8
:100EA000FC0B00203D100008E50F0008490D00086C
:100EB0009D0F0008190D0008E90C0008C10C00087E
:100EC000990C0008710C000813B58023694601AA2B
:100ED0000446FFF74DFF38B9009B019A0F2CDCBF89
:100EE000196821EA02021A6002B010BD13B500238E
:100EF000694601AA0446FFF73BFF30B9009B019AFF
:100F00000F2CDCBF19680A431A6002B010BD70478D
:100F100007B50D460446062000F0F4FB2346009575
:100F200003200F490F4A02F043F80F4B1B6823B907
:100F30000E4B1B68B3F90C307BB9EFF3108372B61C
:100F4000072000F0DFFBFA2000F012F8072000F085
:100F5000E1FBFA2000F00CF8F2E7012000F02CFF92
:100F6000D1200108C7200108FC0B0020100C002034
:100F700082B000230093009B83420CD20023019394
:100F8000019A44F24C139A4202D8019B0133F6E7CE
:100F9000009B0133EEE702B07047000007B5EFF3A6
:100FA000108372B6094C0A492246032002F000F869
:100FB000084B094A1B681268009208490320224620
:100FC00001F0F6FF06488021FFF7A2FFFB20010891
:100FD0000721010828ED00E034ED00E02E21010892
:100FE0004F21010810B50B6C0E4C9A1EA2420BD378
:100FF0000D4CA24208D233F8023CB3F55F4F03D147
:10100000BDE8104000F01AB8EFF3108372B6074B3A
:1010100007491B68074A032001F0CAFF0648B721A9
:10102000FFF776FF00000008204201082CED00E0E9
:1010300072210108652101089121010838B50C468B
:1010400019B1154D2B68994202D01448A0210AE02D
:101050008B6A012B0DD002D3022B0FD01AE0C86A85
:1010600018B90E48CF21FFF753FF482201F0D3FFF4
:1010700010E0CB6A6BB90948E821F4E7C86A08B107
:101080000B6B13B90548FF21EDE7482201F0C3FFC0
:10109000236B2B60002038BDFC0B0020A821010829
:1010A00070B583681C69636A1B690E4615469847CC
:1010B00010F1190F3ED140F205339E4204D040F2A8
:1010C00006339E4218D070BDEFF3108272B6A18B2A
:1010D000638B09B21BB2994205DC618BA38B09B209
:1010E0001BB2CB1A20E0608BA38BB4F91E1000B2A8
:1010F0001BB2C31A0B4417E0EFF3108272B6E189FA
:10110000238A09B21BB2994205DA218AE38909B21E
:101110001BB2CB1A07E0208AE389B4F9121000B29F
:101120001BB2C31A0B44013B12F0010F00D162B68F
:1011300000202B6070BD38B504460D46204600F0F7
:101140006DFE68B100F046FE0368042B03D005482D
:101150008821FFF7DDFE002DF0D06FF0030038BDD1
:1011600038BD00BFE42101082DE9F843C589B0F975
:1011700012302DB2013504460F4690469D42A8BF5D
:101180000025238A1BB29D4208D0E289636912B20E
:10119000ADB29F54E5810020BDE8F883B8F1000F9F
:1011A0001DD0EFF3108972B60126636A66705B6A20
:1011B0002046314698473146A01DFFF7BCFF636AC1
:1011C00006465B6A20460021984719F0010F00D1BE
:1011D00062B6002ED5DA6FF00300BDE8F8836FF039
:1011E0000A00BDE8F8832DE9F84F836880460E4673
:1011F00015461C6903F0CAF8074628B1E37843B9DD
:101200004FF0FF30BDE8F88F00F0CEFD0028F5D09C
:1012100018E0EFF3108772B606EB050846450AD0D2
:1012200016F8014B0A2C02D10D20FFF7DBFC2046FB
:10123000FFF7D8FCF2E717F0010F00D162B628469D
:10124000BDE8F88F04F10C0948460121FFF773FF50
:1012500000283EDBD8F8003083F0400A636A20465D
:101260005B6A39469847CAF3801AA846B8F1000F5E
:101270001FD0E37816F801BB33B9204659465246D1
:10128000FFF772FF07460AE0BBF10A0FF5D12046CF
:101290000D215246FFF768FF07460028EDD0002FCA
:1012A00004DAA84506D2C8EB050703E008F1FF38C9
:1012B000DCE72F46E289238A12B21BB29A4204D09D
:1012C000636A20465B6A01219847484600F0F0FDBA
:1012D0003846BDE8F88F2DE9F04783681C6904F1B2
:1012E000180780460E46384601219146FFF723FF36
:1012F00000284CDB00254D4545D2A38B628B9BB269
:1013000012B219B28A420ED0226AB4F91E00525C9F
:1013100001339BB219B28842D8BF0023A3830135A1
:1013200032700136E7E7002D2DD1D8F800305B068A
:1013300027D4636A20469B6929469847628BA38B12
:1013400012B21BB29A4216D1EFF3108A72B6636AD8
:1013500020469B69012198470121A17004F10800F2
:10136000FFF7E9FE1AF0010F00D162B60028C2DAD9
:101370006FF0030507E0636A20469B6901219847E7
:10138000B9E76FF00A05384600F092FD2846BDE83F
:10139000F0872DE9F04183681C69271D384601213B
:1013A000FFF7C9FE051E38DB94F8008008F101083C
:1013B00018F0FF082CD0B8F1010F26D1EFF31086FA
:1013C00072B6E3782BB9636A20461B689847051EFE
:1013D00009DB636A20469B689847051E626A07DA44
:1013E00053682046984716F0010F00D162B611E00D
:1013F0000023E38123826383A38393692046012131
:10140000984716F0010F00D162B684F8008001E021
:101410006FF01705384600F04BFD2846BDE8F08117
:1014200038B50C46054600F0E7FC28462246002168
:10143000BDE8384001F0F8BD70B583681C69251D12
:1014400028460021FFF777FE2378012B02D9013BC4
:1014500023703CE00021636A21709B692046984715
:10146000E289238A12B21BB29A4203D01A4801F0D1
:101470004BFDF5E7636A2046DB6A984718B91648C2
:1014800001F042FDF6E7EFF3108672B6636A20467C
:10149000DB689847E3781BB9636A20465B68984726
:1014A00016F0010F00D162B60021A01DFFF7B8FFB2
:1014B000002104F10800FFF7B3FF012104F10C0043
:1014C000FFF7AEFF04F118000121FFF7A9FF28463E
:1014D00000F0EEFC002070BD20A1070070B50122D5
:1014E0000C46054601F10C00002101F09DFD04F1C0
:1014F00018000021012201F097FD201D002101228A
:1015000001F092FD00210A46A01D01F08DFD0B4E59
:1015100000210A4604F1080001F086FD32462B4600
:101520000749032001F01EFD284606F1100123465D
:101530004FF4DB72BDE8704007F02CB8BC21010805
:10154000F4210108837823B100238370083000F070
:10155000AFBC7047437823B100234370063000F0DE
:10156000A7BC704770B504460025E289238A12B2F1
:101570001BB29A42AEB20BD1E289238A12B21BB2DD
:101580009A4220D1636A20465B6A002198471AE09C
:10159000636A20469B6A98470028EDD0218A6369D8
:1015A000626A09B2126A595C20469047238AB4F9EC
:1015B000122001339BB223821BB29A42DCBF00236C
:1015C00023820135D1E726B12046BDE87040FFF700
:1015D000C1BF70BD2DE9F341458BB0F91E302DB26E
:1015E000013504469D42A8BF00250026B7B2636AB4
:1015F0002046DB699847D0B1B4F81C80636A1FFAB3
:1016000088F85B69204601A90FFA88F89847454594
:10161000EDD0628B236A12B201369854ABB2638369
:10162000B4F91E3001359D42A8BF0025DEE717B191
:101630002046FFF787FF02B0BDE8F08108B5054BF3
:101640000BB1AFF3008000F045F8BDE8084000F0B2
:1016500069B800BF0000000038B50509E907044675
:1016600003D518480021FEF7FAFFAA0703D516484C
:101670000021FEF7F4FF6B0703D514480021FEF7A5
:10168000EEFF2D0703D512480021FEF7E8FFE00723
:1016900003D50C480121FEF7E2FFA10703D50A4854
:1016A0000121FEF7DCFF620703D508480121FEF7A0
:1016B000D6FF230705D506480121BDE83840FEF7CF
:1016C000CEBF38BD04090400060904001609040051
:1016D0002609040008B50748FEF7D4FF0648FEF7C0
:1016E000D1FF0648FEF7CEFF0548BDE80840FEF7EB
:1016F000C9BF00BF0409040006090400160904005C
:1017000026090400024B33F81000000AFFF7A4BFBB
:1017100008220108024B13F81000FFF79DBF00BF1D
:101720000822010808B54FF48970FEF7ABFF40F2BC
:101730005710FEF7A7FF4FF48070BDE80840FEF792
:10174000A1BF10B54FF48970FFF757F8D0F101042D
:1017500040F2571038BF0024FFF74FF808B944F0A3
:1017600002044FF48070FFF748F808B944F004040D
:10177000204610BD022807B509D8074B009101216A
:1017800033F810000A460B4602F072FB00E000201E
:1017900003B05DF804FB00BF1822010807B54B4AEF
:1017A0000023136053604A4A13605360494A136030
:1017B0005360494A13605360484A13605360484A73
:1017C00013605360474A13605360474A1360536085
:1017D000464A1380464A002599189D5008334FF613
:1017E000FF70802B8880F5D1424C1460958029468B
:1017F000C822204601F0F8FB032363763E4B636169
:10180000022363833D4B3149C4F8C830204604F1BC
:10181000C803C4F8C430C4F8CC5001F097FC20468B
:1018200002F0A0FD684601A902F08EFA9DE80300CF
:1018300002F0DAF8324B0BB100F0DEFD314B0BB1A8
:1018400001F0DAFA304B0BB101F08AFA2F4B0BB1F1
:10185000AFF300802E4B0BB100F092FF2D4B0BB17C
:101860000DF074F92C4B0BB10CF078FD214D06F006
:1018700055F902F05BFD2846A17E00F0AFF8002884
:1018800003DA26484FF4F97107E0284600F0DEF845
:10189000002804DA21484FF4FD71FFF739FB284690
:1018A00000F0C4F8002803DA1C4840F20221F4E7F3
:1018B000AB6801221A7000F033F8002803DA1748E9
:1018C00040F20921E9E702F059FBFCE7100C002087
:1018D000B00C0020080C0020280C0020180C002060
:1018E000000C0020200C0020BC0C0020B80C0020B4
:1018F000300C00201C0700209D1700082022010842
:10190000F9230008F92D0008612D000800000000EF
:10191000812700084DEB00085DE3000874220108F0
:1019200013B5002400F044FD00940848084B6421DE
:101930004FF4006200F006F9A04204DC05484FF4C1
:101940008E71FFF7E5FA204602B010BD842201082F
:101950002D46000889220108612838B504460FD8B1
:10196000EFF3108572B611B9FFF7AEFA0649074BCF
:1019700043F8241015F0010F00D162B6002038BDE5
:101980004FF0FF3038BD00BFB5190008D40C00205F
:10199000612808B507D8054B054A53F82030002BBD
:1019A00008BF134600E0024B984708BDD40C002046
:1019B000B519000808B50346EFF3108272B6044962
:1019C000044A032001F0F4FA03485521FFF7A0FA76
:1019D000AE2201089B220108BB220108F8B505468A
:1019E00008B184681CB11048B821FFF791FA4FF490
:1019F000EC7002F019F8064690B1A86000F0A2FC65
:101A0000071E05DA304602F003F8AC603846F8BD30
:101A100006F108002146012201F006FB2046F8BD30
:101A20006FF00B00F8BD00BFD322010808B508B164
:101A3000836823B904484FF48E71FFF769FA0122D5
:101A40005A70002008BD00BFD322010838B50446F3
:101A5000806818B90F485A21FFF75AFA283006F063
:101A600088F80D48032106F0F2FA051E0BD101217A
:101A700006F069FA2846022106F065FA2046BDE81C
:101A8000384000F0C7BC01DD06F04AFA6FF01600DE
:101A900038BD00BFE82201086C1F01082DE9F7439B
:101AA0000746C8200E469046994601F0BDFF044601
:101AB000002839D03146FFF791FF00281EDB204671
:101AC00000F0C6FC002819DB20464946324602F0E9
:101AD000FAFB002812DB009620464146174A0A9B73
:101AE00000F074F8002809DB39460B9A204600F014
:101AF000CFF82046FFF79AFF002801DA45420EE0B2
:101B00002046A58900F022F90028A8BF28B211DAE2
:101B100000F060F90A490568204601F023FB2046E1
:101B2000314600F013FD00E00C2500F053F905608C
:101B30004FF0FF3003B0BDE8F08300BF651D000823
:101B4000200C002073B5069C00930E4615460194A8
:101B5000002132462B46FFF7A1FF02B070BD73B5DE
:101B6000069C00930E4615460194022132462B46F0
:101B7000FFF794FF02B070BD70B5054600F010FD90
:101B8000102210490B8801339BB218B200280B8039
:101B9000DCBF01230B8003F00F040B4951F83460C4
:101BA0004EB941F8345001EBC4018B80AB8100F099
:101BB0000FFD304670BD013AE3D100F009FD4FF052
:101BC000FF3070BDB80C0020300C00202DE9F04132
:101BD00004460E4617469846FFF7CEFF054618BB4B
:101BE000638B9DF81820276102F0030223F00303A2
:101BF0001343F6B2638304F1380229462676C4F80B
:101C00001480032000F080F92046657602F0AAFBDC
:101C100000F0C6FC2046064901F098FA04236376DA
:101C200000F0D6FC84F8C0602846BDE8F08100BF13
:101C3000200C00202DE9F04104460F461646984638
:101C4000FFF79AFF0546E8B9638B277623F0030375
:101C500043F001036383294604F138022661C4F886
:101C60001480032000F050F92046657602F07AFBDC
:101C700000F096FC2046054901F068FA04236376DB
:101C800000F0A6FC2846BDE8F08100BF200C002033
:101C90002DE9F74F81462B48174601F0B4F9451C52
:101CA0009FB1002457F8240080B101F0ACF9D9F8B5
:101CB0002830013005449D423FD2013440F20113E7
:101CC0009C42EFD16FF0060039E03C46A61CB600FE
:101CD0007119484602F0FAFB054620B91A4840F24D
:101CE0000E21FFF715F906440660164801F08BF93E
:101CF00014498046304601F07FF908F10108B044EC
:101D0000AB464FF0000AA24511DA4BF8048F386851
:101D100001F079F957F8041B03464046019301F09E
:101D20006BF9019B013398440AF1010AEBE70020AB
:101D300046F8040CC9F8C45001E06FF0230003B06A
:101D4000BDE8F08F052301080E23010810B5EFF35D
:101D5000108472B602F0CEFB14F0010F00D162B60F
:101D6000002010BD08B50E4B1B685A8B02F0030211
:101D7000012A03D10B486B21FFF7CAF8D3F8C4102E
:101D8000012051F8202032B1013040F2011290427E
:101D9000F7D1012001E05B69984700F00DF800BF22
:101DA000100C002020230108024B186800B1808924
:101DB00000B27047100C002008B5054B1B68C4B278
:101DC00021461846002200F031FC204602F0A0FA1D
:101DD000100C002008B502F0D9FA38B9044B186885
:101DE00020B1437E032B01D1643008BD014808BDFA
:101DF000100C0020EC07002008B530B1B0F900301D
:101E0000002B09DB0123038006E0FFF7E3FF162325
:101E100003604FF0FF3008BD002008BDF8B5224B2D
:101E200004461D6802F0B2FA064610B11F48692147
:101E300016E0FFF7CFFF16230360002C30D0EFF33E
:101E4000108772B623881AB2002A03F1FF3303DD2C
:101E5000238030466E631EE06E6B1EB113488E21E8
:101E6000FFF756F823806C63FFF7B4FF0521066087
:101E7000284602F0E5F9FFF7ADFF0368042B08D010
:101E8000FFF7A8FF00686E2814BF00206FF0000065
:101E900001E04FF0FF3017F0010F00D162B6F8BD3E
:101EA0004FF0FF30F8BD00BF100C002032230108B6
:101EB00010B510B3EFF3108472B6038847F6FF72C3
:101EC000934203D10E487821FFF722F801339BB2E9
:101ED00003801BB2002B0ADC0A4B1B683BB15A6B18
:101EE0008242FAD100225A63184602F003FB14F032
:101EF000010F00D162B6002010BD4FF0FF3010BDC1
:101F000047230108080C0020F8B5164B1C6817463B
:101F100006460D4600F044FBA36B07B13B60EDB1F4
:101F2000EFF3108272B6022E07D0032E0AD0012ED4
:101F30000CD1A36B29680B4305E02968A36B23EA46
:101F4000010300E02B68A363002501E04FF0FF359B
:101F500012F0010F00D162B600F006F800F038FB75
:101F60002846F8BD100C002037B5154B1C6800F052
:101F700017FBA36B2046DD4300F06EFC2840019068
:101F8000019BC3B101A800F063F8431C0546F7D0DC
:101F9000294601A801F064F82946204600F012F80D
:101FA00005460028ECD02046291D00F061F828469F
:101FB00000F02EF8E4E700F00BFB03B030BD00BFEB
:101FC000100C002038B5806818B910485E21FEF763
:101FD0009FFFEFF3108572B6846900237CB12279EC
:101FE0008A4202D023462468F8E700F118011BB1A9
:101FF000184601F09AF802E0084601F08CF815F056
:10200000010F00D162B6204638BD00BF5C23010835
:1020100010B5037B23B9EFF3108472B60A4905E0CB
:10202000022B0AD1EFF3108472B6084901F053F87D
:1020300014F0010F00D162B610BD012B03D1BDE831
:10204000104000F04FBA10BD800E0020780E002026
:1020500038B5054600242846214601F00FF828B976
:102060000134202CF7D14FF0FF3038BD204638BD69
:102070002DE9F0410D46044600B119B96B484FF403
:10208000A0712AE03830097800F0F8FF8046002877
:1020900070D0EFF3108772B6637E062B15D104F172
:1020A0003C00297800F0EAFF78B12946082204F1C3
:1020B0005800002600F0AFFFE663204602F01AFA4F
:1020C00017F0010F00D162B6ADE017F0010F00D19B
:1020D00062B6A6681EB95548F921FEF719FF2A789D
:1020E000EFF3108372B6B06920B10179914201D04B
:1020F0000068F9E713F0010F00D162B628B1294654
:102100000822043000F087FF8CE002F03FF958B15C
:10211000474801F000F80446D0B9464800F0FBFFFC
:10212000044600287AD013E0EFF3108772B64048D7
:1021300000F0F1FF044617F0010F00D162B638B984
:10214000102001F06BFC0446002867D001230373C4
:10215000201D2946082200F05EFFEFF3108572B6BD
:10216000204606F1180100F0B6FF15F0010F00D16E
:1021700062B657E000F014FA2046297800F09AFB86
:10218000064600B34368D3B100F0A6FB0746C0B1D2
:1021900073684360B3688360294608220C3000F0FE
:1021A0003AFFEFF3108672B6384604F1480100F0AA
:1021B00092FF16F0010F00D162B6464603E01E46BC
:1021C00001E06FF00B0600F003FA20461A4902F016
:1021D0000DF9EFF3108772B6637E062B0AD104F176
:1021E00058002946082200F016FF0023E36320462A
:1021F00002F080F917F0010F00D162B6637E052B63
:1022000003D12046042100F083FA637E073B012BB3
:1022100009D82046042100F065F804E003484FF493
:10222000B0715AE700263046BDE8F0817D230108F1
:10223000800E0020780E00205922000810B50C46B0
:1022400000F072F920B12146BDE81040FFF710BF41
:102250006FF0020010BD00BF2DE9F846054600F002
:102260009FF9D5F86490AC6C002C35D0D4F800A060
:10227000EFF3108772B6204605F1480105F15006CC
:1022800000F033FF2046314600F025FF17F0010F24
:1022900000D162B6AF6BA368227B012101FA02F282
:1022A0003B4321461343AB63636811F80C0F0022D4
:1022B0009847AF63FFF758FEEFF3108772B62046DA
:1022C000314600F012FF17F0010F00D162B6204630
:1022D00000F026FB5446C7E7C5F86490BDE8F84611
:1022E00000F076B938B5EFF3108472B6427ED31F92
:1022F000012B1FD8036E13B91148742109E0002582
:10230000072A05660AD15A8A15B2002D03DC0C484B
:102310007C21FEF7FDFD013A5A8208E01A8A15B2C7
:10232000002D02DC06488121F3E7013A1A8241665A
:1023300002F0E0F814F0010F00D162B638BD00BF22
:102340009323010870B5124B06461D6810B10DB1FC
:10235000AB681BB90F485921FEF7DAFD00F020F9F0
:10236000AB686BB15C6A7CB11C6A204601F056FB1D
:1023700040B134627062AB682246596A00F04BFE8D
:10238000002401E06FF00B0400F022F9204670BD3C
:10239000100C0020A723010808B500F08DF80348B1
:1023A0000022016800F028FBF7E700BFC40C002002
:1023B00013B50E4C0E480523236000236360A36011
:1023C0000093E0210B4B4FF40062FFF7C8FB83B290
:1023D00018B2002804DAFFF7FDFC0068404202E072
:1023E000A3810123A37302B010BD00BFC40C002061
:1023F000B9230108992300080023044A044999508D
:102400000433B3F5C47FF8D1704700BFD40C00206B
:10241000B519000810B5044608B1806818B90B4812
:102420004D21FEF775FD00F0ABFE22460121002094
:1024300006F042F822460621012006F03DF806216A
:102440002246022006F038F8002010BDC023010803
:10245000F8B50446806810B91548D62106E0638BAC
:1024600003F00303012B03D11148D921FEF750FDDE
:10247000283005F07EFB0F4B1A68A3680BB19668F5
:1024800016B90B486121F1E703F12C072C36002522
:10249000B2681AB13046791905F090FB1035802DDD
:1024A00006F11006F4D12046BDE8F840FFF7B2BFB0
:1024B000DB230108100C002010B5094803686BB13C
:1024C000EFF3108472B600F026FE14F0010F00D175
:1024D00062B60028F1D001F09BFAEEE710BD00BF14
:1024E000BC0C002038B5044601F050FF70B1EFF38A
:1024F000108572B60B49204600F0EDFD002000F07B
:10250000CFFA15F0010F00D162B638BD01F074FAB0
:102510000028ECD1204601F07BFABDE8384001F0FC
:1025200071BA00BFBC0C002000280BDB064B00F08A
:102530000F0203EBC201B1F90410814202D153F83A
:102540003200704700207047300C002038B50D462F
:102550000446F0B1104B1BB1B0F90C00AFF3008092
:10256000A28952B102F00F020C4B002143F8321045
:1025700003EBC2034FF6FF729A80E36A1BB1204659
:10258000294601F027FF204600F0A2FA2046FFF777
:10259000A9FF002038BD00BF00000000300C002063
:1025A00010B5094B1C6864B101F0F0FE48B9A38B6B
:1025B0001AB27E2A03DD05486921FEF7A9FC013322
:1025C000A383002010BD00BF100C0020F8230108D9
:1025D00070B5144B1C681D4614B301F0D7FEF8B952
:1025E000EFF3108672B6A38B0BB1013BA383B4F952
:1025F0001C30002B10DC0023A3830B4B1B680BB19A
:1026000001F0CCFE638BDB0606D5236A23B92B6869
:102610009C421CBF1423236216F0010F00D162B646
:10262000002070BD100C0020B00C0020F8B5438BCA
:102630009B0604460F4616462DD400F02DF8A568DB
:102640000DB9F6B915E0638B03F00303012B03D03A
:102650006B680BB13F021F606B78012BF1D1002337
:102660006B60B5F90230002BEBDAA81CFFF720FCF9
:10267000F7E7A06828B14378012B02D1AC3000F015
:10268000D9FB204600F024FA204600F069F9638B5C
:1026900043F020036383F8BD10B5044600F008F84A
:1026A000204600F019F82046BDE8104000F082B93D
:1026B00038B50446EFF3108572B6406A30B100F0C9
:1026C00033FA606A00F066FA0023636215F0010FC6
:1026D00000D162B638BD000008B5EFF3108172B6C4
:1026E000437E052B0DD1436B1BB11A8812F4004FAA
:1026F00003D106487A21FEF70BFC01321A80002331
:10270000436311F0010F00D162B608BD0B2401082C
:1027100038B5EFF3108572B6427E052A10D1426BB0
:102720001AB1148814F4004F03D108487421FEF73D
:10273000EFFB0134148000224263416601F0DAFEAF
:1027400015F0010F00D162B638BD00BF2324010887
:1027500038B54FF4A07001F061F9074B00F5A07592
:10276000186000F11404054900F0B5FCAC4201D03A
:102770002046F6E738BD00BFF0070020600E0020BD
:102780002F4AF8B50023136053602E4A136053603C
:102790002D4A136053602D4A136053602C4A4FF446
:1027A000C0701360536001F039F9054600F5C0763A
:1027B000002200F118040275224900F08CFCB4429A
:1027C00001D02046F4E7234CC020656001F026F9D3
:1027D000054600F1C007022200F1180602751A49E9
:1027E00000F079FCBE4201D03046F4E7A560FFF767
:1027F000AFFF4FF4807001F011F9054600F58077C6
:10280000002200F110060273104900F064FCBE4281
:1028100001D03046F4E78020E56001F0FFF805467E
:1028200000F18007022200F110060273084900F04F
:1028300052FCBE4201D03046F4E72561F8BD00BF2E
:10284000600E0020680E0020700E0020800E002018
:10285000780E0020F007002037B583681BB90C48BC
:102860007721FEF755FB00220192EFF3108572B637
:102870009C692CB1217901A800F0E5FB2468F8E7F8
:1028800015F0010F00D162B6019803B030BD00BF52
:102890003B24010810B5064B04461B6828B11846B6
:1028A000FFF7DAFF2060002010BD4FF0FF3010BDB1
:1028B000100C002038B50D46044650B1FFF770FEED
:1028C000246C24B1237CAB4201D02468F9E7FFF7E4
:1028D0007FFE204638BD000010B501F057FD40B125
:1028E0000D4800F018FCA8B90C48BDE8104000F0F5
:1028F00012BCEFF3108472B6074800F00CFC14F021
:10290000010F00D162B628B9182001F087F808B18C
:102910000123037510BD00BF680E0020700E00205B
:1029200010B5037D23B9EFF3108472B60A4905E0B0
:10293000022B0AD1EFF3108472B6084900F0CBFBEA
:1029400014F0010F00D162B610BD012B03D1BDE818
:102950001040FFF7C7BD10BD680E0020700E0020AC
:1029600010B5044604F1400000F0D5FB10B100F0B2
:1029700047F9F7E704F1480000F0CDFB10B1FFF78D
:10298000CFFFF7E704F1500000F0C5FB10B1FFF7EF
:10299000C7FFF7E74FF0FF32A263E06310BD10B549
:1029A000044604F1180000F0B6FB10B1FFF730FB4D
:1029B000F7E710BD08B5437E072B0BD1036E1BB1A3
:1029C0005A8A11B2002902DC0A4869210CE0013A56
:1029D0005A8208BD082B0BD1036E1BB11A8A11B2A3
:1029E000002903DC03487321FEF792FA013A1A82A8
:1029F00008BD00BF502401082DE9F84F05460F46D9
:102A00009346EFF3108872B6244B4468D3F80090D5
:102A10001FFA88F80E469A46DAF800301CB322698D
:102A200061699A1A8A4214D32046291D00F09AFB44
:102A3000A368B3B10022E068A26018F0010F00D1D2
:102A400062B69847EFF3108872B61FFA88F86C6880
:102A5000E2E76169521A1344C9EB03039E4228BF9F
:102A60001E462468D8E7C9EB0309B9450FD276B1F1
:102A700005EB8B05C9EB07094E4528BF4E4642F2D0
:102A80001070AC73704300F03FFA0123AB7318F081
:102A9000010F00D162B6BDE8F88F00BF880E00209C
:102AA00010B5044660B9094B1121B3F90C0000F0D0
:102AB00005F9002807DAFFF78DF90068404210BDDC
:102AC0006FF0150010BD204610BD00BFC40C0020E3
:102AD00038B5054620B913484FF4C771FEF718FA08
:102AE0008468ECB16378012B02D9013B637015E077
:102AF0002046FFF754FF204600F008F904F12800B3
:102B000005F046F8204600F061FB204600F062F92F
:102B1000204600F01BF92046FFF7E4FC0023AB60E1
:102B200038BD00BF6424010838B50446EFF31085B2
:102B300072B658B1037BDB0708D5144B1B68002025
:102B40005BB1A3420DD018461B68F9E74FF0FF3088
:102B500015F0010F00D162B638BD0D488121FEF796
:102B6000D7F923681BB19968A2680A449A6018B122
:102B7000064900F0DAFA02E0044800F0CCFA237BC0
:102B8000002023F0010320602373E1E7A00E002062
:102B90007824010838B5044610B91648642121E0AC
:102BA000EFF3108572B6037BD90701D5FFF7BCFFA1
:102BB000237B9A0707D515F0010F00D162B6204696
:102BC000FFF790FC14E05B0712D420460A4900F09E
:102BD00082FA0A4A138801339BB2102B138003D95F
:102BE00004489321FEF794F915F0010F00D162B665
:102BF000002038BD89240108940E00209C0E00207E
:102C0000014900F068BA00BF600E00202DE9F041D4
:102C1000274B1F2880460E4615461F6807D9FFF729
:102C2000D9F8162303604FF0FF30BDE8F081384635
:102C30004146FFF73FFE044655B130B143682B6073
:102C400083686B60C368AB6002E028606860A8605E
:102C50004EB335684DB9204644B307F1400100F04A
:102C600044FA2046FFF7CCFF1DE0B4B9114800F04C
:102C700052FA044650B9FFF76BFD0E4800F04BFACC
:102C8000044618B90C486821FEF742F984F8108010
:102C9000204607F1400100F01EFA33686360736854
:102CA000A360B368E3600020BDE8F081BDE8F08177
:102CB000100C0020600E00209A24010873B5061E37
:102CC0000C4615DD1F2916D8FFF76AFC002569465A
:102CD00030468DF800408DF801500195FFF7AEFAAF
:102CE0000446FFF775FCAC42A8BF28460BDA04E0A7
:102CF0006FF0250401E06FF01504FFF76BF86442F4
:102D000004604FF0FF3002B070BD000038B50446DB
:102D100018B90D486021FEF7FBF8E5686DB128464B
:102D200050F80C3BE360FFF767F805F10A00FFF786
:102D300063F82846FFF7D6FBEFE704F10800BDE88B
:102D40003840FFF759B800BFAE24010810B504465B
:102D5000D4F8D00110B105F075FDF9E710BD000001
:102D60007FB501F055F9684601F0C4F9684600F0F6
:102D70008EF9044B002218605A60034B1A6007B0AA
:102D80005DF804FB8C0E0020880E002010B586B084
:102D9000EFF3108472B6684601F0ACF9684600F0B3
:102DA00076F9064B002218605A60054B1A6014F041
:102DB000010F00D162B606B010BD00BF8C0E00201E
:102DC000880E0020024B1A6801321A60704700BF5B
:102DD000880E002010B5044618B906485221FEF7A7
:102DE00097F8406A08B1FFF77DFB00232362636216
:102DF00010BD00BFC82401080A4A002310B51360A3
:102E00005360094A1C461360536008480549204432
:102E1000183400F060F9B4F5C07FF6D1044B1022ED
:102E20001A8010BD940E0020A00E0020040800207F
:102E30009C0E0020F8B50646D0B100F033FA341DE0
:102E4000082700252368002B0ADBA38B9B0707D5E7
:102E50002046012100F00FF835EA200528BF05467D
:102E6000013F04F12404EDD1304600F02DFA00E0DA
:102E700005462846F8BDF8B50368002B04460F4602
:102E80003EDB838B9B073BD500F0CBF96669E3689B
:102E90009E4206D1204600F0E3F96069E368C01A5B
:102EA000F8BDA5699D4204D0204600F0D9F9002064
:102EB000F8BD761B20682946324605F0E6FA002860
:102EC0000BDAA37F43F00203A377204600F0C8F992
:102ED000FEF780FF00684042F8BD0544361A1FB96E
:102EE000E36863612E4402E0002EE3DCF8E7B542BC
:102EF000D0D063695A1C626115F8012B1A70F6E78D
:102F00006FF00800F8BD000007B568B1084AB0FBD3
:102F1000F2F302FB130000934FF47A734343002152
:102F2000684601930BF0A6F803B05DF804FB00BF00
:102F300040420F0030B50A4B1B7843FA00F010F006
:102F4000010085B00C46154608D06846012100F006
:102F50000BFD684621462A4600F061FB05B030BDF6
:102F6000A00000200EB403B503AA52F8041B01927E
:102F7000FFF7E0FF02B05DF804EB03B0704700BF5D
:102F800030B50A4B1B7843FA00F010F0010085B011
:102F90000D46144607D001A800F09AFC01A8294666
:102FA000224600F03CFB05B030BD00BFA000002071
:102FB0000EB403B503AA52F8041B0192FFF7E0FF19
:102FC00002B05DF804EB03B0704700BFEFF310816F
:102FD00072B6044B1A78187011F0010F00D162B666
:102FE00010467047A000002002440346934202D0DE
:102FF00003F8011BFAE770470023CA5CC25401338F
:10300000002AFAD1704703461A4601331178002985
:10301000FAD1101A704710B50023934203D0CC5C4C
:10302000C4540133F9E710BD08B528B1B2F5004F1B
:1030300002D20280002008BDFEF7CCFE16230360FA
:103040004FF0FF3008BD1F2907D8012303FA01F113
:1030500003680B430360002070474FF0FF30704758
:103060001F2908D8012303FA01F1036823EA0103A9
:103070000360002070474FF0FF3070471F299DBF4D
:103080000068C84000F001004FF0FF307047F8B50D
:10309000456907690446A5F1460305F26C7040F2E4
:1030A0006D165E4300F088FCC1B2384600F078FC33
:1030B000E368A168013B1E44453D06EBA505284495
:1030C000182202FB0011626820683C2303FB0122E6
:1030D00003FB0200F8BD002303600B680BB9086016
:1030E00001E04B681860486070470346086888B183
:1030F00083B1834209D11A680A604A68934209D1B0
:1031000000234B6070472AB1104602689A42FAD1F8
:1031100000F00BB8704703682BB11A68026002B95F
:10312000426000221A60184670470A6803685AB164
:1031300053B14A689A4214BF196848604FF00002C0
:103140000CBF026001601A6018467047002343609C
:103150000B6803600B6813B90860486070475860DB
:1031600008607047426803680AB90B6000E01360AA
:103170000BB94A6000E05A60002303604360704767
:10318000F8B5054618B910485C21FDF7C1FE00F1FD
:10319000AC06304600210122FFF746FF002405F16E
:1031A000B0072744002124223846FFF71DFF3319BA
:1031B0004FF0FF325A603846243400F025F8B4F559
:1031C000907FECD1F8BD00BFDE24010870B5054644
:1031D00018B90C489021FDF79BFE00F1AC06304673
:1031E000FEF70AFE002405F1B4002044FEF704FEB9
:1031F0003319186908B1FFF775F92434B4F5907FD5
:10320000F1D170BDDE24010810B500210446012271
:103210000430FFF709FF4FF6FF73E3800023A3603C
:1032200010BD38B50446FEF7BFFDB4F90630834241
:10323000054602D1A36801330EE0201DFEF7EEFD26
:1032400040B1FEF7C7FD0368042BF6D003486A219E
:10325000FDF75EFEE5800123A36038BDF024010880
:1032600010B50446FEF7A0FDB4F90630834202D043
:103270000B487E2110E0A368012B02DD013BA36017
:1032800010BD4FF6FF73E3800023A360201DFEF7FF
:103290000FFE18B102488E21FDF73AFE10BD00BFA7
:1032A000F024010810B504462046FEF7B7FD40B1F2
:1032B000FEF790FD0368042BF6D002485121FDF77C
:1032C00027FE10BD03250108FEF7F2BD0A2238B51E
:1032D000B1FBF2F3044602FB131513B11946FFF7D5
:1032E000F5FF2368204605F13001984738BD38B511
:1032F00001F00705C908044601D0FFF7F8FF23686D
:10330000204605F13001984738BD38B501F0010578
:103310004908044601D0FFF7F8FF2368204605F16D
:103320003001984738BD2DE9F041194614461D4635
:103330008046002310460A220AF042F8002316466F
:1033400020460A2229460AF03BF802460B4652EA7A
:10335000030102D04046FFF7E6FFD8F800304046B0
:1033600006F130019847BDE8F081F8B514461D46D6
:1033700002F00707E20842EA4572EB0852EA03014D
:10338000064601D0FFF7F1FF3368304607F1300100
:103390009847F8BD38B502F001055B084FEA3202E4
:1033A00052EA0301044601D0FFF7F4FF23682046E8
:1033B00005F13001984738BDF8B501290446164695
:1033C0001F46069D2DD0022916D012F0810F18BF7E
:1033D00001355D1B002D05DD23682046202198471F
:1033E000013DF7E7310602D5236820461CE0F207CD
:1033F00021D5236820461CE0130602D503682D2141
:1034000003E0D10703D503682B21984701357D1BC5
:10341000002D05DD2368204630219847013DF7E760
:10342000F8BD320602D503682D2103E0F30702D56B
:1034300003682B219847F8BD2DE9F041002304468D
:103440000F4690461C2527FA05F616F00F0101D10C
:1034500013B90BE0092903D823682046303103E073
:103460004144236820460A3998470123043D2A1D18
:10347000E9D11BB92368204630219847BDE8F08187
:10348000692970B504460D461E4612D006D8622939
:1034900034D064290DD0582935D110E070290ED0D0
:1034A00002D86F291FD070BD752903D0782906D0A6
:1034B00070BD20463146BDE87040FFF707BF920758
:1034C00007D5236820463021984723682046782175
:1034D0009847582D204631460CBF41226122BDE855
:1034E0007040FFF7A9BF930702D5036830219847C2
:1034F00020463146BDE87040FFF7F9BE1946BDE8E9
:103500007040FFF702BF70BD2DE9F8439DF8209091
:10351000064614461D463C274FF000082046294623
:103520003A4609F041FF10F00F0103D1B8F1000F46
:1035300002D10CE0092903D833683046303103E06A
:103540004944336830460A3998474FF00108043F30
:103550003B1DE3D1B8F1000F03D133683046302171
:103560009847BDE8F8832DE9F041692906460F46E2
:10357000DDE906450FD006D8622935D064290AD086
:10358000582937D10EE0752906D078290AD06F293D
:103590001ED0BDE8F081304622462B46BDE8F04102
:1035A000FFF7C1BE920707D53368304630219847F0
:1035B0003368304678219847582F0CBF4123612348
:1035C0000693304622462B46BDE8F041FFF79CBFEC
:1035D000930702D5036830219847304622462B4690
:1035E000BDE8F041FFF7C1BE22462B46BDE8F041E1
:1035F000FFF7D0BEBDE8F08138B501290546049C2F
:103600000CD112F0810F18BF01341C1B002C05DDFA
:103610002B68284620219847013CF7E738BD2DE963
:10362000F04F804689B00F4691463978002900F066
:10363000328125290CD0D8F80030404698473B7895
:103640000A2B40F02681D8F804304046984720E104
:1036500000260137B346B246397819B1904800F0D8
:1036600091F938B1397825294C4643D1D8F8003042
:10367000404669E03B782D2B33D0302B34D02A2BB9
:103680000AD1710709F10403D9F800202FD446F0BC
:103690000806994692462BE0A3F13102082A11D878
:1036A000303B3A46174612F8011F3039C8B2092894
:1036B00003D80A2000FB0313F4E716F0040F08BF39
:1036C0009A4615E02E2B02D146F0040610E02B2B73
:1036D00002D146F001060BE0232B09D146F0020689
:1036E00006E04FF0010B03E04FF0020B00E09946BB
:1036F0000137B1E773291FD16A4B2468002C08BF3A
:103700001C462046FFF77FFC5946009005460022E4
:1037100040465346FFF750FE09F10409013C14F8F6
:10372000012F2AB1D8F80030404611469847F6E7F5
:10373000009540465946A9E0632907D1D8F80030E2
:10374000216809F1040940469847A2E04C2902D1BA
:1037500046F0400606E06C2909D17B786C2B03D03B
:1037600046F02006013702E046F0600602374E4878
:10377000397800F007F9002800F08B8016F0400F30
:1037800039784AD0702948D009F1070929F0070390
:10379000692903F10809D3E900450DD005D862294C
:1037A00016D0642908D0582904E06F2912D3702953
:1037B0000ED978290ED10BE0002C75F1000309DA3F
:1037C00006F0FE0646F08006644265EB450501E022
:1037D00006F07E0605A8039100F092F805A803996B
:1037E0003246CDE90045FFF7BEFEDDF81CC0CDF83E
:1037F00000C04046594632465346CDF80CC0FFF74C
:10380000DBFD39784046CDE900453246FFF7ABFE97
:10381000DDF80CC0CDF800C035E0692909F10409D4
:1038200024680DD005D8622912D0642908D05829FF
:1038300004E06F290ED370290AD978290AD107E04C
:10384000002C07DA06F0FE0646F08006644201E02E
:1038500006F07E0605A8039100F052F805A803992A
:1038600032462346FFF70CFE079D00954046594619
:1038700032465346FFF7A0FD40463978324623468C
:10388000FFF7FEFD00954046594632465346FFF786
:10389000B3FE0137C9E6D8F8080009B0BDE8F08FDB
:1038A0001F250108182501083225010810B5044616
:1038B00018B906483D21FDF72BFB0846FDF792F9A4
:1038C000013002D0A3680133A36010BD3B2501087D
:1038D000034B0360034B436000238360704700BFCA
:1038E000AD3800088139000808B518B903483421FB
:1038F000FDF70EFB83680133836008BD5425010882
:10390000034B0360034B436000238360704700BF99
:10391000E93800088139000837B504468DF80710EA
:1039200010B1C368002B04DA0E483D2115E0042BCA
:1039300015D1E0680DF10701012204F0A6FD012870
:10394000054603D1A3680133A36008E0FEF742FAFD
:10395000002D0368EBDB03485221FDF7D9FA03B0D1
:1039600030BD00BF6E250108034B0360034B43606D
:1039700000238360C160704719390008813900084D
:103980000020704750B1024610F8013B8B4203D033
:10399000002BF8D1184601E0104670477047000030
:1039A000044B012833F8103001DD01B10133184612
:1039B000704700BF862501084FF4C87390FBF3F2EF
:1039C00003FB12035BB1642390FBF3F203FB1203CE
:1039D0003BB110F0030F14BF0020012070470120FD
:1039E000704718467047000003460A4601481946CA
:1039F00000F050B8A80E0020014800F079B800BFD0
:103A0000A80E0020014800F0ABB800BFA80E0020AF
:103A10000146014800F0EEB8A80E0020014601481A
:103A200000F03EB9A80E00200146014800F080B920
:103A3000A80E00202DE9F0410A4401F10F0424F002
:103A40000F048168C56922F00F02C4EB020C6144C7
:103A5000816000EB850521460826EC6041F8086B83
:103A6000EF684FF00048C7F80480ACF11007A7607A
:103A7000A2F108074E606F6142F8086CA4686A6999
:103A800044EA08045460C2690132C261BDE8F041F1
:103A900000F088B870B50E46002104468160C1610F
:103AA000154620304FF49872FFF79EFA04F1300368
:103AB0001220A3F11002013843F8083CDA6003F148
:103AC0001003F6D1204600F007F8204631462A467A
:103AD000BDE87040FFF7AEBF10B5002104460122DB
:103AE000FFF7A2FA4FF6FF7363800023636010BDF7
:103AF00038B50446FEF758F9B4F90230834205465A
:103B000004D1636801336360002038BD20460AF0A9
:103B100081FA18B901236580636038BD4FF0FF302A
:103B200038BD38B50446FEF73FF9B4F90230834298
:103B3000054602D1636801330EE02046FEF76EF9B8
:103B400040B1FEF747F90368042BF6D00348AB21D8
:103B5000FDF7DEF965800123636038BDA02501080B
:103B600010B50446FEF720F9B4F90230834202D0C2
:103B70000B48C72110E06368012B02DD013B636045
:103B800010BD4FF6FF736380002363602046FEF78D
:103B90008FF918B10248DC21FDF7BAF910BD00BF5A
:103BA000A025010838B5054608680C4600F015F850
:103BB000821C05EB021205EB0015AB6A3BB11968DC
:103BC00029B12068814202D21A469B68F6E79460C8
:103BD000E260A36003B1DC6038BDB0F5800F07D2AE
:103BE00003090020012B02D901305B08FAE7704776
:103BF0001220704770B505460C4600294DD0FFF7DE
:103C000090FF54F8043C54F8082C23F00043A4F12E
:103C1000080144F8043C8B185868002818DB8A58BF
:103C2000D8681A4410B91D4870211BE09E68866050
:103C3000986808B1DE68C660186854F8083C034408
:103C400044F8083C506800F00040034353601346BA
:103C500054F8042C8A1A5068002816DBD16819B968
:103C60000E488921FDF754F990688860916809B180
:103C7000D068C86054F8080C116801441160586895
:103C800000F000400143596011462846FFF78AFFC3
:103C90002846BDE87040FFF763BF70BDB12501083D
:103CA00070B50646002937D001F1170525F00F053C
:103CB000FFF737FFB5F5800F03D22846FFF78DFFDA
:103CC00000E0122006EB0010846A04B32368AB42C4
:103CD00024D2A468F9E7A2689A60A3680BB1E268ED
:103CE000DA602268531B0F2B0CD9611963512244EF
:103CF0004D602560506800F000400343536030463B
:103D0000FFF750FF636843F00043636008343046B8
:103D1000FFF726FF204670BD084670BDE368002B04
:103D2000D9D102489421FDF7F3F800BFC32501085B
:103D300038B50D46FFF7B4FF044618B100212A46F6
:103D4000FFF752F9204638BD38B5044601200D462C
:103D5000FDF7D8FC044B1B682360C3F1005303F547
:103D600000332B6038BD00BFFC1E0108704700BF48
:103D700008B5054B01221A60044B1B680BB198472C
:103D800008BD184608BD00BF143C0140840900204E
:103D900008B5054B02221A60044B5B680BB19847CB
:103DA00008BD184608BD00BF143C0140840900202E
:103DB00008B5054B04221A60044B9B680BB1984769
:103DC00008BD184608BD00BF143C0140840900200E
:103DD00008B5054B08221A60044BDB680BB1984705
:103DE00008BD184608BD00BF143C014084090020EE
:103DF00008B5054B10221A60044B1B690BB198479C
:103E000008BD184608BD00BF143C014084090020CD
:103E10002DE9F0471446104AD2F8008006460F46B6
:103E20009A4600259146544512DC0122A24012EA2E
:103E3000080F0BD0094BC9F8002053F824202AB1F1
:103E4000304639469047002818BF05460134EAE756
:103E50002846BDE8F08700BF143C014084090020DB
:103E600005220923FFF7D4BF0A220F23FFF7D0BF93
:103E70002DE9F74F00F00F050124042D83468A46F3
:103E800091461F460C9E04FA05F40FD805F116085A
:103E9000032D09D8DFE805F0021504062B4911E0CF
:103EA0002B490FE02B490DE02B490BE02B4B2C4904
:103EB000092D98BF19468CBF4FF038084FF02708DE
:103EC00000E02849284A52F82530019342F825603D
:103ED00040462EB1FDF740FD4046FDF707F802E0F1
:103EE000FCF7F2FF0FB14BF4807B5846FCF7CAFB9E
:103EF000BAF1000F0CBF2146002114BF2246002258
:103F00001A48FCF78DFEB9F1000F0CBF21460021C5
:103F100014BF224600221648FCF782FE002F0CBF79
:103F20002146002114BF224600221248FCF778FEE9
:103F3000002E11480CBF2146002114BF224600224A
:103F4000FCF76EFE019803B0BDE8F08F713D0008EC
:103F5000B13D0008D13D0008F13D0008613E000878
:103F6000693E0008913D000884090020083C01409A
:103F70000C3C0140043C0140003C014030BF704714
:103F80000023092802DD01330A38FAE740EA03106A
:103F90007047002070470B4B80221A6082B00022CD
:103FA0000192019AB2F5803F05D21A68520605D4F3
:103FB000019A0132F4E76FF06D0000E0002002B0DA
:103FC000704700BF0C2800400F4ACA2313605323D8
:103FD00013600E4B196821F02001196082B0002196
:103FE00001910199B1F5003F05D21968890605D400
:103FF00001990131F4E76FF06D0000E00020FF232C
:10400000136002B0704700BF242800400C28004015
:104010002DE9F84300F0F2FA0A25DFF8D4802C4BA2
:10402000D8F800209A4299462FD02A4800214FF410
:104030008032FCF7F5FD27484FF480310022FCF771
:10404000EFFD00F08FFAFFF7BFFF0446D0B9224E14
:10405000224FCA233360532333603B685B0602D48C
:10406000FFF799FF58B91E4B1A6822F040021A60F8
:104070001C4A9A603B6823F080033B600020FF23CA
:1040800033600446C8F800900DE0FFF79DFF134B26
:104090001A6822F440721A6003F58A3308334FF429
:1040A000003204461A602CB1013DB6D16FF06D00AC
:1040B000BDE8F8830C491320FDF74EFC1320FCF7F4
:1040C00015FF0A4B01221A702046BDE8F88300BF95
:1040D000EEFECEFA70380240242800400C28004042
:1040E00008280040FF007F00933F0008C40900201B
:1040F0005028004030B51D4B1D4A1C6811681A68D5
:10410000A242F8D10A23C1F3021501F00F0403FB08
:104110000544046001F4FE44250BC4F3032403FBAF
:10412000054401F47C1144600C0DC1F3034103FB11
:1041300004118160C2F3011402F00F0103FB0411AA
:10414000C16002F4F8510C0BC1F3032103FB04110D
:10415000013902F47F020161110DC2F3034203FB36
:10416000012364334361002030BD00BF04280040B8
:10417000002800402DE9F04F87B069460BF0FAFCAB
:104180000098FFF7FDFE05460198FFF7F9FE064689
:104190000298FFF7F5FE81460398FFF7F1FE074608
:1041A00004980130FFF7ECFE804605986438FFF76D
:1041B000E7FE1A4ACA23136053231360184B196889
:1041C00011F0400F834614469A461ED04FEA094329
:1041D00043EA06232B434FEA0B40124A40EA0820E9
:1041E00003F07F3323F0FE433843136020F07F4019
:1041F0000D4B20F0C0001860DAF8003023F0800387
:10420000CAF80030FFF7E0FE03E0FFF7C4FE002825
:10421000DCD0FF22226007B0BDE8F08F24280040E8
:104220000C2800400028004004280040034B586838
:1042300008B9596070476FF00F007047C40900203B
:104240002DE9F041437E174D023B012B064688467F
:104250002F6803D914485F21FCF75AFE09F0BEFB12
:1042600041460446304609F031FC104B1B681BB137
:1042700009F0FAFB2043C4B28CB10D4C216807F160
:10428000780031B100F016F82B6878332360BDE870
:10429000F0812968BDE8F041783100F05CB9BDE8F3
:1042A000F08100BF100C0020D7250108B00C0020C1
:1042B000FC0B0020814205D00023CA58C2500433B1
:1042C000482BFAD1704738B5C36A04460D462BB166
:1042D000836A8B4202D0114600F07CF8E36A1BB976
:1042E0002846FFF7A1FBE062E36A6BB11A1F154491
:1042F000C3F1040325F0070525631D44A5620320CF
:10430000FDF700FA002038BD4FF0FF3038BD000047
:1043100008B5EFF3108372B609F0B6FC024B1868CB
:10432000783000F013F900BF100C002008B50B4BDB
:1043300000221A60FFF71AFDFCF768FD084B0BB16D
:104340000CF052FE00F039F908F014FDFCF71EFCE9
:104350000220BDE80840FDF7D5B900BFFC0B0020E6
:10436000E90F010810B50446002168305822FEF715
:104370003BFE236BA367236923F00103C4F8B83025
:104380004FF08073C4F8BC3010BD0000024B1868B9
:10439000003018BF01207047FC0B002070B50B4C9B
:1043A000266809F061FB80B1094D296806F17800A3
:1043B00029B1FFF77FFF236878332B6070BD216838
:1043C000BDE87040783100F0C6B870BD100C002018
:1043D000FC0B002010B50446C06A18B1FEF782F845
:1043E0000023E3620023A36210BD000010B5826EBB
:1043F000002A34D1EFF3108472B6194A1268904241
:1044000017D1184A12680AB9884724E08166116CEE
:10441000C16651680167516C4167134911640121FC
:1044200051604FF08071516478301146FFF742FFC0
:1044300011E0D0F8B820C266C26F0267D0F8BC2085
:104440004267094AC0F8B8200122C2674FF0807263
:104450008166C0F8BC2014F0010F00D162B610BD17
:10446000100C0020FC0B00206D44000830B5154BEB
:104470001C6893B00520656EFDF744F9A36E1BB967
:1044800011486321FCF744FD04F178016846FFF709
:1044900011FFE36E1093626F236F11920021A26EE1
:1044A0000193A16613F0010F00D162B62046904738
:1044B000EFF3108372B605206566FDF72BF96846A9
:1044C00000F044F8100C0020EE2501080346C06AF5
:1044D000073121F0070158B19A6A8A4207D9186B4F
:1044E000401A511A18639867996204307047002087
:1044F0007047000070B5437E114C043B042B054609
:10450000266803D90F485921FCF702FD09F0FAFA91
:1045100014232B62284609F031FA80B10A4D29682C
:1045200006F1780029B1FFF7C5FE236878332B60C8
:1045300070BD2168BDE87040783100F00CB870BDE6
:10454000100C002006260108FC0B002001464FF04D
:10455000010000DF70470A4601464FF0020000DF0D
:104560007047000010B50D480021012200F04EF800
:104570000A4C23889B0702D400F012F8F8E7204683
:104580004FF440714FF4807200F040F82046002153
:104590004FF40042BDE8104000F038B870380240D7
:1045A000024B1A6801321A60704700BFCC09002024
:1045B00008B509F043FB002008BD08B50B4B0C49BA
:1045C0001A6822F07F4242F000421A60A3F60C53B0
:1045D000084A1A600F20FDF7BFF9074B07221A603F
:1045E0000F20BDE80840FCF781BC00BF20ED00E0D3
:1045F000B14500087FA2190010E000E00248002148
:104600004FF48072FCF70CBB0070004010B5EFF364
:10461000108372B6048824EA010189B20A43028039
:1046200013F0010F00D162B610BD000010B508F004
:1046300047FE00F011F80020014600F00FF8044694
:1046400009F076FA034922464C300AF09DFE01201B
:1046500010BD00BF1F26010808F04CBE10B500F0C9
:10466000ABF8044618B905486A21FCF751FC00F084
:10467000D5F8236A01462046984700BF4626010820
:104680005C30704770B504460E4615463AB1806DF1
:1046900008B10AF008FE636D2B60A36D6B60002308
:1046A0006665A36570BD38B50446856D09F040FAAE
:1046B0002830854207D109F03BFA28300AF0F3FD93
:1046C0000123636538BDA06D28B10AF0ECFDA06D33
:1046D0000AF0BEFC06E0606D002803DB012801D073
:1046E00003F01EFC4FF0FF3363650023A36538BD64
:1046F00038B50D460446FFF7D6FF2B6863656B6837
:10470000A36538BD10B50446FFF7CDFF2046BDE8D0
:104710001040FFF77DB90C4608B5FFF7F3FF2046C0
:10472000FDF74AFB0EB417B5836D044633B106AAF4
:10473000A06D059901920AF034FE08E0406D06492B
:104740000AF05CFCA0650028F1D14FF0FF3003B007
:10475000BDE8104003B070477834010873B5836D2D
:1047600004460D4616469BB1284601213246A36DEC
:104770000AF04AFD051E15DA646DFDF72BFB026891
:1047800000920A490A4A23460320FEF7EBFB09E0A0
:10479000406D08490AF032FCA0650028E4D14FF0D2
:1047A000FF3000E0284602B070BD00BF6926010856
:1047B000582601087834010810B59C20FFF734F919
:1047C0000446A8B10B4B03600B4B83600B4BC360DB
:1047D0000B4B03610B4B43610B4B03620B4B836130
:1047E0000B4BC3610123436509F0A2F92830A06592
:1047F000204610BD15480008054700085D47000821
:10480000254700088146000817470008854600082C
:10481000F146000808B5FFF7CFFF08BD73B50446A1
:1048200018B919486C21FCF773FB1848A16D0AF000
:1048300085FDA06D0AF037FDA16D15480AF07EFDDB
:10484000A06D0AF030FD09F073F9064609F070F921
:1048500004F15C0500F1280340212846321D00F0D8
:1048600067F8013004D02046294600F01DFDE0E73E
:1048700001250095A06D0749074A084B0AF084FD01
:10488000284602B070BD00BF8D26010869280108C6
:1048900063280108482701089B260108A72601086C
:1048A00010B508B101B11AB90448B621FCF730FBC4
:1048B0000069BDE8104003F0E8BD00BFB026010864
:1048C00013B504468DF8071018B909489621FCF76E
:1048D0001FFB20690DF10701012203F0D6FD00281E
:1048E00003DAFDF777FA0368042BF2D002B010BDAB
:1048F000B026010813B5044648B90C485E21FCF700
:1049000007FB0FDAFDF766FA0368042B07D1E068AE
:104910000DF10701012203F00DFC0028F1D14FF049
:10492000FF3001E09DF8070002B010BDB02601087D
:1049300070B5064686B00D4602B11BB90A48E321A0
:10494000FCF7E6FA1468094A02920949094A0191FA
:1049500003921B68049401A831462A46059302F08D
:1049600071FF06B070BD00BFB0260108C148000845
:10497000F5480008A148000890F8373000EBC30361
:1049800093F83C309A09032A02D113F0010310D0A6
:1049900090F83830184490F8390083070BD4830915
:1049A000022B02D0032B01D007E0C04300F001002E
:1049B000704718467047002070470120704738B58F
:1049C000056895F82530044613B1406803F0A8FA4D
:1049D000AB68284698470025A3689D4206DA04EB99
:1049E00085030135D868FFF713F8F5E72046BDE8E1
:1049F0003840FFF70DB870B5044625460C4E55F803
:104A00000C3F0C4932460320FEF7ACFAA16820683F
:104A10002A4600F0D3FD0849E368054632460320E4
:104A2000FEF7A0FA2046FFF7CAFF284670BD00BF78
:104A3000BB260108852801089028010890F8373026
:104A4000033300EBC30393F824209209012A06D113
:104A5000002280F82620881A4142414107E0022ABC
:104A60000CD10022891A80F8262018BF012193F862
:104A7000240061F3000083F8240010E090F838303F
:104A8000034493F839209209012A0AD1002280F8C0
:104A9000262093F8390061F3000083F839001046AE
:104AA000704780F82610003118BF01214842704736
:104AB0002DE9F0470D6881460E462C4615F8011B7E
:104AC00011B9237833B917E02948FEF75BFF0028B6
:104AD000F3D1F6E73E2B0CD163783E2B04D10234A0
:104AE00034602448BDE8F087013434602248BDE8D2
:104AF000F087232B03D134600020BDE8F087222B00
:104B000008BF013404F101070CBFDFF87C80DFF837
:104B10006080BA4655460AF1010A297831B92A78E7
:104B20002B464AB1002201351A7005E04046FEF7D7
:104B300029FF0028EED0F2E735602378242B14D12A
:104B400038460E490AF014FE40B90D4B99F826403C
:104B50009A1E002C0CBF1C46144606E0384609F08D
:104B600099FD084C002818BF04462046BDE8F08790
:104B7000C5260108D0260108CE260108D326010843
:104B8000CB260108CD260108A42801082DE9F04F05
:104B900097B00DF158080BAF04460D462C220021AA
:104BA0003846FEF721FA48F8405D002384F82430A7
:104BB00084F8253020464146FFF77AFF0546002855
:104BC00000F0CB81A6490AF0D3FDA6495FFA80F92F
:104BD00028460AF0CDFDB9F1000F02D010F0FF0F0A
:104BE00055D120464146FFF763FF824620B923692D
:104BF0009D499E4A2046CCE094F838B004EB0B0364
:104C000093F839309B09012B00F0BF8094F837608E
:104C100004EBC60393F83C30C3F38113033303F072
:104C20000303012B40F2B180E36A002B00F0AD805A
:104C3000236B002BC0F2A980012E03D923698C4974
:104C40002046A5E0B9F1000F204614BF022501253A
:104C50000393FFF791FE039BA28E0136F6B2134435
:104C6000002284F83620F21C04EBC20284F837607C
:104C700092F8241004EBC60665F3871160F3000177
:104C800082F82410554686F83DB0336491E02846FA
:104C900078490AF06DFDF0B941462046FFF708FF5C
:104CA00094F83730033304EBC303054693F824200C
:104CB000C2F38111033101F00301012904D92369F1
:104CC0006D496C4A204664E042F0C00283F824201B
:104CD00000286ED142E1284668490AF049FD0028C3
:104CE00046D120464146FFF7E3FE024618B123694C
:104CF0005D49204611E094F83700C31C04EBC30360
:104D000093F824108D09032D03D023695A492046B6
:104D100003E020B923695A492046584A39E0C807B8
:104D200013D5E06A996A0AF0CDF9002809DA2569F5
:104D3000FDF750F803680093204652494F4A524B02
:104D4000A847012384F8363003E041F0010183F8DD
:104D5000241094F83730DA1C04EBC202013B92F8BD
:104D600024106FF3871182F8241084F83730F4E0B0
:104D700094F8373004EBC30393F83C30C3F381134A
:104D8000033303F00303012B13D823693A49204668
:104D90002A46984794F83C2002F03F02002342F054
:104DA000010284F8363084F8373084F83C202364DC
:104DB000CDE028462D490AF0DBFC8146002834D19D
:104DC00020464146FFF774FE054618B92369264977
:104DD00020469EE094F83860A31993F839309B0977
:104DE000012B03D123692449204692E0012E03D9E7
:104DF00023691F4920468CE00136F6B22046FFF7B2
:104E0000BBFD84F838602644D0F1010096F83930B3
:104E10004FF0010262F3871338BF002060F34103B3
:104E200069F3000386F8393098E0284617490AF0FC
:104E30009FFC68BB41462046FFF73AFE94F83830A5
:104E40002344054693F839209109012904D02369A8
:104E500009490E4A20466EE0022161F3871231E0D3
:104E6000A6280108AC280108D5260108B2280108A7
:104E700014270108B5280108F0260108B828010800
:104E80002F27010848270108BD280108C328010869
:104E9000284696490AF06CFCB8B941462046FFF70F
:104EA00007FE94F838302344054693F839209109D9
:104EB000022908BF42F0C00204D023698C498B4A02
:104EC000204638E083F8392048E0284689490AF02E
:104ED0004FFC20BB20464146FFF7EAFD054618B1CE
:104EE0002369854920460EE094F83830E21892F89C
:104EF0003920C2F38112023202F00302012A04D9DE
:104F000023697B4920467B4A15E023B923697B4905
:104F100020467B4A0FE0013B84F838301EE094F8CD
:104F20003830234493F839309B09012B16D123697B
:104F30006F4920462A46984794F83930002203F0FA
:104F40003D0362F3000384F8382084F839302046AA
:104F50000121FFF773FD044697E100250023A362BA
:104F6000002D31D0284667490AF002FC00282DD1D7
:104F70000A23A36220464146FFF79AFD054618B36F
:104F800061490AF0F5FB064600BB20464146FFF7A3
:104F90008FFD8146D0B108A932460AF04FFAA062CF
:104FA0001430272804D8089B4B4501D01B782BB11F
:104FB00023695149534A20469847C8E7204641464D
:104FC000FFF776FD054608B900245EE12046FFF7AD
:104FD000D3FC0028F8D00B95012620464146FFF768
:104FE00067FD47F8260010B101360A2EF5D116A943
:104FF00001EB86030022012E43F82C2C00F00481E3
:1050000006F1FF3801EB8809404959F82C0C0AF0E9
:10501000AFFB28B9012384F8243049F82C0C46460C
:10502000022E40F3F180A6F1020816AB03EB8809CB
:10503000374959F82C0C0AF09BFB78B916A901EBFB
:105040008606012356F8301C84F82530204601F0EE
:105050000DFD464681464FF0260818E059F82C0C05
:105060002C490AF085FB78B9012384F8253016AB6A
:1050700003EB8606204656F8301C01F0F7FC464646
:1050800081464FF0160802E04FF00008C146062E98
:1050900004DD2369204920462A469847CDF8008040
:1050A00020460B993A464B4601F0CCFF002804DB22
:1050B00020460CBF002101219CE094F825308BB3E1
:1050C000484641464FF4DB7202F0C1FFB0F1000ADE
:1050D0002ADA0B9E2569FCF77DFE036800932046C3
:1050E0000E490F4B3246A84782E000BFC82801088E
:1050F000F0260108CD280108D52601082F27010830
:10510000B2280108D0280108D5280108D8280108AC
:10511000CE260108D026010860270108482701088B
:10512000B43401084FF0FF3A94F8243043B32368B5
:10513000204698470546D8B13820FEF775FC8046D2
:1051400098B180E8200486604FF0000B4FEA8B0393
:1051500057F82B0003930AF026FB039B0BF1010B7E
:105160004344B345D860F1DB24E0AB682846984758
:1051700094F82530002B3BD0504602F0D1FE37E0AA
:1051800094F8253023B1A3692046514608AA9847D0
:10519000204631463A4600F011FA94F8253005468B
:1051A0001BB1E369204608A99847002D20DB204663
:1051B00000211FE094F8253023B1AB692846514601
:1051C00000229847002007A908F0C2FC00B30B9FFB
:1051D0002669FCF7FFFD036800932E492E4B2046FD
:1051E0003A46B0474046FFF7EAFBAB682846984787
:1051F00020460121FFF722FC0446B9F1000F44D0FC
:10520000484601F087FC40E04FF00008C14645E702
:10521000A36A002B11D0079E4FF00200C3EB0606D5
:1052200005DA0AF053FAB042A8BF304604E00AF0AB
:1052300054FAB042B8BF3046079008A80AF046FBBF
:10524000022108A80AF04EFB07A908A80AF053FBA0
:105250000DF1160008A9114A434608F08BFF30B142
:10526000009026690B490B9A0D4B2046B9E7BDF912
:10527000160009F049F8079A0092BDF91630256921
:1052800008490B9A2046A84791E7204617B0BDE889
:10529000F08F00BF48270108DA280108F749000805
:1052A000E8280108F72801082DE9F84300230446FF
:1052B0000F4680F836300D460E4694F83690B9F118
:1052C000000F32D1EB1BA386284619490AF05DFA7C
:1052D0002B5C2A182BB920463146BDE8F843FFF76E
:1052E00055BC0A2BF7D0232BF5D03B2B02F1010044
:1052F00009D1804682F8009020463146FFF746FCEF
:10530000A0B945460FE02221FEF73CFB48B9094A07
:105310002569094920461346A8474FF0FF30BDE8EC
:10532000F883451CB0464646C7E70020BDE8F88331
:105330007D270108A42801088227010890F837304A
:10534000033300EBC30393F824209209032A09D105
:1053500093F8252080F8382093F824206FF300027A
:1053600083F824200020704708B5034903691268B8
:1053700098474FF0FF3008BDEC2701080020704728
:105380004FF0FF30704708B50021036A984710B509
:10539000CB6804690A461BB103491268A04710BDD7
:1053A00002491268A04710BDB42B0108BD2B0108AB
:1053B0002DE9F041114D04460F4655F8100CA5F1AA
:1053C000100880B139460AF0D3F910350646002896
:1053D000F3D123690A4920463A4698472046414678
:1053E000FFF7D5FF06E02369064920463A4698476D
:1053F0004FF0FF363046BDE8F08100BF14290108A8
:10540000C32B0108EC2701080129F8B504460E4614
:10541000174673DD506853490AF0AAF920B9022EE5
:1054200008D00222012301E00122002357F8225074
:105430000BB961E0054623694B492046984723692B
:105440004A49204698472369494920469847236995
:105450004849204698472369474920469847236989
:10546000464920469847236945492046984723697D
:105470004249204698472369424920469847236974
:105480003B492046984723693F492046984723696E
:105490003E49204698472369384920469847236962
:1054A0003B4920469847236931492046984723695C
:1054B000384920469847236934492046984723694C
:1054C0002E4920469847236931492046984725B1FF
:1054D00020462946FFF76CFF41E023692E492F4DF6
:1054E00020469847A5F11001103555F8203C33B3FC
:1054F0002046FFF74CFFF5E7002DE9D1284920466B
:10550000FFF756FF2369274920469847002523695E
:105510002549264F2046984707EB051700263201FC
:1055200023692349BA582046073698472A2EF6D1D0
:1055300023691C49204601359847072DE7D1236987
:105540001C49204698470025284607F09BFE024646
:1055500028B123691849204698470135F4E700200F
:10556000F8BD00BFCD2B0108D02B0108E42B0108AA
:105570001F2C0108232C01082F2C0108372C0108AF
:10558000502C0108582C01085F2C01086E2C0108D2
:10559000742C01087D2C01088C2C010814290108A9
:1055A000B42C01081D2C0108E83601080429010863
:1055B000B92C0108A42C0108BD2B01082DE9F843E2
:1055C000164DD2F8008004460E46914655F8100C50
:1055D000A5F11007D0B141460AF0CAF810350028ED
:1055E000F4D13B7A9E4203DA23690D49204607E055
:1055F0007B7A9E42D8BF7B6809DD23690949204632
:10560000424698474FF0FF30BDE8F883064B2046EE
:1056100031464A469847BDE8F88300BF142901087F
:1056200025280108602701086953000838B50C4691
:105630000C4905460AF09CF828B90B490B4822464C
:1056400009F030FC05E0094809492A46234609F0DB
:1056500029FC0648002380F88130BDE838400AF074
:10566000A2B800BF4430010848300108D00900202A
:10567000463001082DE9F04713F0030F8CB00446C3
:105680008846164699467DD008465AB1511CFFF708
:10569000CDFF05A9074602F01FFE05463846FEF776
:1056A000B7F903E005A902F017FE0546D4F810A0EB
:1056B0005DB1FCF78FFB0368009320464449454ADF
:1056C000454BD0474FF0FF307FE019F0020F51D02B
:1056D000424F386879683A89BB7A02AD03C52A809F
:1056E000AB70059D05F47047B7F5804F01D1642379
:1056F0000DE0B7F5005F01D1632308E0B7F5C04FB7
:1057000001D1622303E0B7F5004F02D03F238DF8AB
:105710000830EF0544BF72238DF80930280644BFD6
:1057200077238DF80A30690644BF78238DF80B3053
:10573000AA0644BF72238DF80C30EB0644BF7723D2
:105740008DF80D302F0744BF78238DF80E30680791
:1057500044BF72238DF80F30A90744BF77238DF81B
:105760001030EA0744BF78238DF8113020461C49D9
:1057700002AAD04719F0010F04D023691949069AEB
:10578000204698472369DEB1751C204614492A46F5
:10579000984733781B070DD52846134909F0E8FFD1
:1057A00040B12846114909F0E3FF18B123691049B7
:1057B000204602E023690F4920469847002004E074
:1057C00020460D494246984730460CB0BDE8F08768
:1057D00048270108822E01084C3001085F3001087B
:1057E00051300108553001085A300108593001087C
:1057F0005C3001081D2C0108BE2B01082DE9F34186
:10580000064608460D461746984602F00DFF044628
:1058100048B9009534690F490F4A104B3046A047EC
:105820004FF0FF3012E0204602F07CFF024640B10C
:10583000304629464346B8470028F4DA4FF0FF3592
:1058400000E00546204602F0BEFE284602B0BDE854
:10585000F08100BFD3270108822E01086A300108B9
:10586000F8B51F46137803F0080306460D4603F00B
:10587000FF04002B29D0541C2046154909F078FF5D
:1058800008B9002421E02046124909F071FF0028E0
:10589000F7D021462846FFF7C9FE054633690E4971
:1058A0002A4630469847304629460C4A3B46FFF781
:1058B000A5FF044648B930462946094A3B46FFF74A
:1058C0009DFF04462846FEF7A3F82046F8BD00BF1A
:1058D0005A30010859300108743001087556000823
:1058E000615800082DE9F04F87B0044605919146B4
:1058F00000250127059B9F4280F28780002D40F004
:105900008480204659F8271001F0B0F80490002850
:1059100077D00121D9F8006002F099FBB0F1000ABC
:1059200009DA2569FCF756FA0368009320463949DD
:10593000394B32460EE04FF40070FEF76FF88046A8
:1059400030BB2569FCF746FA036800933149334BB5
:1059500020463246A8474FF0FF354EE043D04FF087
:10596000000B6246CDF80CC0E368204641469847DC
:105970000028DDF80CC032DAFCF72CFA0368256940
:10598000042B22D1204626493246A8474FF0FF3546
:10599000504641464FF4007202F0CCFBB0F1000CCF
:1059A000DCDAFCF717FA03682569042B04D12046DA
:1059B0001B493246A84705E0009320461549194B7C
:1059C0003246A8474FF0FF350DE0FCF703FA0368B5
:1059D000009320460F49144B3246A847D6E783442C
:1059E000E345BEDBD4E7236910492046984750467B
:1059F00002F096FA4046FEF70BF8049801F08AF898
:105A000001E04FF0FF35013774E7284607B0BDE8E5
:105A1000F08F00BF48270108B4340108793001082D
:105A20009B270108023101080E3101081D2C0108D5
:105A30002DE9F04F8DB051680446154601F016F877
:105A40008346002800F0BF80012102F000FBB0F186
:105A500000090DDA26692D68FCF7BCF9036800938C
:105A600020465E495E4B2A46B0474FF0FF36A6E01F
:105A70002046A96800F0FAFF8046002800F09A80CE
:105A800005A902F029FC064600282FD1059B03F446
:105A90007043B3F5804F22D1AF683846FDF7B3FAB3
:105AA0000138002805DD3A5C2F2A02D100223A5441
:105AB000F6E76868AF680AF0C5F801463846FFF7B0
:105AC000B5FD074628B9236946492A682046984704
:105AD0007CE0404601F01EF8B846262108E0B3F508
