:020000040800F2
:10000000A8140020B104000891010008990100081B
:10001000A1010008A9010008B10100088901000838
:10002000890100088901000889010008B901000858
:10003000C101000889010008C9010008D1010008B8
:10004000D9010008E1010008E9010008F1010008F8
:10005000F901000801020008090200081102000865
:1000600019020008210200082902000831020008D4
:100070003902000841020008490200085102000844
:1000800059020008610200086902000871020008B4
:100090007902000881020008890200089102000824
:1000A00099020008A1020008A9020008B102000894
:1000B000B9020008C1020008C9020008D102000804
:1000C000D9020008E1020008E9020008F102000874
:1000D000F9020008010300080903000811030008E1
:1000E0001903000821030008290300083103000850
:1000F00039030008410300084903000851030008C0
:10010000590300086103000869030008710300082F
:10011000790300088103000889030008910300089F
:1001200099030008A1030008A9030008B10300080F
:10013000B9030008C1030008C9030008D10300087F
:10014000D9030008E1030008E9030008F1030008EF
:10015000F90300080104000809040008110400085C
:1001600019040008210400082904000831040008CB
:10017000390400084104000849040008510400083B
:1001800059040008610400084FF0000000F06CB949
:100190004FF0020000F068B94FF0030000F064B9BE
:1001A0004FF0040000F060B94FF0050000F05CB9BA
:1001B0004FF0060000F058B94FF00B0000F054B9B2
:1001C0004FF00C0000F050B94FF00E0000F04CB9A9
:1001D0004FF00F0000F048B94FF0100000F044B9A4
:1001E0004FF0110000F040B94FF0120000F03CB9A0
:1001F0004FF0130000F038B94FF0140000F034B99C
:100200004FF0150000F030B94FF0160000F02CB997
:100210004FF0170000F028B94FF0180000F024B993
:100220004FF0190000F020B94FF01A0000F01CB98F
:100230004FF01B0000F018B94FF01C0000F014B98B
:100240004FF01D0000F010B94FF01E0000F00CB987
:100250004FF01F0000F008B94FF0200000F004B983
:100260004FF0210000F000B94FF0220000F0FCB880
:100270004FF0230000F0F8B84FF0240000F0F4B87D
:100280004FF0250000F0F0B84FF0260000F0ECB879
:100290004FF0270000F0E8B84FF0280000F0E4B875
:1002A0004FF0290000F0E0B84FF02A0000F0DCB871
:1002B0004FF02B0000F0D8B84FF02C0000F0D4B86D
:1002C0004FF02D0000F0D0B84FF02E0000F0CCB869
:1002D0004FF02F0000F0C8B84FF0300000F0C4B865
:1002E0004FF0310000F0C0B84FF0320000F0BCB861
:1002F0004FF0330000F0B8B84FF0340000F0B4B85D
:100300004FF0350000F0B0B84FF0360000F0ACB858
:100310004FF0370000F0A8B84FF0380000F0A4B854
:100320004FF0390000F0A0B84FF03A0000F09CB850
:100330004FF03B0000F098B84FF03C0000F094B84C
:100340004FF03D0000F090B84FF03E0000F08CB848
:100350004FF03F0000F088B84FF0400000F084B844
:100360004FF0410000F080B84FF0420000F07CB840
:100370004FF0430000F078B84FF0440000F074B83C
:100380004FF0450000F070B84FF0460000F06CB838
:100390004FF0470000F068B84FF0480000F064B834
:1003A0004FF0490000F060B84FF04A0000F05CB830
:1003B0004FF04B0000F058B84FF04C0000F054B82C
:1003C0004FF04D0000F050B84FF04E0000F04CB828
:1003D0004FF04F0000F048B84FF0500000F044B824
:1003E0004FF0510000F040B84FF0520000F03CB820
:1003F0004FF0530000F038B84FF0540000F034B81C
:100400004FF0550000F030B84FF0560000F02CB817
:100410004FF0570000F028B84FF0580000F024B813
:100420004FF0590000F020B84FF05A0000F01CB80F
:100430004FF05B0000F018B84FF05C0000F014B80B
:100440004FF05D0000F010B84FF05E0000F00CB807
:100450004FF05F0000F008B84FF0600000F004B803
:100460004FF0610000F000B86A4602F12002EFF39D
:1004700010832DE9FC0F72B6694601F00DF869464C
:10048000884209D000F1280191E8F00F016821E9C4
:10049000F00F90E8FC0F01E0B1E8FC0F81F3088851
:1004A000DFF808E083F3108870470000F9FFFFFFD2
:1004B00080B582B000AF00F0A9F900F095FB00F024
:1004C000B5F9412000F078FB1A4B3B6004E03B6833
:1004D0001A1D3A6000221A603A68174B9A42F6D306
:1004E000422000F069FB154B7B60154B3B6007E039
:1004F0003B681A1D3A607A68111D796012681A60AB
:100500003A68104B9A42F3D3432000F055FB00F0B9
:1005100005FF442000F050FB01F0AEFF462000F044
:100520004BFB0D2000F048FB0A2000F045FB02F0D9
:10053000CFF800BF8C030020AC1000209C270208DD
:10054000000000208C03002080B483B000AF174B64
:100550001B687B607B6843F001037B60134B7A6808
:100560001A60134B00221A60104B1B687B607B687B
:1005700023F0847323F001137B600C4B7A681A60BC
:100580000C4B0D4A1A60094B1B687B607B6823F497
:1005900080237B60054B7A681A60084B00221A6042
:1005A0000C37BD465DF8047B704700BF0038024041
:1005B0000838024004380240103000240C38024051
:1005C00080B483B000AF0A4B1B687B607B686FEA26
:1005D00053236FEA43237B607B6843F480037B6093
:1005E000034B7A681A600C37BD465DF8047B704790
:1005F0003038024080B483B000AF074B1B687B608B
:100600007B6843F080037B60034B7A681A600C3789
:10061000BD465DF8047B70473438024080B400AFBB
:10062000BD465DF8047B704780B483B000AF0D4BCE
:100630001B687B607B6843F480237B607B6843F4AA
:1006400080037B607B6843F000737B607B6843F0D2
:1006500080537B60034B7A681A600C37BD465DF8A7
:10066000047B70474038024080B483B000AF0F4B2A
:100670001B687B607B6843F001037B607B6843F011
:1006800020037B607B6843F480637B607B6843F47A
:1006900000637B607B6843F480437B60034B7A6834
:1006A0001A600C37BD465DF8047B70474438024041
:1006B00080B483B000AF464B1B687B607B6843F41B
:1006C00080337B60424B7A681A60424B3B6009E0A2
:1006D0003F4B1B6803F40033002B00D005E03B6860
:1006E000013B3B603B68002BF2DC3B68002B6ADD82
:1006F000394B1B687B607B6843F080537B60364BD3
:100700007A681A60354B1B687B607B6843F48043D2
:100710007B60324B7A681A60314B1B687B607B6868
:1007200023F0F0037B602E4B7A681A602C4B1B6819
:100730007B607B6823F460437B607B6843F4004309
:100740007B60274B7A681A60254B1B687B607B684F
:1007500023F4E0537B607B6843F4A0537B60204B21
:100760007A681A601F4B7B601F4B7A681A60184BBF
:100770001B687B607B6843F080737B60144B7A68F6
:100780001A6000BF124B1B6803F00073002BF9D0F6
:1007900040F205637B60154B7A681A60104B1B684A
:1007A0007B607B6823F003037B607B6843F002037C
:1007B0007B600B4B7A681A6000BF094B1B6803F023
:1007C0000C03082BF9D10C37BD465DF8047B70474C
:1007D0000038024014821900403802400070004086
:1007E000083802401954400704380240003C0240D7
:1007F00080B500AFFFF7E4FEFFF7FCFEFFF70EFF4A
:10080000FFF712FFFFF730FF80BD00BF80B500AFDC
:10081000FFF79AFEFFF74CFFFFF7EAFF80BD00BF2E
:1008200080B400AFBD465DF8047B704780B500AF73
:10083000FFF7F6FF80BD00BF80B58EB000AF7860D7
:100840007B6803F0F0031B093B623B6A082B02D96B
:100850006FF0150339E19F4B3A6A53F82230FB6180
:100860007B6803F00F03BB617B6803F44023B3F59F
:10087000002F0BD0B3F5402F0BD0B3F5802F02D053
:1008800000237B6208E001237B6205E002237B6298
:1008900002E003237B6200BFEFF3108372B67B811B
:1008A0007B89FB82FB691B687B63BB695B0003225E
:1008B00002FA03F3DB437A6B13407B63BB695B0093
:1008C0007A6A02FA03F37A6B13437B63FB697A6BF0
:1008D0001A6000233B637B6A032B0FD07B6803F411
:1008E0004033B3F5803F03D0B3F5003F03D005E0BC
:1008F00001233B6302E002233B6300BFFB690C332F
:100900001B687B63BB695B00032202FA03F3DB43D2
:100910007A6B13407B63BB695B003A6B02FA03F3AB
:100920007A6B13437B63FB690C337A6B1A607B6AC7
:10093000022B05D17B6803F470431B0B3B6301E082
:1009400000233B63BB69072B04D82023FB62BB69F0
:10095000BB6204E02423FB62BB69083BBB62FA690B
:10096000FB6A13441B687B63BB6A9B000F2202FA7D
:1009700003F3DB437A6B13407B63BB6A9B003A6BE8
:1009800002FA03F37A6B13437B63FA69FB6A13443D
:100990007A6B1A607B6A012B02D07B6A022B18D11A
:1009A0007B6803F44063B3F5006F0BD0B3F5406F81
:1009B0000BD0B3F5806F02D000233B6308E0012326
:1009C0003B6305E002233B6302E003233B6300BF7C
:1009D00001E000233B63FB6908331B687B63BB6951
:1009E0005B00032202FA03F3DB437A6B13407B6361
:1009F000BB695B003A6B02FA03F37A6B13437B63C8
:100A0000FB6908337A6B1A60FB6904331B687B63EC
:100A1000BB69012202FA03F33B637B6A012B02D01C
:100A20007B6A022B09D17B6803F40073002B04D08E
:100A30007A6B3B6B13437B6304E03B6BDB437A6B6A
:100A400013407B63FB6904337A6B1A607B6A012B6A
:100A50000ED17B6803F48073002B0CBF00230123AD
:100A6000DBB27B757B7D7868194600F047F824E09F
:100A70007B6803F48073002B1FD0BB6903F00C026A
:100A8000154B13443B613B691B687B63BB6903F0F7
:100A900003039B00FB600F22FB6802FA03F3DB43B6
:100AA0007A6B13407B633A6AFB6802FA03F37A6B52
:100AB00013437B633B697A6B1A60FB8A3B813B89FA
:100AC00013F0010F00D162B6002318463837BD4637
:100AD00080BD00BF60FF01080838014080B582B0CA
:100AE00000AF78607B68DBB27B607868FFF7A4FEBC
:100AF000034618460837BD4680BD00BF80B487B0A6
:100B000000AF78600B46FB707B6803F0F0031B09B5
:100B10003B613B69082B1BD8104B3A6953F82230D4
:100B2000FB607B6803F00F03BB60FB78002B05D0F4
:100B3000BB68012202FA03F37B6105E0BB68103356
:100B4000012202FA03F37B61FB6818337A691A60A9
:100B50001C37BD465DF8047B704700BF60FF01088D
:100B600080B487B000AF78607B6803F0F0031B09A6
:100B70007B617B69082B16D80E4B7A6953F82230BB
:100B80003B617B6803F00F03FB603B6910331A681D
:100B9000FB68012101FA03F31340002B0CBF002373
:100BA0000123DBB200E0002318461C37BD465DF888
:100BB000047B704760FF010880B483B000AF034638
:100BC000FB7100BF064B1B6803F08003002BF9D0BC
:100BD000044BFA791A600C37BD465DF8047B704708
:100BE000001401400414014080B582B000AF2048D9
:100BF0000021202200F028FC1E48FFF71DFE1E48A1
:100C0000FFF71AFE1D4B1B687B607B6823F47D5346
:100C10007B601A4B7A681A60194B1B687B607B6893
:100C200023F4BB5323F01C037B60154B7A681A60D6
:100C3000144B1B687B607B6823F4E06323F00103A3
:100C40007B60104B7A681A600F4B40F2D9221A6011
:100C50000B4B1B687B607B6843F4005343F00C0331
:100C60007B60074B7A681A600837BD4680BD00BFBD
:100C7000443802406E8C0900698C09001014014050
:100C80000C140140141401400814014080B483B0D6
:100C900000AF786039607B681A6C3B6813441B684E
:100CA00018460C37BD465DF8047B704780B485B0AC
:100CB00000AFF860B9607A60FB681A6CBB681344D7
:100CC0007A681A601437BD465DF8047B704700BF30
:100CD00080B584B000AF78600B467B807B687A88F3
:100CE0009A8578680C21FFF7D1FFF860FB6823F440
:100CF000D073FB607B8803F4D073FA681343FB6006
:100D000078680C21FA68FFF7D1FF78681421FFF7A3
:100D1000BDFFF860FB6823F00103FB607B8803F0F4
:100D20000103FA681343FB6078681421FA68FFF73F
:100D3000BDFF1037BD4680BD80B584B000AF786080
:100D400039603B68002B17D078680C21FFF79EFFB5
:100D5000F86078681421FFF799FFB860FB689BB2D0
:100D600003F4D0739AB2BB689BB203F001039BB249
:100D700013439AB23B681A8078680021FFF7A8FFF6
:100D80001037BD4680BD00BF80B588B000AF786029
:100D90007B689B6ABB61BB69DA6BBB695B6B5B0899
:100DA000B2FBF3F37B617B695B093B613B691B0130
:100DB000FB603B695B017A69D31A01335B08BB6056
:100DC000FA68BB681343FB60B8690821FA68FFF74B
:100DD0006DFFB8690C21FFF759FFF861FB6923F437
:100DE000B053FB61BB6993F83030012B04D1FB6930
:100DF00043F4C063FB6108E0BB6993F83030022B19
:100E000003D1FB6943F48063FB61BB6993F8313024
:100E1000092B09D0BB6993F83130082B08D1BB6985
:100E200093F83030002B03D0FB6943F48053FB610F
:100E3000B8690C21FA69FFF739FFB8691021FFF78B
:100E400025FFF861FB6923F44053FB61BB6993F80C
:100E50003230002B03D0FB6943F40053FB61B869C7
:100E60001021FA69FFF722FFB8691421FFF70EFF7E
:100E7000F861FB6923F44073FB61B8691421FA69D6
:100E8000FFF714FF2037BD4680BD00BF80B586B098
:100E900000AF78600B46FB707B689B6AFB60FB6869
:100EA0001B6C114A934203D0104A934206D018E0BB
:100EB0004FF480237B610E4B3B6104E020237B6178
:100EC0000C4B3B6100BFFB78002B05D0386900213B
:100ED0007A6900F0B9FA04E038697969002200F013
:100EE000B3FA1837BD4680BD0048004000140140E9
:100EF000403802404438024080B584B000AF78608A
:100F00007B689B6ABB6078680121FFF7BFFFBB6805
:100F10005B6C1846FFF790FCBB689B6C1846FFF7AC
:100F20008BFCB8681021FFF7B1FEF860FB6823F472
:100F30007D53FB60BB6893F83230002B03D0FB6815
:100F400043F40053FB60B8681021FA68FFF7AEFE67
:100F5000B8680C21FFF79AFEF860FB6823F4BE73B3
:100F6000FB60B8680C21FA68FFF7A0FEB86814218E
:100F7000FFF78CFEF860FB6823F4E06323F00103C5
:100F8000FB60B8681421FA68FFF790FE7868FFF7F5
:100F9000FBFEB8680C21FFF779FEF860FB6843F4AC
:100FA000005343F00C03FB60B8680C21FA68FFF7AC
:100FB0007DFEBB6800229A85002318461037BD4687
:100FC00080BD00BF80B584B000AF78607B689B6A4D
:100FD000FB60F8680021FFF7AFFE78680021FFF79B
:100FE00055FFF8680C21FFF751FEB860BB6823F489
:100FF000005323F00C03BB60F8680C21BA68FFF7BC
:1010000055FEFB685B6C1846FFF768FDFB689B6C40
:101010001846FFF763FD1037BD4680BD80B584B02C
:1010200000AF78607B689B6AFB60FB6893F83830A0
:101030001A46FB68DB6C1046194601F083FCB86069
:10104000BB68002B05D1FB6893F83830184600F0D8
:1010500007FCBB6818461037BD4680BD80B584B01C
:1010600000AF78607B689B6AFB60FB6893F8383060
:10107000184600F0CFFBFB6893F838301846002183
:1010800001F060FC1037BD4680BD00BF80B584B064
:1010900000AF78600123FB720023FB603BE000237C
:1010A000FB7278680021FFF7F1FD03469AB27B6876
:1010B000DA857B68DB8D03F02003002B0CD07B6886
:1010C0009B8D03F02003002B06D07B68184601F0AF
:1010D00075F90123FB7209E07B68DB8D03F00E03D9
:1010E000002B03D078680421FFF7D0FD7B68DB8DEF
:1010F00003F08003002B0BD07B689B8D03F08003F3
:10110000002B05D07B68184601F002F90123FB7221
:10111000FB680133FB60FB68FF2B02DCFB7A002BD2
:10112000BDD1002318461037BD4680BD80B487B0BE
:1011300000AFF860B9607A6000237B616FF018033C
:101140007B6100BF7B6918461C37BD465DF8047B98
:10115000704700BF80B584B000AF786039607B68AD
:101160009B6AFB60F8680421FFF790FDB860FB689C
:10117000DB8D1B041A46BB681A433B681A60FB6888
:101180000022DA85BB68DBB218461037BD4680BD49
:1011900080B586B000AF78600B46FB707B689B6AB9
:1011A0003B61EFF3108372B6BB81BB89FB813B6966
:1011B0009B8DFB82FB78002B04D0FB8A43F020033D
:1011C000FB8205E0FB8A23F4907323F00103FB828A
:1011D000FB8A38691946FFF77BFDFB897B817B8998
:1011E00013F0010F00D162B61837BD4680BD00BFB5
:1011F00080B584B000AF78607B689B6AFB60F8685C
:101200000021FFF743FD034603F02003002B0CBF32
:1012100000230123DBB218461037BD4680BD00BF56
:1012200080B584B000AF786039607B689B6AFB60F2
:101230003B68F86804211A46FFF738FD1037BD46B1
:1012400080BD00BF80B586B000AF78600B46FB70F4
:101250007B689B6A7B61EFF3108372B6FB81FB892D
:101260007B82FB78002B0DD07B699B8D43F0800344
:101270003B823B8A78691946FFF72AFD786801F0BE
:1012800047F808E07B699B8D23F080039BB2786967
:101290001946FFF71DFD7B8ABB81BB8913F0010F47
:1012A00000D162B61837BD4680BD00BF80B584B09E
:1012B00000AF78607B689B6AFB60F8680021FFF7ED
:1012C000E5FC034603F08003002B0CBF0023012341
:1012D000DBB218461037BD4680BD00BF80B582B076
:1012E00000AF786039600448FFF7D0FE0346184627
:1012F0000837BD4680BD00BF0000002080B582B029
:1013000000AF786039600448FFF7C0FE0346184616
:101310000837BD4680BD00BF5000002080B582B0B8
:1013200000AF00237B6010E00D4B7A6853F8223049
:10133000002B07D00A4B7A6853F822301846002158
:10134000FFF7FAFC7B6801337B607B68052BEBD9E8
:10135000044B1846FFF7D0FD0837BD4680BD00BFDF
:10136000B4FF01085000002080B586B000AF002314
:101370003B611E4B1E48194600F062FF1B4B1D4887
:10138000194600F05DFF01233B613B4618461A49B0
:1013900003F074FE00237B6121E0184B7A6953F857
:1013A0002230002B00D117E0144B7A6953F8223019
:1013B000DB78002B00D00FE03B695A1C3A61DBB2AE
:1013C0003033DBB27B720D4B7A6953F822303A46E8
:1013D0001046194600F034FF7B6901337B617B695D
:1013E000052BDAD91837BD4680BD00BF500000205C
:1013F000CCFF0108DCFF0108E8FF0108B4FF010889
:1014000080B584B000AF78600E4BFB6007F10A0333
:10141000F8681946FFF790FC7B680A2B02D10D2073
:10142000FFF7CAFB7B68DBB21846FFF7C5FB7B8979
:10143000F8681946FFF74CFC7B6818461037BD4624
:1014400080BD00BF5000002080B489B000AFF860BC
:10145000B9607A60EFF3108372B6FB82FB8AFB837C
:10146000FB681B68BB61BB68DB43BA691340BB61A7
:10147000BA697B681343BB61FB68BA691A60FB8B6E
:10148000BB82BB8A13F0010F00D162B62437BD4680
:101490005DF8047B704700BF80B584B000AF786012
:1014A0003960042001F08AF80D4B1B68FB600C4B7F
:1014B0003A681A60786800F0F9F97868396801F0DC
:1014C00071FA074B1B683B60054BFA681A600420F1
:1014D00001F088F83B6818461037BD4680BD00BF54
:1014E000780C002080B584B000AF78603960EFF3ED
:1014F000108372B6FB8103200349044A03F020FDE8
:101500000348992100F002FAF4FF0108E400020800
:101510001000020880B584B000AF78603960EFF346
:10152000108372B6FB81054B1B6803200449054AF2
:1015300003F006FD0448A12100F0E8F928ED00E0E1
:1015400024000208F00002081000020880B584B0F0
:1015500000AF78603960EFF3108372B6FB81054B02
:101560001B6803200449054A03F0EAFC0448A9214A
:1015700000F0CCF928ED00E04C0002080001020860
:101580001000020880B584B000AF78603960EFF3D6
:10159000108372B6FB8103200349044A03F0D0FC98
:1015A0000348B12100F0B2F97800020814010208E2
:1015B0001000020880B584B000AF78603960EFF3A6
:1015C000108372B6FB8103200349044A03F0B8FC80
:1015D0000348B92100F09AF9980002082401020892
:1015E0001000020880B584B000AF78603960EFF376
:1015F000108372B6FB8103200349044A03F0A0FC68
:101600000348C12100F082F9C00002083801020835
:101610001000020880B584B000AFF860B9607A604D
:101620003B60FB68012B02DDFB68612B03DD364864
:10163000E92100F06BF9FB680F2B37DDFB682F2BDE
:101640000FDC3B6803F1604303F56143BA68136044
:10165000FB68103B012202FA03F31A467B681A600A
:101660004CE0FB684F2B0DDC3A68284B1344BA68FA
:101670001360FB68303B012202FA03F31A467B68D1
:101680001A603BE0FB68612B0DDC3A68204B134489
:10169000BA681360FB68503B012202FA03F31A4652
:1016A0007B681A602AE04FF0FF3328E0BB68194AD4
:1016B0001A60FB68042B04D17B684FF480321A60F7
:1016C0001CE0FB68052B04D17B684FF400321A60E4
:1016D00014E0FB68062B04D17B684FF480221A606B
:1016E0000CE0FB680F2B06D1BB680B4A1A607B68C5
:1016F00001221A6002E04FF0FF3300E00023184699
:101700001037BD4680BD00BF1000020804E100E0B4
:1017100008E100E024ED00E010E000E080B584B0D6
:1017200000AF2B4B00221A602A4B00221A602A4B72
:101730004FF080321A60294B4FF080321A60284BEC
:101740004FF080321A60274B1B680133DB00BB600F
:10175000254BFB6006E0FB684FF080321A60FB68A7
:101760000433FB60BB685A1EBA60002BF3D11F4BD9
:1017700000221A600B201E4901F0E4F803201D49E5
:1017800001F0E0F802201C4901F0DCF804201B49BC
:1017900001F0D8F805201A4901F0D4F806201949BB
:1017A00001F0D0F80E20184901F0CCF80C201749B0
:1017B00001F0C8F80020164901F0C4F800237B604E
:1017C0007B6883F3118862B61037BD4680BD00BFC9
:1017D00000E100E004E100E018ED00E01CED00E0B5
:1017E00020ED00E004E000E000E400E0780C0020E0
:1017F000491A0008C9190008E514000879190008F9
:10180000151500084D15000885150008B5150008C8
:10181000E515000880B586B000AF786007F11002CA
:1018200007F10C03786811461A468023FFF7F2FE91
:101830000346002B11D17B680F2B03DD3B69FA684F
:101840001A600AE03B691B687B61FB68DB437A69CD
:1018500013407B613B697A691A601837BD4680BDC9
:1018600080B586B000AF786007F1100207F10C0375
:10187000786811461A460023FFF7CCFE0346002B7A
:1018800010D17B680F2B03DD3B69FA681A6009E011
:101890003B691B687B61FB687A6913437B613B6929
:1018A0007A691A601837BD4680BD00BF80B483B026
:1018B00000AF78600C37BD465DF8047B704700BF11
:1018C00080B584B000AF78600E4B1B68002B04D14C
:1018D0000D4B1B689B89002B10D1EFF3108372B660
:1018E000FB81072000F06AFEFA2000F027F80720AD
:1018F00000F078FEFA2000F021F8F2E7786801F0B5
:10190000B5FB00BF780C00208C0C002080B584B0A3
:1019100002AF78603960062000F050FE3B6800930B
:1019200003200449044A7B6803F054FB0120FFF7BD
:10193000C7FF00BF480102087401020880B485B0E7
:1019400000AF78600023FB600DE00023BB6002E085
:10195000BB680133BB60BA6844F24C139A42F7D9B2
:10196000FB680133FB60FA687B689A42EDD3143759
:10197000BD465DF8047B704780B586B002AF7860E5
:101980003960EFF3108372B6FB8103200849094ADE
:1019900003F020FB084B1B68084A126800920320E2
:1019A0000749044A03F016FB06488021FFF7AEFF03
:1019B00080010208E401020828ED00E034ED00E0B7
:1019C000A8010208CC01020880B586B000AF78609B
:1019D00039603B687B617B6940331B68023B3B613C
:1019E0003A69134B9A4210D33A69124B9A420CD27D
:1019F0003B691B88FB81FB89B3F55F4F05D1786894
:101A0000396800F021F803460EE0EFF3108372B658
:101A1000BB81094B1B6803200849094A03F0DAFA25
:101A20000848B721FFF772FF18461837BD4680BD3A
:101A300000000008942702082CED00E0F0010208E5
:101A4000280202081002020880B584B000AF786056
:101A500039603B68FB60FB68002B04D02B4B1B6894
:101A6000FA689A4203D02A48A021FFF74FFFFB688B
:101A70009B6ABB60BB68012B16D0012B02D3022BE3
:101A800022D03EE0FB682C331B68002B03D120489A
:101A9000CF21FFF73BFFFB682C331B681846F96822
:101AA000482203F01DFB2CE0FB682C331B68002B45
:101AB00003D11748E821FFF729FFFB682C331B6887
:101AC0001A46124B1A601CE0FB682C331B68002B73
:101AD00004D0FB6830331B68002B03D10C48FF2176
:101AE000FFF714FFFB682C331B681846F96848227F
:101AF00003F0F6FAFB6830331B681A46034B1A6092
:101B000000BF002318461037BD4680BD780C00206A
:101B10003802020880B584B000AFF860B9607A601E
:101B2000F86801F0D5FAF868B9687A6803F0F8FA4D
:101B3000034618461037BD4680BD00BF80B582B051
:101B400000AF78600B46FB700FE001F0A3FA03468C
:101B50001B68042B03D00A488821FFF7D7FEFB78C7
:101B6000002B02D06FF0030306E0786801F0CCFA96
:101B70000346002BE9D1002318460837BD4680BD37
:101B80006402020880B588B000AFF860B9601346FF
:101B9000FB71FB68DB899BB21BB20133FB61FB6805
:101BA0005B8A1AB2FB699A4201DC0023FB61FB6885
:101BB0001B8A9BB21AB2FB699A420FD0FB685A6922
:101BC000FB68DB899BB21BB21344BA68D2B21A70AD
:101BD000FB699AB2FB68DA8100232FE0FB79002BC6
:101BE00028D0EFF3108372B67B827B8A7B83FB68FD
:101BF00001225A70FB685B6A5B6AF86801219847AA
:101C0000FB68063318460121FFF798FF7861FB68EF
:101C10005B6A5B6AF868002198477B8B3B823B8A52
:101C200013F0010F00D162B67B69002B05DA6FF06B
:101C3000030303E06FF00A0300E0B8E7184620371B
:101C4000BD4680BD80B586B000AFF860B9607A60EF
:101C50007B687B6110E0BB685A1CBA601B783B61F3
:101C60003B690A2B02D10D20FFF7CAFB3869FFF749
:101C7000C7FB7B68013B7B607B68002BEBD17B69FA
:101C800018461837BD4680BD80B58AB000AFF860F1
:101C9000B9607A60FB689B68FB61FB691B69BB618B
:101CA0007B687B6205F00CFD0346002B04D101F03C
:101CB000C7F90346002B1BD1BB69DB78002B14D07E
:101CC000EFF3108372B67B827B8ABB82B869B968F6
:101CD0007A68FFF7B7FF3862BB8A3B823B8A13F012
:101CE000010F00D162B63B6A6AE04FF0FF3367E054
:101CF000BB690C3318460121FFF720FF38623B6AAD
:101D0000002B01DA3B6A5BE0FB681B6803F04003D1
:101D1000002B14BF00230123DBB2FB75BB695B6A98
:101D20005B6AB8690021984731E0BB685A1CBA6009
:101D30001B78BB7500233B62BB69DB78002B09D0A5
:101D4000BB7D0A2B06D1FB7DB8690D211A46FFF732
:101D500019FF38623B6A002B07D1BA7DFB7DB86959
:101D600011461A46FFF70EFF38623B6A002B0BDA6A
:101D70007A6A7B689A4204D97A6A7B68D31A7B6252
:101D800008E03B6A7B6205E07B68013B7B607B6827
:101D9000002BCAD1BB69DB899AB2BB691B8A9BB293
:101DA00012B21BB29A4205D0BB695B6A5B6AB86922
:101DB00001219847BB690C33184601F011FA7B6A80
:101DC00018462837BD4680BD80B58CB000AFF8609E
:101DD000B9607A60FB689B687B627B6A1B693B62C7
:101DE0003B6A1833FB610023FB62FB691846012143
:101DF000FFF7A4FEB861BB69002B01DABB6980E084
:101E000075E0FB699B887B85FB695B889BB2B7F9B2
:101E10002A201BB29A421ED0FB699A68B7F92A3071
:101E200013441B78FB757B8D01337B85FB69DB8855
:101E3000B7F92A201BB29A4201DB00237B85FB699C
:101E40007A8D9A80BB685A1CBA60FA7D1A70FB6A58
:101E50000133FB624BE0FB6A002B00DD4BE0FB68CB
:101E60001B6803F04003002B03D06FF00A03FB62F2
:101E700041E03B6A5B6A9B69386A00219847FB69CD
:101E80005B889AB2FB699B889BB212B21BB29A42E2
:101E900027D1EFF3108372B67B827B8ABB823B6AC9
:101EA0005B6A9B69386A012198473B6A01229A70F4
:101EB0003B6A083318460121FFF740FEB861BB8A30
:101EC0003B823B8A13F0010F00D162B6BB69002B45
:101ED0000DDAFB6A002B03D16FF00303FB620AE00B
:101EE00009E03B6A5B6A9B69386A01219847FA6A94
:101EF0007B689A4285D33B6A1833184601F070F923
:101F0000FB6A18463037BD4680BD00BF80B58CB037
:101F100000AFF860B9607A60FB689B683B623B6A1F
:101F20001B69FB61FB695B6A1B69F868B9687A68C1
:101F30009847F862FB6A13F1190F77D1BB6840F23A
:101F40000532934204D040F20632934236D06DE01F
:101F5000EFF3108372B6FB82FB8A7B83FB699B8B5A
:101F60009AB2FB695B8B9BB212B21BB29A420ADC3B
:101F7000FB695B8B9BB21AB2FB699B8B9BB21BB25A
:101F8000D31ABB620DE0FB69DB8B1AB2FB695B8B7A
:101F90009BB219B2FB699B8B9BB21BB2CB1A134449
:101FA000BB627B8BBB82BB8A13F0010F00D162B690
:101FB0007B68BA6A1A600023FB6237E0EFF3108394
:101FC00072B67B827B8A3B83FB69DB899AB2FB69B1
:101FD0001B8A9BB212B21BB29A420BDAFB691B8AB4
:101FE0009BB21AB2FB69DB899BB21BB2D31A013BCD
:101FF0007B620EE0FB695B8A1AB2FB691B8A9BB2AB
:1020000019B2FB69DB899BB21BB2CB1A1344013BAB
:102010007B623B8B3B823B8A13F0010F00D162B69F
:102020007B687A6A1A600023FB6200BFFB6A18466D
:102030003037BD4680BD00BF80B586B000AF786048
:102040007B689B687B617B691B693B613B690433EF
:1020500018460021FFF772FD3B691B78012B0CD954
:102060003B691B78013BDAB23B691A703B69043368
:10207000184601F0B5F800235FE03B6900221A70B2
:102080003B695B6A9B6938690021984702E02D48EB
:1020900002F0F4FE3B69DB899AB23B691B8A9BB272
:1020A00012B21BB29A42F2D102E0264802F0E6FEDA
:1020B0003B695B6ADB6A386998470346002BF4D0BA
:1020C000EFF3108372B6BB81BB89FB813B695B6A0E
:1020D000DB68386998473B69DB78002B04D13B69A2
:1020E0005B6A5B6838699847FB897B817B8913F061
:1020F000010F00D162B63B69063318460021002269
:10210000FFF708FD3B690833184600210022FFF75E
:1021100001FD3B690C33184600210122FFF7FAFC50
:102120003B691833184600210122FFF7F3FC3B6995
:102130000433184601F054F8002318461837BD46FA
:1021400080BD00BF20A1070080B588B000AF7860D7
:102150007B689B68BB61BB691B697B617B690433DE
:1021600018460121FFF7EAFCF861FB69002B01DA50
:10217000FB6960E07B691B780133FB74FB7C002BFF
:1021800003D16FF01703FB614FE0FB7C012B49D1BA
:10219000EFF3108372B6FB81FB893B827B69DB78AE
:1021A000002B10D17B695B6A1B6878699847F861DE
:1021B000FB69002B07DA3B8ABB81BB8913F0010F57
:1021C00000D162B631E07B695B6A9B6878699847A9
:1021D000F861FB69002B0CDA7B695B6A5B687869E4
:1021E00098473B8A7B817B8913F0010F00D162B64F
:1021F0001BE07B690022DA817B6900221A827B69FD
:1022000000225A837B6900229A837B695B6A9B69FF
:102210007869012198473B8A3B813B8913F0010F84
:1022200000D162B67B69FA7C1A707B690433184668
:1022300000F0D6FFFB6918462037BD4680BD00BFC1
:1022400080B582B000AF786039603B680C331846C7
:102250000021012202F064FF3B6818331846002178
:10226000012202F05DFF3B68043318460021012281
:1022700002F056FF3B68063318460021002202F0A8
:102280004FFF3B68083318460021002202F048FF48
:1022900003200849084A7B6802F052FE7868074923
:1022A0004FF4DB723B680CF097F80346184608378A
:1022B000BD4680BD74020208880202084C02020872
:1022C00080B582B000AF78607B689B78DBB2002B72
:1022D00007D07B6800229A707B680833184600F0AC
:1022E0007FFF0837BD4680BD80B582B000AF786003
:1022F0007B685B78DBB2002B07D07B6800225A70CA
:102300007B680633184600F06BFF0837BD4680BD7A
:1023100080B584B000AF78600023FB8122E07B6849
:102320005B6A1B6A7A6851697A68128A92B212B241
:102330000A441278786811469847FB890133FB817B
:102340007B681B8A9BB201339BB29BB27A681946A9
:1023500011827A68518A1AB20BB29A4202DB7B6808
:1023600000221A827B68DB899AB27B681B8A9BB247
:1023700012B21BB29A4207D07B685B6A9B6A78688C
:1023800098470346002BCAD17B68DB899AB27B68E9
:102390001B8A9BB212B21BB29A4205D17B685B6A60
:1023A0005B6A786800219847FB89002B02D0786827
:1023B000FFF79AFF1037BD4680BD00BF80B588B0DB
:1023C00000AF78607B6818337B617B695B889BB268
:1023D0001BB20133FB6100237B837B69DB881AB26C
:1023E000FB699A4202DC0023FB6133E032E07B6947
:1023F0009B889BB21AB2FB699A4214BF0023012347
:10240000DBB2FB747B685B6A5B6907F10C0278687E
:10241000114698470346BB74FB7C002B1AD17B699D
:102420009A687B695B889BB21BB21344BA7C1A70B2
:102430007B8B01337B83FB699AB27B695A80FB6992
:102440000133FB617B69DB881BB2FA699A4201DBCD
:102450000023FB617B685B6ADB6978689847034609
:10246000002BC4D17B8B002B02D07868FFF728FFAC
:102470002037BD4680BD00BF80B500AF044B002BA8
:1024800001D0AFF3008000F081F800F0BDF880BD0E
:102490000000000080B582B000AF78607B6803F078
:1024A0000103002B03D011480021FEF727FB7B68B6
:1024B00003F00203002B03D00D480021FEF71EFBA2
:1024C0007B6803F00403002B03D00A480021FEF7C9
:1024D00015FB7B6803F00803002B03D0064800219E
:1024E000FEF70CFB0837BD4680BD00BF04090400A1
:1024F00006090400160904002609040080B582B00C
:1025000000AF78607B6803F00103002B03D0114813
:102510000121FEF7F3FA7B6803F00203002B03D0DE
:102520000D480121FEF7EAFA7B6803F00403002B53
:1025300003D00A480121FEF7E1FA7B6803F00803A3
:10254000002B03D006480121FEF7D8FA0837BD4614
:1025500080BD00BF04090400060904001609040038
:102560002609040080B582B000AF78607B681B0943
:1025700003F00F031846FFF78DFF7B6803F00F038E
:102580001846FFF7BBFF0837BD4680BD80B500AFDA
:102590000648FEF751F90648FEF74EF90548FEF7E2
:1025A0004BF90548FEF748F980BD00BF0409040057
:1025B00006090400160904002609040080B582B04B
:1025C00000AF7860064B7A6833F812301B0A9BB272
:1025D000DBB21846FFF7C6FF0837BD4680BD00BF17
:1025E0009802020880B582B000AF7860054B7A6827
:1025F00033F81230DBB21846FFF7B4FF0837BD4698
:1026000080BD00BF9802020880B582B000AF0023F1
:102610007B6009E0074B7A6833F812301846FEF702
:102620000BF97B6801337B607B68022BF2DD083796
:10263000BD4680BDA802020880B584B000AF00236B
:10264000FB730023BB6017E00F4BBA6833F81230FE
:102650001846FEF785FA0346FB71FB79002B08D17B
:102660000122BB6802FA03F3DAB2FB7B1343DBB24D
:10267000FB73BB680133BB60BB68022BE4DDFB7BF3
:1026800018461037BD4680BDA802020880B586B046
:1026900002AF786039600023FB607B68002B0FDBA2
:1026A0007B68022B0CDC094B7A6833F812303A68ED
:1026B0000092184601210122012304F0D7FBF860A3
:1026C000FB6818461037BD4680BD00BFA80202084F
:1026D00080B584B000AF6B4B00221A60694B0022BA
:1026E0005A60694B00221A60674B00225A60674BA0
:1026F00000221A60654B00225A60654B00221A6066
:10270000634B00225A60634B00221A60614B002227
:102710005A60614B00221A605F4B00225A605F4B87
:1027200000221A605D4B00225A605D4B00221A6045
:102730005B4B00225A605B4B00221A800023FB6037
:102740000EE0594BFA68002143F83210564AFB68F4
:10275000DB0013444FF6FF729A80FB680133FB6085
:10276000FB680F2BEDDD504B504A1A604E4B002298
:102770009A804E480021C82202F064FC4B4B032291
:102780005A764A4B4A4A5A61484B02225A83494B6D
:10279000494A1A60474B00225A60444B454AC3F8E5
:1027A000C4204248374902F021FE404804F06AFF45
:1027B00007F108023B1D1046194604F041FABA68B9
:1027C0007B681046194603F017FF3C4B002B01D0E5
:1027D00001F0B4F93A4B002B01D002F067FA394B03
:1027E000002B01D002F016FA374B002B01D0AFF3CB
:1027F0000080364B002B01D001F008FD344B002B3C
:1028000001D017F001FA334B002B01D016F09AFAE1
:102810000AF0C2FC04F018FF244B5B8BDBB22348A8
:10282000194600F0FBF80346002B04DA2A484FF45F
:10283000F971FFF76BF81D4800F04AF90346002BC9
:1028400004DA25484FF4FD71FFF760F8174800F0EF
:1028500021F90346002B04DA1F4840F20221FFF75A
:1028600055F8124B9B6801221A7000F061F803467C
:10287000002B04DA184840F20921FFF747F804F06A
:10288000BDFBFCE78C0C00202C0D0020840C0020EC
:10289000A40C0020940C00207C0C00209C0C002038
:1028A000380D0020340D0020AC0C00208C070020D7
:1028B000D126000854080020F80202083D3B000819
:1028C000AD4C0008154C0008000000000D42000847
:1028D000099C0108458D01080403020880B500AF7A
:1028E00001F0E6F880BD00BF80B584B002AF0023E0
:1028F0000093094864214FF40062084B00F0A4F9EA
:1029000078607B68002B04DC05484FF48E71FEF77D
:10291000FDFF0837BD4680BD14030208C97B0008CF
:102920001C03020880B500AFFFF7DEFF80BD00BFCB
:1029300080B500AFFFF7D2FFFFF7F4FF0023184682
:1029400080BD00BF80B586B000AF786039604FF0C1
:10295000FF337B617B68612B1BD8EFF3108372B66A
:102960003B823B8A7B823B68002B04D17868FEF770
:1029700051FF0A4B3B600A4B7A68396843F82210D2
:102980007B8AFB81FB8913F0010F00D162B6002323
:102990007B617B6918461837BD4680BDE929000870
:1029A000500D002080B584B000AF786039607B683E
:1029B000612B05D80A4B7A6853F82230002B02D1DC
:1029C000084BFB6004E0064B7A6853F82230FB604A
:1029D000FB687868396898471037BD4680BD00BFEE
:1029E000500D0020E929000880B584B000AF786060
:1029F0003960EFF3108372B6FB8103200449054A66
:102A00007B6802F0E7FA04485521FEF77FFF00BF1C
:102A100030030208580302084003020880B584B05E
:102A200000AF78600B46FB707B68002B03D07B689F
:102A30009B68002B03D01648B821FEF767FF4FF4C0
:102A4000EC7003F019FEF860FB68002B02D16FF008
:102A50000B0319E07B68FA689A60F86800F0CAFF17
:102A6000B860BB68002B07DAF86803F0E7FD7B6805
:102A700000229A60BB6807E0FB6808331846002113
:102A8000012202F04DFB002318461037BD4680BDE1
:102A90006C03020880B584B000AF78607B68002BBF
:102AA00003D07B689B68002B04D108484FF48E71DB
:102AB000FEF72CFF7B689B68FB60FB6801225A7065
:102AC000002318461037BD4680BD00BF6C030208C6
:102AD00080B584B000AF78607B689B68FB60FB6862
:102AE000002B03D114485A21FEF710FFFB6828334E
:102AF00018460AF0A5FB114803210AF0BDFFB86093
:102B0000BB68002B0CD1002001210AF0DBFE002065
:102B100002210AF0D7FE786801F02AF8034607E0A0
:102B2000BB68002B02DDB8680AF0AAFE6FF016033E
:102B300018461037BD4680BD84030208A40302086E
:102B400080B58AB002AFF8607A603B600B46FB72DA
:102B5000C82003F091FDB861BB69002B02D10C23A2
:102B6000FB6162E0FB7AB8691946FFF757FF7861AD
:102B70007B69002B03DA7B695B42FB6150E0B8693B
:102B800001F062F878617B69002B03DA7B695B42B4
:102B9000FB6145E03A68FB7AB86911461A4604F0D1
:102BA000F9FC78617B69002B03DA7B695B42FB618E
:102BB00036E0FB7A0093B8697968214ABB6A00F075
:102BC000ADF978617B69002B03DA7B695B42FB61BD
:102BD00026E0B869F968FA6A00F0D2F9B869FFF737
:102BE00059FF78617B69002B03DA7B695B42FB61EB
:102BF00016E0BB699B897B82B86900F0D1F97861E6
:102C00007B69002B09DA00F045FA03461B68FB617B
:102C1000B8690C4902F00EFC02E0B7F912300BE083
:102C2000FB7AB869194601F0D5F800F033FA03468B
:102C3000FA691A604FF0FF3318462037BD4680BD51
:102C4000D52F00089C0C002080B586B002AFF8603C
:102C5000B9607A603B603B680093BB690193F86898
:102C60000021BA687B68FFF76BFF034618461037F0
:102C7000BD4680BD80B586B002AFF860B9607A60AD
:102C80003B603B680093BB690193F8680221BA6816
:102C90007B68FFF755FF034618461037BD4680BDD9
:102CA00080B586B000AF786001F0C8F800233B61C2
:102CB00031E01E4B1B889BB201339BB29BB21B4A77
:102CC00019461180FB82B7F91630002B04DC174B34
:102CD00001221A800123FB82FB8A03F00F03FB60B1
:102CE000134BFA6853F83230002B11D1104BFA68AD
:102CF000796843F832100E4AFB68DB001344FA8A05
:102D00009A807B68FA8A9A8101F0C0F8002309E072
:102D10003B6901333B613B690F2BCADD01F0B6F81B
:102D20004FF0FF3318461837BD4680BD340D0020E4
:102D3000AC0C002080B586B000AFF860B9607A6056
:102D40003B60F868FFF7ACFF78617B69002B37D1F7
:102D5000BB68DAB2FB681A76FB687A681A613A686F
:102D6000FB685A6197F8203003F0030387F820309E
:102D7000FB685B8B23F003039AB2FB685A83FB6802
:102D80005A8B97F820309BB213439AB2FB685A8350
:102D9000FB683833032000211A4600F075FAFB68FF
:102DA00000225A76F86804F06DFC01F047F8F868E4
:102DB000064902F01BFBFB6804225A7601F066F814
:102DC0007B6918461837BD4680BD00BF9C0C0020AB
:102DD00080B58AB000AF786039604E4B7B6178690E
:102DE00002F066F9034601333B620023FB613B6856
:102DF000002B26D01EE0FB699B003A6813441B6839
:102E0000184602F055F902463B6A134401333B620F
:102E10007B689A6A3B6A9A4202D86FF0230375E096
:102E2000FB690133FB61FB69B3F5807F02DD6FF065
:102E300006036BE0FB699B003A6813441B68002B98
:102E4000D9D1FB6902339B003B617A6839693B6ADF
:102E50000B441046194604F04FFDF860FB68002B48
:102E600004D12D4840F20E21FEF750FDFB68002BE7
:102E700002D16FF00B0349E0FA683B6913447B62AF
:102E8000FB687A6A1A60786902F012F90346013326
:102E9000BB60786A796902F0F1F8BB687A6A13441A
:102EA0007B620023BB6121E0BB6901339B00FA68B0
:102EB00013447A6A1A60BB699B003A6813441B6822
:102EC000184602F0F5F803460133BB60BB699B006E
:102ED0003A6813441B68786A194602F0CFF8BB6859
:102EE0007A6A13447B62BB690133BB61BA69FB69CF
:102EF0009A42D9DBFB6901339B00FA681344002234
:102F00001A607B68FA68C3F8C42000231846283783
:102F1000BD4680BDB4030208C003020880B588B076
:102F200002AFF860B9607A603B6097F82030009398
:102F3000F868B9687A683B68FFF7FCFE78617B69DE
:102F4000002B04D1BB68DAB2FB6883F8C0207B6930
:102F500018461837BD4680BD80B586B002AFF86010
:102F6000B9607A603B6001230093F868B9687A68B9
:102F70003B68FFF7DFFE034618461037BD4680BDAD
:102F800080B584B000AFF860B9607A60F86879689D
:102F9000FFF71EFF034618461037BD4680BD00BF31
:102FA00080B584B000AF7860EFF3108372B6BB8158
:102FB000BB89FB81786804F0D1FCFB897B817B892C
:102FC00013F0010F00D162B6002318461037BD463A
:102FD00080BD00BF80B584B000AF174B1B68BB60DD
:102FE000BB685B8B03F00303012B03D113486B21F8
:102FF000FEF78CFC0123FB6009E0FB680133FB60FA
:10300000FB68B3F5807F02DD012000F02FF8BB687C
:10301000D3F8C420FB689B0013441B68002BECD141
:10302000BB685B69BA68D2F8C420F8681146984753
:103030007860786800F01AF88C0C0020D40302083D
:1030400080B483B000AF084B1B687B607B68002BAB
:1030500002D07B689B8900E000231BB218460C3726
:10306000BD465DF8047B70478C0C002080B584B0B1
:1030700000AF7860064B1B68FB607B68DBB27B604F
:10308000F8687968002200F099FF786804F0C8FABF
:103090008C0C002080B582B000AF04F011FB034619
:1030A000002B0CD1084B1B687B607B68002B06D083
:1030B0007B685B7E032B02D17B68643300E0034BAB
:1030C00018460837BD4680BD8C0C00205C080020E7
:1030D00080B582B000AF78607B68002B09D07B6838
:1030E0001B881BB2002B02DB7B6801221A800023A5
:1030F00006E0FFF7CFFF034616221A604FF0FF33BA
:1031000018460837BD4680BD80B586B000AF7860F0
:10311000314B1B683B614FF0FF337B6104F0D0FA09
:103120000346002B03D02D486921FEF7EFFBFFF784
:10313000B1FF034616221A607B68002B47D0EFF3DD
:10314000108372B6BB81BB89FB817B681B881BB275
:10315000002B0CDD7B681B889BB2013B9AB27B681D
:103160001A803B6900225A6300237B6128E03B6997
:103170005B6B002B03D019488E21FEF7C7FB7B68E1
:103180001B889BB2013B9AB27B681A803B697A68C4
:103190005A63FFF77FFF034600221A603869052152
:1031A00004F07EF9FFF776FF03461B68042B07D077
:1031B000FFF770FF03461B686E2B01D000237B6175
:1031C000FB897B817B8913F0010F00D162B67B699B
:1031D00018461837BD4680BD8C0C0020E803020855
:1031E00080B586B000AF786000237B614FF0FF337D
:1031F0003B617B68002B3DD0EFF3108372B6BB813F
:10320000BB89FB817B681B881AB247F6FF739A4221
:1032100003D11B487821FEF779FB7B681B889BB2A2
:1032200001339AB27B681A807B681B881BB2002B23
:1032300017DC144B1B687B6102E07B691B687B61B8
:103240007B69002B04D07B695A6B7B689A42F4D16E
:103250007B69002B05D07B6900225A63786904F0F2
:103260007DFB00233B61FB897B817B8913F0010F90
:1032700000D162B63B6918461837BD4680BD00BF15
:1032800000040208840C002080B58AB000AFF8600A
:10329000B9607A60244B1B683B6200237B6200F0BC
:1032A000CDFD3B6A9B6BFB617B68002B02D07B688A
:1032B000FA691A60BB68002B2FD0EFF3108372B647
:1032C0003B833B8B7B83FB68022B0BD0032B12D001
:1032D000012B15D13B6A9A6BBB681B681A433B6A8A
:1032E0009A6311E03B6A9A6BBB681B68DB431A4028
:1032F0003B6A9A6308E0BB681A683B6A9A6303E01A
:103300004FF0FF337B6200BF7B8BFB82FB8A13F0A5
:10331000010F00D162B600F009F800F0B7FD7B6A3A
:1033200018462837BD4680BD8C0C002090B585B06E
:1033300000AF1B4B1B68FB6000F080FDFB689B6BC4
:10334000DC43F86800F0FAFF034623403B601EE0D0
:103350003B46184600F0AEF8B860BB68B3F1FF3FDB
:1033600015D03B461846B96801F016FFF868B968F1
:1033700000F018F878607B68002B08D07B68043375
:10338000F868194600F0B4F9786800F055F83B6821
:10339000002BDDD100F07AFD1437BD4690BD00BF93
:1033A0008C0C002080B588B000AF786039607B68F5
:1033B0009B687B617B69002B03D11E485E21FEF771
:1033C000A5FAEFF3108372B63B823B8A7B8200231F
:1033D000BB617B699B69FB6104E0FB69BB61FB69C5
:1033E0001B68FB61FB69002B05D0FB691B791A4642
:1033F0003B689A42F1D1FB69002B0ED0BB69002BD0
:1034000006D07B691833B869194601F0C5FF04E09E
:103410007B691833184601F09FFF7B8AFB81FB898B
:1034200013F0010F00D162B6FB6918462037BD4684
:1034300080BD00BF1804020880B586B000AF786078
:103440007B681B7B002B11D1EFF3108372B6BB821C
:10345000BB8AFB827868154901F026FFFB8A7B82D4
:103460007B8A13F0010F00D162B61CE07B681B7BE6
:10347000022B11D1EFF3108372B63B823B8AFB82A1
:1034800078680B4901F010FFFB8AFB81FB8913F080
:10349000010F00D162B606E07B681B7B012B02D1D5
:1034A000786800F025FC1837BD4680BDFC0E002072
:1034B000F40E002080B584B000AF78600023FB607C
:1034C0000BE07868F96801F085FE0346002B01D017
:1034D000FB6807E0FB680133FB60FB681F2BF0DD36
:1034E0004FF0FF3318461037BD4680BD80B588B019
:1034F00000AF786039600023FB6100F09FFC3B68FF
:103500001B787868194600F04FFFB861BB69002B43
:103510002FD0BB695B68002B2BD000F069FF78616E
:103520007B69002B03D16FF00B03FB6121E0BB69CA
:103530005A687B695A60BB699A687B699A607B6943
:103540000C3318463968082201F0CAFDEFF31083E6
:1035500072B63B823B8A7B827B6848337869194626
:1035600001F0A2FE7B8AFB81FB8913F0010F00D1E1
:1035700062B600F08BFCFB6918462037BD4680BD63
:1035800080B584B000AF04F09BF80346002B0BD04D
:10359000184801F0E1FEF860FB68002B25D11648C1
:1035A00001F0DAFEF86020E0EFF3108372B63B81A1
:1035B0003B897B810F4801F0CFFEF8607B89FB805F
:1035C000FB8813F0010F00D162B6FB68002B0CD111
:1035D000FB68002B03D1102003F03EF8F860FB6875
:1035E000002B02D0FB6801221A73FB6818461037C3
:1035F000BD4680BDFC0E0020F40E002080B586B0D4
:1036000000AF7860396000237B617B68002B03D1B9
:103610001248D721FEF77AF9EFF3108372B63B8296
:103620003B8A7B827B689B697B6102E07B691B68CC
:103630007B617B69002B05D07B691B791A463B684F
:103640009A42F3D17B8AFB81FB8913F0010F00D1F1
:1036500062B67B6918461837BD4680BD3C04020837
:1036600080B586B000AF786039607B689B683B614D
:103670003B69002B03D11D48F921FEF747F93B6850
:103680001B7838691946FFF7B9FF78617B69002B11
:1036900007D07B69043318463968082201F020FD01
:1036A0001FE0FFF76DFF78617B69002B19D07B6904
:1036B000043318463968082201F012FDEFF3108335
:1036C00072B6BB81BB89FB813B69183378691946A7
:1036D00001F0EAFDFB897B817B8913F0010F00D1AA
:1036E00062B67B6918461837BD4680BD3C040208A7
:1036F00080B586B000AF7860396000237B617B685D
:10370000002B02D03B68002B04D148484FF4A07135
:10371000FEF7FCF87B6803F138023B681B78104623
:10372000194601F057FD0346002B3ED0EFF31083FE
:1037300072B63B823B8A7B827B685B7E062B21D103
:103740007B6803F13C023B681B781046194601F088
:1037500041FD0346002B15D07B6858331846396865
:10376000082201F0BDFC7B680022DA63786804F06F
:10377000F5F87B8AFB81FB8913F0010F00D162B65B
:1037800000BF4DE07B8ABB81BB8913F0010F00D1E4
:1037900062B678683968FFF763FF0346002B3FD1B4
:1037A00022484FF4B071FEF7B1F878683968FFF736
:1037B0009DFE786178681E4903F0DEFFEFF3108309
:1037C00072B67B817B897B827B685B7E062B0CD10A
:1037D0007B68583318463968082201F081FC7B6801
:1037E0000022DA63786804F0B9F87B8A3B813B8970
:1037F00013F0010F00D162B67B685B7E052B03D10D
:103800007868042100F070FC7B685B7E072B03D096
:103810007B685B7E082B03D17868042100F092F866
:103820007B6918461837BD4680BD00BF3C040208BE
:103830006D38000880B584B000AF03463960FB8066
:10384000B7F90630184600F081FAF860FB68002BE3
:1038500002D16FF0020304E0F8683968FFF748FF0F
:10386000034618461037BD4680BD00BF80B58AB0FC
:1038700000AF786000F0E2FA7B685B6E3B627B68C9
:103880009B6C7B6252E07B6A1B68FB61EFF31083E9
:1038900072B67B827B8A7B837B684833786A194661
:1038A00001F022FD7B685033786A194601F0FCFC78
:1038B0007B8B3B823B8A13F0010F00D162B67B68A1
:1038C0009B6B7B617B6A9A687B691A437B6A1B7B73
:1038D000012101FA03F31A437B689A637B6A5B68F0
:1038E0007A6A127B11467A6A0C3208461146002227
:1038F00098477B687A699A63FFF718FDEFF31083A6
:1039000072B6FB81FB897B837B685033786A1946EA
:1039100001F0EAFC7B8BBB81BB8913F0010F00D166
:1039200062B6786A00F0A2FDFB697B627B6A002BBD
:10393000A9D17B683A6A5A6600F0A8FA2837BD46D2
:1039400080BD00BF80B586B000AF78603960EFF30E
:10395000108372B6FB81FB89FB827B685B7E072B41
:1039600003D07B685B7E082B37D17B681B6E3B6185
:103970003B69002B03D11E487421FDF7C7FF7B680C
:1039800000221A667B685B7E072B10D13B695B8A3D
:103990001BB2002B03DC16487C21FDF7B7FF3B6907
:1039A0005B8A9BB2013B9AB23B695A820FE03B694A
:1039B0001B8A1BB2002B03DC0D488121FDF7A6FFFB
:1039C0003B691B8A9BB2013B9AB23B691A827B68B6
:1039D0003A685A66786803F0C1FFFB8ABB81BB89ED
:1039E00013F0010F00D162B61837BD4680BD00BF8D
:1039F0005404020880B586B000AF7860214B1B6884
:103A00003B610023FB6000237B617B68002B06D0B9
:103A10003B69002B03D03B699B68002B03D11A48FC
:103A20005921FDF773FF00F009FA3B699B68002BF1
:103A300021D03B699B685B6A002B1CD03B699B686B
:103A40001B6ABB60B86802F007FEF860FB68002BD9
:103A500003D16FF00B037B610DE07B68BA681A62DB
:103A60007B68FA685A623B699B685B6AF86819462A
:103A7000BA6801F035FB00F009FA7B69184618377F
:103A8000BD4680BD8C0C00206804020880B582B061
:103A900000AF7860396000F025F9044B1B680348DB
:103AA0001946002200F0A6FDF5E700BF400D0020FA
:103AB00080B584B002AF1D4B05221A601B4B00225B
:103AC0005A601A4B00229A60002300931848E021A4
:103AD0004FF40062174BFFF7CDF80346FB80B7F9B0
:103AE0000630002B03DC1448AE21FDF70FFFB7F9B9
:103AF0000630002B0EDAFFF7CDFA03461B683B6059
:103B00003B68002B03DC0C48B221FDF7FFFE3B684D
:103B10005B4207E0054BFA889A81044B01229A73B5
:103B2000B7F9063018460837BD4680BD400D002065
:103B30007C0402088D3A00088404020880B483B033
:103B400000AF00237B6007E0074B7A68074943F822
:103B500022107B6801337B607B68612BF4DD0C37BE
:103B6000BD465DF8047B7047500D0020E929000830
:103B700080B582B000AF78607B68002B03D07B6893
:103B80009B68002B03D10E484D21FDF7BFFE7B68DB
:103B90009B68184601F078FC002001217A680AF041
:103BA0007BFB012006217A680AF076FB02200621C1
:103BB0007A680AF071FB002318460837BD4680BDBD
:103BC0009C04020880B586B000AF78601C4B1B686F
:103BD0003B617B68002B07D07B689B68002B03D080
:103BE0003B699B68002B03D116486121FDF78EFECF
:103BF0003B699B682C33FB607B689B682C33BB6004
:103C000000237B6115E07B691B01FA6813449B6804
:103C1000002B0BD07B691B01FA681A447B691B01DE
:103C2000B9680B441046194609F046FB7B6901331D
:103C30007B617B69072BE6DD1837BD4680BD00BF81
:103C40008C0C0020B804020880B584B000AF786006
:103C50007B689B68FB60FB68002B03D10E48D62174
:103C6000FDF754FE7B685B8B03F00303012B03D14C
:103C70000948D921FDF74AFEFB682833184609F0A8
:103C8000DFFA7868FFF79EFF7868FFF771FF034659
:103C900018461037BD4680BDB804020880B584B010
:103CA00000AF16E0EFF3108372B6FB80FB88FB8158
:103CB0000B4801F051FBB860FB89BB80BB8813F057
:103CC000010F00D162B6BB68002B02D0B86802F0C9
:103CD000B5FC034B1B68002BE4D11037BD4680BDFB
:103CE000380D002080B500AFFFF7D8FF80BD00BFC2
:103CF00080B584B000AF786003F0E2FC0346002B8F
:103D000004D102F089FC0346002B14D0EFF310839A
:103D100072B6BB81BB89FB8178680B4901F0C4FA9C
:103D2000002000F003FDFB897B817B8913F0010FEC
:103D300000D162B604E0786802F080FC02F076FC04
:103D40001037BD4680BD00BF380D002080B485B05F
:103D500000AF0346FB800023FB60B7F90630002B61
:103D600012DBFB8803F00F03BB600B4ABB68DB0070
:103D700013449B88B7F906201BB29A4204D1064B24
:103D8000BA6853F83230FB60FB6818461437BD46FA
:103D90005DF8047B704700BFAC0C002080B485B098
:103DA00000AF0346FB80FB8803F00F03FB60084B6A
:103DB000FA68002143F83210054AFB68DB0013441F
:103DC0004FF6FF729A801437BD465DF8047B70474A
:103DD000AC0C002080B584B000AF78600B46FB705F
:103DE0000023FB607B68002B21D0134B002B05D0F8
:103DF0007B689B891BB21846AFF300807B689B8968
:103E0000002B05D07B689B891BB21846FFF7C6FFC5
:103E10007B68DB6A002B04D0FB787868194603F0D6
:103E200093FC786800F0C8FC7868FFF761FFFB68D6
:103E300018461037BD4680BD0000000080B582B036
:103E400000AF104B1B687B607B68002B14D003F025
:103E500037FC0346002B0FD17B689B8B1BB27E2B5C
:103E600003DD09486921FDF751FD7B689B8B9BB2FF
:103E700001339AB27B689A83002318460837BD46FF
:103E800080BD00BF8C0C0020D804020880B584B02F
:103E900000AF244B1B68FB60FB68002B3CD003F099
:103EA0000FFC0346002B37D1EFF3108372B63B8132
:103EB0003B897B81FB689B8B002B06D0FB689B8B2F
:103EC0009BB2013B9AB2FB689A83FB689B8B1BB247
:103ED000002B1ADCFB6800229A83134B1B68002B13
:103EE00001D003F0FDFBFB685B8B03F01003002B9C
:103EF0000BD0FB681B6A002B07D10A4B1A68FB68C2
:103F00009A4202D0FB6814221A627B89FB80FB88EC
:103F100013F0010F00D162B6002318461037BD46DA
:103F200080BD00BF8C0C00202C0D002080B584B01B
:103F300000AF786039607B689B68FB60FB68002B92
:103F400020D07B685B8B03F00303012B08D0FB6858
:103F50005B68002B04D0FB685B683A6812021A6049
:103F6000FB685B78012B0DD1FB6800225A6004E0EE
:103F7000FB6802331846FFF733F9FB685B881BB216
:103F8000002BF5DB1037BD4680BD00BF80B584B087
:103F900000AF78607B689B68FB60FB68002B09D0F2
:103FA000FB685B78012B05D17B689B68AC331846B6
:103FB00000F0ACFE1037BD4680BD00BF80B584B0B8
:103FC00000AFF860B9601346FB71FB685B8B03F0D0
:103FD0002003002B00D019E0F86800F01BF8F86807
:103FE000B968FFF7A3FFFB79002B02D1F868FFF750
:103FF000CDFFF86800F0E0FBF86800F075FAFB68A8
:104000005B8B43F020039AB2FB685A831037BD469E
:1040100080BD00BF80B582B000AF7860786800F0E6
:1040200009F8786800F02CF8786800F0A7FA0837EB
:10403000BD4680BD80B584B000AF7860EFF31083DB
:1040400072B6BB81BB89FB817B685B6A002B0CD09D
:104050007B685B6A184600F0D7FB7B685B6A184692
:1040600000F036FC7B6800225A62FB897B817B89E9
:1040700013F0010F00D162B61037BD4680BD00BFFE
:1040800080B586B000AF7860EFF3108372B6FB8125
:10409000FB89FB827B685B7E052B18D17B685B6BA1
:1040A0003B613B69002B04D03B691B881BB2002B92
:1040B00003DB0C487A21FDF729FC3B691B889BB286
:1040C00001339AB23B691A807B6800225A63FB8AEB
:1040D000BB81BB8913F0010F00D162B61837BD4612
:1040E00080BD00BFEC04020880B586B000AF7860E8
:1040F0003960EFF3108372B6FB81FB89FB827B682A
:104100005B7E052B1ED17B685B6B3B613B69002BA3
:1041100004D03B691B881BB2002B03DB0E487421C3
:10412000FDF7F4FB3B691B889BB201339AB23B69F4
:104130001A807B6800225A637B683A685A667868FE
:1041400003F00CFCFB8ABB81BB8913F0010F00D18B
:1041500062B61837BD4680BD0405020880B586B03A
:1041600000AF786013460A467A807B707A881346DF
:104170005B001344DB00184602F06EFAF860FB683F
:104180007B6100233B610DE07B697A781A757B695E
:1041900003F118027A611846796801F085F83B69E5
:1041A00001333B617A883B699A42EDDCFB68184633
:1041B0001837BD4680BD00BF80B586B000AF7860BF
:1041C00013460A467A807B707B881B01184602F0F2
:1041D00043FAF860FB687B6100233B610DE07B697B
:1041E0007A781A737B6903F110027A61184679684C
:1041F00001F05AF83B6901333B617A883B699A4286
:10420000EDDCFB6818461837BD4680BD80B500AFB1
:10421000204B00221A601F4B00225A601E4B0022C6
:104220001A601D4B00225A601C4B00221A601B4B67
:1042300000225A601A4B00221A60194B00225A6061
:10424000184B00221A60174B00225A6012481021A6
:104250000022FFF783FF0246134B1A600F48082124
:104260000222FFF77BFF0246104B1A6000F024F891
:104270000B4810210022FFF79FFF02460C4B1A60EB
:10428000084808210222FFF797FF0246094B1A60EF
:1042900080BD00BFDC0E0020E40E0020EC0E0020EC
:1042A000FC0E0020F40E00206408002068080020A6
:1042B0006C0800207008002080B582B000AF4FF479
:1042C000A07002F0C9F902460C4B1A600B4B1B6838
:1042D0007B6000233B600AE07B6803F114027A6094
:1042E0001846074900F0E0FF3B6801333B603B683C
:1042F0000F2BF1DD0837BD4680BD00BF60080020F0
:10430000DC0E002080B584B000AF78600A4B1B68DB
:10431000BB604FF0FF33FB607B68002B07D0B868B1
:1043200000F00CF802467B681A600023FB60FB6813
:1043300018461037BD4680BD8C0C002080B588B073
:1043400000AF78607B689B68BB61BB69002B03D1C1
:1043500014487721FDF7DAFA0023FB60EFF31083AE
:1043600072B6BB82BB8AFB82BB699B69FB610AE0B8
:10437000FB691B7907F10C021046194600F0EEFEAE
:10438000FB691B68FB61FB69002BF1D1FB8A7B8217
:104390007B8A13F0010F00D162B6FB681846203704
:1043A000BD4680BD1C05020880B584B000AF7860B2
:1043B00039600023FB607B68002B13D0FFF73EFDC4
:1043C0007B681B6CFB6002E0FB681B68FB60FB68A2
:1043D000002B05D0FB681B7C1A463B689A42F3D140
:1043E000FFF754FDFB6818461037BD4680BD00BF7F
:1043F00080B584B000AF03F063F90346002B0BD007
:10440000184800F0A9FFF860FB68002B25D116487A
:1044100000F0A2FFF86020E0EFF3108372B63B815A
:104420003B897B810F4800F097FFF8607B89FB8018
:10443000FB8813F0010F00D162B6FB68002B0CD192
:10444000FB68002B03D1182002F006F9F860FB6826
:10445000002B02D0FB6801221A75FB681846103742
:10446000BD4680BDE40E0020EC0E002080B586B075
:1044700000AF78607B681B7D002B11D1EFF31083B8
:1044800072B6BB82BB8AFB827868154900F00CFFCC
:10449000FB8A7B827B8A13F0010F00D162B61CE09D
:1044A0007B681B7D022B11D1EFF3108372B63B8228
:1044B0003B8AFB8278680B4900F0F6FEFB8AFB81A1
:1044C000FB8913F0010F00D162B606E07B681B7D0B
:1044D000012B02D17868FFF70BFC1837BD4680BD71
:1044E000E40E0020EC0E002080B584B000AF7860B0
:1044F00002E0F86800F0DCFA7B684033184600F010
:104500002BFFF860FB68002BF3D102E0B868FFF7DF
:10451000ADFF7B684833184600F01EFFB860BB68EB
:10452000002BF3D102E0B868FFF7A0FF7B6850339F
:10453000184600F011FFB860BB68002BF3D17B6810
:104540004FF0FF329A637B680022DA631037BD4672
:1045500080BD00BF80B584B000AF786002E0F8682D
:10456000FEF76AFF7B681833184600F0F5FEF86026
:10457000FB68002BF3D11037BD4680BD80B582B0FB
:1045800000AF78607B685B7E072B15D17B681B6E64
:10459000002B05D07B681B6E5B8A1BB2002B03DCF3
:1045A00013486921FDF7B2F97B681A6E538A9BB2F2
:1045B000013B9BB2538218E07B685B7E082B14D1D1
:1045C0007B681B6E002B05D07B681B6E1B8A1BB2A1
:1045D000002B03DC06487321FDF798F97B681A6EFF
:1045E000138A9BB2013B9BB213820837BD4680BD44
:1045F0003405020880B590B000AFF860B9607A6009
:10460000BB687B63EFF3108372B67B837B8B7B8706
:10461000454B1B683B63FB685B68FB634AE0424BAE
:104620001B68FB62FB6B1B69FA6AD31ABB62FB6BEC
:104630005A69BB6A9A4229D8FB680433F86B194659
:1046400000F0F8FEFB6B9B687B627B6A002B19D045
:10465000FB6BDB683B62FB6B00229A607B8F3B83CA
:104660003B8B13F0010F00D162B67B6A386A984722
:10467000EFF3108372B6FB82FB8A7B87FB685B6873
:10468000FB6317E0FB6B1B68FB6313E0FA6A3B6B91
:10469000D31ABA6A1344BB62FB6B5B69BA6AD31A5A
:1046A000FB61FA697B6B9A4201D2FB697B63FB6B0E
:1046B0001B68FB63FB6B002BB1D11B4B1A683B6B78
:1046C000D31ABB62BA6ABB689A4222D27B6B002BB8
:1046D0001FD0BA68BB6AD31AFB617A6BFB699A4236
:1046E00038BF13467B63FA687B6802339B00134430
:1046F00000229A717B6B42F2107202FB03F31846A0
:1047000000F0BCFBFA687B6802339B001344012273
:104710009A717B8FBB82BB8A13F0010F00D162B606
:104720004037BD4680BD00BF040F002080B586B075
:1047300000AF78607B68002B0DD10F4B9B89FB820B
:10474000B7F916301846112100F0C0F938613B69FD
:10475000002B0BDA02E06FF0150308E0FEF79AFC7D
:1047600003461B68FB60FB685B4200E000231846C1
:104770001837BD4680BD00BF400D002080B582B017
:1047800000AF78607868FFF7E5FE786800F0DAF946
:104790007B682833184608F069FD786800F0B8FE99
:1047A000786800F063FA786800F0FAF97868FFF743
:1047B0009FFA0837BD4680BD80B584B000AF7860F1
:1047C0007B68002B04D10F484FF4C771FDF79EF8AA
:1047D0007B689B68FB60FB68002B10D0FB685B78F4
:1047E000012B06D9FB685B78013BDAB2FB685A7093
:1047F00002E0F868FFF7C2FF7B6800229A6010377A
:10480000BD4680BD4805020880B588B000AF78601D
:104810004FF0FF337B61EFF3108372B63B823B8A2C
:104820007B827B68002B42D07B681B7B03F00103FB
:10483000002B3CD00023BB61234B1B68FB6104E0D1
:10484000FB69BB61FB691B68FB61FB69002B03D043
:10485000FA697B689A42F3D1FB69002B03D11B48AC
:104860008121FDF753F8FB691B68002B08D0FB6919
:104870001B68FA6912689168FA6992680A449A603A
:10488000BB69002B04D0B8690F4900F085FD02E038
:104890000D4800F061FD7B6800221A607B681B7B7D
:1048A00023F00103DAB27B681A7300237B617B8AF1
:1048B000FB81FB8913F0010F00D162B67B691846BA
:1048C0002037BD4680BD00BF1C0F00205C050208DC
:1048D00080B584B000AF78607B68002B03D124489A
:1048E0006421FDF713F8EFF3108372B6BB81BB8927
:1048F000FB817B681B7B03F00103002B02D07868EF
:10490000FFF782FF7B681B7B03F00203002B0AD0BA
:10491000FB897B817B8913F0010F00D162B6786837
:10492000FFF7E6F91EE07B681B7B03F00403002B16
:1049300018D178680F4900F0B7FC0F4B1B88013382
:104940009AB20D4B1A800C4B1B88102B03D90848C8
:104950009321FCF7DBFFFB893B813B8913F0010FBF
:1049600000D162B6002318461037BD4680BD00BF97
:1049700070050208100F0020180F002080B582B0CB
:1049800000AF0C4800F0E8FC78607B68002B0CD18D
:10499000FFF792FC074800F0DFFC78607B68002B93
:1049A00003D105486821FCF7B1FF7B68184608373A
:1049B000BD4680BDDC0E00208405020880B586B0AF
:1049C00000AFF860B9607A60384B1B683B61FB68E8
:1049D0001F2B07D9FEF75EFB034616221A604FF025
:1049E000FF335EE03869F968FFF7DEFC78617B68C9
:1049F000002B18D07B69002B0CD07B695A687B6830
:104A00001A607B699A687B685A607B69DA687B68A0
:104A10009A6008E07B6800221A607B6800225A6076
:104A20007B6800229A60BB68002B01D1002338E02C
:104A3000BB681B68002B0CD17B69002B30D03B6915
:104A400040337869194600F04FFC786900F030F87F
:104A500026E07B69002B17D1FFF790FF78617B6917
:104A6000002B07D1FEF716FB03460C221A604FF00D
:104A7000FF3316E0FB68DAB27B691A743B69403396
:104A80007869194600F010FCBB681A687B695A60A7
:104A9000BB685A687B699A60BB689A687B69DA6010
:104AA000002318461837BD4680BD00BF8C0C00207F
:104AB00080B582B000AF78607868034900F0F4FBFD
:104AC0000837BD4680BD00BFDC0E002080B586B033
:104AD00000AF03463960FB80B7F90630002B03DCDA
:104AE0006FF025037B6120E03B681F2B03D96FF03B
:104AF00015037B6119E0FFF7A1F93B68DBB23B735B
:104B000000237B7300233B61B7F9062007F10C03F8
:104B100010461946FEF78EFE7861FFF7B7F97B69FC
:104B2000002B00DA01E0002307E0FEF7B3FA0346AA
:104B30007A6952421A604FF0FF3318461837BD4663
:104B400080BD00BF80B584B000AF78607B68002B6B
:104B500003D112486021FCF7D9FE13E07B68DB68C3
:104B6000FB60FB681A687B68DA60FB680C331846E8
:104B7000FEF7AEFAFB680A331846FEF7A9FAF868A2
:104B8000FFF7B6F87B68DB68002BE7D17B6808335A
:104B90001846FEF79DFA1037BD4680BD98050208FD
:104BA00080B582B000AF786005E07B68D3F8D03183
:104BB000184609F05FFE7B68D3F8D031002BF4D1A2
:104BC0000837BD4680BD00BF80B588B000AF7860B3
:104BD00007F10803184602F08BFB07F1080318469B
:104BE00000F018FB02467B681A607B6800225A605E
:104BF0002037BD4680BD00BF80B500AF0348FFF73A
:104C0000E3FF034B00221A6080BD00BF080F0020A5
:104C1000040F002080B500AF02F020FBFFF7ECFF8F
:104C200080BD00BF80B582B000AFEFF3108372B6D5
:104C3000BB80BB88FB80FFF7DFFFFB887B807B8826
:104C400013F0010F00D162B60837BD4680BD00BF2A
:104C500080B400AF044B1B685A1C034B1A60BD465E
:104C60005DF8047B704700BF040F002080B582B060
:104C700000AF78607B68002B03D10B485221FCF712
:104C800045FE7B685B6A002B04D07B685B6A184634
:104C9000FFF72EF87B6800221A627B6800225A62B6
:104CA0000837BD4680BD00BFB405020880B582B09C
:104CB00000AF124B7B60124B00221A60104B002297
:104CC0005A60104B00221A600E4B00225A600023DB
:104CD0003B600AE07B6803F118027A6018460849D5
:104CE00000F0E2FA3B6801333B603B680F2BF1DDDB
:104CF000054B10221A800837BD4680BD740800207D
:104D0000100F00201C0F0020180F002080B586B067
:104D100000AF786000237B617B68002B2BD0786824
:104D200000F0B8FC00233B611FE03A691346DB004A
:104D300013449B007A6813440433FB60FB681B68D0
:104D4000002B0FDBFB689B8B03F00203002B09D0C9
:104D5000F868012100F014F8B860BB68002B01DA94
:104D6000BB687B613B6901333B613B69072BDCDD41
:104D7000786800F0ABFC7B6918461837BD4680BDEB
:104D800080B586B000AF78600B46FB707B681B680F
:104D9000002B05DB7B689B8B03F00203002B02D109
:104DA0006FF0080365E0786800F00AFC7B685A69D8
:104DB0007B68DB689A4253D07B689A697B68DB68C2
:104DC0009A4204D0786800F02FFC002351E07B6801
:104DD0005B691A467B68DB68D31A3B617B68DB68DA
:104DE0007B617B681A683B69104679691A4609F04D
:104DF000F7F9F860FB68002B0FDA7B689B7F43F0C4
:104E00000203DAB27B689A77786800F00DFCFEF74F
:104E100041F903461B685B422BE0FB687A69134447
:104E20007B613A69FB68D31A3B61FB78002B02D0A7
:104E30003B69002BD5DC7B68DA687B685A610CE043
:104E40007B685B69591C7A6851617A69511C796188
:104E500012781A703B69013B3B613B69002BEFD133
:104E6000786800F0E1FB7B685B691A467B68DB6869
:104E7000D31A18461837BD4680BD00BF80B586B02E
:104E800000AF786000237B617B68002B19D07A68C3
:104E90000E4BA3FB02139B0C3B613B69BB603B6960
:104EA0000B4A02FB03F37A68D31A4FF47A7202FBBF
:104EB00003F3FB6007F108031846002113F0FEFC22
:104EC00078617B6918461837BD4680BD83DE1B4379
:104ED00040420F0080B586B000AF7860396007F1BE
:104EE00008031846012101F0F3FA07F108031846F8
:104EF00079683A6801F076F8034618461837BD46D7
:104F000080BD00BF80B586B000AFF860B9607A6040
:104F100000237B61094B1B781A46FB6842FA03F3B6
:104F200003F00103002B04D0B8687968FFF7D2FFC3
:104F300078617B6918461837BD4680BDA000002007
:104F40000EB480B585B000AF786007F12003BB6078
:104F50007868F969BA68FFF7D5FFF860FB6818460A
:104F60001437BD46BDE8804003B0704780B586B0B9
:104F700000AF7860396007F10C03184601F02AFA97
:104F800007F10C03184679683A6801F02BF80346DC
:104F900018461837BD4680BD80B586B000AFF860B2
:104FA000B9607A6000237B61094B1B781A46FB6865
:104FB00042FA03F303F00103002B04D0B8687968C8
:104FC000FFF7D4FF78617B6918461837BD4680BD6E
:104FD000A00000200EB480B585B000AF786007F166
:104FE0002003BB607868F969BA68FFF7D5FFF860FD
:104FF000FB6818461437BD46BDE8804003B07047D3
:1050000080B485B000AF7860EFF3108372B67B8117
:105010007B89FB810A4B1B787B737B68DAB2084B78
:105020001A70FB893B813B8913F0010F00D162B6F6
:105030007B7B18461437BD465DF8047B704700BF84
:10504000A000002080B487B000AFF860B9607A603B
:10505000FB687B6105E07B695A1C7A61BA68D2B251
:105060001A707B685A1E7A60002BF4D1FB681846D0
:105070001C37BD465DF8047B704700BF80B485B027
:1050800000AF786039607B68FB6000BF7B685A1CAA
:105090007A603A68511C396012781A701B78002BBC
:1050A000F4D1FB6818461437BD465DF8047B7047A1
:1050B00080B485B000AF78607B68FB6002E0FB687D
:1050C0000133FB60FB681B78002BF8D1FA687B6822
:1050D000D31A18461437BD465DF8047B704700BFED
:1050E00080B487B000AFF860B9607A60FB687B611C
:1050F000BB683B6107E07B695A1C7A613A69511CC5
:10510000396112781A707B685A1E7A60002BF2D1CE
:10511000FB6818461C37BD465DF8047B704700BF2E
:1051200080B584B000AFF860B9607A60FB68002B8E
:1051300009D07B68B3F5004F05D27B689AB2FB6853
:105140001A80002306E0FDF7A5FF034616221A6029
:105150004FF0FF3318461037BD4680BD80B485B090
:1051600000AF786039604FF0FF33FB603B681F2B66
:105170000AD87B681A6801213B6801FA03F31A43D5
:105180007B681A600023FB60FB6818461437BD4635
:105190005DF8047B704700BF80B485B000AF7860D5
:1051A00039604FF0FF33FB603B681F2B0BD87B68E7
:1051B0001A6801213B6801FA03F3DB431A407B685C
:1051C0001A600023FB60FB6818461437BD465DF883
:1051D000047B704780B485B000AF786039604FF0D1
:1051E000FF33FB603B681F2B0CD87B681A683B6859
:1051F00022FA03F303F00103002B0CBF0023012369
:10520000DBB2FB60FB6818461437BD465DF8047BD3
:10521000704700BF90B585B000AF78607B685B6970
:10522000463B40F26D1202FB03F3FB607B685B6957
:10523000453B9B10FA681344FB607B681C697B68E4
:105240005B6903F26C73184601F0A6F90346DBB202
:105250002046194601F082F90346FA681344FB60C0
:105260007B68DB681A46FB681344013BFB60FA6805
:1052700013465B001344DB001A467B689B681A44A4
:1052800013461B019B1A9B001A467B685B681A44F5
:1052900013461B019B1A9B001A467B681B6813442C
:1052A00018461437BD4690BD80B483B000AF786017
:1052B00039607B6800221A603B681B68002B06D1AE
:1052C0003B687A681A603B687A685A6006E03B6817
:1052D0005B687A681A603B687A685A600C37BD462A
:1052E0005DF8047B704700BF80B584B000AF786084
:1052F00039603B681B68002B2AD07B68002B27D0C5
:105300003B681A687B689A420CD17B681A683B68D4
:105310001A603B685A687B689A4219D13B68002240
:105320005A6015E03B681B68FB6002E0FB681B6885
:10533000FB60FB68002B04D0FB681A687B689A420C
:10534000F4D1FB68002B03D0F868396800F024F82A
:105350001037BD4680BD00BF80B485B000AF786017
:105360007B681B68FB60FB68002B0DD0FB681A682C
:105370007B681A607B681B68002B02D17B68002267
:105380005A60FB6800221A60FB6818461437BD4655
:105390005DF8047B704700BF80B485B000AF7860D3
:1053A00039607B681B68FB603B681B68002B15D06D
:1053B000FB68002B12D03B685A68FB689A4206D102
:1053C0003B687A685A607B6800221A6003E0FB68D9
:1053D0001A687B681A60FB6800221A60FB6818462E
:1053E0001437BD465DF8047B704700BF80B483B0BE
:1053F00000AF786039607B6800225A603B681A68A9
:105400007B681A603B681B68002B06D13B687A6892
:105410001A603B687A685A6006E03B681B687A68E5
:105420005A603B687A681A600C37BD465DF8047BA9
:10543000704700BF80B485B000AF786039607B688A
:105440005B68FB607B681B68BB60FB68002B03D15B
:105450003B68BA681A6002E0FB68BA681A60BB6809
:10546000002B03D13B68FA685A6002E0BB68FA6817
:105470005A607B6800221A607B6800225A601437E9
:10548000BD465DF8047B704780B584B000AF78609E
:105490007B68002B03D11D485C21FCF737FA7B6841
:1054A000AC33BB60BB68184600210122FFF738FE11
:1054B0000023FB6024E0FA681346DB0013449B00E2
:1054C000BA6813440433184600212422FFF7BAFDBA
:1054D000B968FA681346DB0013449B000B444FF095
:1054E000FF325A60FA681346DB0013449B00BA6827
:1054F00013440433184600F04DF8FB680133FB6099
:10550000FB68072BD7DD1037BD4680BDCC050208F0
:1055100080B584B000AF78607B68002B03D11C4855
:105520009021FCF7F3F97B68AC33BB60BB6818468D
:10553000FDF7CEFD0023FB6024E0FA681346DB0094
:1055400013449B00BA68134408331846FDF7C0FDA6
:10555000B968FA681346DB0013449B000B44083318
:105560009B68002B0BD0B968FA681346DB00134424
:105570009B000B4408339B681846FEF7B9FBFB6899
:105580000133FB60FB68072BD7DD1037BD4680BDBC
:10559000CC05020880B582B000AF78607B68043328
:1055A000184600210122FFF7BBFD7B684FF6FF7212
:1055B000DA807B6800229A600837BD4680BD00BF54
:1055C00080B584B000AF7860FDF73AFD0346FB81FB
:1055D0007B68DB88B7F90E201BB29A4205D17B6845
:1055E0009B685A1C7B689A6018E009E0FDF752FD41
:1055F00003461B68042B03D00A486A21FCF786F98E
:105600007B6804331846FDF77FFD0346002BEDD180
:105610007B68FA89DA807B6801229A601037BD4680
:1056200080BD00BFE005020880B584B000AF78609F
:10563000FDF706FD0346FB817B68DB88B7F90E208A
:105640001BB29A4203D012487E21FCF75FF97B68B7
:105650009B68012B05DD7B689B685A1E7B689A60FE
:1056600012E07B684FF6FF72DA807B6800229A6056
:105670007B6804331846FDF7B3FD0346002B03D0C7
:1056800003488E21FCF742F91037BD4680BD00BFAC
:10569000E005020880B582B000AF786009E0FDF750
:1056A000F9FC03461B68042B03D007485121FCF783
:1056B0002DF97B681846FDF727FD0346002BEED138
:1056C0000837BD4680BD00BFF405020880B582B032
:1056D00000AF78607B681846FDF782FD0837BD464D
:1056E00080BD00BF80B584B000AF786039603A6893
:1056F000104BA3FB0213D9080B469B000B445B0025
:10570000D31AFB603A680B4BA3FB0213DB08BB60A8
:10571000BB68002B03D07868B968FFF7E3FF7B68AC
:105720001B68FA6830327868114698471037BD46D2
:1057300080BD00BFCDCCCCCC80B586B000AFF860CA
:10574000B9601346FB710023FB752023BB7527E06E
:10575000BB7D043BBA6822FA03F3DBB203F00F030C
:105760007B757B7D002B02D1FB7D002B15D00123A7
:10577000FB757B7D092B07D8FB681B687A7D30326F
:10578000F8681146984708E0FB681B68797DFA794C
:105790000A440A3AF86811469847BB7D043BBB753A
:1057A000BB7D002BD4D1FB7D002B04D1FB681B6893
:1057B000F868302198471837BD4680BD80B584B061
:1057C00000AF786039603B6803F00703FB603B681B
:1057D000DB08BB60BB68002B03D07868B968FFF7B3
:1057E000EDFF7B681B68FA6830327868114698478D
:1057F0001037BD4680BD00BF80B584B000AF786073
:1058000039603B6803F00103FB603B685B08BB60E9
:10581000BB68002B03D07868B968FFF7EDFF7B68A1
:105820001B68FA6830327868114698471037BD46D1
:1058300080BD00BF80B584B000AFF8607B600B46D0
:10584000FB721346BB72FB7A583B202B00F282801E
:1058500001A252F823F000BFF15800085559000882
:105860005559000855590008555900085559000860
:105870005559000855590008555900085559000850
:105880004B59000855590008DD58000855590008C3
:10589000555900085559000855590008DD580008A9
:1058A0005559000855590008555900085559000820
:1058B000555900082D590008F1580008555900089D
:1058C000555900085559000855590008E75800086F
:1058D0005559000855590008F1580008F8687968CA
:1058E000FFF700FF37E0F8687968FFF7FBFE32E06A
:1058F000BB7A03F00203002B09D0FB681B68F86831
:1059000030219847FB681B68F86878219847FB7A34
:10591000582B05D1F86879684122FFF70DFF1AE08E
:10592000F86879686122FFF707FF14E0BB7A03F09B
:105930000203002B04D0FB681B68F86830219847ED
:10594000F8687968FFF73AFF05E0F8687968FFF7CB
:1059500053FF00E000BF1037BD4680BD80B485B066
:1059600000AF0346B9607A60FB73FB7B583B202B8A
:1059700065D801A252F823F02F5A00083F5A0008B8
:105980003F5A00083F5A00083F5A00083F5A000893
:105990003F5A00083F5A00083F5A00083F5A000883
:1059A0002F5A00083F5A0008FD5900083F5A0008C6
:1059B0003F5A00083F5A00083F5A0008FD590008A6
:1059C0003F5A00083F5A00083F5A00083F5A000853
:1059D0003F5A00082F5A00082F5A00083F5A000863
:1059E0003F5A00083F5A00083F5A00083F5A000833
:1059F0003F5A00083F5A00082F5A00087B681B686E
:105A0000002B13DABB681B7863F07F03DAB2BB6844
:105A10001A70BB681B7823F00103DAB2BB681A70F6
:105A20007B681B685A427B681A6009E008E0BB6823
:105A30001B7803F07E03DAB2BB681A7000E000BF87
:105A40001437BD465DF8047B704700BF80B586B053
:105A500000AF0B463A600246FA71BB7107F10C03C6
:105A6000184600F0E3FC07F10C01FA79BB7908460F
:105A700011461A463B68FFF7DDFE7B69184618376A
:105A8000BD4680BD80B588B000AFF860C7E900238F
:105A9000D7E90023104619464FF00A024FF00003E1
:105AA00011F0F8FD1346FB61D7E9002310461946B3
:105AB0004FF00A024FF0000311F0ECFD02460B46D6
:105AC000C7E90423D7E9042352EA030104D0F868A4
:105AD000D7E90423FFF7D6FFFB681B68FA69303269
