:020000040800F2
:100000000C0E0020B10400089101000899010008BD
:10001000A1010008A9010008B10100088901000838
:10002000890100088901000889010008B901000858
:10003000C101000889010008C9010008D1010008B8
:10004000D9010008E1010008E9010008F1010008F8
:10005000F901000801020008090200081102000865
:1000600019020008210200082902000831020008D4
:100070003902000841020008490200085102000844
:1000800059020008610200086902000871020008B4
:100090007902000881020008890200089102000824
:1000A00099020008A1020008A9020008B102000894
:1000B000B9020008C1020008C9020008D102000804
:1000C000D9020008E1020008E9020008F102000874
:1000D000F9020008010300080903000811030008E1
:1000E0001903000821030008290300083103000850
:1000F00039030008410300084903000851030008C0
:10010000590300086103000869030008710300082F
:10011000790300088103000889030008910300089F
:1001200099030008A1030008A9030008B10300080F
:10013000B9030008C1030008C9030008D10300087F
:10014000D9030008E1030008E9030008F1030008EF
:10015000F90300080104000809040008110400085C
:1001600019040008210400082904000831040008CB
:10017000390400084104000849040008510400083B
:1001800059040008610400084FF0000000F06CB949
:100190004FF0020000F068B94FF0030000F064B9BE
:1001A0004FF0040000F060B94FF0050000F05CB9BA
:1001B0004FF0060000F058B94FF00B0000F054B9B2
:1001C0004FF00C0000F050B94FF00E0000F04CB9A9
:1001D0004FF00F0000F048B94FF0100000F044B9A4
:1001E0004FF0110000F040B94FF0120000F03CB9A0
:1001F0004FF0130000F038B94FF0140000F034B99C
:100200004FF0150000F030B94FF0160000F02CB997
:100210004FF0170000F028B94FF0180000F024B993
:100220004FF0190000F020B94FF01A0000F01CB98F
:100230004FF01B0000F018B94FF01C0000F014B98B
:100240004FF01D0000F010B94FF01E0000F00CB987
:100250004FF01F0000F008B94FF0200000F004B983
:100260004FF0210000F000B94FF0220000F0FCB880
:100270004FF0230000F0F8B84FF0240000F0F4B87D
:100280004FF0250000F0F0B84FF0260000F0ECB879
:100290004FF0270000F0E8B84FF0280000F0E4B875
:1002A0004FF0290000F0E0B84FF02A0000F0DCB871
:1002B0004FF02B0000F0D8B84FF02C0000F0D4B86D
:1002C0004FF02D0000F0D0B84FF02E0000F0CCB869
:1002D0004FF02F0000F0C8B84FF0300000F0C4B865
:1002E0004FF0310000F0C0B84FF0320000F0BCB861
:1002F0004FF0330000F0B8B84FF0340000F0B4B85D
:100300004FF0350000F0B0B84FF0360000F0ACB858
:100310004FF0370000F0A8B84FF0380000F0A4B854
:100320004FF0390000F0A0B84FF03A0000F09CB850
:100330004FF03B0000F098B84FF03C0000F094B84C
:100340004FF03D0000F090B84FF03E0000F08CB848
:100350004FF03F0000F088B84FF0400000F084B844
:100360004FF0410000F080B84FF0420000F07CB840
:100370004FF0430000F078B84FF0440000F074B83C
:100380004FF0450000F070B84FF0460000F06CB838
:100390004FF0470000F068B84FF0480000F064B834
:1003A0004FF0490000F060B84FF04A0000F05CB830
:1003B0004FF04B0000F058B84FF04C0000F054B82C
:1003C0004FF04D0000F050B84FF04E0000F04CB828
:1003D0004FF04F0000F048B84FF0500000F044B824
:1003E0004FF0510000F040B84FF0520000F03CB820
:1003F0004FF0530000F038B84FF0540000F034B81C
:100400004FF0550000F030B84FF0560000F02CB817
:100410004FF0570000F028B84FF0580000F024B813
:100420004FF0590000F020B84FF05A0000F01CB80F
:100430004FF05B0000F018B84FF05C0000F014B80B
:100440004FF05D0000F010B84FF05E0000F00CB807
:100450004FF05F0000F008B84FF0600000F004B803
:100460004FF0610000F000B86A4602F12002EFF39D
:1004700010832DE9FC0F72B6694600F0ADFB6946AA
:10048000884209D000F1280191E8F00F016821E9C4
:10049000F00F90E8FC0F01E0B1E8FC0F81F3088851
:1004A000DFF808E083F3108870470000F9FFFFFFD2
:1004B00008B500F027F800F0ABF900F0B7F80C4AE7
:1004C0000C4B9A424FF0000302D242F8043BF7E78C
:1004D000094A0A499818884204D20949595899503A
:1004E0000433F5E700F00CFB01F00AF801F080F8A6
:1004F0005C000020100A0020000000205C000020AA
:1005000070B9000813B53C4A3C4C136843F0010332
:1005100013603B4B00201860116821F0847121F0BA
:100520000111116037490C60146824F480241460B0
:10053000354C2060106840F480301060334A0192DE
:100540000846019A002A07DD2B4A1268940303D457
:10055000019A013A0192F4E7019A002A2C4A18DC28
:100560002C490B686FEA53236FEA43230B602A4B35
:10057000196841F080011960136843F0805343F417
:1005800000331360254B1A6842F4A0421A6002B08F
:1005900010BD116841F08051116021490C6844F48C
:1005A00080440C60196821F0F0011960196821F489
:1005B000604141F400411960196821F4E05141F4AF
:1005C000A0511960174901600B49086840F080701C
:1005D000086008688001FCD5134940F20560086096
:1005E000196821F0030141F002011960196801F056
:1005F0000C010829FAD1B3E700380240103000247A
:1006000008380240043802400C38024014821900B5
:10061000403802403038024034380240443802400A
:100620000070004008544007003C02407047C0F38F
:100630000313082B0AD8064A00F00F0052F82320B3
:10064000012301B9103003FA00F09061704700BF38
:10065000D4A700082DE9F84FC0F30316082E00F2C6
:10066000A880564B00F44022B2F5002F53F82630F4
:1006700000F00F0109D0B2F5402F08D0B2F5802A62
:10068000DAF1000252EB0A0202E0022200E0032249
:10069000EFF3108872B603274C001D68A740FF4394
:1006A0003D4002FA04FC4CEA0505032A1D600CD00B
:1006B00000F44035B5F5803F05D0B5F5003F0CBFDF
:1006C0000225002502E0012500E00025D3F80CC03A
:1006D000022A0CEA070C05FA04F545EA0C050CBFE2
:1006E000C0F303394FF000090729DD608BBF2425D3
:1006F0002025A1F1080C8C464FEA8C0C55F803B06C
:100700004FF00F0A0AFA0CFA2BEA0A0A09FA0CF956
:100710004AEA090C45F803C002F1FF3CBCF1010FA5
:1007200012D800F44065B5F5006F09D0B5F5406FFB
:1007300008D0B5F58069D9F1000555EB090504E04D
:10074000022502E0032500E00025D3F8089005FA11
:1007500004F409EA07073C4301259C60AC455C684A
:1007600005FA01F103D8850501D5214301E024EA0A
:100770000101012A596004D1C0F30021FFF757FF9E
:1007800010E0C3050ED500F00C020D4B00F0030085
:100790008000D4580F21814024EA0101864041EABB
:1007A0000600D05018F0010F00D162B60020BDE85D
:1007B000F88F6FF01500BDE8F88F00BFD4A70008D0
:1007C00008380140C0B2FFF745BFC0F30313082B40
:1007D0000DD8084A52F8233000F00F001B6901229F
:1007E00002FA00F003420CBF0020012070470020F5
:1007F000704700BFD4A70008034B1B681B06FBD53E
:10080000024B1860704700BF0044004004440040A1
:1008100008B500214FF40032144800F0CFF9144815
:10082000FFF718FF1348FFF715FF134B13491A681A
:1008300022F47D521A6053F8042C22F4BB5222F0A9
:100840001C0243F8042C0A6822F4E06222F0010240
:100850000A600B4A40F26D11116053F8042C42F407
:10086000005242F00C0243F8042C08BD403802400C
:10087000027C0900037C090010440040144400403D
:100880000844004010B5036C8185DA6801F4D07427
:1008900022F4D0722243DA60036C5A6901F001013C
:1008A00022F001021143596110BD6FF0180070472A
:1008B000836A1A6C5068DA8D40EA02420A600022AC
:1008C000DA85C0B2704710B5806AEFF3108472B653
:1008D000838D11B143F0200104E023F4907121F0E5
:1008E000010189B2FFF7CEFF14F0010F00D162B60B
:1008F00010BD836A1B6C1868C0F340107047836A90
:100900001B6C59607047836A1B6C1868C0F3C01079
:10091000704738B50446806AEFF3108572B6828D51
:1009200041B142F0800189B2FFF7ACFF204600F0F0
:100930007BFD05E022F080010904090CFFF7A2FF0E
:1009400015F0010F00D162B638BD10B5846A94F875
:10095000380000F0D1F994F838000021BDE81040CB
:1009600000F00EBF38B5846A94F83800E16C00F0EE
:1009700007FF054618B994F8380000F0CFF928466B
:1009800038BD38B5846A344A236C9342054605D194
:10099000324800214FF4003200F010F9606CFFF78C
:1009A00059FEA06CFFF756FE226C94F832101369C2
:1009B00023F47D5309B143F400531361236CDA68C7
:1009C00022F4BE72DA60226C536923F4E06323F0F0
:1009D00001035361AB6A596BDA6B186C4908B2FBBF
:1009E000F1F14A090131A1EB4211490841EA021231
:1009F0008260186C93F83010C268012922F4B0525A
:100A000002D142F4C06203E0022908BF42F48062CE
:100A100093F83150092D02D0082D02D109B142F4CA
:100A20008052C260196C93F832000A6922F4405275
:100A300008B142F400520A611B6C5A6922F44072F8
:100A40005A61226CD36843F4005343F00C03002036
:100A5000D360A08538BD00BF00440040403802404C
:100A600038B54FF48075124C226C13689BB213F0AA
:100A7000200FE385204606D0A18D890603D500F01E
:100A80000BFD012304E013F00E031CBF5368002389
:100A9000E28D0748110605D5828D120602D500F0B9
:100AA000C3FC0123013D01D0002BDCD1002038BD67
:100AB0000000002038B5846A054600212046FFF773
:100AC000E1FEAB6A1A6C0C4B9A4205D10B484FF40D
:100AD0000031002200F072F8226CD36823F4005336
:100AE00023F00C03D360606CFFF76CFEA06CBDE8D4
:100AF0003840FFF767BE00BF004400404038024066
:100B000010B50024064BE05810B10021FFF7BAFEE3
:100B10000434182CF6D10348BDE81040FFF731BF6C
:100B2000F8A700080000002030B51049104885B033
:100B300000F040FC0D490F4800F03CFC68460E49AF
:100B400001F066FF002401230C4AA15849B1CA787C
:100B50003AB95D1C684630338DF8093000F02AFC44
:100B60002B460434182CEFD105B030BD0000002016
:100B700040A800084DA8000858A80008F8A70008D9
:100B800038B504460C48036CDA685D69002102F44C
:100B9000D07305F001051D43FFF774FE0A2C02D146
:100BA0000D20FFF729FEE0B2FFF726FE0248294696
:100BB000FFF768FE204638BD0000002010B5EFF3B7
:100BC000108372B6046824EA01011143016013F036
:100BD000010F00D162B610BDF8B50B4C06460420DB
:100BE0000D4600F0F5FC30462768256000F0A7F8B8
:100BF0002946304600F0E0FD25682760042000F01B
:100C0000EFFC2846F8BD00BFEC0500200F2810B50A
:100C10001ADD2F2806DC03F1604303F561430B6006
:100C200010380CE04F2804DC154C1C440C603038A4
:100C300005E0612821DC134C1C440C605038012372
:100C400003FA00F010600BE00F4B0B60042802D198
:100C50004FF4803303E0052804D14FF400331360D0
:100C6000002010BD062802D14FF48023F7E70F289B
:100C700003D1064B0B600123F1E74FF0FF3010BDAD
:100C800004E100E008E100E024ED00E010E000E015
:100C900010B5144A0023136053604FF08033C2F83C
:100CA000183CC2F81C3CC2F8203C0F4B1B680133B7
:100CB000DB0002F5407213F1FF3304D34FF08031B3
:100CC00042F8041BF7E7094B094900240B201C607C
:100CD00000F056FD0749032000F052FD84F311880F
:100CE00062B610BD00E100E004E000E0EC05002089
:100CF000810D0008410D000813B58023694601AA43
:100D00000446FFF783FF38B9009B019A0F2CDCBF24
:100D1000196821EA02021A6002B010BD13B500235F
:100D2000694601AA0446FFF771FF30B9009B019A9A
:100D30000F2CDCBF19680A431A6002B010BD70475F
:100D400010B50B6C0B4C9A1EA2420BD30A4CA2425C
:100D500008D233F8023CB3F55F4F03D1BDE8104031
:100D600000F00EB8EFF3108372B60448B72100F01C
:100D700021F800BF0000000865B9000863A800085A
:100D80008B6A012B10B50C460DD007D3022B0DD169
:100D90004822C86A01F04BFE226B05E0C86A48226F
:100DA00001F045FE02E0CA6A014B1A60002010BD46
:100DB000EC05002080B588B004460D460620534F50
:100DC00000F006FC2346524A0095032051496C4628
:100DD00001F0FAFD3B68B3F90C202AB94E4B1D68AF
:100DE0004FF48066043D01E01D6B9E6A4B494C4AFE
:100DF0002346032001F0E8FD4A49494A2B460320D7
:100E000001F0E2FD03204849454A334601F0DCFD8C
:100E1000AC4202D8AE1BB44205D84449404A032034
:100E200001F0D2FD1BE024F01F04AC4217D223686E
:100E3000009363680193A3680293E36803932369B3
:100E4000049363690593A3690693E36907930320F9
:100E500023463749374A01F0B7FD2034E5E7364CE1
:100E60002268002A38D0936AD2F82CC0D2F830E039
:100E7000566B9568D0681169526906928DE80050EA
:100E800002960395049005912C4A2D49032001F008
:100E90009BFD22689369D2F81CC0D2F820E0566A04
:100EA000956B1068D16B126C0692049005918DE8D9
:100EB0000050029603952349204A032001F084FD47
:100EC0002268536C5168EFF3148203208DE806000A
:100ED0001D491A4A01F078FD23681BB93B68B3F934
:100EE0000C307BB9EFF3108372B6072000F070FB73
:100EF000FA2000F02BF8072000F072FBFA2000F037
:100F000025F8F2E7012000F04BFE00BF00060020AC
:100F10007AA80008AEA80008D0A70008D8A8000842
:100F200084A80008EEA8000804A900081AA900086F
:100F300056A9000891A80008EC0500209EA800080A
:100F400089A90008BAA90008EBA9000882B000230B
:100F50000093009B83420CD200230193019A44F238
:100F60004C139A4202D8019B0133F6E7009B0133F0
:100F7000EEE702B07047000070B583681C69636AD1
:100F80001B690E461546984710F1190F3ED140F2E5
:100F900005339E4204D040F206339E4218D070BD05
:100FA000EFF3108272B6A18B638B09B21BB2994228
:100FB00005DC618BA38B09B21BB2CB1A20E0608BDE
:100FC000A38BB4F91E1000B21BB2C31A0B4417E076
:100FD000EFF3108272B6E189238A09B21BB29942FB
:100FE00005DA218AE38909B21BB2CB1A07E0208A0D
:100FF000E389B4F9121000B21BB2C31A0B44013BCF
:1010000012F0010F00D162B600202B6070BD38B520
:1010100004460D46204600F0F5FD68B100F0CEFD17
:101020000368042B03D005488821FFF7C3FE002D79
:10103000F0D06FF0030038BD38BD00BF30AA000803
:101040002DE9F843C589B0F912302DB201350446B7
:101050000F4690469D42A8BF0025238A1BB29D42A1
:1010600008D0E289636912B2ADB29F54E5810020D5
:10107000BDE8F883B8F1000F1DD0EFF3108972B608
:101080000126636A66705B6A20463146984731469E
:10109000A01DFFF7BCFF636A06465B6A204600217D
:1010A000984719F0010F00D162B6002ED5DA6FF023
:1010B0000300BDE8F8836FF00A00BDE8F8832DE96E
:1010C000F84F836880460E4615461C6902F048FBBF
:1010D000074628B1E37843B94FF0FF30BDE8F88FF9
:1010E00000F056FD0028F5D018E0EFF3108772B637
:1010F00006EB050846450AD016F8014B0A2C02D12A
:101100000D20FFF73DFD2046FFF73AFDF2E717F00F
:10111000010F00D162B62846BDE8F88F04F10C0932
:1011200048460121FFF773FF00283EDBD8F8003066
:1011300083F0400A636A20465B6A39469847CAF3DF
:10114000801AA846B8F1000F1FD0E37816F801BB4B
:1011500033B9204659465246FFF772FF07460AE068
:10116000BBF10A0FF5D120460D215246FFF768FF6B
:1011700007460028EDD0002F04DAA84506D2C8EBB8
:10118000050703E008F1FF38DCE72F46E289238AF0
:1011900012B21BB29A4204D0636A20465B6A0121F4
:1011A0009847484600F070FD3846BDE8F88F2DE9B5
:1011B000F04783681C6904F1180780460E463846DC
:1011C00001219146FFF723FF00284CDB00254D4508
:1011D00045D2A38B628B9BB212B219B28A420ED057
:1011E000226AB4F91E00525C01339BB219B28842E4
:1011F000D8BF0023A383013532700136E7E7002D05
:101200002DD1D8F800305B0627D4636A20469B694D
:1012100029469847628BA38B12B21BB29A4216D111
:10122000EFF3108A72B6636A20469B6901219847E2
:101230000121A17004F10800FFF7E9FE1AF0010F87
:1012400000D162B60028C2DA6FF0030507E0636AD6
:1012500020469B6901219847B9E76FF00A05384697
:1012600000F012FD2846BDE8F0872DE9F0418368C3
:101270001C69271D38460121FFF7C9FE051E38DB12
:1012800094F8008008F1010818F0FF082CD0B8F19C
:10129000010F26D1EFF3108672B6E3782BB9636A9B
:1012A00020461B689847051E09DB636A20469B6839
:1012B0009847051E626A07DA53682046984716F079
:1012C000010F00D162B611E00023E3812382638322
:1012D000A383936920460121984716F0010F00D19E
:1012E00062B684F8008001E06FF01705384600F020
:1012F000CBFC2846BDE8F08138B50C46054600F029
:101300006FFC284622460021BDE8384001F098BB1A
:1013100070B583681C69251D28460021FFF777FEFC
:101320002378012B02D9013B23703CE00021636A42
:1013300021709B6920469847E289238A12B21BB22A
:101340009A4203D01A4801F011FBF5E7636A204680
:10135000DB6A984718B9164801F008FBF6E7EFF387
:10136000108672B6636A2046DB689847E3781BB93B
:10137000636A20465B68984716F0010F00D162B699
:101380000021A01DFFF7B8FF002104F10800FFF7BE
:10139000B3FF012104F10C00FFF7AEFF04F11800C8
:1013A0000121FFF7A9FF284600F06EFC002070BD68
:1013B00020A1070070B501220C46054601F10C0082
:1013C000002101F03DFB04F118000021012201F091
:1013D00037FB201D0021012201F032FB00210A46CB
:1013E000A01D01F02DFB00210A4604F1080001F0C8
:1013F00027FB2846234603494FF4DB72BDE87040C3
:1014000005F068BE18AA0008837823B10023837012
:10141000083000F039BC7047437823B10023437093
:10142000063000F031BC704770B504460025E289F3
:10143000238A12B21BB29A42AEB20BD1E289238A3E
:1014400012B21BB29A4220D1636A20465B6A002125
:1014500098471AE0636A20469B6A98470028EDD0B7
:10146000218A6369626A09B2126A595C2046904710
:10147000238AB4F9122001339BB223821BB29A4211
:10148000DCBF002323820135D1E726B12046BDE829
:101490007040FFF7C1BF70BD2DE9F341458BB0F936
:1014A0001E302DB2013504469D42A8BF00250026FE
:1014B000B7B2636A2046DB699847D0B1B4F81C80A4
:1014C000636A1FFA88F85B69204601A90FFA88F859
:1014D00098474545EDD0628B236A12B20136985485
:1014E000ABB26383B4F91E3001359D42A8BF00251D
:1014F000DEE717B12046FFF787FF02B0BDE8F081B5
:1015000008B5064B0BB1AFF30080054B0BB1AFF341
:101510000080BDE8084000F043B800BF00000000B4
:101520000000000038B50509E907044603D518484E
:101530000021FFF77CF8AA0703D516480021FFF722
:1015400076F86B0703D514480021FFF770F82D07D4
:1015500003D512480021FFF76AF8E00703D50C48CD
:101560000121FFF764F8A10703D50A480121FFF71D
:101570005EF8620703D508480121FFF758F82307F2
:1015800005D506480121BDE83840FFF750B838BD01
:101590003C0804003D0804003E0804003F08040025
:1015A00008B50748FFF756F80648FFF753F806480E
:1015B000FFF750F80548BDE80840FFF74BB800BFFB
:1015C0003C0804003D0804003E0804003F080400F5
:1015D000024B13F81000FFF7A5BF00BF40AA000898
:1015E000024B33F81000000AFFF79CBF40AA000826
:1015F00007B5424A002313605360414A13605360A9
:10160000404A13605360404A136053603F4A13607E
:1016100053603F4A136053603E4A136053603E4A32
:10162000136053603D4A13803D4A002599189D5030
:1016300008334FF6FF70802B8880F5D1394C146049
:1016400095802946C822204601F0DAF90323637603
:10165000354B636102236383344B2849C4F8C83097
:10166000204604F1C803C4F8C430C4F8CC5001F0DB
:1016700055FA204602F060F8684601A901F0B6FF6D
:101680009DE8030001F022FE294B0BB100F040FD64
:10169000284B0BB101F0E2F8274B0BB107F0BEFB72
:1016A000264B0BB1AFF30080254B0BB100F0A8FE29
:1016B000244B0BB107F012FE234B0BB107F0EAFAF3
:1016C00005F02AF802F022F8A17E164800F090F802
:1016D000144800F0B1F8134800F0A9F8A3680122FB
:1016E0001A7000F033F801F0F9FD18B900F0C4F8F1
:1016F00001F0FAFD01F092FFF5E700BF00060020BF
:10170000A0060020F805002018060020080600208A
:10171000F005002010060020AC060020A8060020DE
:10172000200600205C010020F115000850AA0008E6
:10173000112100085D2800081D8E0008000000002F
:1017400001240008DD920008958C000813B50024E0
:1017500000940848084B64214FF4006200F0F6F84A
:10176000A04204DC05484FF48E71FFF723FB2046AE
:1017700002B010BDA4AA000885390008A9AA000873
:10178000612838B504460FD8EFF3108572B611B949
:10179000FFF7B2FA0649074B43F8241015F0010F82
:1017A00000D162B6002038BD4FF0FF3038BD00BF19
:1017B000DD170008B4060020612808B507D8054BDE
:1017C000054A53F82030002B08BF134600E0024BB7
:1017D000984708BDB4060020DD17000808B5EFF3F0
:1017E000108372B601485521FFF7E4FABBAA00083E
:1017F00070B505464FF4EC7001F088FD044698B1D1
:10180000A86000F065FC061E06DA204601F072FDB5
:101810000023AB60304670BD04F1080000210122B6
:1018200001F00EF9002070BD6FF00B0070BD8368F1
:1018300001225A700020704738B50446806828306D
:1018400004F095FF0B48032105F0B7F9051E0BD1F5
:10185000012105F02EF92846022105F02AF920463B
:10186000BDE8384000F062BC01DD05F00FF96FF013
:10187000160038BD40A8000810B5094803686BB1D0
:10188000EFF3108472B601F02EF914F0010F00D1BD
:1018900062B60028F1D001F02DFDEEE710BD00BFCB
:1018A000AC0600202DE9F7430746C8200E469046B7
:1018B000994601F02BFD0446002839D03146FFF748
:1018C00097FF00281EDB204600F046FC002819DBAD
:1018D00020464946324601F0E6FE002812DB00961B
:1018E00020464146174A0A9B00F074F8002809DB9D
:1018F00039460B9A204600F0CFF82046FFF797FFB5
:10190000002801DA45420EE02046A58900F01EF9C4
:101910000028A8BF28B211DA00F050F90A4905687A
:10192000204601F007F92046314600F065FC00E052
:101930000C2500F043F905604FF0FF3003B0BDE81F
:10194000F08300BF651B00081006002073B5069CDD
:1019500000930E4615460194002132462B46FFF7B0
:10196000A1FF02B070BD73B5069C00930E461546EC
:101970000194022132462B46FFF794FF02B070BD5E
:1019800070B5054600F062FC102210490B88013347
:101990009BB218B200280B80DCBF01230B8003F040
:1019A0000F040B4951F834604EB941F8345001EB43
:1019B000C4018B80AB8100F061FC304670BD013A00
:1019C000E3D100F05BFC4FF0FF3070BDA8060020B3
:1019D000200600202DE9F04104460E4617469846A1
:1019E000FFF7CEFF054618BB638B9DF818202761D3
:1019F00002F0030223F003031343F6B2638304F1FE
:101A0000380229462676C4F81480032000F068F9CD
:101A10002046657601F090FE00F018FC204606494D
:101A200001F07CF80423637600F028FC84F8C060A1
:101A30002846BDE8F08100BF100600202DE9F041E6
:101A400004460F4616469846FFF79AFF0546E8B942
:101A5000638B277623F0030343F001036383294656
:101A600004F138022661C4F81480032000F038F92C
:101A70002046657601F060FE00F0E8FB204605494F
:101A800001F04CF80423637600F0F8FB2846BDE82B
:101A9000F08100BF100600202DE9F74F81462A484B
:101AA000174600F0BCFF451C9FB1002457F82400E6
:101AB00080B100F0B4FFD9F82830013005449D42D0
:101AC0003AD2013440F201139C42EFD16FF006008C
:101AD00037E03C46A61CB6007119484601F0E0FE0E
:101AE000054660B306440660174800F098FF1649A3
:101AF0008046304600F08CFF08F10108B044AB4648
:101B00004FF0000AA24511DA4BF8048F386800F054
:101B100086FF57F8041B03464046019300F078FF08
:101B2000019B013398440AF1010AEBE7002046F8D3
:101B3000040CC9F8C45004E06FF0230001E06FF01A
:101B40000B0003B0BDE8F08FD3AA000810B5EFF387
:101B5000108472B601F0B8FE14F0010F00D162B625
:101B6000002010BD08B5094B1B68D3F8C410012034
:101B700051F8202032B1013040F201129042F7D1E9
:101B8000012001E05B69984700F00AF80006002098
:101B9000024B186800B1808900B27047000600202F
:101BA00008B5054B1B68C4B221461846002200F058
:101BB00093FB204601F09CFD0006002008B501F0D3
:101BC000CFFD38B9044B186820B1437E032B01D1F7
:101BD000643008BD014808BD000600202C0200202A
:101BE00008B530B1B0F90030002B09DB01230380C8
:101BF00006E0FFF7E3FF162303604FF0FF3008BD58
:101C0000002008BDF8B51E4B04461D68FFF7D6FF3F
:101C100016230360002C30D0EFF3108772B62388B0
:101C20001AB2002A03F1FF3303DD0020238068632A
:101C30001EE06E6B1EB113488E21FFF7BBF82380A8
:101C40006C63FFF7BBFF05210660284601F0E8FC46
:101C5000FFF7B4FF0368042B08D0FFF7AFFF00685D
:101C60006E2814BF00206FF0000001E04FF0FF303D
:101C700017F0010F00D162B6F8BD4FF0FF30F8BD8C
:101C800000060020DCAA000810B510B3EFF31084A2
:101C900072B6038847F6FF72934203D10E4878214B
:101CA000FFF788F801339BB203801BB2002B0ADCDC
:101CB0000A4B1B683BB15A6B8242FAD100225A632D
:101CC000184601F001FE14F0010F00D162B60020A9
:101CD00010BD4FF0FF3010BDF1AA0008F80500203C
:101CE000F8B5164B1C68174606460D4600F0AEFACE
:101CF000A36B07B13B60EDB1EFF3108272B6022E19
:101D000007D0032E0AD0012E0CD1A36B29680B43F8
:101D100005E02968A36B23EA010300E02B68A363B5
:101D2000002501E04FF0FF3512F0010F00D162B63F
:101D300000F006F800F0A2FA2846F8BD00060020E0
:101D400037B5154B1C6800F081FAA36B2046DD43C4
:101D500000F0C2FB28400190019BC3B101A800F034
:101D60005BF8431C0546F7D0294601A800F084FE25
:101D70002946204600F012F805460028ECD02046FF
:101D8000291D00F059F8284600F026F8E4E700F095
:101D900075FA03B030BD00BF0006002038B5826878
:101DA000EFF3108572B6946900237CB120798842E4
:101DB00002D023462468F8E702F118011BB1184647
:101DC00000F09BFE02E0084600F08DFE15F0010FCA
:101DD00000D162B6204638BD10B5037B23B9EFF3BE
:101DE000108472B60A4905E0022B0AD1EFF3108481
:101DF00072B6084900F057FE14F0010F00D162B628
:101E000010BD012B03D1BDE8104000F0C5B910BDD5
:101E1000600800205808002038B5054600242846F0
:101E2000214600F037FE28B90134202CF7D14FF0BD
:101E3000FF3038BD204638BD2DE9F04104460D463F
:101E40003830097800F026FE804600286BD0EFF38A
:101E5000108772B6637E062B15D104F13C002978F9
:101E600000F018FE78B12946082204F15800002637
:101E700000F0DDFDE663204601F026FD17F0010FBE
:101E800000D162B6A9E017F0010F00D162B6A668D2
:101E90002A78EFF3108372B6B06920B101799142CC
:101EA00001D00068F9E713F0010F00D162B628B144
:101EB00029460822043000F0BAFD8DE001F050FC04
:101EC00058B1474800F00FFE0446D0B9454800F02D
:101ED0000AFE044600287AD013E0EFF3108772B6AA
:101EE0003F4800F000FE044617F0010F00D162B633
:101EF00038B9102001F004FA0446002867D0012305
:101F00000373201D2946082200F091FDEFF3108590
:101F100072B6204606F1180100F0C5FD15F0010F5C
:101F200000D162B658E000F091F92046297800F01F
:101F3000F9FA064600B34368D3B100F005FB074643
:101F4000C0B173684360B3688360294608220C30CF
:101F500000F06DFDEFF3108672B6384604F14801CB
:101F600000F0A1FD16F0010F00D162B6464603E075
:101F70001E4601E06FF00B0600F080F920461A497A
:101F800001F01EFCEFF3108772B6637E062B0AD1B8
:101F900004F158002946082200F049FD0023E363BC
:101FA000204601F091FC17F0010F00D162B6637E6C
:101FB000052B03D12046042100F0F4F9637E073B92
:101FC000012B0AD82046042100F066F805E00748F6
:101FD0004FF4B071FEF7EEFE00263046BDE8F0810A
:101FE00060080020580800200D20000806AB0008FB
:101FF00010B50C4600F0EEF820B12146BDE81040C7
:10200000FFF71ABF6FF0020010BD00BF2DE9F846C0
:10201000054600F01BF9D5F86490AC6C002C35D067
:10202000D4F800A0EFF3108772B6204605F14801FE
:1020300005F1500600F041FD2046314600F033FD29
:1020400017F0010F00D162B6AF6BA368227B0121AC
:1020500001FA02F23B4321461343AB63636811F874
:102060000C0F00229847AF63FFF76AFEEFF310876B
:1020700072B62046314600F020FD17F0010F00D166
:1020800062B6204600F084FA5446C7E7C5F864906B
:10209000BDE8F84600F0F2B838B5EFF3108472B638
:1020A000427ED31F012B0ED80025072A036E05663A
:1020B00003D15A8A013A5A8202E01A8A013A1A82F4
:1020C000416601F001FC14F0010F00D162B638BD89
:1020D00070B50E4B1D68064600F0B8F8AB686BB1E2
:1020E0005C6A7CB11C6A204601F00AF940B1346296
:1020F0007062AB682246596A00F099FC002401E046
:102100006FF00B0400F0BAF8204670BD0006002006
:102110000023044A044999500433B3F5C47FF8D12D
:10212000704700BFB4060020DD17000810B5044654
:10213000806800F00DFD22460121002004F069FFB7
:1021400022460621012004F064FF062122460220D7
:1021500004F05FFF002010BDF8B506468068283007
:1021600004F005FB0B4B1A68B368956803F12C0764
:102170002C350024AB681BB12846391904F00AFB42
:102180001034802C05F11005F4D13046BDE8F8403C
:10219000FFF7CCBF0006002038B5044601F0E0FA96
:1021A00058B1EFF3108572B60949204600F07BFC68
:1021B00015F0010F00D162B638BD01F08FF800288C
:1021C000EFD1204601F096F8BDE8384001F08CB818
:1021D000AC06002000280BDB064B00F00F0203EBDF
:1021E000C201B1F90410814202D153F832007047A4
:1021F000002070472006002038B50D460446F0B197
:10220000104B1BB1B0F90C00AFF30080A28952B1A2
:1022100002F00F020C4B002143F8321003EBC20313
:102220004FF6FF729A80E36A1BB12046294601F0FF
:10223000BBFA204600F005FA2046FFF7ADFF00206C
:1022400038BD00BF000000002006002010B5094B7B
:102250001C6864B101F084FA48B9A38B1AB27E2AD3
:1022600003DD05486921FEF7A5FD0133A3830020A6
:1022700010BD00BF000600201CAB000870B5144B59
:102280001C681D4614B301F06BFAF8B9EFF3108621
:1022900072B6A38B0BB1013BA383B4F91C30002BA6
:1022A00010DC0023A3830B4B1B680BB101F060FA19
:1022B000638BDB0606D5236A23B92B689C421CBFBF
:1022C0001423236216F0010F00D162B6002070BD06
:1022D00000060020A0060020F8B5438B9B060446AC
:1022E0000F4616462DD400F02DF8A5680DB9F6B9A5
:1022F00015E0638B03F00303012B03D06B680BB174
:102300003F021F606B78012BF1D100236B60B5F9A0
:102310000230002BEBDAA81CFFF7B6FCF7E7A06849
:1023200028B14378012B02D1AC3000F0B5FA204639
:1023300000F087F9204600F04BF9638B43F020034F
:102340006383F8BD10B5044600F008F8204600F09D
:1023500018F82046BDE8104000F064B938B50446CE
:10236000EFF3108572B6406A30B100F08DF9606A03
:1023700000F0C0F90023636215F0010F00D162B6CE
:1023800038BDEFF3108272B6437E052B05D1436B47
:102390001988013119800023436312F0010F00D125
:1023A00062B6704738B5EFF3108472B6427E052AE4
:1023B00008D1426B158801351580002242634166C1
:1023C00001F082FA14F0010F00D162B638BD0000AE
:1023D00038B54FF4A07000F093FF074B00F5A075DF
:1023E000186000F11404054900F05DFBAC4201D017
:1023F0002046F6E738BD00BF30020020400800202C
:102400002F4AF8B50023136053602E4A13605360BF
:102410002D4A136053602D4A136053602C4A4FF4C9
:10242000C0701360536000F06BFF054600F5C07686
:10243000002200F118040275224900F034FBB44276
:1024400001D02046F4E7234CC020656000F058FF1F
:10245000054600F1C007022200F1180602751A496C
:1024600000F021FBBE4201D03046F4E7A560FFF743
:10247000AFFF4FF4807000F043FF054600F5807712
:10248000002200F110060273104900F00CFBBE425E
:1024900001D03046F4E78020E56000F031FF0546CA
:1024A00000F18007022200F110060273084900F0D3
:1024B000FAFABE4201D03046F4E72561F8BD00BF0C
:1024C0004008002048080020500800206008002034
:1024D000580800203002002037B50022836801929E
:1024E000EFF3108572B69C692CB1217901A800F038
:1024F000B6FA2468F8E715F0010F00D162B601982A
:1025000003B030BD10B5064B04461B6828B1184611
:10251000FFF7E2FF2060002010BD4FF0FF3010BD3C
:102520000006002038B50D46044650B1FFF78EFE78
:10253000246C24B1237CAB4201D02468F9E7FFF777
:102540009DFE204638BD000010B501F009F940B1EC
:102550000D4800F0C8FAA8B90C48BDE8104000F0DA
:10256000C2BAEFF3108472B6074800F0BCFA14F058
:10257000010F00D162B628B9182000F0C1FE08B1E1
:102580000123037510BD00BF48080020500800203B
:1025900010B5037D23B9EFF3108472B60A4905E044
:1025A000022B0AD1EFF3108472B6084900F07BFACF
:1025B00014F0010F00D162B610BD012B03D1BDE8AC
:1025C0001040FFF7E9BD10BD48080020500800206A
:1025D00010B5044604F1400000F085FA10B100F097
:1025E000B3F8F7E704F1480000F07DFA10B1FFF707
:1025F000CFFFF7E704F1500000F075FA10B1FFF7D4
:10260000C7FFF7E74FF0FF32A263E06310BD10B5DC
:10261000044604F1180000F066FA10B1FFF7DCFB85
:10262000F7E710BD437E072B04D1036E5A8A013AA7
:102630005A827047082B03D1036E1A8A013A1A8214
:10264000704738B584680546ECB16378012B02D930
:10265000013B637015E02046FFF7D9FF204600F0EC
:10266000D1F804F1280004F086F8204600F08EFA34
:10267000204600F0E8F8204600F0DCF82046FFF79E
:102680008BFD0023AB6038BD38B50446EFF31085F1
:1026900072B658B1037BDB0708D5144B1B680020CA
:1026A0005BB1A3420DD018461B68F9E74FF0FF302D
:1026B00015F0010F00D162B638BD0D488121FEF73B
:1026C00079FB23681BB19968A2680A449A6018B123
:1026D000064900F012FA02E0044800F004FA237BF5
:1026E000002023F0010320602373E1E77408002039
:1026F0002FAB000838B50446EFF3108572B6037BA4
:10270000D90701D5FFF7C0FF237B9A0707D515F03E
:10271000010F00D162B62046FFF73EFD0DE05B07DA
:102720000BD42046064900F0BEF9064B1A88013248
:102730001A8015F0010F00D162B6002038BD00BF2D
:102740006808002070080020014900F0ACB900BF03
:10275000400800202DE9F041274B1F2880460E46F7
:1027600015461F6807D9FFF729FA162303604FF0B3
:10277000FF30BDE8F08138464146FFF7D3FE0446FE
:1027800055B130B143682B6083686B60C368AB6040
:1027900002E028606860A8604EB335684DB92046F5
:1027A00044B307F1400100F088F92046FFF7CCFF61
:1027B0001DE0B4B9114800F096F9044650B9FFF78E
:1027C00007FE0E4800F08FF9044618B90C4868213E
:1027D000FEF7F0FA84F81080204607F1400100F07F
:1027E00062F9336863607368A360B368E3600020D4
:1027F000BDE8F081BDE8F08100060020400800201F
:1028000040AB000838B50546EC686CB1204650F87E
:102810000C3BEB60FFF7E4F904F10A00FFF7E0F985
:102820002046FFF7B9FCEFE705F10800BDE83840A6
:10283000FFF7D6B910B50446D4F8D00110B104F0B2
:1028400092FDF9E710BD10B50446406A08B1FFF7E4
:10285000A3FC00232362636210BD00000A4A002328
:1028600010B513605360094A1C4613605360084852
:1028700005492044183400F016F9B4F5C07FF6D1AC
:10288000044B10221A8010BD680800207408002034
:102890004402002070080020F8B50646D0B100F0D0
:1028A000DBF9341D082700252368002B0ADBA38BE6
:1028B0009B0707D52046012100F00FF835EA2005D7
:1028C00028BF0546013F04F12404EDD1304600F055
:1028D000D5F900E005462846F8BDF8B50368002B99
:1028E00004460F463EDB838B9B073BD500F073F914
:1028F0006669E3689E4206D1204600F08BF9606964
:10290000E368C01AF8BDA5699D4204D0204600F0D6
:1029100081F90020F8BD761B20682946324604F074
:1029200062FB00280BDAA37F43F00203A377204663
:1029300000F070F9FFF742F900684042F8BD054425
:10294000361A1FB9E36863612E4402E0002EE3DC0F
:10295000F8E7B542D0D063695A1C626115F8012BC3
:102960001A70F6E76FF00800F8BD000007B568B10F
:10297000084AB0FBF2F302FB130000934FF47A73A2
:10298000434300216846019306F02AF803B05DF83E
:1029900004FB00BF40420F0030B50A4B1B7843FADE
:1029A00000F010F0010085B00D46144607D001A8D4
:1029B00000F061FC01A82946224600F00AFB05B0A0
:1029C00030BD00BF500000200EB403B503AA52F87A
:1029D000041B0192FFF7E0FF02B05DF804EB03B0C7
:1029E000704700BFEFF3108172B6044B1A7818706D
:1029F00011F0010F00D162B6104670475000002060
:102A000002440346934202D003F8011BFAE77047E1
:102A10000023CA5CC2540133002AFAD1704703462E
:102A20001A46013311780029FAD1101A704710B5EF
:102A30000023934203D0CC5CC4540133F9E710BDAA
:102A400008B528B1B2F5004F02D20280002008BDBF
:102A5000FFF7B4F8162303604FF0FF3008BD1F29BD
:102A600007D8012303FA01F103680B430360002038
:102A700070474FF0FF3070471F2908D8012303FA31
:102A800001F1036823EA01030360002070474FF05F
:102A9000FF3070471F299DBF0068C84000F001004B
:102AA0004FF0FF307047002303600B680BB90860DC
:102AB00001E04B681860486070470346086888B1B9
:102AC00083B1834209D11A680A604A68934209D1E6
:102AD00000234B6070472AB1104602689A42FAD12F
:102AE00000F00BB8704703682BB11A68026002B996
:102AF000426000221A60184670470A6803685AB19B
:102B000053B14A689A4214BF196848604FF00002F6
:102B10000CBF026001601A601846704700234360D2
:102B20000B6803600B6813B9086048607047586011
:102B300008607047426803680AB90B6000E01360E0
:102B40000BB94A6000E05A6000230360436070479D
:102B5000F8B500F1AC050646002128460122FFF732
:102B60006FFF002406F1B0072744002124223846D5
:102B7000FFF746FF2B194FF0FF325A6038462434D6
:102B800000F01CF8B4F5907FECD1F8BD70B500F101
:102B9000AC0605463046FFF723F8002405F1B400E3
:102BA0002044FFF71DF83319186908B1FFF7F4FA4C
:102BB0002434B4F5907FF1D170BD000010B5002130
:102BC000044601220430FFF73BFF4FF6FF73E3801A
:102BD0000023A36010BD38B50446FEF7D9FFB4F951
:102BE00006308342054602D1A36801330EE0201D62
:102BF000FFF708F840B1FEF7E1FF0368042BF6D0B9
:102C000003486A21FEF7D6F8E5800123A36038BDAA
:102C100054AB000810B50446FEF7BAFFB4F906300D
:102C2000834202D00B487E2110E0A368012B02DD15
:102C3000013BA36010BD4FF6FF73E3800023A36048
:102C4000201DFFF721F818B102488E21FEF7B2F8D7
:102C500010BD00BF54AB000810B504462046FEF777
:102C6000D1FF40B1FEF7AAFF0368042BF6D002485B
:102C70005121FEF79FF810BD67AB0008FFF704B8BD
:102C80000A2238B5B1FBF2F3044602FB131513B167
:102C90001946FFF7F5FF2368204605F130019847F4
:102CA00038BD38B501F00705C908044601D0FFF763
:102CB000F8FF2368204605F13001984738BD38B544
:102CC00001F001054908044601D0FFF7F8FF236829
:102CD000204605F13001984738BD2DE9F0411946ED
:102CE00014461D468046002310460A2205F040F88F
:102CF0000023164620460A22294605F039F80246E6
:102D00000B4652EA030102D04046FFF7E6FFD8F82F
:102D10000030404606F130019847BDE8F081F8B533
:102D200014461D4602F00707E20842EA4572EB0826
:102D300052EA0301064601D0FFF7F1FF336830463F
:102D400007F130019847F8BD38B502F001055B087E
:102D50004FEA320252EA0301044601D0FFF7F4FFC2
:102D60002368204605F13001984738BDF8B50129A0
:102D7000044616461F46069D2DD0022916D012F095
:102D8000810F18BF01355D1B002D05DD236820462E
:102D900020219847013DF7E7310602D523682046F8
:102DA0001CE0F20721D5236820461CE0130602D55B
:102DB00003682D2103E0D10703D503682B21984731
:102DC00001357D1B002D05DD236820463021984705
:102DD000013DF7E7F8BD320602D503682D2103E077
:102DE000F30702D503682B219847F8BD2DE9F04180
:102DF000002304460F4690461C2527FA05F616F0D8
:102E00000F0101D113B90BE0092903D8236820462B
:102E1000303103E04144236820460A3998470123B2
:102E2000043D2A1DE9D11BB923682046302198476B
:102E3000BDE8F081692970B504460D461E4612D0E2
:102E400006D8622934D064290DD0582935D110E034
:102E500070290ED002D86F291FD070BD752903D0FC
:102E6000782906D070BD20463146BDE87040FFF796
:102E700007BF920707D5236820463021984723686B
:102E8000204678219847582D204631460CBF4122D4
:102E90006122BDE87040FFF7A9BF930702D5036820
:102EA0003021984720463146BDE87040FFF7F9BE13
:102EB0001946BDE87040FFF702BF70BD2DE9F84329
:102EC0009DF82090064614461D463C274FF000080A
:102ED000204629463A4604F03FFF10F00F0103D187
:102EE000B8F1000F02D10CE0092903D8336830464D
:102EF000303103E04944336830460A3998474FF08F
:102F00000108043F3B1DE3D1B8F1000F03D1336842
:102F1000304630219847BDE8F8832DE9F041692912
:102F200006460F46DDE906450FD006D8622935D0A2
:102F300064290AD0582937D10EE0752906D078299E
:102F40000AD06F291ED0BDE8F081304622462B46BC
:102F5000BDE8F041FFF7C1BE920707D533683046A0
:102F6000302198473368304678219847582F0CBF56
:102F7000412361230693304622462B46BDE8F041AB
:102F8000FFF79CBF930702D503683021984730466E
:102F900022462B46BDE8F041FFF7C1BE22462B4634
:102FA000BDE8F041FFF7D0BEBDE8F08138B501299A
:102FB0000546049C0CD112F0810F18BF01341C1B74
:102FC000002C05DD2B68284620219847013CF7E7B7
:102FD00038BD2DE9F04F804689B00F4691463978CB
:102FE000002900F0328125290CD0D8F80030404665
:102FF00098473B780A2B40F02681D8F804304046A9
:10300000984720E100260137B346B246397819B116
:10301000904800F04DF938B1397825294C4643D114
:10302000D8F80030404669E03B782D2B33D0302B68
:1030300034D02A2B0AD1710709F10403D9F80020F2
:103040002FD446F00806994692462BE0A3F13102B0
:10305000082A11D8303B3A46174612F8011F30397A
:10306000C8B2092803D80A2000FB0313F4E716F0BE
:10307000040F08BF9A4615E02E2B02D146F0040635
:1030800010E02B2B02D146F001060BE0232B09D1D7
:1030900046F0020606E04FF0010B03E04FF0020B92
:1030A00000E099460137B1E773291FD16A4B2468C4
:1030B000002C08BF1C462046FFF7B1FC5946009083
:1030C0000546002240465346FFF750FE09F1040929
:1030D000013C14F8012F2AB1D8F8003040461146BF
:1030E0009847F6E7009540465946A9E0632907D17D
:1030F000D8F80030216809F1040940469847A2E059
:103100004C2902D146F0400606E06C2909D17B78B3
:103110006C2B03D046F02006013702E046F0600633
:1031200002374E48397800F0C3F8002800F08B8051
:1031300016F0400F39784AD0702948D009F10709B4
:1031400029F00703692903F10809D3E900450DD0E7
:1031500005D8622916D0642908D0582904E06F29BF
:1031600012D370290ED978290ED10BE0002C75F1FD
:10317000000309DA06F0FE0646F08006644265EBBD
:10318000450501E006F07E0605A8039100F082F8EF
:1031900005A803993246CDE90045FFF7BEFEDDF8EC
:1031A0001CC0CDF800C04046594632465346CDF8C3
:1031B0000CC0FFF7DBFD39784046CDE900453246CB
:1031C000FFF7ABFEDDF80CC0CDF800C035E0692993
:1031D00009F1040924680DD005D8622912D06429A8
:1031E00008D0582904E06F290ED370290AD978290C
:1031F0000AD107E0002C07DA06F0FE0646F080064A
:10320000644201E006F07E0605A8039100F042F852
:1032100005A8039932462346FFF70CFE079D00954B
:103220004046594632465346FFF7A0FD404639789E
:1032300032462346FFF7FEFD00954046594632468A
:103240005346FFF7B3FE0137C9E6D8F8080009B0C6
:10325000BDE8F08F83AB00087CAB000896AB00089C
:1032600010B504460846FDF78BFC013002D0A36878
:103270000133A36010BD034B0360034B4360002385
:103280008360704761320008AD3200088368013303
:1032900083607047034B0360034B436000238360EC
:1032A000704700BF8D320008AD3200080020704723
:1032B00050B1024610F8013B8B4203D0002BF8D1ED
:1032C000184601E0104670477047000003460A4662
:1032D0000148194600F050B87C080020014800F071
:1032E00079B800BF7C080020014800F0ABB800BFEF
:1032F0007C0800200146014800F0E2B87C0800206C
:103300000146014800F027B97C0800200146014829
:1033100000F060B97C0800202DE9F0410A4401F179
:103320000F0424F00F048168C56922F00F02C4EB7A
:10333000020C6144816000EB850521460826EC60A3
:1033400041F8086BEF684FF00048C7F80480ACF113
:103350001007A760A2F108074E606F6142F8086C81
:10336000A4686A6944EA08045460C2690132C2610F
:10337000BDE8F04100F07CB870B50E46002104466F
:103380008160C161154620304FF49872FFF738FB19
:1033900004F130031220A3F11002013843F8083C75
:1033A000DA6003F11003F6D1204600F007F820465A
:1033B00031462A46BDE87040FFF7AEBF10B5002188
:1033C00004460122FFF73CFB4FF6FF7363800023A6
:1033D000636010BD38B50446FEF7DAFBB4F902307D
:1033E0008342054604D1636801336360002038BD21
:1033F000204605F0A7FA18B901236580636038BD3F
:103400004FF0FF3038BD38B50446FEF7C1FBB4F9C4
:1034100002308342054602D1636801330EE0204644
:10342000FEF7F0FB40B1FEF7C9FB0368042BF6D0B2
:103430000348AB21FDF7BEFC65800123636038BD06
:103440009FAB000808B54268012A02DD013A4260DC
:1034500008BD4FF6FF72428000224260FEF714FC66
:1034600018B10248DC21FDF7A5FC08BD9FAB0008A0
:1034700038B5054608680C4600F015F8821C05EBC7
:10348000021205EB0015AB6A3BB1196829B120683F
:10349000814202D21A469B68F6E79460E260A3601C
:1034A00003B1DC6038BDB0F5800F07D203090020FE
:1034B000012B02D901305B08FAE7704712207047F0
:1034C00070B505460C46002944D0FFF79CFF54F820
:1034D000043C54F8082C23F00043A4F1080144F8FC
:1034E000043C8B185868002814DBD8689E688A58FA
:1034F000866098681A4408B1DE68C660186854F897
:10350000083C034444F8083C506800F00040034382
:103510005360134654F8042C8A1A5068002811DBB3
:10352000D16890688860916809B1D068C86054F823
:10353000080C116801441160586800F00040014314
:10354000596011462846FFF793FF2846BDE87040B2
:10355000FFF778BF70BD70B50646002938D001F17D
:10356000170525F00F05FFF74EFFB5F5800F03D2C5
:103570002846FFF798FF00E0122006EB0010846A4F
:103580000CB32368AB4201D2A468F9E7E368A268F0
:103590009A60A3680BB1E268DA602268531B0F2BB4
:1035A0000CD96119635122444D602560506800F0C8
:1035B0000040034353603046FFF75AFF636843F00F
:1035C0000043636008343046FFF73CFF204670BD7F
:1035D000084670BD38B50D46FFF7BDFF044618B16B
:1035E00000212A46FFF70CFA204638BD38B50446BC
:1035F00001200D46FDF7ECFF044B1B682360C3F16F
:10360000005303F500332B6038BD00BFD0A700087E
:103610004FF080504FF4803106F07EBE70470000BE
:103620002DE9F041437E174D023B012B06468846AB
:103630002F6803D914485F21FDF7BCFB04F0A6FEF8
:1036400041460446304604F011FF104B1B681BB185
:1036500004F0DAFE2043C4B28CB10D4C216807F1AE
:10366000780031B100F016F82B6878332360BDE89C
:10367000F0812968BDE8F041783100F056B9BDE825
:10368000F08100BF00060020B0AB0008A0060020BB
:10369000EC050020814205D00023CA58C2500433F3
:1036A000482BFAD1704738B5C36A04460D462BB192
:1036B000836A8B4202D0114600F076F8E36A1BB9A8
:1036C0002846FFF71DFEE062E36A6BB11A1F15443E
:1036D000C3F1040325F0070525631D44A5620320FB
:1036E000FDF776FF002038BD4FF0FF3038BD0000F9
:1036F00008B5EFF3108372B604F07EFF024B186832
:10370000783000F00DF900BF0006002008B5094B25
:1037100000221A60FFF77CFFFDF7BAFA00F011F9FA
:1037200004F0F2F9FDF700FA0220BDE80840FDF7C9
:103730004FBF00BFEC05002010B5044600216830E3
:103740005822FFF75DF9236BA367236923F0010378
:10375000C4F8B8304FF08073C4F8BC3010BD00001E
:10376000024B1868003018BF01207047EC0500209C
:1037700070B50B4C266804F047FE80B1094D2968EE
:1037800006F1780029B1FFF785FF236878332B60B5
:1037900070BD2168BDE87040783100F0C6B870BDDA
:1037A00000060020EC05002010B50446C06A18B1E0
:1037B000FEF7F2FC0023E3620023A36210BD0000C9
:1037C00010B5826E002A34D1EFF3108472B6194A14
:1037D0001268904217D1184A12680AB9884724E043
:1037E0008166116CC16651680167516C416713496C
:1037F0001164012151604FF080715164783011469D
:10380000FFF748FF11E0D0F8B820C266C26F026728
:10381000D0F8BC204267094AC0F8B8200122C2672C
:103820004FF080728166C0F8BC2014F0010F00D107
:1038300062B610BD00060020EC05002041380008EB
:1038400030B5154B1C6893B00520656EFDF7C0FEC2
:10385000A36E1BB911486321FDF7ACFA04F178019E
:103860006846FFF717FFE36E1093626F236F1192A4
:103870000021A26E0193A16613F0010F00D162B680
:1038800020469047EFF3108372B605206566FDF77A
:10389000A7FE684600F044F800060020C7AB000809
:1038A0000346C06A073121F0070158B19A6A8A427B
:1038B00007D9186B401A511A186398679962043037
:1038C000704700207047000070B5437E114C043BE8
:1038D000042B0546266803D90F485921FDF76AFADB
:1038E00004F0E0FD14232B62284604F01FFD80B194
:1038F0000A4D296806F1780029B1FFF7CBFE23684D
:1039000078332B6070BD2168BDE87040783100F0DD
:103910000CB870BD00060020DFAB0008EC050020ED
:1039200001464FF0010000DF70470A4601464FF0A4
:10393000020000DF7047000008B504F037FE0020E9
:1039400008BD08B50B4B0C491A6822F07F4242F0C3
:1039500000421A60A3F60C53084A1A600F20FDF7C4
:103960000FFF074B07221A600F20BDE80840FDF744
:10397000D5B900BF20ED00E0393900087FA2190059
:1039800010E000E010B504F0CDF900F011F80020CF
:10399000014600F00EF8044604F09AFD0349224661
:1039A0004C3006F073F8012010BD00BFF8AB0008E2
:1039B000704710B500F090F8044600F0BFF8236A95
:1039C00001462046984700005C30704770B50446B9
:1039D0000E4615463AB1806D08B105F0F1FF636DF2
:1039E0002B60A36D6B6000236665A36570BD38B561
:1039F0000446856D04F06CFD2830854207D104F043
:103A000067FD283005F0DCFF0123636538BDA06D3C
:103A100028B105F0D5FFA06D05F0A7FE06E0606DAA
:103A2000002803DB012801D003F030F84FF0FF330A
:103A300063650023A36538BD38B50D460446FFF71E
:103A4000D6FF2B6863656B68A36538BD10B5044667
:103A5000FFF7CDFF2046BDE81040FFF74BBC0C46FA
:103A600008B5FFF7F3FF2046FEF79AF80EB417B536
:103A7000836D044633B106AAA06D0599019206F044
:103A800012F808E0406D064905F045FEA0650028E3
:103A9000F1D14FF0FF3003B0BDE8104003B07047E4
:103AA00028B7000870B5836D04460D4616463BB135
:103AB00028463246A36D0121BDE8704005F031BFB4
:103AC000406D044905F027FEA0650028F0D14FF0B5
:103AD000FF3070BD28B7000810B59C20FFF716FC1A
:103AE0000446A8B10B4B03600B4B83600B4BC360C8
:103AF0000B4B03610B4B43610B4B03620B4B83611D
:103B00000B4BC3610123436504F0E2FC2830A06540
:103B1000204610BD353B00084D3A0008A53A000884
:103B20006D3A0008C93900085F3A0008CD3900082D
:103B3000393A000808B5FFF7CFFF08BD73B5044652
:103B40001648A16D05F083FFA06D05F039FFA16D4A
:103B5000134805F07CFFA06D05F032FF04F0B8FCBF
:103B6000064604F0B5FC04F15C0500F12803402191
:103B70002846321D00F04AF8013004D0204629467C
:103B800000F0E4FCE0E701250095A06D0549064A38
:103B9000064B05F07BFF284602B070BDD8AD00088B
:103BA000D2AD0008B7AC00081FAC00082BAC000871
:103BB000006903F018BA13B504468DF807102069A0
:103BC0000DF10701012203F00EFA002803DAFDF7D8
:103BD000F5FF0368042BF2D002B010BD13B5044604
:103BE000E0680DF10701012203F051F8002802D12D
:103BF0004FF0FF3008E005DAFDF7E0FF0368042B23
:103C0000EED0F5E79DF8070002B010BD70B586B0A4
:103C10001468094A029206460D46084A084901916D
:103C200003921B68049401A831462A46059302F0CA
:103C30002BFC06B070BD00BFB73B0008B13B0008CD
:103C4000DD3B000890F8373000EBC30393F83C30BD
:103C50009A09032A02D113F0010310D090F83830EA
:103C6000184490F8390083070BD48309022B02D043
:103C7000032B01D007E0C04300F001007047184655
:103C80007047002070470120704738B5056895F8E7
:103C90002530044613B1406802F0F8FEAB682846B0
:103CA00098470025A3689D4206DA04EB8503013599
:103CB000D868FFF71FFBF5E72046BDE83840FFF75F
:103CC00019BB38B5044604F10C02A168006800F085
:103CD000C7FD05462046FFF7D8FF284638BD90F8B7
:103CE0003730033300EBC30393F824209209012AF1
:103CF00006D1002280F82620881A4142414107E07F
:103D0000022A0CD10022891A80F8262018BF01212E
:103D100093F8240061F3000083F8240010E090F889
:103D20003830034493F839209209012A0AD100223D
:103D300080F8262093F8390061F3000083F83900F9
:103D40001046704780F82610003118BF0121484204
:103D500070472DE9F0470D6881460E462C4615F850
:103D6000011B11B9237833B917E02A48FFF7A0FAED
:103D70000028F3D1F6E73E2B0CD163783E2B04D11B
:103D8000023434602448BDE8F087013434602348AD
:103D9000BDE8F087232B03D134600020BDE8F08715
:103DA000222B08BF013404F101070CBFDFF87C802F
:103DB000DFF86080BA4655460AF1010A297831B920
:103DC0002A782B464AB1002201351A7005E0404698
:103DD000FFF76EFA0028EED0F2E735602378242B47
:103DE00014D138460E4906F03DF840B90D4B99F80C
:103DF00026409A1E002C0CBF1C46144606E038468E
:103E000005F058F8084C002818BF04462046BDE8C5
:103E1000F08700BF34AC00083FAC00083DAC0008A0
:103E200042AC00083AAC00083CAC0008F4AD000815
:103E30002DE9F04F97B00DF158080BAF04460D4631
:103E40002C2200213846FEF7DBFD48F8405D0023B8
:103E500084F8243084F8253020464146FFF779FF66
:103E60000546002800F0CB81A64905F0FBFFA649D6
:103E70005FFA80F9284605F0F5FFB9F1000F02D08E
:103E800010F0FF0F55D120464146FFF762FF8246F2
:103E900020B923699D499E4A2046CCE094F838B069
:103EA00004EB0B0393F839309B09012B00F0BF8022
:103EB00094F8376004EBC60393F83C30C3F38113E6
:103EC000033303F00303012B40F2B180E36A002BBC
:103ED00000F0AD80236B002BC0F2A980012E03D926
:103EE00023698C492046A5E0B9F1000F204614BF94
:103EF000022501250393FFF7A5FE039BA28E013641
:103F0000F6B21344002284F83620F21C04EBC202FD
:103F100084F8376092F8241004EBC60665F3871125
:103F200060F3000182F82410554686F83DB03364F2
:103F300091E02846784905F095FFF0B941462046C2
:103F4000FFF707FF94F83730033304EBC30305464C
:103F500093F82420C2F38111033101F003010129F8
:103F600004D923696D496C4A204664E042F0C002DE
:103F700083F8242000286ED142E12846684905F0E4
:103F800071FF002846D120464146FFF7E2FE024677
:103F900018B123695D49204611E094F83700C31C2D
:103FA00004EBC30393F824108D09032D03D0236978
:103FB0005A49204603E020B923695A492046584A05
:103FC00039E0C80713D5E06A996A05F008FC0028B3
:103FD00009DA2569FDF7F2FD03680093204652498E
:103FE0004F4A524BA847012384F8363003E041F092
:103FF000010183F8241094F83730DA1C04EBC20274
:10400000013B92F824106FF3871182F8241084F892
:104010003730F4E094F8373004EBC30393F83C30C6
:10402000C3F38113033303F00303012B13D8236974
:104030003A4920462A46984794F83C2002F03F022D
:10404000002342F0010284F8363084F8373084F8D7
:104050003C202364CDE028462D4905F003FF81462E
:10406000002834D120464146FFF773FE054618B9B3
:104070002369264920469EE094F83860A31993F8F6
:1040800039309B09012B03D123692449204692E052
:10409000012E03D923691F4920468CE00136F6B270
:1040A0002046FFF7CFFD84F838602644D0F10100A8
:1040B00096F839304FF0010262F3871338BF0020C1
:1040C00060F3410369F3000386F8393098E028462D
:1040D000174905F0C7FE68BB41462046FFF739FE89
:1040E00094F838302344054693F839209109012982
:1040F00004D0236909490E4A20466EE0022161F38B
:10410000871231E0F6AD0008FCAD000844AC0008B1
:1041100002AE000883AC000805AE00085FAC0008E2
:1041200008AE00089EAC0008B7AC00080DAE000851
:1041300013AE00082846964905F094FEB8B94146EA
:104140002046FFF706FE94F838302344054693F8DE
:1041500039209109022908BF42F0C00204D0236926
:104160008C498B4A204638E083F8392048E02846BD
:10417000894905F077FE20BB20464146FFF7E9FD5F
:10418000054618B12369854920460EE094F8383079
:10419000E21892F83920C2F38112023202F00302CF
:1041A000012A04D923697B4920467B4A15E023B9BB
:1041B00023697B4920467B4A0FE0013B84F8383075
:1041C0001EE094F83830234493F839309B09012BD2
:1041D00016D123696F4920462A46984794F839300A
:1041E000002203F03D0362F3000384F8382084F8D2
:1041F000393020460121FFF772FD044697E1002582
:104200000023A362002D31D02846674905F02AFE1D
:1042100000282DD10A23A36220464146FFF799FDCD
:10422000054618B3614905F01DFE064600BB204651
:104230004146FFF78EFD8146D0B108A9324605F010
:1042400077FCA0621430272804D8089B4B4501D086
:104250001B782BB123695149534A20469847C8E738
:1042600020464146FFF775FD054608B900245EE18A
:104270002046FFF7E7FC0028F8D00B9501262046E2
:104280004146FFF766FD47F8260010B101360A2EB9
:10429000F5D116A901EB86030022012E43F82C2C40
:1042A00000F0048106F1FF3801EB8809404959F814
:1042B0002C0C05F0D7FD28B9012384F8243049F8E7
:1042C0002C0C4646022E40F3F180A6F1020816ABF4
:1042D00003EB8809374959F82C0C05F0C3FD78B970
:1042E00016A901EB8606012356F8301C84F8253008
:1042F000204601F0E3FB464681464FF0260818E0D1
:1043000059F82C0C2C4905F0ADFD78B9012384F83F
:10431000253016AB03EB8606204656F8301C01F01C
:10432000CDFB464681464FF0160802E04FF00008EC
:10433000C146062E04DD2369204920462A469847B7
:10434000CDF8008020460B993A464B4601F0A2FE7C
:10435000002804DB20460CBF002101219CE094F8DA
:1043600025308BB3484641464FF4DB7202F025FC02
:10437000B0F1000A2ADA0B9E2569FDF71FFC0368DD
:10438000009320460E490F4B3246A84782E000BFFB
:1043900018AE00085FAC00081DAE000844AC000871
:1043A0009EAC000802AE000820AE000825AE000852
:1043B00028AE00083DAC00083FAC0008CFAC0008B8
:1043C000B7AC000852B700084FF0FF3A94F8243019
:1043D00043B32368204698470546D8B13820FEF7F6
:1043E00095FF804698B180E8200486604FF0000B6E
:1043F0004FEA8B0357F82B00039305F04EFD039B08
:104400000BF1010B4344B345D860F1DB24E0AB680A
:104410002846984794F82530002B3BD0504602F0B0
:1044200035FB37E094F8253023B1A3692046514687
:1044300008AA9847204631463A4600F011FA94F807
:10444000253005461BB1E369204608A99847002D91
:1044500020DB204600211FE094F8253023B1AB6912
:104460002846514600229847002007A904F038F852
:1044700000B30B9F2669FDF7A1FB036800932E494B
:104480002E4B20463A46B0474046FFF7FEFBAB684E
:104490002846984720460121FFF721FC0446B9F140
:1044A000000F44D0484601F05DFB40E04FF00008AB
:1044B000C14645E7A36A002B11D0079E4FF00200CA
:1044C000C3EB060605DA05F07BFCB042A8BF304618
:1044D00004E005F07CFCB042B8BF3046079008A865
:1044E00005F00EFD022108A805F016FD07A908A891
:1044F00005F01BFD0DF1160008A9114A434604F012
:10450000DDFA30B1009026690B490B9A0D4B20461D
:10451000B9E7BDF9160004F09BFB079A0092BDF9BC
:104520001630256908490B9A2046A84791E720468E
:1045300017B0BDE8F08F00BFB7AC00082AAE000886
:10454000C33C000838AE000847AE00082DE9F84328
:10455000002304460F4680F836300D460E4694F888
:104560003690B9F1000F32D1EB1BA38628461949CA
:1045700005F085FC2B5C2A182BB920463146BDE896
:10458000F843FFF755BC0A2BF7D0232BF5D03B2B74
:1045900002F1010009D1804682F8009020463146A0
:1045A000FFF746FCA0B945460FE02221FEF780FE4A
:1045B00048B9094A2569094920461346A8474FF0DA
:1045C000FF30BDE8F883451CB0464646C7E70020EB
:1045D000BDE8F883ECAC0008F4AD0008F1AC0008CD
:1045E00090F83730033300EBC30393F8242092098B
:1045F000032A09D193F8252080F8382093F8242045
:104600006FF3000283F824200020704708B50349A7
:104610000369126898474FF0FF3008BD5BAD000892
:10462000002070474FF0FF30704708B50021036A43
:10463000984710B5CB6804690A461BB10349126854
:10464000A04710BD02491268A04710BDA4B00008E1
:10465000ADB000082DE9F041114D04460F4655F864
:10466000100CA5F1100880B1394605F0FBFB1035A0
:1046700006460028F3D123690A4920463A4698475E
:1046800020464146FFF7D5FF06E02369064920464C
:104690003A4698474FF0FF363046BDE8F08100BFFC
:1046A00064AE0008B3B000085BAD00080129F8B59E
:1046B00004460E46174673DD5068534905F0D2FB99
:1046C00020B9022E08D00222012301E0012200239A
:1046D00057F822500BB961E0054623694B49204643
:1046E000984723694A492046984723694949204603
:1046F00098472369484920469847236947492046F7
:1047000098472369464920469847236945492046EA
:1047100098472369424920469847236942492046E1
:10472000984723693B492046984723693F492046DB
:10473000984723693E4920469847236938492046CF
:10474000984723693B4920469847236931492046C9
:1047500098472369384920469847236934492046B9
:10476000984723692E4920469847236931492046B6
:10477000984725B120462946FFF76CFF41E02369A1
:104780002E492F4D20469847A5F11001103555F8B8
:10479000203C33B32046FFF74CFFF5E7002DE9D16D
:1047A00028492046FFF756FF2369274920469847A6
:1047B000002523692549264F2046984707EB051712
:1047C0000026320123692349BA5820460636984705
:1047D000242EF6D123691C49204601359847062D21
:1047E000E7D123691C49204698470025284603F055
:1047F0007BFA024628B123691849204698470135BB
:10480000F4E70020F8BD00BFBDB00008C0B000084C
:10481000D4B000080FB1000813B100081FB10008A0
:1048200027B1000840B1000848B100084FB10008A6
:104830005EB1000864B100086DB100087CB10008E9
:1048400064AE0008A4B100080DB10008ABB50008C3
:1048500054AE0008A9B1000894B10008ADB000083A
:104860002DE9F843164DD2F8008004460E469146D5
:1048700055F8100CA5F11007D0B1414605F0F2FA39
:1048800010350028F4D13B7A9E4203DA23690D49A2
:10489000204607E07B7A9E42D8BF7B6809DD23690A
:1048A00009492046424698474FF0FF30BDE8F8835B
:1048B000064B204631464A469847BDE8F88300BF7C
:1048C00064AE000894AD0008CFAC00080D460008A7
:1048D00038B50C460C49054605F0C4FA28B90B4911
:1048E0000B48224604F07CFE05E0094809492A46A7
:1048F000234604F075FE0648002380F88130BDE8A9
:10490000384005F0CABA00BF57B400085BB40008CD
:10491000C403002059B400082DE9F04713F0030F39
:104920008CB004468846164699467DD008465AB152
:10493000511CFFF7CDFF05A9074602F07BFA05469B
:104940003846FEF7D7FC03E005A902F073FA0546E6
:10495000D4F810A05DB1FDF731F90368009320464B
:104960004449454A454BD0474FF0FF307FE019F0AE
:10497000020F51D0424F386879683A89BB7A02AD4C
:1049800003C52A80AB70059D05F47047B7F5804FCD
:1049900001D164230DE0B7F5005F01D1632308E086
:1049A000B7F5C04F01D1622303E0B7F5004F02D045
:1049B0003F238DF80830EF0544BF72238DF809308E
:1049C000280644BF77238DF80A30690644BF782350
:1049D0008DF80B30AA0644BF72238DF80C30EB061D
:1049E00044BF77238DF80D302F0744BF78238DF80F
:1049F0000E30680744BF72238DF80F30A90744BFFB
:104A000077238DF81030EA0744BF78238DF81130F2
:104A100020461C4902AAD04719F0010F04D023698F
:104A20001949069A204698472369DEB1751C20462D
:104A300014492A46984733781B070DD52846134951
:104A400005F010FA40B12846114905F00BFA18B1EB
:104A500023691049204602E023690F492046984700
:104A6000002004E020460D494246984730460CB0ED
:104A7000BDE8F087B7AC00084EB300085FB400088B
:104A800072B4000864B4000868B400086DB400088B
:104A90006CB400086FB400080DB10008AEB0000897
:104AA0002DE9F341064608460D461746984602F0A2
:104AB0005BFB044648B9009534690F490F4A104B17
:104AC0003046A0474FF0FF3012E0204602F0C2FB14
:104AD000024640B1304629464346B8470028F4DA3A
:104AE0004FF0FF3500E00546204602F00CFB28465B
:104AF00002B0BDE8F08100BF42AD00084EB300082F
:104B00007DB40008F8B51F46137803F00803064685
:104B10000D4603F0FF04002B29D0541C20461549F4
:104B200005F0A0F908B9002421E02046124905F05B
:104B300099F90028F7D021462846FFF7C9FE054617
:104B400033690E492A4630469847304629460C4A72
:104B50003B46FFF7A5FF044648B930462946094AB7
:104B60003B46FFF79DFF04462846FEF7C3FB204661
:104B7000F8BD00BF6DB400086CB4000887B400082D
:104B800019490008054B00082DE9F04F87B004468D
:104B90000591914600250127059B9F4280F2878061
:104BA000002D40F08480204659F8271000F086FF41
:104BB0000490002877D00121D9F8006001F0FDFFB2
:104BC000B0F1000A09DA2569FCF7F8FF03680093E1
:104BD00020463949394B32460EE04FF40070FEF75B
:104BE0008FFB804630BB2569FCF7E8FF0368009324
:104BF0003149334B20463246A8474FF0FF354EE04F
:104C000043D04FF0000B6246CDF80CC0E36820465D
:104C1000414698470028DDF80CC032DAFCF7CEFF99
:104C200003682569042B22D1204626493246A8472D
:104C30004FF0FF35504641464FF4007202F027F81E
:104C4000B0F1000CDCDAFCF7B9FF03682569042B2E
:104C500004D120461B493246A84705E00093204670
:104C60001549194B3246A8474FF0FF350DE0FCF7C8
:104C7000A5FF0368009320460F49144B3246A8470E
:104C8000D6E78344E345BEDBD4E7236910492046D9
:104C90009847504601F0FAFE4046FEF72BFB049879
:104CA00000F060FF01E04FF0FF35013774E7284660
:104CB00007B0BDE8F08F00BFB7AC000852B70008DE
:104CC0008CB400080AAD0008D7B40008E3B40008AB
:104CD0000DB100082DE9F04F8DB05168044615461E
:104CE00000F0ECFE8346002800F0BF80012101F0B7
:104CF00064FFB0F100090DDA26692D68FCF75EFF4C
:104D00000368009320465E495E4B2A46B0474FF049
:104D1000FF36A6E02046A96800F0D0FE80460028B5
:104D200000F09A8005A902F085F8064600282FD1E8
:104D3000059B03F47043B3F5804F22D1AF6838462A
:104D4000FDF76DFE0138002805DD3A5C2F2A02D1FF
:104D500000223A54F6E76868AF6805F035F9014675
:104D60003846FFF7B5FD074628B9236946492A6842
:104D7000204698477CE0404600F0F4FEB8462621E5
:104D800008E0B3F5004F14BF02212621074601E0D9
:104D90002621002740464FF4DB7201F00EFFB0F1F0
:104DA000000A19DA2D68D4F810A0FCF707FF036891
:104DB000009320463249334B2A46D04747E014DB64
:104DC0001A4650463149039302F00DF90028039B1F
:104DD0001EDB1B1A002BF3DC48462C494FF40072F3
:104DE00001F055FF031EEAD12DE0FCF7E7FE036852
:104DF000D4F810C0042B12D02D68CDF80CC0FCF7ED
:104E0000DDFE0368009320461D49214B2A4616E02B
:104E1000FCF7D4FE0368D4F810C0042B04D120465C
:104E20001C492A68E0470FE02D68CDF80CC0FCF75C
:104E3000C5FE036800931249174B20462A46DDF849
:104E40000CC0E04700E01E46504601F01FFE7FB157
:104E50003846FEF74FFA01E04FF0FF36484601F0C2
:104E600015FE584600F07EFE06E04FF0FF3603E0E8
:104E7000404600F077FEF1E730460DB0BDE8F08F18
:104E8000B7AC000852B700082AAD0008C4030020E0
:104E9000D7B400080AAD0008E3B400082DE9F04FCC
:104EA00085B0002704468A461546BB460397B94697
:104EB000B846484A5046294604F0A6FE421C03461E
:104EC00020D06F2B0FD0722B0AD0642B13D1424B02
:104ED0002046196800F0F2FD4FF001098046E8E72E
:104EE00001230393E5E73C4B002118680A2204F0F4
:104EF0001FFE8346DDE7236938492A682046984724
:104F00000127D6E7002F55D1354EB9F1000F20D13A
:104F10003168481C504512DA55F82110204600F03F
:104F2000CDFD33680133336055F8231080462046A9
:104F300000F0C4FD336801330746336009E0266999
:104F40000293204627492A68B047029B4F461E46D7
:104F500032E03368534507DA236923492A6820463B
:104F600098474FF0FF3627E0B9F1000F0DD04046CB
:104F700002F09AFE061E1FDA73420093D4F810C0A6
:104F80001A492A681A4B204612E0039B00934046B8
:104F900039464FF400725B4602F037FE061E0BDA0C
:104FA00073420093D4F810C010492A68114B204670
:104FB000E04701E006460027B8F1000F02D0404666
:104FC000FEF798F917B13846FEF794F9304605B068
:104FD000BDE8F08F93B400080C0A002044AC000830
:104FE0005400002094AD0008CFAC0008B7AC000816
:104FF00099B4000808B300082DE9F0434FF0000908
:105000008BB00446884617464D463D4A40463946D1
:1050100004F0FAFD421C064616D06C2E06D0732E04
:1050200007D0522E08D145F00405EEE745F0030500
:10503000EBE745F00105E8E7236932493A68204685
:1050400098474FF00109E0E7B9F1000F02D04FF0A7
:10505000FF3052E02C4B1B685A1C424505DA23698D
:105060002A493A6820469847F1E7434503DB00F0B8
:1050700017FD014601E057F82310204600F01EFD01
:1050800006460028E3D003A901F0D4FE00280DDA7B
:105090003F682569FCF792FD036800933A46204675
:1050A0001B491C4BA8474FF0FF3722E0039B03F43A
:1050B0007043B3F5804F06D02046314600222B4680
:1050C000FFF72AFC14E0236913493246204698472B
:1050D00020463146114A2B46FFF7E2FC074640B90D
:1050E0006B0706D5204631460D4A2B46FFF7D8FC04
:1050F0000746304600F036FD38460BB0BDE8F08379
:10510000A4B4000844AC000854000020CFAC000850
:10511000B7AC00085FB4000887B40008194900085C
:10512000054B00082DE9F34151680546164600F08D
:10513000C5FC0746A8B140F2FF1101F0ECFC041ECB
:105140000BDA3668D5F81080FCF738FD0368009359
:1051500028460749074B3246C047384600F002FD53
:1051600001E04FF0FF34204602B0BDE8F08100BFFF
:10517000B7AC000895B300082DE9F3415168054626
:10518000164600F09BFC0746A8B140F2FF1102F062
:105190001FFB041E0BDA3668D5F81080FCF70EFDF5
:1051A0000368009328460749074B3246C0473846F4
:1051B00000F0D8FC01E04FF0FF34204602B0BDE81B
:1051C000F08100BFB7AC0008A2B300082DE9F74397
:1051D00051680546164600F071FC044618B328468F
:1051E000B16800F06BFC074610B900F0BBFC1AE098
:1051F0002046394601F061FDB0F100080BDA36684F
:10520000D5F81090FCF7DAFC0368009328460849AB
:10521000084B3246C847204600F0A4FC384600F050
:10522000A1FC404601E04FF0FF3003B0BDE8F08341
:10523000B7AC0008A8B400082DE9F3415168054651
:10524000164600F03BFC074698B101F06DFE041EC7
:105250000BDA3668D5F81080FCF7B0FC03680093D1
:1052600028460749074B3246C047384600F07AFCCB
:1052700001E04FF0FF34204602B0BDE8F08100BFEE
:10528000B7AC0008AFB400082DE9F34151680546FA
:10529000164600F013FC074698B101F087FD041E86
:1052A0000BDA3668D5F81080FCF788FC03680093A9
:1052B00028460749074B3246C047384600F052FCA3
:1052C00001E04FF0FF34204602B0BDE8F08100BF9E
:1052D000B7AC0008DBB3000806CA01F0A3B92DE99A
:1052E000F04FC3B051680446154600F0E7FB07468F
:1052F00038B9236942492A68204698474FF0FF345D
:1053000079E02046A96800F0D9FB804638B92369C6
:105310003B492A68204698474FF0FF3468E03846FA
:10532000012101F04AFCB0F100090DDA26692D686F
:10533000FCF744FC0368009320463249324B2A466E
:10534000B0474FF0FF3450E04046012101F035FCFA
:10535000B0F1000A0DDA26692D68FCF72FFC03680E
:10536000009320462749284B2A46B0474FF0FF3488
:1053700038E04FF0000B02A98022484601F087FC7C
:1053800022A906468022504601F081FC002E01DB56
:1053900000280BDA2D682669FCF710FC03680093DF
:1053A00020461849194B2A46B04716E0B042D4BFF0
:1053B0008344B344864205D02369154920465A46A2
:1053C00098470AE002A822A9324604F02EFD0028E0
:1053D000F2D17F2ECFD8044601E04FF0FF34504683
:1053E00001F054FB484601F051FB404600F0BAFB87
:1053F000384600F0B7FB204643B0BDE8F08F00BF51
:1054000094AD0008B7AC000852B70008D7B4000844
:10541000B6B40008406802F0C7B8806802F0C4B8AB
:1054200013B50446438B0269216A40685A4302F06F
:10543000D3F8031E0ADA20680849094A5B42009340
:105440000469084BA0474FF0FF3005E0A38314BF69
:10545000002301232376002002B010BDB7AC000862
:10546000CDB40008D0B40008406801F00FBB8068DC
:1054700001F00CBB37B50023056A83830446A38B78
:10548000628B6068D21A294601F001FC031E0ADA19
:1054900020681049104A5B42009304690F4BA047F3
:1054A0004FF0FF3013E0A28B618B1A4492B291420D
:1054B000A2831D4408D8237E002A14BF1A4643F055
:1054C00001022276002002E0002BD8D1F3E703B0DE
:1054D00030BD00BFB7AC0008CDB40008D7B4000899
:1054E00073B5066A04460025628BA0683146521BDC
:1054F00001F079FD031E0ADA20680949094A5B4276
:1055000000930469084BA0474FF0FF3006E01D44AC
:105510001E44638BADB2AB42E6D8002002B070BD32
:10552000B7AC0008CDB40008E3B4000813B50169B6
:105530004269438B04468A1A5A438068216A02F002
:10554000AFF8031E10DA13F11B0F02D101232376EB
:105550000AE020680649074A5B4200930469064B4B
:10556000A0474FF0FF3000E0002002B010BD00BFA8
:10557000B7AC0008CDB40008DCB400082DE9F04356
:1055800097B007461446894609A800213422FDF742
:1055900037FA4FF40073ADF83E3000254FF0FF337B
:1055A00009970C9304344FF001082E46C8454CDA95
:1055B00054F8040B8949032204F080FC38B954F8EC
:1055C000041C3846033100F079FA06463AE054F8F4
:1055D000040C8349032204F071FC38B954F8041C0C
:1055E0003846033100F06AFA05462BE07D4954F84D
:1055F000040C032204F062FC014654F8040C31B997
:1056000003300A2204F094FAADF83E001AE076491D
:10561000062204F053FC014654F8040C29B9063064
:105620000A2204F085FA0C900CE07049052204F07F
:1056300045FC014630B954F8040C0A22053004F048
:1056400077FA0E9008F10108B0E706B155B93B6949
:105650006749684A384698474FF0FF34002E00F0FB
:10566000AE80A9E0BDF83E00FDF74AFE119028B9D2
:105670003B6961495F4A38469847A5E0304602A930
:10568000099C01F0D7FB002808DB029B03F4704360
:10569000B3F5C04253425341F3B907E001230093ED
:1056A00027695649534A564B20460FE030460121A0
:1056B00001F083FA00280A900ADA2769FCF77EFADB
:1056C000036800934D494B4A4E4B2046B8477BE058
:1056D0004D4B12934D4B09E0304601210AAA01F0CF
:1056E00017FF002870DB4A4B12934A4B284602A949
:1056F000139301F09FFB002811DB029901F4704124
:10570000B1F5C0435942594149B128460BAA01F0AD
:10571000FFFE00285BDB404B1493404B17E028460C
:1057200026214FF4D27201F048FA00280B900BDAD0
:10573000099C2769FCF742FA0368009320462F4929
:105740002C4A304BB84742E0354B1493354B1593F8
:1057500000230D939DF83C3023BB0C9C1CB309A87F
:10576000129B9847041E1EDB9DF83C30002BF1D1A4
:10577000BDF84030BDF83E20934204DA119A002172
:10578000D1540133F6E70E9B0D9A9A4207D309A82C
:10579000149B9847041E06DB0C9B013B0C930D9B4E
:1057A0000133D6E7002409A8159B984709A8139B45
:1057B00098471198FDF79EFD3046FDF79BFD4DB1D2
:1057C0002846FDF797FD05E04FF0FF34F4E74FF072
:1057D000FF34EBE7204617B0BDE8F083E9B40008DA
:1057E000EDB40008F1B40008F5B40008FCB40008FA
:1057F00094AD0008CDB400082AAD0008B7AC00088D
:105800005FB4000852B700087554000869540008D6
:1058100021540008155400082D5500081B54000899
:10582000E15400086F540008F0B50C46418BB0F904
:105830000C20037E264F0546264811F0100F0CBFA2
:10584000BC46844611F0040F87B00CBF20264E26BC
:1058500011F0080F01F003070CBF202150211E4852
:105860000391697E50F82770CDF800C000EB8100ED
:105870000296016904910197184926692046B047AC
:1058800023691749204698476B8B03F00303012BCC
:10589000236905D120461349D5F8C020984711E067
:1058A000D5F8C42052686AB120460E4998470826A8
:1058B000D5F8C4309A59043622B123690A492046E2
:1058C0009847F5E7236909492046984707B0F0BD96
:1058D0003DB5000838B5000804B5000842B5000819
:1058E0005BB5000867B5000865B500086AB5000833
:1058F00073B505461646506801A9002204F018F950
:105900002B69044628B1019A71688A4201D0127845
:1059100032B128460649326898474FF0FF3004E01C
:105920000449224628469847A04702B070BD00BFF0
:1059300044AC00086DB5000810B50549036904467C
:1059400098470448214602F0EFFD002010BD00BF3B
:1059500079B50008295800087FB5054650680378D6
:105960002D2B144631D14378303B092B2DD8002202
:10597000013003A904F0DCF80646A0680278303A4A
:10598000092A22D803A9002204F0D2F8314600B235
:1059900002F0FEFF00B3FCF711F903682E69032B38
:1059A0000BD0162B11D02468FCF708F9036800937C
:1059B00028460A490A4B224605E0A3680093094994
:1059C0002268094B2846B04704E02B690749226842
:1059D000284698474FF0FF3004B070BDB7AC0008C0
:1059E000F3B2000842AD0008A1B5000844AC0008BD
:1059F00073B505461446506801A9002204F098F8D2
:105A000028B1019B6268934201D01E783EB12B6998
:105A100005492268284698474FF0FF3002E004F01D
:105A2000B3F9304602B070BD44AC000873B505460A
:105A30001446506801A9002204F07AF828B1019BAD
:105A40006268934201D01E783EB12B6905492268F5
:105A5000284698474FF0FF3002E0FCF787FF3046BA
:105A600002B070BD44AC000830B5044689B003A84C
:105A700004F05AFC2369084920469847079B009385
:105A8000059B019325690549039A069B2046A84773
:105A9000002009B030BD00BF17B600084CB60008A2
:105AA00008B5044803F006FA034B002808BF18465F
:105AB00008BD00BF67B6000865B60008F8B5074620
:105AC0000C4609B10B780BB91F480CE02F2B01D104
:105AD000084608E0FFF7E4FF1C490546204604F0AD
