:020000040800F2
:1000000098120020B104000891010008990100082D
:10001000A1010008A9010008B10100088901000838
:10002000890100088901000889010008B901000858
:10003000C101000889010008C9010008D1010008B8
:10004000D9010008E1010008E9010008F1010008F8
:10005000F901000801020008090200081102000865
:1000600019020008210200082902000831020008D4
:100070003902000841020008490200085102000844
:1000800059020008610200086902000871020008B4
:100090007902000881020008890200089102000824
:1000A00099020008A1020008A9020008B102000894
:1000B000B9020008C1020008C9020008D102000804
:1000C000D9020008E1020008E9020008F102000874
:1000D000F9020008010300080903000811030008E1
:1000E0001903000821030008290300083103000850
:1000F00039030008410300084903000851030008C0
:10010000590300086103000869030008710300082F
:10011000790300088103000889030008910300089F
:1001200099030008A1030008A9030008B10300080F
:10013000B9030008C1030008C9030008D10300087F
:10014000D9030008E1030008E9030008F1030008EF
:10015000F90300080104000809040008110400085C
:1001600019040008210400082904000831040008CB
:10017000390400084104000849040008510400083B
:1001800059040008610400084FF0000000F06CB949
:100190004FF0020000F068B94FF0030000F064B9BE
:1001A0004FF0040000F060B94FF0050000F05CB9BA
:1001B0004FF0060000F058B94FF00B0000F054B9B2
:1001C0004FF00C0000F050B94FF00E0000F04CB9A9
:1001D0004FF00F0000F048B94FF0100000F044B9A4
:1001E0004FF0110000F040B94FF0120000F03CB9A0
:1001F0004FF0130000F038B94FF0140000F034B99C
:100200004FF0150000F030B94FF0160000F02CB997
:100210004FF0170000F028B94FF0180000F024B993
:100220004FF0190000F020B94FF01A0000F01CB98F
:100230004FF01B0000F018B94FF01C0000F014B98B
:100240004FF01D0000F010B94FF01E0000F00CB987
:100250004FF01F0000F008B94FF0200000F004B983
:100260004FF0210000F000B94FF0220000F0FCB880
:100270004FF0230000F0F8B84FF0240000F0F4B87D
:100280004FF0250000F0F0B84FF0260000F0ECB879
:100290004FF0270000F0E8B84FF0280000F0E4B875
:1002A0004FF0290000F0E0B84FF02A0000F0DCB871
:1002B0004FF02B0000F0D8B84FF02C0000F0D4B86D
:1002C0004FF02D0000F0D0B84FF02E0000F0CCB869
:1002D0004FF02F0000F0C8B84FF0300000F0C4B865
:1002E0004FF0310000F0C0B84FF0320000F0BCB861
:1002F0004FF0330000F0B8B84FF0340000F0B4B85D
:100300004FF0350000F0B0B84FF0360000F0ACB858
:100310004FF0370000F0A8B84FF0380000F0A4B854
:100320004FF0390000F0A0B84FF03A0000F09CB850
:100330004FF03B0000F098B84FF03C0000F094B84C
:100340004FF03D0000F090B84FF03E0000F08CB848
:100350004FF03F0000F088B84FF0400000F084B844
:100360004FF0410000F080B84FF0420000F07CB840
:100370004FF0430000F078B84FF0440000F074B83C
:100380004FF0450000F070B84FF0460000F06CB838
:100390004FF0470000F068B84FF0480000F064B834
:1003A0004FF0490000F060B84FF04A0000F05CB830
:1003B0004FF04B0000F058B84FF04C0000F054B82C
:1003C0004FF04D0000F050B84FF04E0000F04CB828
:1003D0004FF04F0000F048B84FF0500000F044B824
:1003E0004FF0510000F040B84FF0520000F03CB820
:1003F0004FF0530000F038B84FF0540000F034B81C
:100400004FF0550000F030B84FF0560000F02CB817
:100410004FF0570000F028B84FF0580000F024B813
:100420004FF0590000F020B84FF05A0000F01CB80F
:100430004FF05B0000F018B84FF05C0000F014B80B
:100440004FF05D0000F010B84FF05E0000F00CB807
:100450004FF05F0000F008B84FF0600000F004B803
:100460004FF0610000F000B86A4602F12002EFF39D
:1004700010832DE9FC0F72B6694600F0C3FB694694
:10048000884209D000F1280191E8F00F016821E9C4
:10049000F00F90E8FC0F01E0B1E8FC0F81F3088851
:1004A000DFF808E083F3108870470000F9FFFFFFD2
:1004B00010B500F03DF800F0C1F900F0CDF8412092
:1004C00000F0B0F9154A164B9A424FF0000402D2E0
:1004D00042F8044BF7E7422000F0A4F92346114A02
:1004E00011499818884204D2104959589950043338
:1004F000F5E7432000F096F900F018FB442000F0E7
:1005000091F901F0FDF8462000F08CF90D2000F083
:1005100089F90A2000F086F901F06AF9E404002064
:100520009C0E002000000020E40400208C0801083C
:1005300013B53C4A3C4C136843F0010313603B4B3A
:1005400000201860116821F0847121F00111116000
:1005500037490C60146824F480241460354C206002
:10056000106840F480301060334A01920846019AC6
:10057000002A07DD2B4A1268940303D4019A013A3A
:100580000192F4E7019A002A2C4A18DC2C490B68E6
:100590006FEA53236FEA43230B602A4B196841F03B
:1005A00080011960136843F0805343F400331360F3
:1005B000254B1A6842F4A0421A6002B010BD1168BF
:1005C00041F08051116021490C6844F480440C6072
:1005D000196821F0F0011960196821F4604141F4B3
:1005E00000411960196821F4E05141F4A0511960EB
:1005F000174901600B49086840F08070086008687E
:100600008001FCD5134940F205600860196821F0AB
:10061000030141F002011960196801F00C01082979
:10062000FAD1B3E700380240103000240838024005
:10063000043802400C38024014821900403802404D
:1006400030380240343802404438024000700040E4
:1006500008544007003C02407047C0F30313082BC6
:100660000AD8064A00F00F0052F82320012301B9EE
:10067000103003FA00F09061704700BFE8E900080D
:100680002DE9F84FC0F30316082E00F2A880564B50
:1006900000F44022B2F5002F53F8263000F00F018D
:1006A00009D0B2F5402F08D0B2F5802ADAF1000265
:1006B00052EB0A0202E0022200E00322EFF310886C
:1006C00072B603274C001D68A740FF433D4002FA65
:1006D00004FC4CEA0505032A1D600CD000F44035EB
:1006E000B5F5803F05D0B5F5003F0CBF02250025CC
:1006F00002E0012500E00025D3F80CC0022A0CEA34
:10070000070C05FA04F545EA0C050CBFC0F30339E4
:100710004FF000090729DD608BBF24252025A1F1BA
:10072000080C8C464FEA8C0C55F803B04FF00F0ABA
:100730000AFA0CFA2BEA0A0A09FA0CF94AEA090C35
:1007400045F803C002F1FF3CBCF1010F12D800F4E0
:100750004065B5F5006F09D0B5F5406F08D0B5F527
:100760008069D9F1000555EB090504E0022502E096
:10077000032500E00025D3F8089005FA04F409EAFF
:1007800007073C4301259C60AC455C6805FA01F114
:1007900003D8850501D5214301E024EA0101012A9E
:1007A000596004D1C0F30021FFF757FF10E0C305E3
:1007B0000ED500F00C020D4B00F003008000D45861
:1007C0000F21814024EA0101864041EA0600D05011
:1007D00018F0010F00D162B60020BDE8F88F6FF06D
:1007E0001500BDE8F88F00BFE8E9000808380140AF
:1007F000C0B2FFF745BFC0F30313082B0DD8084A5A
:1008000052F8233000F00F001B69012202FA00F0B9
:1008100003420CBF0020012070470020704700BF3A
:10082000E8E90008034B1B681B06FBD5024B186068
:10083000704700BF004400400444004008B5002158
:100840004FF40032144800F0CFF91448FFF718FFB6
:100850001348FFF715FF134B13491A6822F47D5212
:100860001A6053F8042C22F4BB5222F01C0243F805
:10087000042C0A6822F4E06222F001020A600B4AAA
:1008800040F26D11116053F8042C42F4005242F012
:100890000C0243F8042C08BD40380240027C0900D9
:1008A000037C090010440040144400400844004008
:1008B00010B5036C8185DA6801F4D07422F4D0722B
:1008C0002243DA60036C5A6901F0010122F001024F
:1008D0001143596110BD6FF018007047836A1A6C9C
:1008E0005068DA8D40EA02420A600022DA85C0B21E
:1008F000704710B5806AEFF3108472B6838D11B122
:1009000043F0200104E023F4907121F0010189B249
:10091000FFF7CEFF14F0010F00D162B610BD836A5D
:100920001B6C1868C0F340107047836A1B6C5960D9
:100930007047836A1B6C1868C0F3C010704738B5E5
:100940000446806AEFF3108572B6828D41B142F0A1
:10095000800189B2FFF7ACFF204600F065FE05E09C
:1009600022F080010904090CFFF7A2FF15F0010F26
:1009700000D162B638BD10B5846A94F8380000F032
:1009800087FA94F838000021BDE8104001F014B84F
:1009900038B5846A94F83800E16C01F00DF805462A
:1009A00018B994F8380000F085FA284638BD38B5F3
:1009B000846A344A236C9342054605D132480021AB
:1009C0004FF4003200F010F9606CFFF759FEA06C94
:1009D000FFF756FE226C94F83210136923F47D530E
:1009E00009B143F400531361236CDA6822F4BE7238
:1009F000DA60226C536923F4E06323F0010353614E
:100A0000AB6A596BDA6B186C4908B2FBF1F14A0911
:100A10000131A1EB4211490841EA02128260186CCF
:100A200093F83010C268012922F4B05202D142F486
:100A3000C06203E0022908BF42F4806293F831509B
:100A4000092D02D0082D02D109B142F48052C260B2
:100A5000196C93F832000A6922F4405208B142F44A
:100A600000520A611B6C5A6922F440725A61226C6E
:100A7000D36843F4005343F00C030020D360A085F7
:100A800038BD00BF004400404038024038B54FF444
:100A90008075124C226C13689BB213F0200FE38513
:100AA000204606D0A18D890603D500F0F5FD01236F
:100AB00004E013F00E031CBF53680023E28D0748C7
:100AC000110605D5828D120602D500F0ADFD012379
:100AD000013D01D0002BDCD1002038BD00000020FA
:100AE00038B5846A054600212046FFF7E1FEAB6A6F
:100AF0001A6C0C4B9A4205D10B484FF4003100227E
:100B000000F072F8226CD36823F4005323F00C0336
:100B1000D360606CFFF76CFEA06CBDE83840FFF757
:100B200067BE00BF004400404038024010B50024BA
:100B3000064BE05810B10021FFF7BAFE0434182C20
:100B4000F6D10348BDE81040FFF731BF0CEA0008BA
:100B50000000002030B51049104885B000F020FD9D
:100B60000D490F4800F01CFD68460E4902F040F99F
:100B7000002401230C4AA15849B1CA783AB95D1C36
:100B8000684630338DF8093000F00AFD2B460434F6
:100B9000182CEFD105B030BD0000002054EA000849
:100BA00061EA00086CEA00080CEA000838B504465F
:100BB0000C48036CDA685D69002102F4D07305F01B
:100BC00001051D43FFF774FE0A2C02D10D20FFF72B
:100BD00029FEE0B2FFF726FE02482946FFF768FE2D
:100BE000204638BD0000002010B5EFF3108372B628
:100BF000046824EA01011143016013F0010F00D1E0
:100C000062B610BDF8B50B4C064604200D4600F048
:100C1000DFFD30462768256000F05DF92946304643
:100C200000F0E6FE25682760042000F0D9FD284684
:100C3000F8BD00BF780A002008B5EFF3108372B644
:100C40000449054A032002F089F80448C12100F054
:100C500043F900BFCEEA000877EA0008EFEA00088F
:100C600008B5EFF3108372B60449054A032002F079
:100C700075F80448B92100F02FF900BF00EB000817
:100C800086EA0008EFEA000808B5EFF3108372B6B1
:100C90000449054A032002F061F80448B12100F03C
:100CA0001BF900BF26EB000897EA0008EFEA0008EE
:100CB00008B5EFF3108372B6054B06491B68064A68
:100CC000032002F04BF80548A92100F005F900BF08
:100CD00028ED00E044EB0008A4EA0008EFEA000871
:100CE00008B5EFF3108372B6054B06491B68064A38
:100CF000032002F033F80548A12100F0EDF800BF11
:100D000028ED00E06DEB0008B5EA0008EFEA000806
:100D100008B5EFF3108372B60449054A032002F0C8
:100D20001DF80448992100F0D7F800BF94EB0008A3
:100D3000C4EA0008EFEA000838B5841E5F2C03D926
:100D40001F48E92100F0C8F80F281CDD2F280ADC15
:100D500003F1604303F561430B601038012303FA8C
:100D600000F010601BE04F284FF0010504DC154C2B
:100D70001C440C60303803E0134C1C440C605038A9
:100D8000854015600BE0114B0B60042802D14FF435
:100D9000803303E0052804D14FF4003313600020B2
:100DA00038BD062802D14FF48023F7E70F2803D17E
:100DB000074B0B600123F1E74FF0FF3038BD00BF58
:100DC000EFEA000804E100E008E100E024ED00E0C3
:100DD00010E000E010B5224A0023136053604FF08A
:100DE0008033C2F8183CC2F81C3CC2F8203C1D4BB2
:100DF0001B680133DB0002F5407213F1FF3304D3AB
:100E00004FF0803142F8041BF7E7174B17490024D5
:100E10000B201C6000F0D0FD1549032000F0CCFD34
:100E20001449022000F0C8FD1349042000F0C4FD5D
:100E30001249052000F0C0FD1149062000F0BCFD5C
:100E400010490E2000F0B8FD0F490C2000F0B4FD51
:100E500020460E4900F0B0FD84F3118862B610BD43
:100E600000E100E004E000E0780A00203D11000805
:100E7000E5100008110D00089D100008E10C0008A5
:100E8000B10C0008890C0008610C0008390C00083E
:100E900013B58023694601AA0446FFF74DFF38B910
:100EA000009B019A0F2CDCBF196821EA02021A602C
:100EB00002B010BD13B50023694601AA0446FFF72E
:100EC0003BFF30B9009B019A0F2CDCBF19680A4325
:100ED0001A6002B010BD704780B588B004460D4658
:100EE0000620534F00F074FC2346524A009503201D
:100EF00051496C4601F058FF3B68B3F90C202AB900
:100F00004E4B1D684FF48066043D01E01D6B9E6AE8
:100F10004B494C4A2346032001F046FF4A49494ABF
:100F20002B46032001F040FF03204849454A334641
:100F300001F03AFFAC4202D8AE1BB44205D8444996
:100F4000404A032001F030FF1BE024F01F04AC42B4
:100F500017D22368009363680193A3680293E36840
:100F600003932369049363690593A3690693E36973
:100F70000793032023463749374A01F015FF2034F1
:100F8000E5E7364C2268002A38D0936AD2F82CC0A4
:100F9000D2F830E0566B9568D068116952690692B4
:100FA0008DE8005002960395049005912C4A2D4936
:100FB000032001F0F9FE22689369D2F81CC0D2F830
:100FC00020E0566A956B1068D16B126C0692049003
:100FD00005918DE80050029603952349204A03208D
:100FE00001F0E2FE2268536C5168EFF31482032093
:100FF0008DE806001D491A4A01F0D6FE23681BB988
:101000003B68B3F90C307BB9EFF3108372B607205D
:1010100000F0DEFBFA2000F02BF8072000F0E0FBE8
:10102000FA2000F025F8F2E7012000F0FDFE00BFF5
:101030008C0A0020AFEB0008E3EB0008E4E90008AD
:101040000DEC0008B9EB000823EC000839EC0008AF
:101050004FEC00088BEC0008C6EB0008780A002073
:10106000D3EB0008BEEC0008EFEC000820ED000810
:1010700082B000230093009B83420CD20023019393
:10108000019A44F24C139A4202D8019B0133F6E7CD
:10109000009B0133EEE702B07047000007B5EFF3A5
:1010A000108372B6094C0A492246032001F07CFEE7
:1010B000084B094A1B68126800920849032022461F
:1010C00001F072FE06488021FFF706FF4CED000894
:1010D00058ED000828ED00E034ED00E07FED000859
:1010E000A0ED000810B50B6C0E4C9A1EA2420BD35B
:1010F0000D4CA24208D233F8023CB3F55F4F03D146
:10110000BDE8104000F01AB8EFF3108372B6074B39
:1011100007491B68074A032001F046FE0648B7212D
:10112000FFF7DAFE00000008840801082CED00E05B
:10113000C3ED0008B6ED0008E2ED000838B50C4636
:1011400019B1154D2B68994202D01448A0210AE02C
:101150008B6A012B0DD002D3022B0FD01AE0C86A84
:1011600018B90E48CF21FFF7B7FE482201F04FFE15
:1011700010E0CB6A6BB90948E821F4E7C86A08B106
:101180000B6B13B90548FF21EDE7482201F03FFE44
:10119000236B2B60002038BD780A0020F9ED000891
:1011A00070B583681C69636A1B690E4615469847CB
:1011B00010F1190F3ED140F205339E4204D040F2A7
:1011C00006339E4218D070BDEFF3108272B6A18B29
:1011D000638B09B21BB2994205DC618BA38B09B208
:1011E0001BB2CB1A20E0608BA38BB4F91E1000B2A7
:1011F0001BB2C31A0B4417E0EFF3108272B6E189F9
:10120000238A09B21BB2994205DA218AE38909B21D
:101210001BB2CB1A07E0208AE389B4F9121000B29E
:101220001BB2C31A0B44013B12F0010F00D162B68E
:1012300000202B6070BD38B504460D46204600F0F6
:1012400013FE68B100F0FEFD0368042B03D00548CF
:101250007E21FFF741FE002DF0D06FF0030038BD76
:1012600038BD00BF38EE00082DE9F843C589B0F954
:1012700012302DB2013504460F4690469D42A8BF5C
:101280000025238A1BB29D4208D0E289636912B20D
:10129000ADB29F54E5810020BDE8F883B8F1000F9E
:1012A0001DD0EFF3108972B60126636A66705B6A1F
:1012B0002046314698473146A01DFFF7BCFF636AC0
:1012C00006465B6A20460021984719F0010F00D1BD
:1012D00062B6002ED5DA6FF00300BDE8F8836FF038
:1012E0000A00BDE8F8832DE9F84F836880460E4672
:1012F00015461C6902F096FC074628B1E37843B90D
:101300004FF0FF30BDE8F88F00F086FD0028F5D0E3
:1013100018E0EFF3108772B606EB050846450AD0D1
:1013200016F8014B0A2C02D10D20FFF73FFC204696
:10133000FFF73CFCF2E717F0010F00D162B6284638
:10134000BDE8F88F04F10C0948460121FFF773FF4F
:1013500000283EDBD8F8003083F0400A636A20465C
:101360005B6A39469847CAF3801AA846B8F1000F5D
:101370001FD0E37816F801BB33B9204659465246D0
:10138000FFF772FF07460AE0BBF10A0FF5D12046CE
:101390000D215246FFF768FF07460028EDD0002FC9
:1013A00004DAA84506D2C8EB050703E008F1FF38C8
:1013B000DCE72F46E289238A12B21BB29A4204D09C
:1013C000636A20465B6A01219847484600F096FD13
:1013D0003846BDE8F88F2DE9F04783681C6904F1B1
:1013E000180780460E46384601219146FFF723FF35
:1013F00000284CDB00254D4545D2A38B628B9BB268
:1014000012B219B28A420ED0226AB4F91E00525C9E
:1014100001339BB219B28842D8BF0023A3830135A0
:1014200032700136E7E7002D2DD1D8F800305B0689
:1014300027D4636A20469B6929469847628BA38B11
:1014400012B21BB29A4216D1EFF3108A72B6636AD7
:1014500020469B69012198470121A17004F10800F1
:10146000FFF7E9FE1AF0010F00D162B60028C2DAD8
:101470006FF0030507E0636A20469B6901219847E6
:10148000B9E76FF00A05384600F038FD2846BDE898
:10149000F0872DE9F04183681C69271D384601213A
:1014A000FFF7C9FE051E38DB94F8008008F101083B
:1014B00018F0FF082CD0B8F1010F26D1EFF31086F9
:1014C00072B6E3782BB9636A20461B689847051EFD
:1014D00009DB636A20469B689847051E626A07DA43
:1014E00053682046984716F0010F00D162B611E00C
:1014F0000023E38123826383A38393692046012130
:10150000984716F0010F00D162B684F8008001E020
:101510006FF01705384600F0F1FC2846BDE8F08171
:1015200070B583681C69251D28460021FFF783FEDE
:101530002378012B02D9013B237029E00021636A43
:1015400021709B6920469847E289238A12B21BB218
:101550009A4203D0114801F0D3FBF5E7636A2046B5
:10156000DB6A984718B90D4801F0CAFBF6E7EFF3BC
:10157000108672B6636A2046DB689847E3781BB929
:10158000636A20465B68984716F0010F00D162B687
:10159000284600F0B3FC002070BD00BF20A107006A
:1015A00070B501220C46054601F10C00002101F046
:1015B00037FC04F118000021012201F031FC201D4C
:1015C0000021012201F02CFC00210A46A01D01F09F
:1015D00027FC0B4E00210A4604F1080001F020FC14
:1015E00032462B460749032001F0B8FB284606F196
:1015F000100123464FF4DB72BDE8704006F032BBA9
:1016000010EE000848EE0008837823B100238370B1
:10161000083000F073BC7047437823B10023437057
:10162000063000F06BBC704770B504460025E289B7
:10163000238A12B21BB29A42AEB20BD1E289238A3C
:1016400012B21BB29A4220D1636A20465B6A002123
:1016500098471AE0636A20469B6A98470028EDD0B5
:10166000218A6369626A09B2126A595C204690470E
:10167000238AB4F9122001339BB223821BB29A420F
:10168000DCBF002323820135D1E726B12046BDE827
:101690007040FFF7C1BF70BD2DE9F341458BB0F934
:1016A0001E302DB2013504469D42A8BF00250026FC
:1016B000B7B2636A2046DB699847D0B1B4F81C80A2
:1016C000636A1FFA88F85B69204601A90FFA88F857
:1016D00098474545EDD0628B236A12B20136985483
:1016E000ABB26383B4F91E3001359D42A8BF00251B
:1016F000DEE717B12046FFF787FF02B0BDE8F081B3
:1017000008B5064B0BB1AFF30080054B0BB1AFF33F
:101710000080BDE8084000F043B800BF00000000B2
:101720000000000038B50509E907044603D518484C
:101730000021FEF792FFAA0703D516480021FEF705
:101740008CFF6B0703D514480021FEF786FF2D0799
:1017500003D512480021FEF780FFE00703D50C48AF
:101760000121FEF77AFFA10703D50A480121FEF700
:1017700074FF620703D508480121FEF76EFF2307B7
:1017800005D506480121BDE83840FEF766BF38BDE3
:101790003C0804003D0804003E0804003F08040023
:1017A00008B50748FEF76CFF0648FEF769FF0648D4
:1017B000FEF766FF0548BDE80840FEF761BF00BFC1
:1017C0003C0804003D0804003E0804003F080400F3
:1017D000024B13F81000FFF7A5BF00BF5CEE000836
:1017E000024B33F81000000AFFF79CBF5CEE0008C4
:1017F00007B54F4A0023136053604E4A136053608D
:101800004D4A136053604D4A136053604C4A136055
:1018100053604C4A136053604B4A136053604B4A09
:10182000136053604A4A13804A4A002599189D5014
:1018300008334FF6FF70802B8880F5D1464C14603A
:1018400095802946C822204601F0CAFA0323637610
:10185000424B636102236383414B3549C4F8C8306E
:10186000204604F1C803C4F8C430C4F8CC5001F0D9
:1018700045FB204602F0C2F9684601A902F018F9BA
:101880009DE8030001F064FF364B0BB100F0AAFDA8
:10189000354B0BB101F000F9344B0BB10BF01AFBD7
:1018A000334B0BB1AFF30080324B0BB100F08CFF28
:1018B000314B0BB10BF0B6FD304B0BB10BF02EFAE8
:1018C000254D05F093FC02F083F92846A17E00F037
:1018D000B5F8002803DA2A4840F2EF1107E028465D
:1018E00000F0E4F8002804DA254840F2F711FFF789
:1018F000F3FA284600F0CAF8002803DA204840F23C
:10190000FF11F4E7AB6801221A7000F03BF80028E1
:1019100005DA1B4840F20621E9E702F0E1F801F0A0
:101920001FFF0028F9D100F0E9F801F01FFFF4E7EC
:101930008C0A00202C0B0020840A0020A40A00201E
:10194000940A00207C0A00209C0A0020380B00200A
:10195000340B0020AC0A0020E4050020F117000839
:101960006CEE0008E5230008992A0008D5CE00088F
:1019700000000000C927000825D400081DCD00087C
:10198000C0EE000813B5002400940848084B6421F9
:101990004FF4006200F01CF9A04204DC05484FF44B
:1019A0008E71FFF799FA204602B010BDD0EE000804
:1019B000493E0008D5EE0008612838B504460FD826
:1019C000EFF3108572B611B9FFF762FA0649074BBB
:1019D00043F8241015F0010F00D162B6002038BD85
:1019E0004FF0FF3038BD00BF151A0008400B002033
:1019F000612808B507D8054B054A53F82030002B5D
:101A000008BF134600E0024B984708BD400B00207A
:101A1000151A000808B50346EFF3108272B60449A0
:101A2000044A032001F0C0F903485521FFF754FA96
:101A3000FAEE0008E7EE000807EF0008F8B50546E3
:101A400008B184681CB11048B821FFF745FA4FF47B
:101A5000EC7001F09DFE064690B1A86000F098FC85
:101A6000071E05DA304601F087FEAC603846F8BD47
:101A700006F108002146012201F0D2F92046F8BD06
:101A80006FF00B00F8BD00BF1FEF000808B508B1EC
:101A9000836823B904484FF48E71FFF71DFA0122C1
:101AA0005A70002008BD00BF1FEF000838B504467B
:101AB000806818B90F485A21FFF70EFA283005F050
:101AC000C0FB0D48032105F02AFE051E0BD10121A4
:101AD00005F0A1FD2846022105F09DFD2046BDE848
:101AE000384000F08DBC01DD05F082FD6FF016007E
:101AF00038BD00BF34EF000854EA000810B50948AB
:101B000003686BB1EFF3108472B601F0DCF914F0E6
:101B1000010F00D162B60028F1D001F02DFEEEE7F2
:101B200010BD00BF380B00202DE9F7430746C82041
:101B30000E469046994601F02BFE0446002839D007
:101B40003146FFF77BFF00281EDB204600F076FCC5
:101B5000002819DB20464946324602F006F80028E4
:101B600012DB009620464146174A0A9B00F074F8A3
:101B7000002809DB39460B9A204600F0CFF82046B2
:101B8000FFF784FF002801DA45420EE02046A589D0
:101B900000F018F90028A8BF28B211DA00F052F9B5
:101BA0000A490568204601F0B5F92046314600F0A3
:101BB000A9FC00E00C2500F045F905604FF0FF306E
:101BC00003B0BDE8F08300BFDD1D00089C0A0020C3
:101BD00073B5069C00930E461546019400213246CB
:101BE0002B46FFF7A1FF02B070BD73B5069C0093B2
:101BF0000E4615460194022132462B46FFF794FF0C
:101C000002B070BD70B5054600F0A6FC1022104968
:101C10000B8801339BB218B200280B80DCBF012374
:101C20000B8003F00F040B4951F834604EB941F8B2
:101C3000345001EBC4018B80AB8100F0A5FC304631
:101C400070BD013AE3D100F09FFC4FF0FF3070BD52
:101C5000340B0020AC0A00202DE9F04104460E466A
:101C600017469846FFF7CEFF054618BB638B9DF8D5
:101C70001820276102F0030223F003031343F6B296
:101C8000638304F1380229462676C4F814800320C1
:101C900000F060F92046657601F0B0FF00F05CFCD2
:101CA0002046064901F02AF90423637600F06CFC13
:101CB00084F8C0602846BDE8F08100BF9C0A00207F
:101CC0002DE9F04104460F4616469846FFF79AFF65
:101CD0000546E8B9638B277623F0030343F001033D
:101CE0006383294604F138022661C4F81480032076
:101CF00000F030F92046657601F080FF00F02CFC02
:101D00002046054901F0FAF80423637600F03CFC14
:101D10002846BDE8F08100BF9C0A00202DE9F74F5E
:101D200082462648174601F06AF8451C5FB1002438
:101D300057F8240040B101F062F801340130052C5D
:101D40000544F5D100E03C46A61CB600711950468A
:101D500002F008F8054620B9194840F2FB11FFF7D8
:101D6000BBF806440660154801F049F8134980465F
:101D7000304601F03DF808F10108B044AB464FF0A1
:101D80000009A14511DA4BF8048F386801F037F8E3
:101D900057F8041B03464046019301F029F8019BC4
:101DA0000133984409F10109EBE7002046F8040CDF
:101DB000CAF8C45003B0BDE8F08F00BF51EF00086F
:101DC0005AEF000810B5EFF3108472B601F0DEFF91
:101DD00014F0010F00D162B6002010BD08B50C4B05
:101DE0001B685A8B02F00302012A03D109486621BD
:101DF000FFF772F8D3F8C410012051F8202012B177
:101E000001300528F9D15B69984700F00DF800BF53
:101E10008C0A00206CEF0008024B186800B1808922
:101E200000B270478C0A002008B5054B1B68C4B28D
:101E300021461846002200F0D5FB204601F0BAFEEC
:101E40008C0A002008B501F0EDFE38B9044B186883
:101E500020B1437E032B01D1643008BD014808BD89
:101E60008C0A0020B4060020F8B5224B04461D68F9
:101E700001F0D8FE064610B11F48692116E0FFF7B1
:101E8000E1FF16230360002C30D0EFF3108772B609
:101E900023881AB2002A03F1FF3303DD2380304682
:101EA0006E631EE06E6B1EB113488E21FFF714F8AF
:101EB00023806C63FFF7C6FF05210660284601F00A
:101EC00011FEFFF7BFFF0368042B08D0FFF7BAFF2E
:101ED00000686E2814BF00206FF0000001E04FF092
:101EE000FF3017F0010F00D162B6F8BD4FF0FF30A0
:101EF000F8BD00BF8C0A00207EEF000810B510B3BB
:101F0000EFF3108472B6038847F6FF72934203D151
:101F10000E487A21FEF7E0FF01339BB203801BB22B
:101F2000002B0ADC0A4B1B683BB15A6B8242FAD188
:101F300000225A63184601F029FF14F0010F00D166
:101F400062B6002010BD4FF0FF3010BD93EF0008C7
:101F5000840A0020F8B5164B1C68174606460D4645
:101F600000F0FAFAA36B07B13B60EDB1EFF310821A
:101F700072B6022E07D0032E0AD0012E0CD1A36B0D
:101F800029680B4305E02968A36B23EA010300E0FD
:101F90002B68A363002501E04FF0FF3512F0010F1D
:101FA00000D162B600F006F800F0EEFA2846F8BD5F
:101FB0008C0A002037B5154B1C6800F0CDFAA36BD6
:101FC0002046DD4300F06CFC28400190019BC3B12A
:101FD00001A800F063F8431C0546F7D0294601A884
:101FE00000F03AFF2946204600F012F80546002886
:101FF000ECD02046291D00F061F8284600F02EF8AC
:10200000E4E700F0C1FA03B030BD00BF8C0A002045
:1020100038B5806818B910485E21FEF75DFFEFF310
:10202000108572B6846900237CB122798A4202D07D
:1020300023462468F8E700F118011BB1184600F0A8
:102040004CFF02E0084600F03EFF15F0010F00D102
:1020500062B6204638BD00BFA8EF000810B5037B6C
:1020600023B9EFF3108472B60A4905E0022B0AD1B6
:10207000EFF3108472B6084900F005FF14F0010F69
:1020800000D162B610BD012B03D1BDE8104000F0B5
:1020900009BA10BDEC0C0020E40C002038B5054650
:1020A00000242846214600F0E5FE28B90134202C02
:1020B000F7D14FF0FF3038BD204638BD2DE9F04153
:1020C0000D46044600B119B96B484FF4A0712AE0DF
:1020D0003830097800F0CEFE8046002870D0EFF34B
:1020E000108772B6637E062B15D104F13C00297867
:1020F00000F0C0FE78B12946082204F158000026FD
:1021000000F085FEE663204601F040FE17F0010F67
:1021100000D162B6ADE017F0010F00D162B6A6683B
:102120001EB95548F921FEF7D7FE2A78EFF3108340
:1021300072B6B06920B10179914201D00068F9E727
:1021400013F0010F00D162B628B1294608220430ED
:1021500000F05DFE8CE001F065FD58B1474800F0ED
:10216000B2FE0446D0B9464800F0ADFE0446002851
:102170007AD013E0EFF3108772B6404800F0A3FE68
:10218000044617F0010F00D162B638B9102001F0F3
:10219000F9FA0446002867D001230373201D29465D
:1021A000082200F034FEEFF3108572B6204606F1E7
:1021B000180100F068FE15F0010F00D162B657E07B
:1021C00000F0CAF92046297800F098FB064600B3D3
:1021D0004368D3B100F0A4FB0746C0B17368436005
:1021E000B3688360294608220C3000F010FEEFF33C
:1021F000108672B6384604F1480100F044FE16F02D
:10220000010F00D162B6464603E01E4601E06FF0C2
:102210000B0600F0B9F920461A4901F033FDEFF33F
:10222000108772B6637E062B0AD104F15800294646
:10223000082200F0ECFD0023E363204601F0A6FD38
:1022400017F0010F00D162B6637E052B03D1204643
:10225000042100F081FA637E073B012B09D8204658
:10226000042100F065F804E003484FF4B0715AE728
:1022700000263046BDE8F081C9EF0008EC0C0020D4
:10228000E40C0020A522000810B50C4600F028F947
:1022900020B12146BDE81040FFF710BF6FF00200EB
:1022A00010BD00BF2DE9F846054600F055F9D5F8F8
:1022B0006490AC6C002C35D0D4F800A0EFF31087FC
:1022C00072B6204605F1480105F1500600F0E5FD23
:1022D0002046314600F0D7FD17F0010F00D162B65D
:1022E000AF6BA368227B012101FA02F23B43214636
:1022F0001343AB63636811F80C0F00229847AF6378
:10230000FFF758FEEFF3108772B62046314600F013
:10231000C4FD17F0010F00D162B6204600F024FB87
:102320005446C7E7C5F86490BDE8F84600F02CB9FC
:1023300038B5EFF3108472B6427ED31F012B1FD83D
:10234000036E13B91148742109E00025072A0566B8
:102350000AD15A8A15B2002D03DC0C487C21FEF705
:10236000BBFD013A5A8208E01A8A15B2002D02DC40
:1023700006488121F3E7013A1A82416601F006FD21
:1023800014F0010F00D162B638BD00BFDFEF0008C6
:1023900070B5124B06461D6810B10DB1AB681BB984
:1023A0000F485921FEF798FD00F0D6F8AB686BB1E5
:1023B0005C6A7CB11C6A204601F0E4F940B13462E9
:1023C0007062AB682246596A00F021FD002401E0EA
:1023D0006FF00B0400F0D8F8204670BD8C0A002086
:1023E000F3EF00080023044A044999500433B3F57D
:1023F000C47FF8D1704700BF400B0020151A0008B9
:1024000010B5044608B1806818B90B484D21FEF795
:1024100063FD00F08DFD22460121002005F0B4FB94
:1024200022460621012005F0AFFB062122460220AC
:1024300005F0AAFB002010BD05F00008F8B5044621
:10244000806810B91548D62106E0638B03F00303BA
:10245000012B03D11148D921FEF73EFD283004F0AD
:10246000F0FE0F4B1A68A3680BB1966816B90B48BB
:102470006121F1E703F12C072C360025B2681AB16F
:102480003046791904F002FF1035802D06F1100650
:10249000F4D12046BDE8F840FFF7B2BF20F00008B5
:1024A0008C0A002038B5044601F0BCFB58B1EFF3AC
:1024B000108572B60949204600F0E5FC15F0010FC1
:1024C00000D162B638BD01F04BF90028EFD12046AB
:1024D00001F052F9BDE8384001F048B9380B00204E
:1024E00000280BDB064B00F00F0203EBC201B1F931
:1024F0000410814202D153F8320070470020704727
:10250000AC0A002038B50D460446F0B1104B1BB1A3
:10251000B0F90C00AFF30080A28952B102F00F02B3
:102520000C4B002143F8321003EBC2034FF6FF724D
:102530009A80E36A1BB12046294601F097FB2046AA
:1025400000F07EFA2046FFF7ADFF002038BD00BF47
:1025500000000000AC0A002010B5094B1C6864B1F3
:1025600001F060FB48B9A38B1AB27E2A03DD05484F
:102570006921FEF7B1FC0133A383002010BD00BF29
:102580008C0A00203DF0000870B5144B1C681D46F5
:1025900014B301F047FBF8B9EFF3108672B6A38BC2
:1025A0000BB1013BA383B4F91C30002B10DC0023DA
:1025B000A3830B4B1B680BB101F03CFB638BDB0669
:1025C00006D5236A23B92B689C421CBF14232362BF
:1025D00016F0010F00D162B6002070BD8C0A0020F9
:1025E0002C0B0020F8B5438B9B0604460F4616467D
:1025F0002DD400F02DF8A5680DB9F6B915E0638B60
:1026000003F00303012B03D06B680BB13F021F6083
:102610006B78012BF1D100236B60B5F90230002BF0
:10262000EBDAA81CFFF76AFCF7E7A06828B143784B
:10263000012B02D1AC3000F0F9FA204600F000FA8C
:10264000204600F0B1F9638B43F020036383F8BDAB
:1026500038B50446EFF3108572B6406A30B100F029
:102660000FF8606A00F042F80023636215F0010F72
:1026700000D162B62046BDE8384000F0BFB9000086
:1026800038B50446EFF3108572B658B1037BDB070B
:1026900008D5144B1B6800205BB1A3420DD018462F
:1026A0001B68F9E74FF0FF3015F0010F00D162B65B
:1026B00038BD0D488121FEF70FFC23681BB19968D6
:1026C000A2680A449A6018B1064900F006FC02E0CC
:1026D000044800F0F8FB237B002023F00103206076
:1026E0002373E1E7000D002050F0000838B50446E0
:1026F00010B91648642121E0EFF3108572B6037B10
:10270000D90701D5FFF7BCFF237B9A0707D515F042
:10271000010F00D162B62046FFF7C4FE14E05B074C
:1027200012D420460A4900F0AEFB0A4A138801334E
:102730009BB2102B138003D904489321FEF7CCFBE6
:1027400015F0010F00D162B6002038BD61F000081D
:10275000F40C0020FC0C002038B5EFF3108572B6A5
:10276000427E052A10D1426B1AB1148814F4004F2E
:1027700003D108487021FEF7AFFB0134148000221A
:102780004263416601F002FB15F0010F00D162B611
:1027900038BD00BF72F0000838B54FF4A07000F0EB
:1027A000F1FF074B00F5A075186000F1140405490E
:1027B00000F069FBAC4201D02046F6E738BD00BF0F
:1027C000B8060020CC0C00202F4AF8B50023136077
:1027D00053602E4A136053602D4A136053602D4A94
:1027E000136053602C4A4FF4C0701360536000F0C4
:1027F000C9FF054600F5C076002200F118040275F5
:10280000224900F040FBB44201D02046F4E7234CBB
:10281000C020656000F0B6FF054600F1C007022247
:1028200000F1180602751A4900F02DFBBE4201D0D6
:102830003046F4E7A560FFF7AFFF4FF4807000F07B
:10284000A1FF054600F58077002200F11006027313
:10285000104900F018FBBE4201D03046F4E780205A
:10286000E56000F08FFF054600F18007022200F1CD
:1028700010060273084900F006FBBE4201D0304644
:10288000F4E72561F8BD00BFCC0C0020D40C00207B
:10289000DC0C0020EC0C0020E40C0020B80600202A
:1028A00037B583681BB90C487721FEF715FB00226A
:1028B0000192EFF3108572B69C692CB1217901A8C1
:1028C00000F0BDFA2468F8E715F0010F00D162B6F8
:1028D000019803B030BD00BF8AF0000810B5064B68
:1028E00004461B6828B11846FFF7DAFF2060002075
:1028F00010BD4FF0FF3010BD8C0A002038B50D46DA
:10290000044650B1FFF728FE246C24B1237CAB426F
:1029100001D02468F9E7FFF737FE204638BD0000F4
:1029200010B501F07FF940B10D4800F0CCFAA8B91C
:102930000C48BDE8104000F0C6BAEFF3108472B640
:10294000074800F0C0FA14F0010F00D162B628B9B0
:10295000182000F017FF08B10123037510BD00BF58
:10296000D40C0020DC0C002010B5037D23B9EFF35C
:10297000108472B60A4905E0022B0AD1EFF31084E5
:1029800072B6084900F07FFA14F0010F00D162B668
:1029900010BD012B03D1BDE81040FFF783BD10BD72
:1029A000D40C0020DC0C002010B5044604F14000DB
:1029B00000F089FA10B100F08DF8F7E704F1480053
:1029C00000F081FA10B1FFF7CFFFF7E704F15000F4
:1029D00000F079FA10B1FFF7C7FFF7E74FF0FF32C9
:1029E000A263E06310BD10B5044604F1180000F0C6
:1029F0006AFA10B1FFF732FBF7E710BD08B5437E66
:102A0000072B0BD1036E1BB15A8A11B2002902DCCD
:102A10000A4869210CE0013A5A8208BD082B0BD103
:102A2000036E1BB11A8A11B2002903DC034873211B
:102A3000FEF752FA013A1A8208BD00BF9FF0000863
:102A400038B5054620B913484FF4C771FEF744FA6C
:102A50008468ECB16378012B02D9013B637015E007
:102A60002046FFF7C0FF204600F092F804F128004E
:102A700004F0F6FB204600F081FA204600F0B2F8A0
:102A8000204600F0A5F82046FFF70CFD0023AB60C0
:102A900038BD00BFB3F000080A4A002310B5136028
:102AA0005360094A1C461360536008480549204496
:102AB000183400F0E8F9B4F5C07FF6D1044B1022C9
:102AC0001A8010BDF40C0020000D0020CC06002060
:102AD000FC0C0020014900F0D6B900BFCC0C00204E
:102AE0002DE9F041274B1F2880460E4615461F68EA
:102AF00007D9FFF7A7F9162303604FF0FF30BDE8B1
:102B0000F08138464146FFF7F9FE044655B130B131
:102B100043682B6083686B60C368AB6002E0286029
:102B20006860A8604EB335684DB9204644B307F1DC
:102B3000400100F0B2F92046FFF7CCFF1DE0B4B928
:102B4000114800F0C0F9044650B9FFF725FE0E48C1
:102B500000F0B9F9044618B90C486821FEF7BCF931
:102B600084F81080204607F1400100F08CF93368AA
:102B700063607368A360B368E3600020BDE8F08120
:102B8000BDE8F0818C0A0020CC0C0020C7F00008C2
:102B900038B5044618B90D486021FEF79DF9E5687F
:102BA0006DB1284650F80C3BE36000F02DF805F1BC
:102BB0000A0000F029F82846FFF774FCEFE704F15B
:102BC0000800BDE8384000F01FB800BFDBF0000887
:102BD00010B50446D4F8D00110B105F09BF9F9E71F
:102BE00010BD000010B5044618B906485221FEF782
:102BF00073F9406A08B1FFF755FC00232362636252
:102C000010BD00BFF5F0000808B530B1B0F90030D4
:102C1000002B09DB0123038006E0FFF713F91623DD
:102C200003604FF0FF3008BD002008BDF8B5064630
:102C3000D0B100F00FFA341D082700252368002BBF
:102C40000ADBA38B9B0707D52046012100F00FF874
:102C500035EA200528BF0546013F04F12404EDD1E3
:102C6000304600F009FA00E005462846F8BDF8B500
:102C70000368002B04460F463EDB838B9B073BD546
:102C800000F0A7F96669E3689E4206D1204600F08D
:102C9000BFF96069E368C01AF8BDA5699D4204D018
:102CA000204600F0B5F90020F8BD761B20682946C3
:102CB000324604F052FF00280BDAA37F43F00203F0
:102CC000A377204600F0A4F9FFF7BCF80068404263
:102CD000F8BD0544361A1FB9E36863612E4402E06B
:102CE000002EE3DCF8E7B542D0D063695A1C62617C
:102CF00015F8012B1A70F6E76FF00800F8BD000018
:102D000007B568B1084AB0FBF2F302FB1300009369
:102D10004FF47A73434300216846019309F08AFE19
:102D200003B05DF804FB00BF40420F0030B50A4B12
:102D30001B7843FA00F010F0010085B00C461546F0
:102D400008D06846012100F0E7FC684621462A4683
:102D500000F03DFB05B030BD500000200EB403B5BF
:102D600003AA52F8041B0192FFF7E0FF02B05DF8DE
:102D700004EB03B0704700BF30B50A4B1B7843FA31
:102D800000F010F0010085B00D46144607D001A8F0
:102D900000F076FC01A82946224600F018FB05B099
:102DA00030BD00BF500000200EB403B503AA52F896
:102DB000041B0192FFF7E0FF02B05DF804EB03B0E3
:102DC000704700BFEFF3108172B6044B1A78187089
:102DD00011F0010F00D162B610467047500000207C
:102DE00002440346934202D003F8011BFAE77047FE
:102DF0000023CA5CC2540133002AFAD1704703464B
:102E00001A46013311780029FAD1101A704710B50B
:102E10000023934203D0CC5CC4540133F9E710BDC6
:102E200008B528B1B2F5004F02D20280002008BDDB
:102E3000FFF708F8162303604FF0FF3008BD1F2985
:102E400007D8012303FA01F103680B430360002054
:102E500070474FF0FF3070471F2908D8012303FA4D
:102E600001F1036823EA01030360002070474FF07B
:102E7000FF3070471F299DBF0068C84000F0010067
:102E80004FF0FF307047002303600B680BB90860F8
:102E900001E04B681860486070470346086888B1D5
:102EA00083B1834209D11A680A604A68934209D102
:102EB00000234B6070472AB1104602689A42FAD14B
:102EC00000F00BB8704703682BB11A68026002B9B2
:102ED000426000221A60184670470A6803685AB1B7
:102EE00053B14A689A4214BF196848604FF0000213
:102EF0000CBF026001601A601846704700234360EF
:102F00000B6803600B6813B908604860704758602D
:102F100008607047426803680AB90B6000E01360FC
:102F20000BB94A6000E05A600023036043607047B9
:102F3000F8B5054618B910485C21FDF7CDFF00F142
:102F4000AC06304600210122FFF76AFF002405F19C
:102F5000B0072744002124223846FFF741FF3319E8
:102F60004FF0FF325A603846243400F025F8B4F5AB
:102F7000907FECD1F8BD00BF0BF1000870B505469D
:102F800018B90C489021FDF7A7FF00F1AC063046B8
:102F9000FFF73AFE002405F1B4002044FFF734FEA9
:102FA0003319186908B1FFF77DFA2434B4F5907F1E
:102FB000F1D170BD0BF1000810B5002104460122CB
:102FC0000430FFF72DFF4FF6FF73E3800023A3606B
:102FD00010BD38B50446FEF71FFFB4F90630834232
:102FE000054602D1A36801330EE0201DFEF73CFF29
:102FF00040B1FEF727FF0368042BF6D003486A218F
:10300000FDF76AFFE5800123A36038BD1DF10008CC
:1030100010B50446FEF700FFB4F90630834202D033
:103020000B487E2110E0A368012B02DD013BA36069
:1030300010BD4FF6FF73E3800023A360201DFEF751
:103040005DFF18B102488E21FDF746FF10BD00BF9D
:103050001DF1000810B504462046FEF705FF40B1FB
:10306000FEF7F0FE0368042BF6D002485121FDF76D
:1030700033FF10BD30F10008FEF740BF0A2238B51B
:10308000B1FBF2F3044602FB131513B11946FFF727
:10309000F5FF2368204605F13001984738BD38B563
:1030A00001F00705C908044601D0FFF7F8FF2368BF
:1030B000204605F13001984738BD38B501F00105CB
:1030C0004908044601D0FFF7F8FF2368204605F1C0
:1030D0003001984738BD2DE9F041194614461D4688
:1030E0008046002310460A2208F022FE00231646DE
:1030F00020460A22294608F01BFE02460B4652EAE9
:10310000030102D04046FFF7E6FFD8F80030404602
:1031100006F130019847BDE8F081F8B514461D4628
:1031200002F00707E20842EA4572EB0852EA03019F
:10313000064601D0FFF7F1FF3368304607F1300152
:103140009847F8BD38B502F001055B084FEA320236
:1031500052EA0301044601D0FFF7F4FF236820463A
:1031600005F13001984738BDF8B5012904461646E7
:103170001F46069D2DD0022916D012F0810F18BFD0
:1031800001355D1B002D05DD236820462021984771
:10319000013DF7E7310602D5236820461CE0F2071F
:1031A00021D5236820461CE0130602D503682D2193
:1031B00003E0D10703D503682B21984701357D1B18
:1031C000002D05DD2368204630219847013DF7E7B3
:1031D000F8BD320602D503682D2103E0F30702D5BE
:1031E00003682B219847F8BD2DE9F04100230446E0
:1031F0000F4690461C2527FA05F616F00F0101D15F
:1032000013B90BE0092903D823682046303103E0C5
:103210004144236820460A3998470123043D2A1D6A
:10322000E9D11BB92368204630219847BDE8F081D9
:10323000692970B504460D461E4612D006D862298B
:1032400034D064290DD0582935D110E070290ED022
:1032500002D86F291FD070BD752903D0782906D0F8
:1032600070BD20463146BDE87040FFF707BF9207AA
:1032700007D52368204630219847236820467821C7
:103280009847582D204631460CBF41226122BDE8A7
:103290007040FFF7A9BF930702D503683021984714
:1032A00020463146BDE87040FFF7F9BE1946BDE83B
:1032B0007040FFF702BF70BD2DE9F8439DF82090E4
:1032C000064614461D463C274FF000082046294676
:1032D0003A4608F021FD10F00F0103D1B8F1000FBC
:1032E00002D10CE0092903D833683046303103E0BD
:1032F0004944336830460A3998474FF00108043F83
:103300003B1DE3D1B8F1000F03D1336830463021C3
:103310009847BDE8F8832DE9F041692906460F4634
:10332000DDE906450FD006D8622935D064290AD0D8
:10333000582937D10EE0752906D078290AD06F298F
:103340001ED0BDE8F081304622462B46BDE8F04154
:10335000FFF7C1BE920707D5336830463021984742
:103360003368304678219847582F0CBF412361239A
:103370000693304622462B46BDE8F041FFF79CBF3E
:10338000930702D5036830219847304622462B46E2
:10339000BDE8F041FFF7C1BE22462B46BDE8F04133
:1033A000FFF7D0BEBDE8F08138B501290546049C81
:1033B0000CD112F0810F18BF01341C1B002C05DD4D
:1033C0002B68284620219847013CF7E738BD2DE9B6
:1033D000F04F804689B00F4691463978002900F0B9
:1033E000328125290CD0D8F80030404698473B78E8
:1033F0000A2B40F02681D8F804304046984720E157
:1034000000260137B346B246397819B1904800F02A
:1034100091F938B1397825294C4643D1D8F8003094
:10342000404669E03B782D2B33D0302B34D02A2B0B
:103430000AD1710709F10403D9F800202FD446F00E
:103440000806994692462BE0A3F13102082A11D8CA
:10345000303B3A46174612F8011F3039C8B20928E6
:1034600003D80A2000FB0313F4E716F0040F08BF8B
:103470009A4615E02E2B02D146F0040610E02B2BC5
:1034800002D146F001060BE0232B09D146F00206DB
:1034900006E04FF0010B03E04FF0020B00E099460D
:1034A0000137B1E773291FD16A4B2468002C08BF8C
:1034B0001C462046FFF7A3FC594600900546002213
:1034C00040465346FFF750FE09F10409013C14F849
:1034D000012F2AB1D8F80030404611469847F6E748
:1034E000009540465946A9E0632907D1D8F8003035
:1034F000216809F1040940469847A2E04C2902D10D
:1035000046F0400606E06C2909D17B786C2B03D08D
:1035100046F02006013702E046F0600602374E48CA
:10352000397800F007F9002800F08B8016F0400F82
:1035300039784AD0702948D009F1070929F00703E2
:10354000692903F10809D3E900450DD005D862299E
:1035500016D0642908D0582904E06F2912D37029A5
:103560000ED978290ED10BE0002C75F1000309DA91
:1035700006F0FE0646F08006644265EB450501E074
:1035800006F07E0605A8039100F092F805A80399BD
:103590003246CDE90045FFF7BEFEDDF81CC0CDF890
:1035A00000C04046594632465346CDF80CC0FFF79E
:1035B000DBFD39784046CDE900453246FFF7ABFEEA
:1035C000DDF80CC0CDF800C035E0692909F1040927
:1035D00024680DD005D8622912D0642908D0582952
:1035E00004E06F290ED370290AD978290AD107E09F
:1035F000002C07DA06F0FE0646F08006644201E081
:1036000006F07E0605A8039100F052F805A803997C
:1036100032462346FFF70CFE079D0095404659466B
:1036200032465346FFF7A0FD4046397832462346DE
:10363000FFF7FEFD00954046594632465346FFF7D8
:10364000B3FE0137C9E6D8F8080009B0BDE8F08F2D
:103650004CF1000845F100085FF1000810B5044680
:1036600018B906483D21FDF737FC0846FDF79EFADC
:10367000013002D0A3680133A36010BD68F10008D7
:10368000034B0360034B436000238360704700BF1C
:103690005D3600083137000808B518B903483421F1
:1036A000FDF71AFC83680133836008BD81F10008CF
:1036B000034B0360034B436000238360704700BFEC
:1036C000993600083137000837B504468DF80710E1
:1036D00010B1C368002B04DA0E483D2115E0042B1D
:1036E00015D1E0680DF10701012204F036FA012836
:1036F000054603D1A3680133A36008E0FEF7A2FBEF
:10370000002D0368EBDB03485221FDF7E5FB03B016
:1037100030BD00BF9BF10008034B0360034B4360C7
:1037200000238360C1607047C93600083137000844
:103730000020704750B1024610F8013B8B4203D085
:10374000002BF8D1184601E0104670477047000082
:1037500003460A460148194600F050B8080D0020FB
:10376000014800F079B800BF080D0020014800F0C2
:10377000ABB800BF080D00200146014800F0EEB8CC
:10378000080D00200146014800F03EB9080D002058
:103790000146014800F080B9080D00202DE9F041F4
:1037A0000A4401F10F0424F00F048168C56922F076
:1037B0000F02C4EB020C6144816000EB85052146D9
:1037C0000826EC6041F8086BEF684FF00048C7F836
:1037D0000480ACF11007A760A2F108074E606F618A
:1037E00042F8086CA4686A6944EA08045460C26933
:1037F0000132C261BDE8F04100F088B870B50E46F4
:10380000002104468160C161154620304FF4987252
:10381000FFF7E6FA04F130031220A3F11002013899
:1038200043F8083CDA6003F11003F6D1204600F0BB
:1038300007F8204631462A46BDE87040FFF7AEBF84
:1038400010B5002104460122FFF7EAFA4FF6FF7394
:1038500063800023636010BD38B50446FEF7DCFAD0
:10386000B4F902308342054604D1636801336360D2
:10387000002038BD204609F085F818B9012365807D
:10388000636038BD4FF0FF3038BD38B50446FEF7F1
:10389000C3FAB4F902308342054602D163680133AA
:1038A0000EE02046FEF7E0FA40B1FEF7CBFA0368DF
:1038B000042BF6D00348AB21FDF70EFB65800123F6
:1038C000636038BDB3F1000810B50446FEF7A4FAF2
:1038D000B4F90230834202D00B48C72110E063687C
:1038E000012B02DD013B636010BD4FF6FF73638067
:1038F000002363602046FEF701FB18B10248DC217B
:10390000FDF7EAFA10BD00BFB3F1000838B505466F
:1039100008680C4600F015F8821C05EB021205EB56
:103920000015AB6A3BB1196829B12068814202D207
:103930001A469B68F6E79460E260A36003B1DC601E
:1039400038BDB0F5800F07D203090020012B02D942
:1039500001305B08FAE770471220704770B50546E2
:103960000C4600294DD0FFF790FF54F8043C54F862
:10397000082C23F00043A4F1080144F8043C8B1800
:103980005868002818DB8A58D8681A4410B91D48AE
:1039900070211BE09E688660986808B1DE68C6608A
:1039A000186854F8083C034444F8083C506800F098
:1039B000004003435360134654F8042C8A1A50689D
:1039C000002816DBD16819B90E488921FDF784FA61
:1039D00090688860916809B1D068C86054F8080C94
:1039E000116801441160586800F0004001435960BB
:1039F00011462846FFF78AFF2846BDE87040FFF7CA
:103A000063BF70BDC4F1000870B50646002937D009
:103A100001F1170525F00F05FFF737FFB5F5800F0A
:103A200003D22846FFF78DFF00E0122006EB0010BE
:103A3000846A04B32368AB4224D2A468F9E7A2687D
:103A40009A60A3680BB1E268DA602268531B0F2BFF
:103A50000CD96119635122444D602560506800F013
:103A60000040034353603046FFF750FF636843F064
:103A70000043636008343046FFF726FF204670BDE0
:103A8000084670BDE368002BD9D102489421FDF7A8
:103A900023FA00BFD6F1000838B50D46FFF7B4FF92
:103AA000044618B100212A46FFF79AF9204638BD8E
:103AB00038B5044601200D46FDF78AFE044B1B680D
:103AC0002360C3F1005303F500332B6038BD00BF02
:103AD000E4E900084FF080504FF480310AF038BD1F
:103AE00030BF70472DE9F041437E174D023B012B5B
:103AF000064688462F6803D914485F21FDF7ECF984
:103B000008F024FC41460446304608F097FC104B70
:103B10001B681BB108F060FC2043C4B28CB10D4C93
:103B2000216807F1780031B100F016F82B6878337E
:103B30002360BDE8F0812968BDE8F041783100F0EC
:103B400056B9BDE8F08100BF8C0A0020EAF10008F8
:103B50002C0B0020780A0020814205D00023CA588F
:103B6000C2500433482BFAD1704738B5C36A0446B3
:103B70000D462BB1836A8B4202D0114600F076F8D5
:103B8000E36A1BB92846FFF703FEE062E36A6BB104
:103B90001A1F1544C3F1040325F0070525631D44CE
:103BA000A5620320FDF714FE002038BD4FF0FF3062
:103BB00038BD000008B5EFF3108372B608F01CFDA5
:103BC000024B1868783000F00DF900BF8C0A002015
:103BD00008B5094B00221A60FFF77CFFFDF7FAF8E1
:103BE00000F011F907F0DEFDFCF7B4FF0220BDE89C
:103BF0000840FDF7EDBD00BF780A002010B504466F
:103C0000002168305822FFF7EBF8236BA367236984
:103C100023F00103C4F8B8304FF08073C4F8BC300F
:103C200010BD0000024B1868003018BF012070471B
:103C3000780A002070B50B4C266808F0CDFB80B1E7
:103C4000094D296806F1780029B1FFF785FF23683F
:103C500078332B6070BD2168BDE87040783100F08A
:103C6000C6B870BD8C0A0020780A002010B5044642
:103C7000C06A18B1FEF716FC0023E3620023A362BA
:103C800010BD000010B5826E002A34D1EFF310840D
:103C900072B6194A1268904217D1184A12680AB9C6
:103CA000884724E08166116CC16651680167516CD8
:103CB000416713491164012151604FF080715164D3
:103CC00078301146FFF748FF11E0D0F8B820C266FF
:103CD000C26F0267D0F8BC204267094AC0F8B8201A
:103CE0000122C2674FF080728166C0F8BC2014F0D8
:103CF000010F00D162B610BD8C0A0020780A0020A6
:103D0000053D000830B5154B1C6893B00520656E65
:103D1000FDF75EFDA36E1BB911486321FDF7DCF8CA
:103D200004F178016846FFF717FFE36E1093626FA6
:103D3000236F11920021A26E0193A16613F0010F6F
:103D400000D162B620469047EFF3108372B605208B
:103D50006566FDF745FD684600F044F88C0A0020D2
:103D600001F200080346C06A073121F0070158B18B
:103D70009A6A8A4207D9186B401A511A18639867D1
:103D800099620430704700207047000070B5437E90
:103D9000114C043B042B0546266803D90F485921D2
:103DA000FDF79AF808F066FB14232B62284608F00A
:103DB0009DFA80B10A4D296806F1780029B1FFF714
:103DC000CBFE236878332B6070BD2168BDE870405E
:103DD000783100F00CB870BD8C0A002019F2000890
:103DE000780A002001464FF0010000DF70470A46C4
:103DF00001464FF0020000DF7047000008B508F0F0
:103E0000D5FB002008BD08B50B4B0C491A6822F001
:103E10007F4242F000421A60A3F60C53084A1A602F
:103E20000F20FDF7C9FD074B07221A600F20BDE8E0
:103E30000840FDF73FB800BF20ED00E0FD3D000861
:103E40007FA2190010E000E010B507F04BFF00F072
:103E500011F80020014600F04DF8044608F020FB60
:103E6000034922464C3009F0E9FE012010BD00BF95
:103E700032F2000800F000B837B51749D1F8002435
:103E800000243F32402300942046920907F0D4FEDC
:103E9000031E06DA1149124A5B420320FEF75EFF59
:103EA00016E0104D00941048104A2946012304F0F2
:103EB00051F80028A8BF20460CDAFDF7C3FF009593
:103EC0000368019303200A49054A074BFEF746FFA2
:103ED0004FF0FF3003B030BD5400002066F2000800
:103EE00059F2000896F200088CF200089BF20008D4
:103EF000A1F2000810B500F0ADF8044618B9064864
:103F00006A21FCF7E9FF00F043F9204600F07EFA51
:103F1000236A014620469847C9F200085C30704782
:103F200070B504460E4615463AB1806D08B109F0E9
:103F300014FE636D2B60A36D6B6000236665A36543
:103F400070BD38B50446856D08F0AAFA2830854260
:103F500007D108F0A5FA283009F0FFFD01236365B9
:103F600038BDA06D28B109F0F8FDA06D09F0CAFCBC
:103F700006E0606D002803DB012801D003F038FB68
:103F80004FF0FF3363650023A36538BD38B50D4698
:103F90000446FFF7D6FF2B6863656B68A36538BDE1
:103FA00010B50446FFF7CDFF2046BDE81040FFF7EF
:103FB000E3BB0C4608B5FFF7F3FF2046FDF734FFDF
:103FC0000EB417B5836D044633B106AAA06D0599EA
:103FD000019209F040FE08E0406D064909F068FCD6
:103FE000A0650028F1D14FF0FF3003B0BDE81040CC
:103FF00003B070474600010873B5836D04460D4653
:1040000016469BB1284601213246A36D09F056FDA4
:10401000051E15DA646DFDF715FF026800920A4966
:104020000A4A23460320FEF799FE09E0406D08493D
:1040300009F03EFCA0650028E4D14FF0FF3000E01D
:10404000284602B070BD00BFECF20008DBF20008A9
:104050004600010810B59C20FFF79AFB0446A8B162
:104060000B4B03600B4B83600B4BC3600B4B03612B
:104070000B4B43610B4B03620B4B83610B4BC361D7
:104080000123436508F00CFA2830A065204610BDD6
:10409000B1400008A13F0008F93F0008C13F0008F7
:1040A0001D3F0008B33F0008213F00088D3F000876
:1040B00008B5FFF7CFFF08BD2DE9F7438946114644
:1040C000044600F08DF80646002851D0636920466A
:1040D00098470746002844D030462849D4F82C8019
:1040E00009F0F5FB4FF0FF35E062D8B92569FDF71F
:1040F000A9FE036800932249224B4A462046A8475E
:10410000304600F0C1F8C4F82C8031E03846402138
:10411000E26A09F073FCF0B12046394600F0BCFEBB
:104120000546C0B908F0BCF9283009F016FDE06A70
:1041300009F040FC002398422063A386E6DAD4F815
:104140001090FDF77FFE0368009320460C490E4A4D
:104150000E4BC847DAE7E06A09F0D4FBC4F82C80BC
:1041600001E04FF0FF35304600F08EF8284601E0C0
:104170004FF0FF3003B0BDE8F08300BF40000108FE
:1041800028F4000810F3000816F300081BF30008D9
:1041900038B50546FEF7E0F9074B1C7801221A7086
:1041A000FEF7F2F934B928460449054ABDE838401B
:1041B000FFF782BF002038BD4C080020D0EE000879
:1041C00021F3000808B5044808F0D0FE034B00288E
:1041D00008BF184608BD00BF33F3000831F30008DC
:1041E000F8B507460C4609B10B780BB91F480CE02F
:1041F0002F2B01D1084608E0FFF7E4FF1C490546D4
:10420000204609F00FFF20B92846BDE8F84009F024
:1042100024BF2846174909F005FF60B92046FEF77C
:10422000EEFD0230FFF7AEFA0646B8B1124922465B
:1042300009F092FA18E02846FEF7E1FD064620460E
:10424000FEF7DDFD30440230FFF79CFA064628B148
:104250000A492A46234609F07FFA05E03B690849E6
:10426000084A3846984700263046F8BD31F3000822
:1042700058F300083EF3000842F3000840F300083A
:104280009BF4000846F3000808B1FFF775BA7047C1
:104290002DE9F341012906469046556803DC0024C8
:1042A000254625482AE02846244909F0BBFE002877
:1042B000F5D02846224909F0B5FE044650B92148F8
:1042C00008F054FE1C4B002808BF184609F0C5FE34
:1042D000054613E028461C4909F0A4FE044638B9F7
:1042E000FFF770FF09F0B9FE054609F06BFF05E026
:1042F00029463046FFF774FF0025044609F0E8FD23
:10430000074668B13769D8F80080FDF79BFD036860
:10431000009330460D490E4B4246B8474FF0FF37E9
:1043200015B12846FFF728FA14B12046FFF7ACFF75
:10433000384602B0BDE8F08131F3000855F30008BB
:1043400001FD000837F3000857F3000828F40008BF
:104350005AF30008F8B504460F4616460125BD423B
:104360002046236905DA054956F8042F9847013598
:10437000F5E7034998470020F8BD00BF60F3000847
:10438000E5F8000838B504460569FFF71BFF034947
:1043900002462046A847002038BD00BF87F8000825
:1043A000F7B50546916850681446012208F002FEF0
:1043B000071E0ADA24682E69FDF744FD036800939E
:1043C00028460349034B2246B047384603B0F0BDA8
:1043D00028F4000866F30008F7B50446506815464F
:1043E00008F044FE071E0ADA2D682669FDF72AFD4B
:1043F0000368009320460349034B2A46B0473846DA
:1044000003B0F0BD28F4000864F3000873B5044657
:1044100018B919486C21FCF75FFD1848A16D09F027
:10442000E7FBA06D09F099FBA16D154809F0E0FBD1
:10443000A06D09F092FB08F033F8064608F030F85A
:1044400004F15C0500F1280340212846321D00F0EC
:1044500067F8013004D02046294600F01DFDE0E752
:1044600001250095A06D0749074A084B09F0E6FBB6
:10447000284602B070BD00BF6DF3000849F5000882
:1044800043F5000828F400087BF3000887F30008D0
:1044900010B508B101B11AB90448B621FCF71CFDEA
:1044A0000069BDE8104003F058BB00BF90F300085E
:1044B00013B504468DF8071018B909489621FCF782
:1044C0000BFD20690DF10701012203F046FB0028D6
:1044D00003DAFDF7B7FC0368042BF2D002B010BD7D
:1044E00090F3000813B5044648B90C485E21FCF768
:1044F000F3FC0FDAFDF7A6FC0368042B07D1E06894
:104500000DF10701012203F07DF90028F1D14FF0F0
:10451000FF3001E09DF8070002B010BD90F30008E5
:1045200070B5064686B00D4602B11BB90A48E321B4
:10453000FCF7D2FC1468094A02920949094A019120
:1045400003921B68049401A831462A46059302F0A1
:1045500067FD06B070BD00BF90F30008B1440008CD
:10456000E54400089144000890F8373000EBC3039D
:1045700093F83C309A09032A02D113F0010310D0BA
:1045800090F83830184490F8390083070BD4830929
:10459000022B02D0032B01D007E0C04300F0010042
:1045A000704718467047002070470120704738B5A3
:1045B000056895F82530044613B1406803F018F8F3
:1045C000AB68284698470025A3689D4206DA04EBAD
:1045D00085030135D868FFF7CFF8F5E72046BDE839
:1045E0003840FFF7C9B870B5044625460C4E55F85B
:1045F0000C3F0C4932460320FEF7B0FBA16820684F
:104600002A4600F0D7FD0849E368054632460320F4
:10461000FEF7A4FB2046FFF7CAFF284670BD00BF87
:104620009BF300085BF5000866F5000890F837304A
:10463000033300EBC30393F824209209012A06D127
:10464000002280F82620881A4142414107E0022AD0
:104650000CD10022891A80F8262018BF012193F876
:10466000240061F3000083F8240010E090F8383053
:10467000034493F839209209012A0AD1002280F8D4
:10468000262093F8390061F3000083F839001046C2
:10469000704780F82610003118BF0121484270474A
:1046A0002DE9F0470D6881460E462C4615F8011B92
:1046B00011B9237833B917E02948FFF73BF80028F0
:1046C000F3D1F6E73E2B0CD163783E2B04D10234B4
:1046D00034602448BDE8F087013434602248BDE8E6
:1046E000F087232B03D134600020BDE8F087222B14
:1046F00008BF013404F101070CBFDFF87C80DFF84C
:104700006080BA4655460AF1010A297831B92A78FB
:104710002B464AB1002201351A7005E04046FFF7EA
:1047200009F80028EED0F2E735602378242B14D165
:1047300038460E4909F076FC40B90D4B99F82640F1
:104740009A1E002C0CBF1C46144606E0384608F0A2
:104750000DFC084C002818BF04462046BDE8F08731
:10476000A5F30008B0F30008AEF30008B3F30008A7
:10477000ABF30008ADF300087AF500082DE9F04F1F
:1047800097B00DF158080BAF04460D462C220021BE
:104790003846FEF725FB48F8405D002384F82430B6
:1047A00084F8253020464146FFF77AFF0546002869
:1047B00000F0CB81A64909F035FCA6495FFA80F9E3
:1047C000284609F02FFCB9F1000F02D010F0FF0FBE
:1047D00055D120464146FFF763FF824620B9236941
:1047E0009D499E4A2046CCE094F838B004EB0B0378
:1047F00093F839309B09012B00F0BF8094F83760A3
:1048000004EBC60393F83C30C3F38113033303F086
:104810000303012B40F2B180E36A002B00F0AD806E
:10482000236B002BC0F2A980012E03D923698C4988
:104830002046A5E0B9F1000F204614BF022501254E
:104840000393FFF791FE039BA28E0136F6B2134449
:10485000002284F83620F21C04EBC20284F8376090
:1048600092F8241004EBC60665F3871160F300018B
:1048700082F82410554686F83DB0336491E028460E
:10488000784909F0CFFBF0B941462046FFF708FF11
:1048900094F83730033304EBC303054693F8242020
:1048A000C2F38111033101F00301012904D9236905
:1048B0006D496C4A204664E042F0C00283F824202F
:1048C00000286ED142E12846684909F0ABFB002878
:1048D00046D120464146FFF7E3FE024618B1236960
:1048E0005D49204611E094F83700C31C04EBC30374
:1048F00093F824108D09032D03D023695A492046CB
:1049000003E020B923695A492046584A39E0C807CC
:1049100013D5E06A996A09F02FF8002809DA2569A9
:10492000FDF790FA03680093204652494F4A524BD4
:10493000A847012384F8363003E041F0010183F8F1
:10494000241094F83730DA1C04EBC202013B92F8D1
:1049500024106FF3871182F8241084F83730F4E0C4
:1049600094F8373004EBC30393F83C30C3F381135E
:10497000033303F00303012B13D823693A4920467C
:104980002A46984794F83C2002F03F02002342F068
:10499000010284F8363084F8373084F83C202364F0
:1049A000CDE028462D4909F03DFB8146002834D151
:1049B00020464146FFF774FE054618B9236926498B
:1049C00020469EE094F83860A31993F839309B098B
:1049D000012B03D123692449204692E0012E03D9FB
:1049E00023691F4920468CE00136F6B22046FFF7C6
:1049F000BBFD84F838602644D0F1010096F83930C8
:104A00004FF0010262F3871338BF002060F34103C7
:104A100069F3000386F8393098E02846174909F011
:104A200001FB68BB41462046FFF73AFE94F8383058
:104A30002344054693F839209109012904D02369BC
:104A400009490E4A20466EE0022161F3871231E0E7
:104A50007CF5000882F50008B5F3000888F5000829
:104A6000F4F300088BF50008D0F300088EF5000879
:104A70000FF4000828F4000893F5000899F50008E1
:104A80002846964909F0CEFAB8B941462046FFF7C4
:104A900007FE94F838302344054693F839209109ED
:104AA000022908BF42F0C00204D023698C498B4A16
:104AB000204638E083F8392048E02846894909F043
:104AC000B1FA20BB20464146FFF7EAFD054618B182
:104AD0002369854920460EE094F83830E21892F8B0
:104AE0003920C2F38112023202F00302012A04D9F2
:104AF00023697B4920467B4A15E023B923697B491A
:104B000020467B4A0FE0013B84F838301EE094F8E1
:104B10003830234493F839309B09012B16D123698F
:104B20006F4920462A46984794F83930002203F00E
:104B30003D0362F3000384F8382084F839302046BE
:104B40000121FFF773FD044697E100250023A362CE
:104B5000002D31D02846674909F064FA00282DD18C
:104B60000A23A36220464146FFF79AFD054618B383
:104B7000614909F057FA064600BB20464146FFF757
:104B80008FFD8146D0B108A9324609F0B1F8A06284
:104B90001430272804D8089B4B4501D01B782BB133
:104BA00023695149534A20469847C8E72046414661
:104BB000FFF776FD054608B900245EE12046FFF7C1
:104BC000D3FC0028F8D00B95012620464146FFF77C
:104BD00067FD47F8260010B101360A2EF5D116A957
:104BE00001EB86030022012E43F82C2C00F00481F7
:104BF00006F1FF3801EB8809404959F82C0C09F0FF
:104C000011FA28B9012384F8243049F82C0C4646BF
:104C1000022E40F3F180A6F1020816AB03EB8809DF
:104C2000374959F82C0C09F0FDF978B916A901EBB0
:104C30008606012356F8301C84F825302046FFF7FD
:104C4000CFFA464681464FF0260818E059F82C0C5A
:104C50002C4909F0E7F978B9012384F8253016AB1F
:104C600003EB8606204656F8301CFFF7B9FA464695
:104C700081464FF0160802E04FF00008C146062EAC
:104C800004DD2369204920462A469847CDF8008054
:104C900020460B993A464B4601F0A8FE002804DB5B
:104CA00020460CBF002101219CE094F825308BB3F5
:104CB000484641464FF4DB7202F031FDB0F1000A84
:104CC0002ADA0B9E2569FDF7BDF80368009320469C
:104CD0000E490F4B3246A84782E000BF9EF5000800
:104CE000D0F30008A3F50008B5F300080FF400089E
:104CF00088F50008A6F50008ABF50008AEF5000839
:104D0000AEF30008B0F3000840F4000828F40008EF
:104D100011F300084FF0FF3A94F8243043B32368AE
:104D2000204698470546D8B13820FEF731FD804629
:104D300098B180E8200486604FF0000B4FEA8B03A7
:104D400057F82B00039309F088F9039B0BF1010B33
:104D50004344B345D860F1DB24E0AB68284698476C
:104D600094F82530002B3BD0504602F041FC37E050
:104D700094F8253023B1A3692046514608AA9847E4
:104D8000204631463A4600F015FA94F8253005469B
:104D90001BB1E369204608A99847002D20DB204677
:104DA00000211FE094F8253023B1AB692846514615
:104DB00000229847002007A907F082FB00B30B9F51
:104DC0002669FDF73FF8036800932E492E4B2046D5
:104DD0003A46B0474046FFF7EAFBAB68284698479B
:104DE00020460121FFF722FC0446B9F1000F44D010
:104DF0004846FFF749FA40E04FF00008C14645E752
:104E0000A36A002B11D0079E4FF00200C3EB0606E9
:104E100005DA09F0B5F8B042A8BF304604E009F061
:104E2000B6F8B042B8BF3046079008A809F042F97A
:104E3000022108A809F04AF907A908A809F04FF9C2
:104E40000DF1160008A9114A434607F073FE30B170
:104E5000009026690B490B9A0D4B2046B9E7BDF926
:104E6000160007F031FF079A0092BDF91630256948
:104E700008490B9A2046A84791E7204617B0BDE89D
:104E8000F08F00BF28F40008B0F50008E7450008DF
:104E9000BEF50008CDF500082DE9F84300230446CF
:104EA0000F4680F836300D460E4694F83690B9F12C
:104EB000000F32D1EB1BA3862846194909F0BFF831
:104EC0002B5C2A182BB920463146BDE8F843FFF782
:104ED00055BC0A2BF7D0232BF5D03B2B02F1010058
:104EE00009D1804682F8009020463146FFF746FC03
:104EF000A0B945460FE02221FEF71CFC48B9094A3B
:104F00002569094920461346A8474FF0FF30BDE800
:104F1000F883451CB0464646C7E70020BDE8F88345
:104F20005DF400087AF5000862F4000890F8373064
:104F3000033300EBC30393F824209209032A09D119
:104F400093F8252080F8382093F824206FF300028E
:104F500083F824200020704708B5034903691268CC
:104F600098474FF0FF3008BDCCF400080020704790
:104F70004FF0FF30704708B50021036A984710B51D
:104F8000CB6804690A461BB103491268A04710BDEB
:104F900002491268A04710BD7CF8000885F8000897
:104FA0002DE9F041114D04460F4655F8100CA5F1BE
:104FB000100880B1394609F035F81035064600284A
:104FC000F3D123690A4920463A469847204641468C
:104FD000FFF7D5FF06E02369064920463A46984781
:104FE0004FF0FF363046BDE8F08100BFECF5000819
:104FF0008BF80008CCF400080129F8B504460E46E9
:10500000174674DD5068554909F00CF820B9022E96
:1050100008D00222012301E00122002357F8225088
:105020000BB962E0054623694D492046984723693C
:105030004C492046984723694B49204698472369A5
:105040004A49204698472369494920469847236999
:10505000484920469847236947492046984723698D
:105060004449204698472369444920469847236984
:105070003D4920469847236941492046984723697E
:1050800040492046984723693A4920469847236972
:105090003D4920469847236933492046984723696C
:1050A0003A4920469847236936492046984723695C
:1050B000304920469847236933492046984725B10F
:1050C00020462946FFF76CFF45E023693049314D02
:1050D00020469847A5F11001103555F8203C002BCB
:1050E00029D02046FFF74BFFF4E7002DE8D12A49ED
:1050F0002046FFF755FF2369284920469847002599
:1051000023692749274F2046984707EB05170026B4
:105110007319292B08D0320123692349BA58204634
:10512000073698472A2EF3D123691C4920460135BA
:105130009847072DE4D123691C492046984700254C
:10514000284606F0B1FD024628B1236918492046D9
:1051500098470135F4E70020F8BD00BF95F8000836
:1051600098F80008ACF80008E7F80008EBF8000829
:10517000F7F80008FFF8000818F9000820F90008FF
:1051800027F9000836F900083CF9000845F900083D
:1051900054F90008ECF500087CF90008E5F800086F
:1051A000E7010108DCF5000881F900086CF9000846
:1051B00085F800082DE9F843164DD2F80080044622
:1051C0000E46914655F8100CA5F11007D0B1414696
:1051D00008F028FF10350028F4D13B7A9E4203DA0C
:1051E00023690D49204607E07B7A9E42D8BF7B6841
:1051F00009DD236909492046424698474FF0FF30B0
:10520000BDE8F883064B204631464A469847BDE83C
:10521000F88300BFECF5000805F5000840F400082D
:10522000594F000838B50C460C49054608F0FAFEFF
:1052300028B90B490B48224608F08EFA05E00948C8
:1052400009492A46234608F087FA0648002380F8D1
:105250008130BDE8384008F000BF00BF3EF30008D1
:1052600042F300084D08002040F300082DE9F04704
:1052700013F0030F8CB004468846164699467DD03D
:1052800008465AB1511CFFF7CDFF05A9074602F0A9
:105290008BFB05463846FEF76FFA03E005A902F0DE
:1052A00083FB0546D4F810A05DB1FCF7CBFD036885
:1052B000009320464449454A454BD0474FF0FF30C4
:1052C0007FE019F0020F51D0424F386879683A896F
:1052D000BB7A02AD03C52A80AB70059D05F470470B
:1052E000B7F5804F01D164230DE0B7F5005F01D120
:1052F000632308E0B7F5C04F01D1622303E0B7F59F
:10530000004F02D03F238DF80830EF0544BF7223D1
:105310008DF80930280644BF77238DF80A306906D6
:1053200044BF78238DF80B30AA0644BF72238DF852
:105330000C30EB0644BF77238DF80D302F0744BFA8
:1053400078238DF80E30680744BF72238DF80F3034
:10535000A90744BF77238DF81030EA0744BF7823AC
:105360008DF8113020461C4902AAD04719F0010FD0
:1053700004D023691949069A204698472369DEB16B
:10538000751C204614492A46984733781B070DD5CB
:105390002846134908F046FE40B12846114908F056
:1053A00041FE18B123691049204602E023690F49E4
:1053B00020469847002004E020460D494246984781
:1053C00030460CB0BDE8F08728F4000829FB00083F
:1053D000E8FC0008F8FC0008EDFC0008F1FC0008FF
:1053E00058F3000857F30008F5FC0008E5F800083A
:1053F00086F800082DE9F341064608460D46174693
:10540000984602F079FC044648B9009534690F4982
:105410000F4A104B3046A0474FF0FF3012E02046B5
:1054200002F0E8FC024640B1304629464346B84700
:105430000028F4DA4FF0FF3500E00546204602F080
:105440002AFC284602B0BDE8F08100BFB3F4000892
:1054500029FB000803FD0008F8B51F46137803F088
:10546000080306460D4603F0FF04002B29D0541C08
:105470002046154908F0D6FD08B9002421E0204651
:10548000124908F0CFFD0028F7D021462846FFF743
:10549000C9FE054633690E492A46304698473046CC
:1054A00029460C4A3B46FFF7A5FF044648B930465B
:1054B0002946094A3B46FFF79DFF04462846FEF76A
:1054C0005BF92046F8BD00BF58F3000857F3000809
:1054D0000DFD00086D520008595400082DE9F04FE9
:1054E00087B004460591914600250127059B9F4200
:1054F00080F28780002D40F08480204659F82710E4
:10550000FEF76EFE0490002877D00121D9F80060E4
:1055100002F005F9B0F1000A09DA2569FCF792FCFE
:105520000368009320463949394B32460EE04FF468
:105530000070FEF727F9804630BB2569FCF782FC36
:10554000036800933149334B20463246A8474FF059
:10555000FF354EE043D04FF0000B6246CDF80CC053
:10556000E3682046414698470028DDF80CC032DA4F
:10557000FCF768FC03682569042B22D120462649E4
:105580003246A8474FF0FF35504641464FF400726F
:1055900002F038F9B0F1000CDCDAFCF753FC0368D8
:1055A0002569042B04D120461B493246A84705E053
:1055B000009320461549194B3246A8474FF0FF3556
:1055C0000DE0FCF73FFC0368009320460F49144BA5
:1055D0003246A847D6E78344E345BEDBD4E72369D8
:1055E000104920469847504602F002F84046FEF720
:1055F000C3F80498FEF748FE01E04FF0FF3501378D
:1056000074E7284607B0BDE8F08F00BF28F4000813
:1056100011F3000812FD00087BF400089BFD000850
:10562000A7FD0008E5F800082DE9F04F8DB051689E
:1056300004461546FEF7D4FD8346002800F0BF80DF
:10564000012102F06CF8B0F100090DDA26692D682D
:10565000FCF7F8FB0368009320465E495E4B2A4640
:10566000B0474FF0FF36A6E02046A968FEF7B8FD28
:105670008046002800F09A8005A902F095F90646B8
:1056800000282FD1059B03F47043B3F5804F22D13E
:10569000AF683846FDF7B3FB0138002805DD3A5CFA
:1056A0002F2A02D100223A54F6E76868AF6808F062
:1056B00065FD01463846FFF7B5FD074628B9236961
:1056C00046492A68204698477CE04046FEF7DCFDC4
:1056D000B846262108E0B3F5004F14BF0221262169
:1056E000074601E02621002740464FF4DB7202F016
:1056F00016F8B0F1000A19DA2D68D4F810A0FCF7FA
:10570000A1FB0368009320463249334B2A46D04719
:1057100047E014DB1A4650463149039302F01DFA64
:105720000028039B1EDB1B1A002BF3DC48462C4988
:105730004FF4007202F066F8031EEAD12DE0FCF788
:1057400081FB0368D4F810C0042B12D02D68CDF86B
:105750000CC0FCF777FB0368009320461D49214BE2
:105760002A4616E0FCF76EFB0368D4F810C0042B41
:1057700004D120461C492A68E0470FE02D68CDF887
:105780000CC0FCF75FFB036800931249174B2046DF
:105790002A46DDF80CC0E04700E01E46504601F006
:1057A00027FF7FB13846FDF7E7FF01E04FF0FF36F6
:1057B000484601F01DFF5846FEF766FD06E04FF033
:1057C000FF3603E04046FEF75FFDF1E730460DB0DF
:1057D000BDE8F08F28F4000811F300089BF40008DE
:1057E0004D0800209BFD00087BF40008A7FD000881
:1057F0002DE9F04F85B0002704468A461546BB4682
:105800000397B946B846484A5046294608F0DCFA9C
:10581000421C034620D06F2B0FD0722B0AD0642B72
:1058200013D1424B20461968FEF7DAFC4FF001090C
:105830008046E8E701230393E5E73C4B0021186825
:105840000A2208F055FA8346DDE7236938492A68B9
:10585000204698470127D6E7002F55D1354EB9F19C
:10586000000F20D13168481C504512DA55F821103C
:105870002046FEF7B5FC33680133336055F823103A
:1058800080462046FEF7ACFC3368013307463360A0
:1058900009E026690293204627492A68B047029BFF
:1058A0004F461E4632E03368534507DA23692349E1
:1058B0002A68204698474FF0FF3627E0B9F1000FDD
:1058C0000DD0404606F004F9061E1FDA734200931D
:1058D000D4F810C01A492A681A4B204612E0039BDC
:1058E0000093404639464FF400725B4606F064F878
:1058F000061E0BDA73420093D4F810C010492A68D0
:10590000114B2046E04701E006460027B8F1000FA2
:1059100002D04046FDF730FF17B13846FDF72CFFA7
:10592000304605B0BDE8F08F19FD0008980E002044
:10593000B5F30008DC04002005F5000840F4000879
:1059400028F400081FFD0008E3FA00082DE9F043E1
:105950004FF000098BB00446884617464D463D4A35
:105960004046394608F030FA421C064616D06C2EE6
:1059700006D0732E07D0522E08D145F00405EEE76D
:1059800045F00305EBE745F00105E8E723693249F7
:105990003A68204698474FF00109E0E7B9F1000F57
:1059A00002D04FF0FF3052E02C4B1B685A1C42458E
:1059B00005DA23692A493A6820469847F1E74345C2
:1059C00003DBFEF7FFFB014601E057F823102046FA
:1059D000FEF706FC06460028E3D003A901F0E4FF29
:1059E00000280DDA3F682569FCF72CFA036800935C
:1059F0003A4620461B491C4BA8474FF0FF3722E090
:105A0000039B03F47043B3F5804F06D02046314624
:105A100000222B46FFF72AFC14E023691349324683
:105A20002046984720463146114A2B46FFF7E2FCB4
:105A3000074640B96B0706D5204631460D4A2B462E
:105A4000FFF7D8FC07463046FEF71EFC38460BB081
:105A5000BDE8F0832AFD0008B5F30008DC0400204F
:105A600040F4000828F40008E8FC00080DFD0008D8
:105A70006D520008595400082DE9F341516805465C
:105A80001646FEF7ADFB0746A8B140F2FF1101F044
:105A9000F4FD041E0BDA3668D5F81080FCF7D2F955
:105AA0000368009328460749074B3246C0473846EB
:105AB000FEF7EAFB01E04FF0FF34204602B0BDE8FC
:105AC000F08100BF28F4000870FB00082DE9F041C8
:105AD000394E0446884617460FCE8AB002AD0FC530
